{
	"Admin.sol": {
		"Admin": {
			"abi": [
				{
					"inputs": [],
					"stateMutability": "nonpayable",
					"type": "constructor"
				},
				{
					"anonymous": false,
					"inputs": [
						{
							"indexed": true,
							"internalType": "address",
							"name": "doctor",
							"type": "address"
						},
						{
							"indexed": true,
							"internalType": "address",
							"name": "patient",
							"type": "address"
						},
						{
							"indexed": false,
							"internalType": "string",
							"name": "treatment",
							"type": "string"
						}
					],
					"name": "MedicationPrescribed",
					"type": "event"
				},
				{
					"anonymous": false,
					"inputs": [
						{
							"indexed": true,
							"internalType": "address",
							"name": "ethAddress",
							"type": "address"
						},
						{
							"indexed": false,
							"internalType": "string",
							"name": "name",
							"type": "string"
						}
					],
					"name": "UserActivated",
					"type": "event"
				},
				{
					"anonymous": false,
					"inputs": [
						{
							"indexed": true,
							"internalType": "address",
							"name": "ethAddress",
							"type": "address"
						},
						{
							"indexed": false,
							"internalType": "string",
							"name": "name",
							"type": "string"
						}
					],
					"name": "UserDeactivated",
					"type": "event"
				},
				{
					"anonymous": false,
					"inputs": [
						{
							"indexed": true,
							"internalType": "address",
							"name": "ethAddress",
							"type": "address"
						},
						{
							"indexed": false,
							"internalType": "string",
							"name": "name",
							"type": "string"
						}
					],
					"name": "UserDeleted",
					"type": "event"
				},
				{
					"anonymous": false,
					"inputs": [
						{
							"indexed": true,
							"internalType": "address",
							"name": "ethAddress",
							"type": "address"
						},
						{
							"indexed": false,
							"internalType": "string",
							"name": "name",
							"type": "string"
						}
					],
					"name": "UserRegistered",
					"type": "event"
				},
				{
					"anonymous": false,
					"inputs": [
						{
							"indexed": true,
							"internalType": "address",
							"name": "ethAddress",
							"type": "address"
						},
						{
							"indexed": false,
							"internalType": "string",
							"name": "name",
							"type": "string"
						},
						{
							"indexed": false,
							"internalType": "uint256",
							"name": "role",
							"type": "uint256"
						}
					],
					"name": "UserRoleChanged",
					"type": "event"
				},
				{
					"inputs": [
						{
							"internalType": "address",
							"name": "",
							"type": "address"
						}
					],
					"name": "UsersDetails",
					"outputs": [
						{
							"internalType": "enum Admin.Titles",
							"name": "title",
							"type": "uint8"
						},
						{
							"internalType": "string",
							"name": "firstname",
							"type": "string"
						},
						{
							"internalType": "string",
							"name": "lastname",
							"type": "string"
						},
						{
							"internalType": "string",
							"name": "location",
							"type": "string"
						},
						{
							"internalType": "address",
							"name": "ethAddress",
							"type": "address"
						},
						{
							"internalType": "enum Admin.Roles",
							"name": "role",
							"type": "uint8"
						},
						{
							"internalType": "enum Admin.CurStatus",
							"name": "status",
							"type": "uint8"
						},
						{
							"internalType": "bool",
							"name": "exists",
							"type": "bool"
						}
					],
					"stateMutability": "view",
					"type": "function"
				},
				{
					"inputs": [
						{
							"internalType": "address",
							"name": "userAddress",
							"type": "address"
						}
					],
					"name": "activateUser",
					"outputs": [],
					"stateMutability": "nonpayable",
					"type": "function"
				},
				{
					"inputs": [
						{
							"internalType": "address",
							"name": "userAddress",
							"type": "address"
						},
						{
							"internalType": "uint256",
							"name": "role",
							"type": "uint256"
						}
					],
					"name": "changeRole",
					"outputs": [],
					"stateMutability": "nonpayable",
					"type": "function"
				},
				{
					"inputs": [
						{
							"internalType": "address",
							"name": "userAddress",
							"type": "address"
						}
					],
					"name": "deactivateUser",
					"outputs": [],
					"stateMutability": "nonpayable",
					"type": "function"
				},
				{
					"inputs": [
						{
							"internalType": "address",
							"name": "userAddress",
							"type": "address"
						}
					],
					"name": "deleteUser",
					"outputs": [],
					"stateMutability": "nonpayable",
					"type": "function"
				},
				{
					"inputs": [],
					"name": "getAllPatientsForDoctor",
					"outputs": [
						{
							"components": [
								{
									"internalType": "enum Admin.Titles",
									"name": "title",
									"type": "uint8"
								},
								{
									"internalType": "string",
									"name": "firstname",
									"type": "string"
								},
								{
									"internalType": "string",
									"name": "lastname",
									"type": "string"
								},
								{
									"internalType": "string",
									"name": "location",
									"type": "string"
								},
								{
									"internalType": "address",
									"name": "ethAddress",
									"type": "address"
								},
								{
									"internalType": "enum Admin.Roles",
									"name": "role",
									"type": "uint8"
								},
								{
									"internalType": "enum Admin.CurStatus",
									"name": "status",
									"type": "uint8"
								},
								{
									"internalType": "bool",
									"name": "exists",
									"type": "bool"
								},
								{
									"components": [
										{
											"internalType": "address",
											"name": "doctor",
											"type": "address"
										},
										{
											"internalType": "string",
											"name": "doctorName",
											"type": "string"
										},
										{
											"internalType": "string",
											"name": "doctorLocation",
											"type": "string"
										},
										{
											"internalType": "string",
											"name": "treatment",
											"type": "string"
										},
										{
											"internalType": "string",
											"name": "notes",
											"type": "string"
										}
									],
									"internalType": "struct Admin.Prescription[]",
									"name": "prescriptions",
									"type": "tuple[]"
								}
							],
							"internalType": "struct Admin.UserInfo[]",
							"name": "",
							"type": "tuple[]"
						}
					],
					"stateMutability": "view",
					"type": "function"
				},
				{
					"inputs": [],
					"name": "getAllUsers",
					"outputs": [
						{
							"components": [
								{
									"internalType": "enum Admin.Titles",
									"name": "title",
									"type": "uint8"
								},
								{
									"internalType": "string",
									"name": "firstname",
									"type": "string"
								},
								{
									"internalType": "string",
									"name": "lastname",
									"type": "string"
								},
								{
									"internalType": "string",
									"name": "location",
									"type": "string"
								},
								{
									"internalType": "address",
									"name": "ethAddress",
									"type": "address"
								},
								{
									"internalType": "enum Admin.Roles",
									"name": "role",
									"type": "uint8"
								},
								{
									"internalType": "enum Admin.CurStatus",
									"name": "status",
									"type": "uint8"
								},
								{
									"internalType": "bool",
									"name": "exists",
									"type": "bool"
								},
								{
									"components": [
										{
											"internalType": "address",
											"name": "doctor",
											"type": "address"
										},
										{
											"internalType": "string",
											"name": "doctorName",
											"type": "string"
										},
										{
											"internalType": "string",
											"name": "doctorLocation",
											"type": "string"
										},
										{
											"internalType": "string",
											"name": "treatment",
											"type": "string"
										},
										{
											"internalType": "string",
											"name": "notes",
											"type": "string"
										}
									],
									"internalType": "struct Admin.Prescription[]",
									"name": "prescriptions",
									"type": "tuple[]"
								}
							],
							"internalType": "struct Admin.UserInfo[]",
							"name": "",
							"type": "tuple[]"
						}
					],
					"stateMutability": "view",
					"type": "function"
				},
				{
					"inputs": [
						{
							"internalType": "address",
							"name": "patientAddress",
							"type": "address"
						}
					],
					"name": "getPatientPrescriptions",
					"outputs": [
						{
							"components": [
								{
									"internalType": "address",
									"name": "doctor",
									"type": "address"
								},
								{
									"internalType": "string",
									"name": "doctorName",
									"type": "string"
								},
								{
									"internalType": "string",
									"name": "doctorLocation",
									"type": "string"
								},
								{
									"internalType": "string",
									"name": "treatment",
									"type": "string"
								},
								{
									"internalType": "string",
									"name": "notes",
									"type": "string"
								}
							],
							"internalType": "struct Admin.Prescription[]",
							"name": "",
							"type": "tuple[]"
						}
					],
					"stateMutability": "view",
					"type": "function"
				},
				{
					"inputs": [
						{
							"internalType": "address",
							"name": "doctorAddress",
							"type": "address"
						}
					],
					"name": "getPrescriptionsByDoctor",
					"outputs": [
						{
							"components": [
								{
									"internalType": "address",
									"name": "doctor",
									"type": "address"
								},
								{
									"internalType": "string",
									"name": "doctorName",
									"type": "string"
								},
								{
									"internalType": "string",
									"name": "doctorLocation",
									"type": "string"
								},
								{
									"internalType": "string",
									"name": "treatment",
									"type": "string"
								},
								{
									"internalType": "string",
									"name": "notes",
									"type": "string"
								}
							],
							"internalType": "struct Admin.Prescription[]",
							"name": "",
							"type": "tuple[]"
						}
					],
					"stateMutability": "view",
					"type": "function"
				},
				{
					"inputs": [
						{
							"internalType": "uint256",
							"name": "index",
							"type": "uint256"
						}
					],
					"name": "getUserByIndex",
					"outputs": [
						{
							"internalType": "uint256",
							"name": "title",
							"type": "uint256"
						},
						{
							"internalType": "string",
							"name": "firstname",
							"type": "string"
						},
						{
							"internalType": "string",
							"name": "lastname",
							"type": "string"
						},
						{
							"internalType": "string",
							"name": "location",
							"type": "string"
						},
						{
							"internalType": "address",
							"name": "ethAddress",
							"type": "address"
						},
						{
							"internalType": "uint256",
							"name": "role",
							"type": "uint256"
						},
						{
							"internalType": "uint256",
							"name": "status",
							"type": "uint256"
						}
					],
					"stateMutability": "view",
					"type": "function"
				},
				{
					"inputs": [
						{
							"internalType": "address",
							"name": "userAddress",
							"type": "address"
						}
					],
					"name": "getUserInfo",
					"outputs": [
						{
							"internalType": "uint256",
							"name": "title",
							"type": "uint256"
						},
						{
							"internalType": "string",
							"name": "firstname",
							"type": "string"
						},
						{
							"internalType": "string",
							"name": "lastname",
							"type": "string"
						},
						{
							"internalType": "string",
							"name": "location",
							"type": "string"
						},
						{
							"internalType": "address",
							"name": "ethAddress",
							"type": "address"
						},
						{
							"internalType": "uint256",
							"name": "role",
							"type": "uint256"
						},
						{
							"internalType": "uint256",
							"name": "status",
							"type": "uint256"
						}
					],
					"stateMutability": "view",
					"type": "function"
				},
				{
					"inputs": [],
					"name": "getUsersCount",
					"outputs": [
						{
							"internalType": "uint256",
							"name": "count",
							"type": "uint256"
						}
					],
					"stateMutability": "view",
					"type": "function"
				},
				{
					"inputs": [],
					"name": "hospitalAdmin",
					"outputs": [
						{
							"internalType": "address",
							"name": "",
							"type": "address"
						}
					],
					"stateMutability": "view",
					"type": "function"
				},
				{
					"inputs": [
						{
							"internalType": "address",
							"name": "patientAddress",
							"type": "address"
						},
						{
							"internalType": "string",
							"name": "treatment",
							"type": "string"
						},
						{
							"internalType": "string",
							"name": "notes",
							"type": "string"
						}
					],
					"name": "prescribeMedication",
					"outputs": [],
					"stateMutability": "nonpayable",
					"type": "function"
				},
				{
					"inputs": [
						{
							"internalType": "address",
							"name": "ethAddress",
							"type": "address"
						},
						{
							"internalType": "uint256",
							"name": "title",
							"type": "uint256"
						},
						{
							"internalType": "string",
							"name": "firstname",
							"type": "string"
						},
						{
							"internalType": "string",
							"name": "lastname",
							"type": "string"
						},
						{
							"internalType": "string",
							"name": "location",
							"type": "string"
						},
						{
							"internalType": "uint256",
							"name": "role",
							"type": "uint256"
						}
					],
					"name": "registerNewUser",
					"outputs": [],
					"stateMutability": "nonpayable",
					"type": "function"
				},
				{
					"inputs": [],
					"name": "viewMyDoctors",
					"outputs": [
						{
							"components": [
								{
									"internalType": "address",
									"name": "doctorAddress",
									"type": "address"
								},
								{
									"internalType": "string",
									"name": "doctorName",
									"type": "string"
								},
								{
									"internalType": "string",
									"name": "doctorLocation",
									"type": "string"
								}
							],
							"internalType": "struct Admin.Doctor[]",
							"name": "",
							"type": "tuple[]"
						}
					],
					"stateMutability": "view",
					"type": "function"
				}
			],
			"devdoc": {
				"kind": "dev",
				"methods": {},
				"version": 1
			},
			"evm": {
				"assembly": "    /* \"Admin.sol\":60:11891  contract Admin {\r... */\n  mstore(0x40, 0x80)\n    /* \"Admin.sol\":119:178  constructor() {\r... */\n  callvalue\n  dup1\n  iszero\n  tag_1\n  jumpi\n  0x00\n  dup1\n  revert\ntag_1:\n  pop\n    /* \"Admin.sol\":144:157  hospitalAdmin */\n  0x00\n    /* \"Admin.sol\":144:170  hospitalAdmin = msg.sender */\n  dup1\n  sload\n  not(sub(shl(0xa0, 0x01), 0x01))\n  and\n    /* \"Admin.sol\":160:170  msg.sender */\n  caller\n    /* \"Admin.sol\":144:170  hospitalAdmin = msg.sender */\n  or\n  swap1\n  sstore\n    /* \"Admin.sol\":60:11891  contract Admin {\r... */\n  dataSize(sub_0)\n  dup1\n  dataOffset(sub_0)\n  0x00\n  codecopy\n  0x00\n  return\nstop\n\nsub_0: assembly {\n        /* \"Admin.sol\":60:11891  contract Admin {\r... */\n      mstore(0x40, 0x80)\n      callvalue\n      dup1\n      iszero\n      tag_1\n      jumpi\n      0x00\n      dup1\n      revert\n    tag_1:\n      pop\n      jumpi(tag_2, lt(calldatasize, 0x04))\n      shr(0xe0, calldataload(0x00))\n      dup1\n      0x8a462e1a\n      gt\n      tag_19\n      jumpi\n      dup1\n      0xb4acfe1c\n      gt\n      tag_20\n      jumpi\n      dup1\n      0xb4acfe1c\n      eq\n      tag_15\n      jumpi\n      dup1\n      0xe2842d79\n      eq\n      tag_16\n      jumpi\n      dup1\n      0xf9db3982\n      eq\n      tag_17\n      jumpi\n      dup1\n      0xff5d32fe\n      eq\n      tag_18\n      jumpi\n      jump(tag_2)\n    tag_20:\n      dup1\n      0x8a462e1a\n      eq\n      tag_11\n      jumpi\n      dup1\n      0x9057c82b\n      eq\n      tag_12\n      jumpi\n      dup1\n      0x988559f5\n      eq\n      tag_13\n      jumpi\n      dup1\n      0xa4a1e263\n      eq\n      tag_14\n      jumpi\n      jump(tag_2)\n    tag_19:\n      dup1\n      0x1ecd6563\n      gt\n      tag_21\n      jumpi\n      dup1\n      0x1ecd6563\n      eq\n      tag_7\n      jumpi\n      dup1\n      0x3b5761d5\n      eq\n      tag_8\n      jumpi\n      dup1\n      0x5c60f226\n      eq\n      tag_9\n      jumpi\n      dup1\n      0x6386c1c7\n      eq\n      tag_10\n      jumpi\n      jump(tag_2)\n    tag_21:\n      dup1\n      0x094289d6\n      eq\n      tag_3\n      jumpi\n      dup1\n      0x0acfd58e\n      eq\n      tag_4\n      jumpi\n      dup1\n      0x163301f9\n      eq\n      tag_5\n      jumpi\n      dup1\n      0x1a47767b\n      eq\n      tag_6\n      jumpi\n    tag_2:\n      0x00\n      dup1\n      revert\n        /* \"Admin.sol\":2242:3186  function registerNewUser(\r... */\n    tag_3:\n      tag_22\n      tag_23\n      calldatasize\n      0x04\n      tag_24\n      jump\t// in\n    tag_23:\n      tag_25\n      jump\t// in\n    tag_22:\n      stop\n        /* \"Admin.sol\":8106:8501  function changeRole(address userAddress, uint role) public onlyOwner {\r... */\n    tag_4:\n      tag_22\n      tag_27\n      calldatasize\n      0x04\n      tag_28\n      jump\t// in\n    tag_27:\n      tag_29\n      jump\t// in\n        /* \"Admin.sol\":4514:5296  function viewMyDoctors() public view onlyPatient returns (Doctor[] memory) {\r... */\n    tag_5:\n      tag_30\n      tag_31\n      jump\t// in\n    tag_30:\n      mload(0x40)\n      tag_32\n      swap2\n      swap1\n      tag_33\n      jump\t// in\n    tag_32:\n      mload(0x40)\n      dup1\n      swap2\n      sub\n      swap1\n      return\n        /* \"Admin.sol\":7226:7620  function deactivateUser(address userAddress) public onlyOwner {\r... */\n    tag_6:\n      tag_22\n      tag_35\n      calldatasize\n      0x04\n      tag_36\n      jump\t// in\n    tag_35:\n      tag_37\n      jump\t// in\n        /* \"Admin.sol\":2123:2171  mapping(address => UserInfo) public UsersDetails */\n    tag_7:\n      tag_38\n      tag_39\n      calldatasize\n      0x04\n      tag_36\n      jump\t// in\n    tag_39:\n      tag_40\n      jump\t// in\n    tag_38:\n      mload(0x40)\n      tag_32\n      swap9\n      swap8\n      swap7\n      swap6\n      swap5\n      swap4\n      swap3\n      swap2\n      swap1\n      tag_42\n      jump\t// in\n        /* \"Admin.sol\":3248:4264  function prescribeMedication(address patientAddress, string memory treatment, string memory notes) public onlyDoctor {\r... */\n    tag_8:\n      tag_22\n      tag_44\n      calldatasize\n      0x04\n      tag_45\n      jump\t// in\n    tag_44:\n      tag_46\n      jump\t// in\n        /* \"Admin.sol\":8543:9272  function deleteUser(address userAddress) public onlyOwner {\r... */\n    tag_9:\n      tag_22\n      tag_48\n      calldatasize\n      0x04\n      tag_36\n      jump\t// in\n    tag_48:\n      tag_49\n      jump\t// in\n        /* \"Admin.sol\":9330:10022  function getUserInfo(address userAddress)\r... */\n    tag_10:\n      tag_50\n      tag_51\n      calldatasize\n      0x04\n      tag_36\n      jump\t// in\n    tag_51:\n      tag_52\n      jump\t// in\n    tag_50:\n      mload(0x40)\n      tag_32\n      swap8\n      swap7\n      swap6\n      swap5\n      swap4\n      swap3\n      swap2\n      swap1\n      tag_54\n      jump\t// in\n        /* \"Admin.sol\":6831:7180  function getPatientPrescriptions(address patientAddress) public view returns (Prescription[] memory) {\r... */\n    tag_11:\n      tag_55\n      tag_56\n      calldatasize\n      0x04\n      tag_36\n      jump\t// in\n    tag_56:\n      tag_57\n      jump\t// in\n    tag_55:\n      mload(0x40)\n      tag_32\n      swap2\n      swap1\n      tag_59\n      jump\t// in\n        /* \"Admin.sol\":10721:11555  function getAllPatientsForDoctor() public view onlyDoctor returns (UserInfo[] memory) {\r... */\n    tag_12:\n      tag_60\n      tag_61\n      jump\t// in\n    tag_60:\n      mload(0x40)\n      tag_32\n      swap2\n      swap1\n      tag_63\n      jump\t// in\n        /* \"Admin.sol\":5389:6742  function getPrescriptionsByDoctor(address doctorAddress) public view onlyPatient returns (Prescription[] memory) {\r... */\n    tag_13:\n      tag_55\n      tag_65\n      calldatasize\n      0x04\n      tag_36\n      jump\t// in\n    tag_65:\n      tag_66\n      jump\t// in\n        /* \"Admin.sol\":10074:10170  function getUsersCount() public view returns (uint count) {\r... */\n    tag_14:\n      tag_68\n      tag_69\n      jump\t// in\n    tag_68:\n      mload(0x40)\n      tag_32\n      swap2\n      swap1\n      tag_71\n      jump\t// in\n        /* \"Admin.sol\":7664:8052  function activateUser(address userAddress) public onlyOwner {\r... */\n    tag_15:\n      tag_22\n      tag_73\n      calldatasize\n      0x04\n      tag_36\n      jump\t// in\n    tag_73:\n      tag_74\n      jump\t// in\n        /* \"Admin.sol\":11610:11888  function getAllUsers() public view returns (UserInfo[] memory) {\r... */\n    tag_16:\n      tag_60\n      tag_76\n      jump\t// in\n        /* \"Admin.sol\":82:110  address public hospitalAdmin */\n    tag_17:\n      tag_78\n      tag_79\n      jump\t// in\n    tag_78:\n      mload(0x40)\n      tag_32\n      swap2\n      swap1\n      tag_81\n      jump\t// in\n        /* \"Admin.sol\":10228:10646  function getUserByIndex(uint index)\r... */\n    tag_18:\n      tag_50\n      tag_83\n      calldatasize\n      0x04\n      tag_84\n      jump\t// in\n    tag_83:\n      tag_85\n      jump\t// in\n        /* \"Admin.sol\":2242:3186  function registerNewUser(\r... */\n    tag_25:\n        /* \"Admin.sol\":254:267  hospitalAdmin */\n      and(sub(shl(0xa0, 0x01), 0x01), sload(0x00))\n        /* \"Admin.sol\":240:250  msg.sender */\n      caller\n        /* \"Admin.sol\":240:267  msg.sender == hospitalAdmin */\n      eq\n        /* \"Admin.sol\":218:366  require(\r... */\n      tag_88\n      jumpi\n      mload(0x40)\n      shl(0xe5, 0x461bcd)\n      dup2\n      mstore\n      0x04\n      add\n      tag_89\n      swap1\n      tag_90\n      jump\t// in\n    tag_89:\n      mload(0x40)\n      dup1\n      swap2\n      sub\n      swap1\n      revert\n    tag_88:\n      sub(shl(0xa0, 0x01), 0x01)\n        /* \"Admin.sol\":2481:2505  UsersDetails[ethAddress] */\n      dup7\n      and\n      0x00\n      swap1\n      dup2\n      mstore\n        /* \"Admin.sol\":2481:2493  UsersDetails */\n      0x01\n        /* \"Admin.sol\":2481:2505  UsersDetails[ethAddress] */\n      0x20\n      mstore\n      0x40\n      swap1\n      keccak256\n        /* \"Admin.sol\":2481:2512  UsersDetails[ethAddress].exists */\n      0x04\n      add\n      sload\n      shl(0xb0, 0x01)\n      swap1\n      div\n      0xff\n      and\n        /* \"Admin.sol\":2480:2512  !UsersDetails[ethAddress].exists */\n      iszero\n        /* \"Admin.sol\":2472:2541  require(!UsersDetails[ethAddress].exists, \"User already registered.\") */\n      tag_92\n      jumpi\n      mload(0x40)\n      shl(0xe5, 0x461bcd)\n      dup2\n      mstore\n      0x04\n      add\n      tag_89\n      swap1\n      tag_94\n      jump\t// in\n    tag_92:\n        /* \"Admin.sol\":2574:2583  Titles.Dr */\n      0x03\n        /* \"Admin.sol\":2560:2565  title */\n      dup6\n        /* \"Admin.sol\":2560:2584  title <= uint(Titles.Dr) */\n      gt\n      iszero\n        /* \"Admin.sol\":2552:2602  require(title <= uint(Titles.Dr), \"Invalid title\") */\n      tag_96\n      jumpi\n      mload(0x40)\n      shl(0xe5, 0x461bcd)\n      dup2\n      mstore\n      0x04\n      add\n      tag_89\n      swap1\n      tag_98\n      jump\t// in\n    tag_96:\n        /* \"Admin.sol\":2634:2650  Roles.Pharmacist */\n      0x02\n        /* \"Admin.sol\":2621:2625  role */\n      dup2\n        /* \"Admin.sol\":2621:2651  role <= uint(Roles.Pharmacist) */\n      gt\n      iszero\n        /* \"Admin.sol\":2613:2668  require(role <= uint(Roles.Pharmacist), \"Invalid role\") */\n      tag_100\n      jumpi\n      mload(0x40)\n      shl(0xe5, 0x461bcd)\n      dup2\n      mstore\n      0x04\n      add\n      tag_89\n      swap1\n      tag_102\n      jump\t// in\n    tag_100:\n      sub(shl(0xa0, 0x01), 0x01)\n        /* \"Admin.sol\":2777:2801  UsersDetails[ethAddress] */\n      dup7\n      and\n        /* \"Admin.sol\":2753:2774  UserInfo storage user */\n      0x00\n        /* \"Admin.sol\":2777:2801  UsersDetails[ethAddress] */\n      swap1\n      dup2\n      mstore\n        /* \"Admin.sol\":2777:2789  UsersDetails */\n      0x01\n        /* \"Admin.sol\":2777:2801  UsersDetails[ethAddress] */\n      0x20\n      mstore\n      0x40\n      swap1\n      keccak256\n        /* \"Admin.sol\":2832:2837  title */\n      dup6\n        /* \"Admin.sol\":2825:2838  Titles(title) */\n      0x03\n      dup2\n      gt\n      iszero\n      tag_103\n      jumpi\n      mstore(0x00, shl(0xe0, 0x4e487b71))\n      mstore(0x04, 0x21)\n      revert(0x00, 0x24)\n    tag_103:\n        /* \"Admin.sol\":2812:2838  user.title = Titles(title) */\n      dup2\n      sload\n        /* \"Admin.sol\":2812:2816  user */\n      dup3\n      swap1\n      not(0xff)\n        /* \"Admin.sol\":2812:2838  user.title = Titles(title) */\n      and\n      0x01\n      dup4\n      0x03\n      dup2\n      gt\n      iszero\n      tag_104\n      jumpi\n      mstore(0x00, shl(0xe0, 0x4e487b71))\n      mstore(0x04, 0x21)\n      revert(0x00, 0x24)\n    tag_104:\n      mul\n      or\n      swap1\n      sstore\n      pop\n        /* \"Admin.sol\":2849:2875  user.firstname = firstname */\n      dup5\n      mload\n      tag_105\n      swap1\n        /* \"Admin.sol\":2849:2863  user.firstname */\n      0x01\n      dup4\n      add\n      swap1\n        /* \"Admin.sol\":2849:2875  user.firstname = firstname */\n      0x20\n      dup9\n      add\n      swap1\n      tag_106\n      jump\t// in\n    tag_105:\n      pop\n        /* \"Admin.sol\":2886:2910  user.lastname = lastname */\n      dup4\n      mload\n      tag_107\n      swap1\n        /* \"Admin.sol\":2886:2899  user.lastname */\n      0x02\n      dup4\n      add\n      swap1\n        /* \"Admin.sol\":2886:2910  user.lastname = lastname */\n      0x20\n      dup8\n      add\n      swap1\n      tag_106\n      jump\t// in\n    tag_107:\n      pop\n        /* \"Admin.sol\":2921:2945  user.location = location */\n      dup3\n      mload\n      tag_108\n      swap1\n        /* \"Admin.sol\":2921:2934  user.location */\n      0x03\n      dup4\n      add\n      swap1\n        /* \"Admin.sol\":2921:2945  user.location = location */\n      0x20\n      dup7\n      add\n      swap1\n      tag_106\n      jump\t// in\n    tag_108:\n      pop\n        /* \"Admin.sol\":2956:2971  user.ethAddress */\n      0x04\n      dup2\n      add\n        /* \"Admin.sol\":2956:2984  user.ethAddress = ethAddress */\n      dup1\n      sload\n      not(sub(shl(0xa0, 0x01), 0x01))\n      and\n      sub(shl(0xa0, 0x01), 0x01)\n      dup10\n      and\n      or\n      swap1\n      sstore\n        /* \"Admin.sol\":3013:3017  role */\n      dup2\n        /* \"Admin.sol\":3007:3018  Roles(role) */\n      0x02\n      dup2\n      gt\n      iszero\n      tag_109\n      jumpi\n      mstore(0x00, shl(0xe0, 0x4e487b71))\n      mstore(0x04, 0x21)\n      revert(0x00, 0x24)\n    tag_109:\n        /* \"Admin.sol\":2995:3004  user.role */\n      0x04\n      dup3\n      add\n        /* \"Admin.sol\":2995:3018  user.role = Roles(role) */\n      dup1\n      sload\n      not(shl(0xa0, 0xff))\n      and\n      shl(0xa0, 0x01)\n      dup4\n      0x02\n      dup2\n      gt\n      iszero\n      tag_110\n      jumpi\n      mstore(0x00, shl(0xe0, 0x4e487b71))\n      mstore(0x04, 0x21)\n      revert(0x00, 0x24)\n    tag_110:\n      mul\n      or\n      swap1\n      sstore\n      pop\n        /* \"Admin.sol\":3029:3040  user.status */\n      0x04\n      dup2\n      add\n        /* \"Admin.sol\":3029:3059  user.status = CurStatus.Active */\n      dup1\n      sload\n      not(shl(0xa8, 0xffff))\n        /* \"Admin.sol\":3070:3088  user.exists = true */\n      and\n      shl(0xb0, 0x01)\n      or\n      swap1\n      sstore\n        /* \"Admin.sol\":3101:3106  users */\n      0x02\n        /* \"Admin.sol\":3101:3123  users.push(ethAddress) */\n      dup1\n      sload\n      0x01\n      dup2\n      add\n      dup3\n      sstore\n      0x00\n      swap2\n      swap1\n      swap2\n      mstore\n      0x405787fa12a823e0f2b7631cc41b3ba8828b3321ca811111fa75cd3aa3bb5ace\n      add\n      dup1\n      sload\n      sub(shl(0xa0, 0x01), 0x01)\n      dup10\n      and\n      not(sub(shl(0xa0, 0x01), 0x01))\n      swap1\n      swap2\n      and\n      dup2\n      or\n      swap1\n      swap2\n      sstore\n        /* \"Admin.sol\":3141:3178  UserRegistered(ethAddress, firstname) */\n      mload(0x40)\n      0x48cac28ad4dc618e15f4c2dd5e97751182f166de97b25618318b2112aa951a2f\n      swap1\n      tag_113\n      swap1\n        /* \"Admin.sol\":3168:3177  firstname */\n      dup9\n      swap1\n        /* \"Admin.sol\":3141:3178  UserRegistered(ethAddress, firstname) */\n      tag_114\n      jump\t// in\n    tag_113:\n      mload(0x40)\n      dup1\n      swap2\n      sub\n      swap1\n      log2\n        /* \"Admin.sol\":377:378  _ */\n      pop\n        /* \"Admin.sol\":2242:3186  function registerNewUser(\r... */\n      pop\n      pop\n      pop\n      pop\n      pop\n      pop\n      jump\t// out\n        /* \"Admin.sol\":8106:8501  function changeRole(address userAddress, uint role) public onlyOwner {\r... */\n    tag_29:\n        /* \"Admin.sol\":254:267  hospitalAdmin */\n      and(sub(shl(0xa0, 0x01), 0x01), sload(0x00))\n        /* \"Admin.sol\":240:250  msg.sender */\n      caller\n        /* \"Admin.sol\":240:267  msg.sender == hospitalAdmin */\n      eq\n        /* \"Admin.sol\":218:366  require(\r... */\n      tag_116\n      jumpi\n      mload(0x40)\n      shl(0xe5, 0x461bcd)\n      dup2\n      mstore\n      0x04\n      add\n      tag_89\n      swap1\n      tag_90\n      jump\t// in\n    tag_116:\n      sub(shl(0xa0, 0x01), 0x01)\n        /* \"Admin.sol\":8194:8219  UsersDetails[userAddress] */\n      dup3\n      and\n      0x00\n      swap1\n      dup2\n      mstore\n        /* \"Admin.sol\":8194:8206  UsersDetails */\n      0x01\n        /* \"Admin.sol\":8194:8219  UsersDetails[userAddress] */\n      0x20\n      mstore\n      0x40\n      swap1\n      keccak256\n        /* \"Admin.sol\":8194:8226  UsersDetails[userAddress].exists */\n      0x04\n      add\n      sload\n      shl(0xb0, 0x01)\n      swap1\n      div\n      0xff\n      and\n        /* \"Admin.sol\":8186:8251  require(UsersDetails[userAddress].exists, \"User does not exist.\") */\n      tag_119\n      jumpi\n      mload(0x40)\n      shl(0xe5, 0x461bcd)\n      dup2\n      mstore\n      0x04\n      add\n      tag_89\n      swap1\n      tag_121\n      jump\t// in\n    tag_119:\n        /* \"Admin.sol\":8283:8299  Roles.Pharmacist */\n      0x02\n        /* \"Admin.sol\":8270:8274  role */\n      dup2\n        /* \"Admin.sol\":8270:8300  role <= uint(Roles.Pharmacist) */\n      gt\n      iszero\n        /* \"Admin.sol\":8262:8317  require(role <= uint(Roles.Pharmacist), \"Invalid role\") */\n      tag_123\n      jumpi\n      mload(0x40)\n      shl(0xe5, 0x461bcd)\n      dup2\n      mstore\n      0x04\n      add\n      tag_89\n      swap1\n      tag_102\n      jump\t// in\n    tag_123:\n        /* \"Admin.sol\":8369:8373  role */\n      dup1\n        /* \"Admin.sol\":8363:8374  Roles(role) */\n      0x02\n      dup2\n      gt\n      iszero\n      tag_125\n      jumpi\n      mstore(0x00, shl(0xe0, 0x4e487b71))\n      mstore(0x04, 0x21)\n      revert(0x00, 0x24)\n    tag_125:\n      sub(shl(0xa0, 0x01), 0x01)\n        /* \"Admin.sol\":8330:8355  UsersDetails[userAddress] */\n      dup4\n      and\n      0x00\n      swap1\n      dup2\n      mstore\n        /* \"Admin.sol\":8330:8342  UsersDetails */\n      0x01\n        /* \"Admin.sol\":8330:8355  UsersDetails[userAddress] */\n      0x20\n      mstore\n      0x40\n      swap1\n      keccak256\n        /* \"Admin.sol\":8330:8360  UsersDetails[userAddress].role */\n      0x04\n      add\n        /* \"Admin.sol\":8330:8374  UsersDetails[userAddress].role = Roles(role) */\n      dup1\n      sload\n      not(shl(0xa0, 0xff))\n      and\n      shl(0xa0, 0x01)\n      dup4\n      0x02\n      dup2\n      gt\n      iszero\n      tag_126\n      jumpi\n      mstore(0x00, shl(0xe0, 0x4e487b71))\n      mstore(0x04, 0x21)\n      revert(0x00, 0x24)\n    tag_126:\n      mul\n      or\n      swap1\n      sstore\n      pop\n      sub(shl(0xa0, 0x01), 0x01)\n        /* \"Admin.sol\":8390:8493  UserRoleChanged(userAddress, UsersDetails[userAddress].firstname, uint(UsersDetails[userAddress].role)) */\n      dup3\n      and\n        /* \"Admin.sol\":8419:8444  UsersDetails[userAddress] */\n      0x00\n      dup2\n      dup2\n      mstore\n        /* \"Admin.sol\":8419:8431  UsersDetails */\n      0x01\n        /* \"Admin.sol\":8419:8444  UsersDetails[userAddress] */\n      0x20\n      dup2\n      swap1\n      mstore\n      0x40\n      swap1\n      swap2\n      keccak256\n        /* \"Admin.sol\":8461:8491  UsersDetails[userAddress].role */\n      0x04\n      dup2\n      add\n      sload\n        /* \"Admin.sol\":8390:8493  UserRoleChanged(userAddress, UsersDetails[userAddress].firstname, uint(UsersDetails[userAddress].role)) */\n      0xcafb1db9b8c52cb0a968881f29a2af39b69ba3538422ed833c1d3bdc14792c2f\n      swap3\n        /* \"Admin.sol\":8419:8454  UsersDetails[userAddress].firstname */\n      swap2\n      swap1\n      swap2\n      add\n      swap1\n      shl(0xa0, 0x01)\n        /* \"Admin.sol\":8461:8491  UsersDetails[userAddress].role */\n      swap1\n      div\n      0xff\n      and\n        /* \"Admin.sol\":8456:8492  uint(UsersDetails[userAddress].role) */\n      0x02\n      dup2\n      gt\n      iszero\n      tag_127\n      jumpi\n      mstore(0x00, shl(0xe0, 0x4e487b71))\n      mstore(0x04, 0x21)\n      revert(0x00, 0x24)\n    tag_127:\n        /* \"Admin.sol\":8390:8493  UserRoleChanged(userAddress, UsersDetails[userAddress].firstname, uint(UsersDetails[userAddress].role)) */\n      mload(0x40)\n      tag_128\n      swap3\n      swap2\n      swap1\n      tag_129\n      jump\t// in\n    tag_128:\n      mload(0x40)\n      dup1\n      swap2\n      sub\n      swap1\n      log2\n        /* \"Admin.sol\":8106:8501  function changeRole(address userAddress, uint role) public onlyOwner {\r... */\n      pop\n      pop\n      jump\t// out\n        /* \"Admin.sol\":4514:5296  function viewMyDoctors() public view onlyPatient returns (Doctor[] memory) {\r... */\n    tag_31:\n        /* \"Admin.sol\":765:775  msg.sender */\n      caller\n        /* \"Admin.sol\":752:776  UsersDetails[msg.sender] */\n      0x00\n      swap1\n      dup2\n      mstore\n        /* \"Admin.sol\":752:764  UsersDetails */\n      0x01\n        /* \"Admin.sol\":752:776  UsersDetails[msg.sender] */\n      0x20\n      mstore\n      0x40\n      swap1\n      keccak256\n        /* \"Admin.sol\":752:783  UsersDetails[msg.sender].exists */\n      0x04\n      add\n      sload\n        /* \"Admin.sol\":4572:4587  Doctor[] memory */\n      0x60\n      swap1\n      shl(0xb0, 0x01)\n        /* \"Admin.sol\":752:783  UsersDetails[msg.sender].exists */\n      swap1\n      div\n      0xff\n      and\n        /* \"Admin.sol\":730:831  require(\r... */\n      tag_131\n      jumpi\n      mload(0x40)\n      shl(0xe5, 0x461bcd)\n      dup2\n      mstore\n      0x04\n      add\n      tag_89\n      swap1\n      tag_121\n      jump\t// in\n    tag_131:\n        /* \"Admin.sol\":897:910  Roles.Patient */\n      0x01\n        /* \"Admin.sol\":877:887  msg.sender */\n      caller\n        /* \"Admin.sol\":864:888  UsersDetails[msg.sender] */\n      0x00\n      swap1\n      dup2\n      mstore\n        /* \"Admin.sol\":864:876  UsersDetails */\n      0x01\n        /* \"Admin.sol\":864:888  UsersDetails[msg.sender] */\n      0x20\n      mstore\n      0x40\n      swap1\n      keccak256\n        /* \"Admin.sol\":864:893  UsersDetails[msg.sender].role */\n      0x04\n      add\n      sload\n      shl(0xa0, 0x01)\n      swap1\n      div\n      0xff\n      and\n        /* \"Admin.sol\":864:910  UsersDetails[msg.sender].role == Roles.Patient */\n      0x02\n      dup2\n      gt\n      iszero\n      tag_134\n      jumpi\n      mstore(0x00, shl(0xe0, 0x4e487b71))\n      mstore(0x04, 0x21)\n      revert(0x00, 0x24)\n    tag_134:\n      eq\n        /* \"Admin.sol\":842:973  require(\r... */\n      tag_135\n      jumpi\n      mload(0x40)\n      shl(0xe5, 0x461bcd)\n      dup2\n      mstore\n      0x04\n      add\n      tag_89\n      swap1\n      tag_137\n      jump\t// in\n    tag_135:\n        /* \"Admin.sol\":4621:4631  msg.sender */\n      caller\n        /* \"Admin.sol\":4608:4632  UsersDetails[msg.sender] */\n      0x00\n      swap1\n      dup2\n      mstore\n        /* \"Admin.sol\":4608:4620  UsersDetails */\n      0x01\n        /* \"Admin.sol\":4608:4632  UsersDetails[msg.sender] */\n      0x20\n      mstore\n      0x40\n      swap1\n      keccak256\n        /* \"Admin.sol\":4608:4639  UsersDetails[msg.sender].exists */\n      0x04\n      add\n      sload\n      shl(0xb0, 0x01)\n      swap1\n      div\n      0xff\n      and\n        /* \"Admin.sol\":4600:4667  require(UsersDetails[msg.sender].exists, \"Patient does not exist.\") */\n      tag_139\n      jumpi\n      mload(0x40)\n      shl(0xe5, 0x461bcd)\n      dup2\n      mstore\n      0x04\n      add\n      tag_89\n      swap1\n      tag_141\n      jump\t// in\n    tag_139:\n        /* \"Admin.sol\":4718:4728  msg.sender */\n      caller\n        /* \"Admin.sol\":4680:4702  uint prescriptionCount */\n      0x00\n        /* \"Admin.sol\":4705:4729  UsersDetails[msg.sender] */\n      swap1\n      dup2\n      mstore\n        /* \"Admin.sol\":4705:4717  UsersDetails */\n      0x01\n        /* \"Admin.sol\":4705:4729  UsersDetails[msg.sender] */\n      0x20\n      mstore\n      0x40\n      dup2\n      keccak256\n        /* \"Admin.sol\":4705:4743  UsersDetails[msg.sender].prescriptions */\n      0x05\n      add\n        /* \"Admin.sol\":4705:4750  UsersDetails[msg.sender].prescriptions.length */\n      sload\n      swap1\n      dup2\n        /* \"Admin.sol\":4850:4881  new Doctor[](prescriptionCount) */\n      0xffffffffffffffff\n      dup2\n      gt\n      iszero\n      tag_142\n      jumpi\n      mstore(0x00, shl(0xe0, 0x4e487b71))\n      mstore(0x04, 0x41)\n      revert(0x00, 0x24)\n    tag_142:\n      mload(0x40)\n      swap1\n      dup1\n      dup3\n      mstore\n      dup1\n      0x20\n      mul\n      0x20\n      add\n      dup3\n      add\n      0x40\n      mstore\n      dup1\n      iszero\n      tag_143\n      jumpi\n      dup2\n      0x20\n      add\n    tag_144:\n      tag_145\n      tag_146\n      jump\t// in\n    tag_145:\n      dup2\n      mstore\n      0x20\n      add\n      swap1\n      0x01\n      swap1\n      sub\n      swap1\n      dup2\n      tag_144\n      jumpi\n      swap1\n      pop\n    tag_143:\n      pop\n        /* \"Admin.sol\":4824:4881  Doctor[] memory doctors = new Doctor[](prescriptionCount) */\n      swap1\n      pop\n        /* \"Admin.sol\":4899:4905  uint i */\n      0x00\n        /* \"Admin.sol\":4894:5262  for (uint i = 0; i < prescriptionCount; i++) {\r... */\n    tag_147:\n        /* \"Admin.sol\":4915:4932  prescriptionCount */\n      dup3\n        /* \"Admin.sol\":4911:4912  i */\n      dup2\n        /* \"Admin.sol\":4911:4932  i < prescriptionCount */\n      lt\n        /* \"Admin.sol\":4894:5262  for (uint i = 0; i < prescriptionCount; i++) {\r... */\n      iszero\n      tag_148\n      jumpi\n        /* \"Admin.sol\":5002:5012  msg.sender */\n      caller\n        /* \"Admin.sol\":4954:4986  Prescription memory prescription */\n      0x00\n        /* \"Admin.sol\":4989:5013  UsersDetails[msg.sender] */\n      swap1\n      dup2\n      mstore\n        /* \"Admin.sol\":4989:5001  UsersDetails */\n      0x01\n        /* \"Admin.sol\":4989:5013  UsersDetails[msg.sender] */\n      0x20\n      mstore\n      0x40\n      dup2\n      keccak256\n        /* \"Admin.sol\":4989:5027  UsersDetails[msg.sender].prescriptions */\n      0x05\n      add\n        /* \"Admin.sol\":4989:5030  UsersDetails[msg.sender].prescriptions[i] */\n      dup1\n      sload\n        /* \"Admin.sol\":5028:5029  i */\n      dup4\n      swap1\n        /* \"Admin.sol\":4989:5030  UsersDetails[msg.sender].prescriptions[i] */\n      dup2\n      lt\n      tag_150\n      jumpi\n      mstore(0x00, shl(0xe0, 0x4e487b71))\n      mstore(0x04, 0x32)\n      revert(0x00, 0x24)\n    tag_150:\n      0x00\n      swap2\n      dup3\n      mstore\n      0x20\n      swap2\n      dup3\n      swap1\n      keccak256\n        /* \"Admin.sol\":4954:5030  Prescription memory prescription = UsersDetails[msg.sender].prescriptions[i] */\n      0x40\n      dup1\n      mload\n      0xa0\n      dup2\n      add\n      swap1\n      swap2\n      mstore\n        /* \"Admin.sol\":4989:5030  UsersDetails[msg.sender].prescriptions[i] */\n      0x05\n      swap1\n      swap3\n      mul\n      add\n        /* \"Admin.sol\":4954:5030  Prescription memory prescription = UsersDetails[msg.sender].prescriptions[i] */\n      dup1\n      sload\n      sub(shl(0xa0, 0x01), 0x01)\n      and\n      dup3\n      mstore\n      0x01\n      dup2\n      add\n      dup1\n      sload\n      swap3\n      swap4\n        /* \"Admin.sol\":4989:5030  UsersDetails[msg.sender].prescriptions[i] */\n      swap2\n      swap3\n        /* \"Admin.sol\":4954:5030  Prescription memory prescription = UsersDetails[msg.sender].prescriptions[i] */\n      swap2\n      dup5\n      add\n      swap2\n      tag_152\n      swap1\n      tag_153\n      jump\t// in\n    tag_152:\n      dup1\n      0x1f\n      add\n      0x20\n      dup1\n      swap2\n      div\n      mul\n      0x20\n      add\n      mload(0x40)\n      swap1\n      dup2\n      add\n      0x40\n      mstore\n      dup1\n      swap3\n      swap2\n      swap1\n      dup2\n      dup2\n      mstore\n      0x20\n      add\n      dup3\n      dup1\n      sload\n      tag_154\n      swap1\n      tag_153\n      jump\t// in\n    tag_154:\n      dup1\n      iszero\n      tag_155\n      jumpi\n      dup1\n      0x1f\n      lt\n      tag_156\n      jumpi\n      0x0100\n      dup1\n      dup4\n      sload\n      div\n      mul\n      dup4\n      mstore\n      swap2\n      0x20\n      add\n      swap2\n      jump(tag_155)\n    tag_156:\n      dup3\n      add\n      swap2\n      swap1\n      0x00\n      mstore\n      keccak256(0x00, 0x20)\n      swap1\n    tag_157:\n      dup2\n      sload\n      dup2\n      mstore\n      swap1\n      0x01\n      add\n      swap1\n      0x20\n      add\n      dup1\n      dup4\n      gt\n      tag_157\n      jumpi\n      dup3\n      swap1\n      sub\n      0x1f\n      and\n      dup3\n      add\n      swap2\n    tag_155:\n      pop\n      pop\n      pop\n      pop\n      pop\n      dup2\n      mstore\n      0x20\n      add\n      0x02\n      dup3\n      add\n      dup1\n      sload\n      tag_158\n      swap1\n      tag_153\n      jump\t// in\n    tag_158:\n      dup1\n      0x1f\n      add\n      0x20\n      dup1\n      swap2\n      div\n      mul\n      0x20\n      add\n      mload(0x40)\n      swap1\n      dup2\n      add\n      0x40\n      mstore\n      dup1\n      swap3\n      swap2\n      swap1\n      dup2\n      dup2\n      mstore\n      0x20\n      add\n      dup3\n      dup1\n      sload\n      tag_159\n      swap1\n      tag_153\n      jump\t// in\n    tag_159:\n      dup1\n      iszero\n      tag_160\n      jumpi\n      dup1\n      0x1f\n      lt\n      tag_161\n      jumpi\n      0x0100\n      dup1\n      dup4\n      sload\n      div\n      mul\n      dup4\n      mstore\n      swap2\n      0x20\n      add\n      swap2\n      jump(tag_160)\n    tag_161:\n      dup3\n      add\n      swap2\n      swap1\n      0x00\n      mstore\n      keccak256(0x00, 0x20)\n      swap1\n    tag_162:\n      dup2\n      sload\n      dup2\n      mstore\n      swap1\n      0x01\n      add\n      swap1\n      0x20\n      add\n      dup1\n      dup4\n      gt\n      tag_162\n      jumpi\n      dup3\n      swap1\n      sub\n      0x1f\n      and\n      dup3\n      add\n      swap2\n    tag_160:\n      pop\n      pop\n      pop\n      pop\n      pop\n      dup2\n      mstore\n      0x20\n      add\n      0x03\n      dup3\n      add\n      dup1\n      sload\n      tag_163\n      swap1\n      tag_153\n      jump\t// in\n    tag_163:\n      dup1\n      0x1f\n      add\n      0x20\n      dup1\n      swap2\n      div\n      mul\n      0x20\n      add\n      mload(0x40)\n      swap1\n      dup2\n      add\n      0x40\n      mstore\n      dup1\n      swap3\n      swap2\n      swap1\n      dup2\n      dup2\n      mstore\n      0x20\n      add\n      dup3\n      dup1\n      sload\n      tag_164\n      swap1\n      tag_153\n      jump\t// in\n    tag_164:\n      dup1\n      iszero\n      tag_165\n      jumpi\n      dup1\n      0x1f\n      lt\n      tag_166\n      jumpi\n      0x0100\n      dup1\n      dup4\n      sload\n      div\n      mul\n      dup4\n      mstore\n      swap2\n      0x20\n      add\n      swap2\n      jump(tag_165)\n    tag_166:\n      dup3\n      add\n      swap2\n      swap1\n      0x00\n      mstore\n      keccak256(0x00, 0x20)\n      swap1\n    tag_167:\n      dup2\n      sload\n      dup2\n      mstore\n      swap1\n      0x01\n      add\n      swap1\n      0x20\n      add\n      dup1\n      dup4\n      gt\n      tag_167\n      jumpi\n      dup3\n      swap1\n      sub\n      0x1f\n      and\n      dup3\n      add\n      swap2\n    tag_165:\n      pop\n      pop\n      pop\n      pop\n      pop\n      dup2\n      mstore\n      0x20\n      add\n      0x04\n      dup3\n      add\n      dup1\n      sload\n      tag_168\n      swap1\n      tag_153\n      jump\t// in\n    tag_168:\n      dup1\n      0x1f\n      add\n      0x20\n      dup1\n      swap2\n      div\n      mul\n      0x20\n      add\n      mload(0x40)\n      swap1\n      dup2\n      add\n      0x40\n      mstore\n      dup1\n      swap3\n      swap2\n      swap1\n      dup2\n      dup2\n      mstore\n      0x20\n      add\n      dup3\n      dup1\n      sload\n      tag_169\n      swap1\n      tag_153\n      jump\t// in\n    tag_169:\n      dup1\n      iszero\n      tag_170\n      jumpi\n      dup1\n      0x1f\n      lt\n      tag_171\n      jumpi\n      0x0100\n      dup1\n      dup4\n      sload\n      div\n      mul\n      dup4\n      mstore\n      swap2\n      0x20\n      add\n      swap2\n      jump(tag_170)\n    tag_171:\n      dup3\n      add\n      swap2\n      swap1\n      0x00\n      mstore\n      keccak256(0x00, 0x20)\n      swap1\n    tag_172:\n      dup2\n      sload\n      dup2\n      mstore\n      swap1\n      0x01\n      add\n      swap1\n      0x20\n      add\n      dup1\n      dup4\n      gt\n      tag_172\n      jumpi\n      dup3\n      swap1\n      sub\n      0x1f\n      and\n      dup3\n      add\n      swap2\n    tag_170:\n      pop\n      pop\n      pop\n      pop\n      pop\n      dup2\n      mstore\n      pop\n      pop\n      swap1\n      pop\n        /* \"Admin.sol\":5058:5250  Doctor({\r... */\n      mload(0x40)\n      dup1\n      0x60\n      add\n      0x40\n      mstore\n      dup1\n        /* \"Admin.sol\":5099:5111  prescription */\n      dup3\n        /* \"Admin.sol\":5099:5118  prescription.doctor */\n      0x00\n      add\n      mload\n      sub(shl(0xa0, 0x01), 0x01)\n        /* \"Admin.sol\":5058:5250  Doctor({\r... */\n      and\n      dup2\n      mstore\n      0x20\n      add\n        /* \"Admin.sol\":5149:5161  prescription */\n      dup3\n        /* \"Admin.sol\":5149:5172  prescription.doctorName */\n      0x20\n      add\n      mload\n        /* \"Admin.sol\":5058:5250  Doctor({\r... */\n      dup2\n      mstore\n      0x20\n      add\n        /* \"Admin.sol\":5207:5219  prescription */\n      dup3\n        /* \"Admin.sol\":5207:5234  prescription.doctorLocation */\n      0x40\n      add\n      mload\n        /* \"Admin.sol\":5058:5250  Doctor({\r... */\n      dup2\n      mstore\n      pop\n        /* \"Admin.sol\":5045:5052  doctors */\n      dup4\n        /* \"Admin.sol\":5053:5054  i */\n      dup4\n        /* \"Admin.sol\":5045:5055  doctors[i] */\n      dup2\n      mload\n      dup2\n      lt\n      tag_173\n      jumpi\n      mstore(0x00, shl(0xe0, 0x4e487b71))\n      mstore(0x04, 0x32)\n      revert(0x00, 0x24)\n    tag_173:\n      0x20\n      mul\n      0x20\n      add\n      add\n        /* \"Admin.sol\":5045:5250  doctors[i] = Doctor({\r... */\n      dup2\n      swap1\n      mstore\n      pop\n        /* \"Admin.sol\":4894:5262  for (uint i = 0; i < prescriptionCount; i++) {\r... */\n      pop\n        /* \"Admin.sol\":4934:4937  i++ */\n      dup1\n      dup1\n      tag_174\n      swap1\n      tag_175\n      jump\t// in\n    tag_174:\n      swap2\n      pop\n      pop\n        /* \"Admin.sol\":4894:5262  for (uint i = 0; i < prescriptionCount; i++) {\r... */\n      jump(tag_147)\n    tag_148:\n      pop\n        /* \"Admin.sol\":5281:5288  doctors */\n      swap2\n      pop\n      pop\n        /* \"Admin.sol\":4514:5296  function viewMyDoctors() public view onlyPatient returns (Doctor[] memory) {\r... */\n      swap1\n      jump\t// out\n        /* \"Admin.sol\":7226:7620  function deactivateUser(address userAddress) public onlyOwner {\r... */\n    tag_37:\n        /* \"Admin.sol\":254:267  hospitalAdmin */\n      and(sub(shl(0xa0, 0x01), 0x01), sload(0x00))\n        /* \"Admin.sol\":240:250  msg.sender */\n      caller\n        /* \"Admin.sol\":240:267  msg.sender == hospitalAdmin */\n      eq\n        /* \"Admin.sol\":218:366  require(\r... */\n      tag_177\n      jumpi\n      mload(0x40)\n      shl(0xe5, 0x461bcd)\n      dup2\n      mstore\n      0x04\n      add\n      tag_89\n      swap1\n      tag_90\n      jump\t// in\n    tag_177:\n      sub(shl(0xa0, 0x01), 0x01)\n        /* \"Admin.sol\":7307:7332  UsersDetails[userAddress] */\n      dup2\n      and\n      0x00\n      swap1\n      dup2\n      mstore\n        /* \"Admin.sol\":7307:7319  UsersDetails */\n      0x01\n        /* \"Admin.sol\":7307:7332  UsersDetails[userAddress] */\n      0x20\n      mstore\n      0x40\n      swap1\n      keccak256\n        /* \"Admin.sol\":7307:7339  UsersDetails[userAddress].exists */\n      0x04\n      add\n      sload\n      shl(0xb0, 0x01)\n      swap1\n      div\n      0xff\n      and\n        /* \"Admin.sol\":7299:7364  require(UsersDetails[userAddress].exists, \"User does not exist.\") */\n      tag_180\n      jumpi\n      mload(0x40)\n      shl(0xe5, 0x461bcd)\n      dup2\n      mstore\n      0x04\n      add\n      tag_89\n      swap1\n      tag_121\n      jump\t// in\n    tag_180:\n      sub(shl(0xa0, 0x01), 0x01)\n        /* \"Admin.sol\":7383:7408  UsersDetails[userAddress] */\n      dup2\n      and\n        /* \"Admin.sol\":7419:7435  CurStatus.Active */\n      0x00\n        /* \"Admin.sol\":7383:7408  UsersDetails[userAddress] */\n      swap1\n      dup2\n      mstore\n        /* \"Admin.sol\":7383:7395  UsersDetails */\n      0x01\n        /* \"Admin.sol\":7383:7408  UsersDetails[userAddress] */\n      0x20\n      dup2\n      swap1\n      mstore\n      0x40\n      dup3\n      keccak256\n        /* \"Admin.sol\":7383:7415  UsersDetails[userAddress].status */\n      0x04\n      add\n      sload\n      shl(0xa8, 0x01)\n      swap1\n      div\n      0xff\n      and\n      swap1\n        /* \"Admin.sol\":7383:7435  UsersDetails[userAddress].status == CurStatus.Active */\n      dup2\n      gt\n      iszero\n      tag_183\n      jumpi\n      mstore(0x00, shl(0xe0, 0x4e487b71))\n      mstore(0x04, 0x21)\n      revert(0x00, 0x24)\n    tag_183:\n      eq\n        /* \"Admin.sol\":7375:7465  require(UsersDetails[userAddress].status == CurStatus.Active, \"User is already inactive.\") */\n      tag_184\n      jumpi\n      mload(0x40)\n      shl(0xe5, 0x461bcd)\n      dup2\n      mstore\n      0x04\n      add\n      tag_89\n      swap1\n      tag_186\n      jump\t// in\n    tag_184:\n      sub(shl(0xa0, 0x01), 0x01)\n        /* \"Admin.sol\":7478:7503  UsersDetails[userAddress] */\n      dup2\n      and\n      0x00\n      dup2\n      dup2\n      mstore\n        /* \"Admin.sol\":7513:7531  CurStatus.Inactive */\n      0x01\n        /* \"Admin.sol\":7478:7503  UsersDetails[userAddress] */\n      0x20\n      dup2\n      swap1\n      mstore\n      0x40\n      swap2\n      dup3\n      swap1\n      keccak256\n        /* \"Admin.sol\":7478:7510  UsersDetails[userAddress].status */\n      0x04\n      dup2\n      add\n        /* \"Admin.sol\":7478:7531  UsersDetails[userAddress].status = CurStatus.Inactive */\n      dup1\n      sload\n      not(shl(0xa8, 0xff))\n      and\n      shl(0xa8, 0x01)\n      or\n      swap1\n      sstore\n        /* \"Admin.sol\":7547:7612  UserDeactivated(userAddress, UsersDetails[userAddress].firstname) */\n      swap2\n      mload\n      0x070e56ba67d3ba524c013e12ff9e91b873414f09f9c31c5365afcf94b1e28424\n      swap3\n      tag_188\n      swap3\n        /* \"Admin.sol\":7576:7611  UsersDetails[userAddress].firstname */\n      add\n      swap1\n        /* \"Admin.sol\":7547:7612  UserDeactivated(userAddress, UsersDetails[userAddress].firstname) */\n      tag_189\n      jump\t// in\n    tag_188:\n      mload(0x40)\n      dup1\n      swap2\n      sub\n      swap1\n      log2\n        /* \"Admin.sol\":7226:7620  function deactivateUser(address userAddress) public onlyOwner {\r... */\n      pop\n      jump\t// out\n        /* \"Admin.sol\":2123:2171  mapping(address => UserInfo) public UsersDetails */\n    tag_40:\n      0x01\n      0x20\n      dup2\n      swap1\n      mstore\n      0x00\n      swap2\n      dup3\n      mstore\n      0x40\n      swap1\n      swap2\n      keccak256\n      dup1\n      sload\n      swap2\n      dup2\n      add\n      dup1\n      sload\n      0xff\n      swap1\n      swap4\n      and\n      swap3\n      tag_190\n      swap1\n      tag_153\n      jump\t// in\n    tag_190:\n      dup1\n      0x1f\n      add\n      0x20\n      dup1\n      swap2\n      div\n      mul\n      0x20\n      add\n      mload(0x40)\n      swap1\n      dup2\n      add\n      0x40\n      mstore\n      dup1\n      swap3\n      swap2\n      swap1\n      dup2\n      dup2\n      mstore\n      0x20\n      add\n      dup3\n      dup1\n      sload\n      tag_191\n      swap1\n      tag_153\n      jump\t// in\n    tag_191:\n      dup1\n      iszero\n      tag_192\n      jumpi\n      dup1\n      0x1f\n      lt\n      tag_193\n      jumpi\n      0x0100\n      dup1\n      dup4\n      sload\n      div\n      mul\n      dup4\n      mstore\n      swap2\n      0x20\n      add\n      swap2\n      jump(tag_192)\n    tag_193:\n      dup3\n      add\n      swap2\n      swap1\n      0x00\n      mstore\n      keccak256(0x00, 0x20)\n      swap1\n    tag_194:\n      dup2\n      sload\n      dup2\n      mstore\n      swap1\n      0x01\n      add\n      swap1\n      0x20\n      add\n      dup1\n      dup4\n      gt\n      tag_194\n      jumpi\n      dup3\n      swap1\n      sub\n      0x1f\n      and\n      dup3\n      add\n      swap2\n    tag_192:\n      pop\n      pop\n      pop\n      pop\n      pop\n      swap1\n      dup1\n      0x02\n      add\n      dup1\n      sload\n      tag_195\n      swap1\n      tag_153\n      jump\t// in\n    tag_195:\n      dup1\n      0x1f\n      add\n      0x20\n      dup1\n      swap2\n      div\n      mul\n      0x20\n      add\n      mload(0x40)\n      swap1\n      dup2\n      add\n      0x40\n      mstore\n      dup1\n      swap3\n      swap2\n      swap1\n      dup2\n      dup2\n      mstore\n      0x20\n      add\n      dup3\n      dup1\n      sload\n      tag_196\n      swap1\n      tag_153\n      jump\t// in\n    tag_196:\n      dup1\n      iszero\n      tag_197\n      jumpi\n      dup1\n      0x1f\n      lt\n      tag_198\n      jumpi\n      0x0100\n      dup1\n      dup4\n      sload\n      div\n      mul\n      dup4\n      mstore\n      swap2\n      0x20\n      add\n      swap2\n      jump(tag_197)\n    tag_198:\n      dup3\n      add\n      swap2\n      swap1\n      0x00\n      mstore\n      keccak256(0x00, 0x20)\n      swap1\n    tag_199:\n      dup2\n      sload\n      dup2\n      mstore\n      swap1\n      0x01\n      add\n      swap1\n      0x20\n      add\n      dup1\n      dup4\n      gt\n      tag_199\n      jumpi\n      dup3\n      swap1\n      sub\n      0x1f\n      and\n      dup3\n      add\n      swap2\n    tag_197:\n      pop\n      pop\n      pop\n      pop\n      pop\n      swap1\n      dup1\n      0x03\n      add\n      dup1\n      sload\n      tag_200\n      swap1\n      tag_153\n      jump\t// in\n    tag_200:\n      dup1\n      0x1f\n      add\n      0x20\n      dup1\n      swap2\n      div\n      mul\n      0x20\n      add\n      mload(0x40)\n      swap1\n      dup2\n      add\n      0x40\n      mstore\n      dup1\n      swap3\n      swap2\n      swap1\n      dup2\n      dup2\n      mstore\n      0x20\n      add\n      dup3\n      dup1\n      sload\n      tag_201\n      swap1\n      tag_153\n      jump\t// in\n    tag_201:\n      dup1\n      iszero\n      tag_202\n      jumpi\n      dup1\n      0x1f\n      lt\n      tag_203\n      jumpi\n      0x0100\n      dup1\n      dup4\n      sload\n      div\n      mul\n      dup4\n      mstore\n      swap2\n      0x20\n      add\n      swap2\n      jump(tag_202)\n    tag_203:\n      dup3\n      add\n      swap2\n      swap1\n      0x00\n      mstore\n      keccak256(0x00, 0x20)\n      swap1\n    tag_204:\n      dup2\n      sload\n      dup2\n      mstore\n      swap1\n      0x01\n      add\n      swap1\n      0x20\n      add\n      dup1\n      dup4\n      gt\n      tag_204\n      jumpi\n      dup3\n      swap1\n      sub\n      0x1f\n      and\n      dup3\n      add\n      swap2\n    tag_202:\n      pop\n      pop\n      pop\n      0x04\n      swap1\n      swap4\n      add\n      sload\n      swap2\n      swap3\n      pop\n      pop\n      sub(shl(0xa0, 0x01), 0x01)\n      dup2\n      and\n      swap1\n      0xff\n      shl(0xa0, 0x01)\n      dup3\n      div\n      dup2\n      and\n      swap2\n      shl(0xa8, 0x01)\n      dup2\n      div\n      dup3\n      and\n      swap2\n      shl(0xb0, 0x01)\n      swap1\n      swap2\n      div\n      and\n      dup9\n      jump\t// out\n        /* \"Admin.sol\":3248:4264  function prescribeMedication(address patientAddress, string memory treatment, string memory notes) public onlyDoctor {\r... */\n    tag_46:\n        /* \"Admin.sol\":462:472  msg.sender */\n      caller\n        /* \"Admin.sol\":449:473  UsersDetails[msg.sender] */\n      0x00\n      swap1\n      dup2\n      mstore\n        /* \"Admin.sol\":449:461  UsersDetails */\n      0x01\n        /* \"Admin.sol\":449:473  UsersDetails[msg.sender] */\n      0x20\n      mstore\n      0x40\n      swap1\n      keccak256\n        /* \"Admin.sol\":449:480  UsersDetails[msg.sender].exists */\n      0x04\n      add\n      sload\n      shl(0xb0, 0x01)\n      swap1\n      div\n      0xff\n      and\n        /* \"Admin.sol\":427:528  require(\r... */\n      tag_206\n      jumpi\n      mload(0x40)\n      shl(0xe5, 0x461bcd)\n      dup2\n      mstore\n      0x04\n      add\n      tag_89\n      swap1\n      tag_121\n      jump\t// in\n    tag_206:\n        /* \"Admin.sol\":594:606  Roles.Doctor */\n      0x00\n        /* \"Admin.sol\":574:584  msg.sender */\n      caller\n        /* \"Admin.sol\":561:585  UsersDetails[msg.sender] */\n      0x00\n      swap1\n      dup2\n      mstore\n        /* \"Admin.sol\":561:573  UsersDetails */\n      0x01\n        /* \"Admin.sol\":561:585  UsersDetails[msg.sender] */\n      0x20\n      mstore\n      0x40\n      swap1\n      keccak256\n        /* \"Admin.sol\":561:590  UsersDetails[msg.sender].role */\n      0x04\n      add\n      sload\n      shl(0xa0, 0x01)\n      swap1\n      div\n      0xff\n      and\n        /* \"Admin.sol\":561:606  UsersDetails[msg.sender].role == Roles.Doctor */\n      0x02\n      dup2\n      gt\n      iszero\n      tag_209\n      jumpi\n      mstore(0x00, shl(0xe0, 0x4e487b71))\n      mstore(0x04, 0x21)\n      revert(0x00, 0x24)\n    tag_209:\n      eq\n        /* \"Admin.sol\":539:668  require(\r... */\n      tag_210\n      jumpi\n      mload(0x40)\n      shl(0xe5, 0x461bcd)\n      dup2\n      mstore\n      0x04\n      add\n      tag_89\n      swap1\n      tag_212\n      jump\t// in\n    tag_210:\n      sub(shl(0xa0, 0x01), 0x01)\n        /* \"Admin.sol\":3384:3412  UsersDetails[patientAddress] */\n      dup4\n      and\n      0x00\n      swap1\n      dup2\n      mstore\n        /* \"Admin.sol\":3384:3396  UsersDetails */\n      0x01\n        /* \"Admin.sol\":3384:3412  UsersDetails[patientAddress] */\n      0x20\n      mstore\n      0x40\n      swap1\n      keccak256\n        /* \"Admin.sol\":3384:3419  UsersDetails[patientAddress].exists */\n      0x04\n      add\n      sload\n      shl(0xb0, 0x01)\n      swap1\n      div\n      0xff\n      and\n        /* \"Admin.sol\":3376:3447  require(UsersDetails[patientAddress].exists, \"Patient does not exist.\") */\n      tag_214\n      jumpi\n      mload(0x40)\n      shl(0xe5, 0x461bcd)\n      dup2\n      mstore\n      0x04\n      add\n      tag_89\n      swap1\n      tag_141\n      jump\t// in\n    tag_214:\n        /* \"Admin.sol\":3503:3516  Roles.Patient */\n      0x01\n      sub(shl(0xa0, 0x01), 0x01)\n        /* \"Admin.sol\":3466:3494  UsersDetails[patientAddress] */\n      dup5\n      and\n      0x00\n      swap1\n      dup2\n      mstore\n        /* \"Admin.sol\":3466:3478  UsersDetails */\n      0x01\n        /* \"Admin.sol\":3466:3494  UsersDetails[patientAddress] */\n      0x20\n      mstore\n      0x40\n      swap1\n      keccak256\n        /* \"Admin.sol\":3466:3499  UsersDetails[patientAddress].role */\n      0x04\n      add\n      sload\n      shl(0xa0, 0x01)\n      swap1\n      div\n      0xff\n      and\n        /* \"Admin.sol\":3466:3516  UsersDetails[patientAddress].role == Roles.Patient */\n      0x02\n      dup2\n      gt\n      iszero\n      tag_217\n      jumpi\n      mstore(0x00, shl(0xe0, 0x4e487b71))\n      mstore(0x04, 0x21)\n      revert(0x00, 0x24)\n    tag_217:\n      eq\n        /* \"Admin.sol\":3458:3563  require(UsersDetails[patientAddress].role == Roles.Patient, \"Can only prescribe medication to patients.\") */\n      tag_218\n      jumpi\n      mload(0x40)\n      shl(0xe5, 0x461bcd)\n      dup2\n      mstore\n      0x04\n      add\n      tag_89\n      swap1\n      tag_220\n      jump\t// in\n    tag_218:\n        /* \"Admin.sol\":3687:3697  msg.sender */\n      caller\n        /* \"Admin.sol\":3625:3647  string memory fullName */\n      0x00\n        /* \"Admin.sol\":3674:3698  UsersDetails[msg.sender] */\n      swap1\n      dup2\n      mstore\n        /* \"Admin.sol\":3674:3686  UsersDetails */\n      0x01\n        /* \"Admin.sol\":3674:3698  UsersDetails[msg.sender] */\n      0x20\n      dup2\n      dup2\n      mstore\n      0x40\n      dup1\n      dup5\n      keccak256\n        /* \"Admin.sol\":3657:3749  abi.encodePacked(UsersDetails[msg.sender].firstname, \" \", UsersDetails[msg.sender].lastname) */\n      swap1\n      mload\n      tag_221\n      swap4\n        /* \"Admin.sol\":3674:3708  UsersDetails[msg.sender].firstname */\n      dup3\n      add\n      swap3\n        /* \"Admin.sol\":3715:3748  UsersDetails[msg.sender].lastname */\n      0x02\n      swap1\n      swap3\n      add\n      swap2\n        /* \"Admin.sol\":3657:3749  abi.encodePacked(UsersDetails[msg.sender].firstname, \" \", UsersDetails[msg.sender].lastname) */\n      add\n      tag_222\n      jump\t// in\n    tag_221:\n      0x40\n      dup1\n      mload\n      not(0x1f)\n      dup2\n      dup5\n      sub\n      add\n      dup2\n      mstore\n      sub(shl(0xa0, 0x01), 0x01)\n        /* \"Admin.sol\":3880:3908  UsersDetails[patientAddress] */\n      dup8\n      and\n      0x00\n      swap1\n      dup2\n      mstore\n        /* \"Admin.sol\":3880:3892  UsersDetails */\n      0x01\n        /* \"Admin.sol\":3657:3749  abi.encodePacked(UsersDetails[msg.sender].firstname, \" \", UsersDetails[msg.sender].lastname) */\n      0x20\n        /* \"Admin.sol\":3880:3908  UsersDetails[patientAddress] */\n      dup2\n      dup2\n      mstore\n      dup5\n      dup4\n      keccak256\n        /* \"Admin.sol\":3928:4178  Prescription({\r... */\n      0xa0\n      dup8\n      add\n      dup7\n      mstore\n        /* \"Admin.sol\":3964:3974  msg.sender */\n      caller\n        /* \"Admin.sol\":3928:4178  Prescription({\r... */\n      dup1\n      dup9\n      mstore\n      dup8\n      dup4\n      add\n      dup7\n      swap1\n      mstore\n        /* \"Admin.sol\":4071:4095  UsersDetails[msg.sender] */\n      dup5\n      mstore\n      swap2\n      swap1\n      mstore\n      swap1\n      dup4\n      swap1\n      keccak256\n        /* \"Admin.sol\":4071:4104  UsersDetails[msg.sender].location */\n      0x03\n      add\n        /* \"Admin.sol\":3928:4178  Prescription({\r... */\n      dup1\n      sload\n        /* \"Admin.sol\":3657:3749  abi.encodePacked(UsersDetails[msg.sender].firstname, \" \", UsersDetails[msg.sender].lastname) */\n      swap3\n      swap6\n      pop\n        /* \"Admin.sol\":3880:3922  UsersDetails[patientAddress].prescriptions */\n      0x05\n      swap1\n      swap2\n      add\n      swap4\n        /* \"Admin.sol\":3657:3749  abi.encodePacked(UsersDetails[msg.sender].firstname, \" \", UsersDetails[msg.sender].lastname) */\n      swap3\n        /* \"Admin.sol\":3928:4178  Prescription({\r... */\n      dup4\n      add\n      swap2\n      tag_223\n      swap1\n      tag_153\n      jump\t// in\n    tag_223:\n      dup1\n      0x1f\n      add\n      0x20\n      dup1\n      swap2\n      div\n      mul\n      0x20\n      add\n      mload(0x40)\n      swap1\n      dup2\n      add\n      0x40\n      mstore\n      dup1\n      swap3\n      swap2\n      swap1\n      dup2\n      dup2\n      mstore\n      0x20\n      add\n      dup3\n      dup1\n      sload\n      tag_224\n      swap1\n      tag_153\n      jump\t// in\n    tag_224:\n      dup1\n      iszero\n      tag_225\n      jumpi\n      dup1\n      0x1f\n      lt\n      tag_226\n      jumpi\n      0x0100\n      dup1\n      dup4\n      sload\n      div\n      mul\n      dup4\n      mstore\n      swap2\n      0x20\n      add\n      swap2\n      jump(tag_225)\n    tag_226:\n      dup3\n      add\n      swap2\n      swap1\n      0x00\n      mstore\n      keccak256(0x00, 0x20)\n      swap1\n    tag_227:\n      dup2\n      sload\n      dup2\n      mstore\n      swap1\n      0x01\n      add\n      swap1\n      0x20\n      add\n      dup1\n      dup4\n      gt\n      tag_227\n      jumpi\n      dup3\n      swap1\n      sub\n      0x1f\n      and\n      dup3\n      add\n      swap2\n    tag_225:\n      pop\n      pop\n      pop\n      swap2\n      dup4\n      mstore\n      pop\n      pop\n      0x20\n      dup1\n      dup3\n      add\n      dup8\n      swap1\n      mstore\n      0x40\n      swap1\n      swap2\n      add\n      dup6\n      swap1\n      mstore\n        /* \"Admin.sol\":3880:4179  UsersDetails[patientAddress].prescriptions.push(Prescription({\r... */\n      dup3\n      sload\n      0x01\n      dup1\n      dup3\n      add\n      dup6\n      sstore\n      0x00\n      swap5\n      dup6\n      mstore\n      swap4\n      dup3\n      swap1\n      keccak256\n      dup4\n      mload\n      0x05\n      swap1\n      swap3\n      mul\n      add\n      dup1\n      sload\n      not(sub(shl(0xa0, 0x01), 0x01))\n      and\n      sub(shl(0xa0, 0x01), 0x01)\n      swap1\n      swap3\n      and\n      swap2\n      swap1\n      swap2\n      or\n      dup2\n      sstore\n      dup3\n      dup3\n      add\n      mload\n      dup1\n      mload\n      swap4\n      swap5\n      swap2\n      swap4\n      tag_229\n      swap4\n      swap3\n      dup6\n      add\n      swap3\n      swap2\n      swap1\n      swap2\n      add\n      swap1\n      tag_106\n      jump\t// in\n    tag_229:\n      pop\n      0x40\n      dup3\n      add\n      mload\n      dup1\n      mload\n      tag_230\n      swap2\n      0x02\n      dup5\n      add\n      swap2\n      0x20\n      swap1\n      swap2\n      add\n      swap1\n      tag_106\n      jump\t// in\n    tag_230:\n      pop\n      0x60\n      dup3\n      add\n      mload\n      dup1\n      mload\n      tag_231\n      swap2\n      0x03\n      dup5\n      add\n      swap2\n      0x20\n      swap1\n      swap2\n      add\n      swap1\n      tag_106\n      jump\t// in\n    tag_231:\n      pop\n      0x80\n      dup3\n      add\n      mload\n      dup1\n      mload\n      tag_232\n      swap2\n      0x04\n      dup5\n      add\n      swap2\n      0x20\n      swap1\n      swap2\n      add\n      swap1\n      tag_106\n      jump\t// in\n    tag_232:\n      pop\n      pop\n      pop\n        /* \"Admin.sol\":4230:4244  patientAddress */\n      dup4\n      sub(shl(0xa0, 0x01), 0x01)\n        /* \"Admin.sol\":4197:4256  MedicationPrescribed(msg.sender, patientAddress, treatment) */\n      and\n        /* \"Admin.sol\":4218:4228  msg.sender */\n      caller\n      sub(shl(0xa0, 0x01), 0x01)\n        /* \"Admin.sol\":4197:4256  MedicationPrescribed(msg.sender, patientAddress, treatment) */\n      and\n      0x349c187a0459596ea8356279c33b8d579810659bfcf9831c05c58e30cc1031d3\n        /* \"Admin.sol\":4246:4255  treatment */\n      dup6\n        /* \"Admin.sol\":4197:4256  MedicationPrescribed(msg.sender, patientAddress, treatment) */\n      mload(0x40)\n      tag_233\n      swap2\n      swap1\n      tag_114\n      jump\t// in\n    tag_233:\n      mload(0x40)\n      dup1\n      swap2\n      sub\n      swap1\n      log3\n        /* \"Admin.sol\":679:680  _ */\n      pop\n        /* \"Admin.sol\":3248:4264  function prescribeMedication(address patientAddress, string memory treatment, string memory notes) public onlyDoctor {\r... */\n      pop\n      pop\n      pop\n      jump\t// out\n        /* \"Admin.sol\":8543:9272  function deleteUser(address userAddress) public onlyOwner {\r... */\n    tag_49:\n        /* \"Admin.sol\":254:267  hospitalAdmin */\n      and(sub(shl(0xa0, 0x01), 0x01), sload(0x00))\n        /* \"Admin.sol\":240:250  msg.sender */\n      caller\n        /* \"Admin.sol\":240:267  msg.sender == hospitalAdmin */\n      eq\n        /* \"Admin.sol\":218:366  require(\r... */\n      tag_235\n      jumpi\n      mload(0x40)\n      shl(0xe5, 0x461bcd)\n      dup2\n      mstore\n      0x04\n      add\n      tag_89\n      swap1\n      tag_90\n      jump\t// in\n    tag_235:\n      sub(shl(0xa0, 0x01), 0x01)\n        /* \"Admin.sol\":8620:8645  UsersDetails[userAddress] */\n      dup2\n      and\n      0x00\n      swap1\n      dup2\n      mstore\n        /* \"Admin.sol\":8620:8632  UsersDetails */\n      0x01\n        /* \"Admin.sol\":8620:8645  UsersDetails[userAddress] */\n      0x20\n      mstore\n      0x40\n      swap1\n      keccak256\n        /* \"Admin.sol\":8620:8652  UsersDetails[userAddress].exists */\n      0x04\n      add\n      sload\n      shl(0xb0, 0x01)\n      swap1\n      div\n      0xff\n      and\n        /* \"Admin.sol\":8612:8677  require(UsersDetails[userAddress].exists, \"User does not exist.\") */\n      tag_238\n      jumpi\n      mload(0x40)\n      shl(0xe5, 0x461bcd)\n      dup2\n      mstore\n      0x04\n      add\n      tag_89\n      swap1\n      tag_121\n      jump\t// in\n    tag_238:\n      sub(shl(0xa0, 0x01), 0x01)\n        /* \"Admin.sol\":8716:8741  UsersDetails[userAddress] */\n      dup2\n      and\n        /* \"Admin.sol\":8690:8713  string memory firstname */\n      0x00\n        /* \"Admin.sol\":8716:8741  UsersDetails[userAddress] */\n      swap1\n      dup2\n      mstore\n        /* \"Admin.sol\":8716:8728  UsersDetails */\n      0x01\n        /* \"Admin.sol\":8716:8741  UsersDetails[userAddress] */\n      0x20\n      dup2\n      swap1\n      mstore\n      0x40\n      dup3\n      keccak256\n        /* \"Admin.sol\":8716:8751  UsersDetails[userAddress].firstname */\n      add\n        /* \"Admin.sol\":8690:8751  string memory firstname = UsersDetails[userAddress].firstname */\n      dup1\n      sload\n      tag_240\n      swap1\n      tag_153\n      jump\t// in\n    tag_240:\n      dup1\n      0x1f\n      add\n      0x20\n      dup1\n      swap2\n      div\n      mul\n      0x20\n      add\n      mload(0x40)\n      swap1\n      dup2\n      add\n      0x40\n      mstore\n      dup1\n      swap3\n      swap2\n      swap1\n      dup2\n      dup2\n      mstore\n      0x20\n      add\n      dup3\n      dup1\n      sload\n      tag_241\n      swap1\n      tag_153\n      jump\t// in\n    tag_241:\n      dup1\n      iszero\n      tag_242\n      jumpi\n      dup1\n      0x1f\n      lt\n      tag_243\n      jumpi\n      0x0100\n      dup1\n      dup4\n      sload\n      div\n      mul\n      dup4\n      mstore\n      swap2\n      0x20\n      add\n      swap2\n      jump(tag_242)\n    tag_243:\n      dup3\n      add\n      swap2\n      swap1\n      0x00\n      mstore\n      keccak256(0x00, 0x20)\n      swap1\n    tag_244:\n      dup2\n      sload\n      dup2\n      mstore\n      swap1\n      0x01\n      add\n      swap1\n      0x20\n      add\n      dup1\n      dup4\n      gt\n      tag_244\n      jumpi\n      dup3\n      swap1\n      sub\n      0x1f\n      and\n      dup3\n      add\n      swap2\n    tag_242:\n      pop\n      pop\n      pop\n      sub(shl(0xa0, 0x01), 0x01)\n        /* \"Admin.sol\":8841:8866  UsersDetails[userAddress] */\n      dup6\n      and\n      0x00\n      swap1\n      dup2\n      mstore\n        /* \"Admin.sol\":8841:8853  UsersDetails */\n      0x01\n        /* \"Admin.sol\":8841:8866  UsersDetails[userAddress] */\n      0x20\n      dup2\n      swap1\n      mstore\n      0x40\n      dup3\n      keccak256\n        /* \"Admin.sol\":8834:8866  delete UsersDetails[userAddress] */\n      dup1\n      sload\n      not(0xff)\n      and\n      dup2\n      sstore\n        /* \"Admin.sol\":8690:8751  string memory firstname = UsersDetails[userAddress].firstname */\n      swap5\n      swap6\n      pop\n        /* \"Admin.sol\":8841:8866  UsersDetails[userAddress] */\n      swap1\n      swap3\n      pop\n        /* \"Admin.sol\":8834:8866  delete UsersDetails[userAddress] */\n      tag_245\n      swap2\n      pop\n      dup4\n      add\n        /* \"Admin.sol\":8841:8866  UsersDetails[userAddress] */\n      dup3\n        /* \"Admin.sol\":8834:8866  delete UsersDetails[userAddress] */\n      tag_246\n      jump\t// in\n    tag_245:\n      tag_247\n      0x02\n      dup4\n      add\n      0x00\n      tag_246\n      jump\t// in\n    tag_247:\n      tag_248\n      0x03\n      dup4\n      add\n      0x00\n      tag_246\n      jump\t// in\n    tag_248:\n      0x04\n      dup3\n      add\n      dup1\n      sload\n      not(sub(shl(0xb8, 0x01), 0x01))\n      and\n      swap1\n      sstore\n      tag_249\n      0x05\n      dup4\n      add\n      0x00\n      tag_250\n      jump\t// in\n    tag_249:\n      pop\n      pop\n        /* \"Admin.sol\":8933:8939  uint i */\n      0x00\n        /* \"Admin.sol\":8928:9212  for (uint i = 0; i < users.length; i++) {\r... */\n    tag_251:\n        /* \"Admin.sol\":8949:8954  users */\n      0x02\n        /* \"Admin.sol\":8949:8961  users.length */\n      sload\n        /* \"Admin.sol\":8945:8961  i < users.length */\n      dup2\n      lt\n        /* \"Admin.sol\":8928:9212  for (uint i = 0; i < users.length; i++) {\r... */\n      iszero\n      tag_252\n      jumpi\n        /* \"Admin.sol\":8999:9010  userAddress */\n      dup3\n      sub(shl(0xa0, 0x01), 0x01)\n        /* \"Admin.sol\":8987:9010  users[i] == userAddress */\n      and\n        /* \"Admin.sol\":8987:8992  users */\n      0x02\n        /* \"Admin.sol\":8993:8994  i */\n      dup3\n        /* \"Admin.sol\":8987:8995  users[i] */\n      dup2\n      sload\n      dup2\n      lt\n      tag_254\n      jumpi\n      mstore(0x00, shl(0xe0, 0x4e487b71))\n      mstore(0x04, 0x32)\n      revert(0x00, 0x24)\n    tag_254:\n      0x00\n      swap2\n      dup3\n      mstore\n      0x20\n      swap1\n      swap2\n      keccak256\n      add\n      sload\n      sub(shl(0xa0, 0x01), 0x01)\n      and\n        /* \"Admin.sol\":8987:9010  users[i] == userAddress */\n      eq\n        /* \"Admin.sol\":8983:9201  if (users[i] == userAddress) {\r... */\n      iszero\n      tag_256\n      jumpi\n        /* \"Admin.sol\":9042:9047  users */\n      0x02\n        /* \"Admin.sol\":9048:9060  users.length */\n      dup1\n      sload\n        /* \"Admin.sol\":9048:9064  users.length - 1 */\n      tag_257\n      swap1\n        /* \"Admin.sol\":9063:9064  1 */\n      0x01\n      swap1\n        /* \"Admin.sol\":9048:9064  users.length - 1 */\n      tag_258\n      jump\t// in\n    tag_257:\n        /* \"Admin.sol\":9042:9065  users[users.length - 1] */\n      dup2\n      sload\n      dup2\n      lt\n      tag_259\n      jumpi\n      mstore(0x00, shl(0xe0, 0x4e487b71))\n      mstore(0x04, 0x32)\n      revert(0x00, 0x24)\n    tag_259:\n      0x00\n      swap2\n      dup3\n      mstore\n      0x20\n      swap1\n      swap2\n      keccak256\n      add\n      sload\n        /* \"Admin.sol\":9031:9036  users */\n      0x02\n        /* \"Admin.sol\":9031:9039  users[i] */\n      dup1\n      sload\n      sub(shl(0xa0, 0x01), 0x01)\n        /* \"Admin.sol\":9042:9065  users[users.length - 1] */\n      swap1\n      swap3\n      and\n      swap2\n        /* \"Admin.sol\":9037:9038  i */\n      dup4\n      swap1\n        /* \"Admin.sol\":9031:9039  users[i] */\n      dup2\n      lt\n      tag_261\n      jumpi\n      mstore(0x00, shl(0xe0, 0x4e487b71))\n      mstore(0x04, 0x32)\n      revert(0x00, 0x24)\n    tag_261:\n      swap1\n      0x00\n      mstore\n      keccak256(0x00, 0x20)\n      add\n      0x00\n        /* \"Admin.sol\":9031:9065  users[i] = users[users.length - 1] */\n      0x0100\n      exp\n      dup2\n      sload\n      dup2\n      sub(shl(0xa0, 0x01), 0x01)\n      mul\n      not\n      and\n      swap1\n      dup4\n      sub(shl(0xa0, 0x01), 0x01)\n      and\n      mul\n      or\n      swap1\n      sstore\n      pop\n        /* \"Admin.sol\":9126:9131  users */\n      0x02\n        /* \"Admin.sol\":9126:9137  users.pop() */\n      dup1\n      sload\n      dup1\n      tag_263\n      jumpi\n      mstore(0x00, shl(0xe0, 0x4e487b71))\n      mstore(0x04, 0x31)\n      revert(0x00, 0x24)\n    tag_263:\n      0x00\n      dup3\n      dup2\n      mstore\n      0x20\n      swap1\n      keccak256\n      dup2\n      add\n      not(0x00)\n      swap1\n      dup2\n      add\n      dup1\n      sload\n      not(sub(shl(0xa0, 0x01), 0x01))\n      and\n      swap1\n      sstore\n      add\n      swap1\n      sstore\n        /* \"Admin.sol\":9180:9185  break */\n      jump(tag_252)\n        /* \"Admin.sol\":8983:9201  if (users[i] == userAddress) {\r... */\n    tag_256:\n        /* \"Admin.sol\":8963:8966  i++ */\n      dup1\n      tag_265\n      dup2\n      tag_175\n      jump\t// in\n    tag_265:\n      swap2\n      pop\n      pop\n        /* \"Admin.sol\":8928:9212  for (uint i = 0; i < users.length; i++) {\r... */\n      jump(tag_251)\n    tag_252:\n      pop\n        /* \"Admin.sol\":9241:9252  userAddress */\n      dup2\n      sub(shl(0xa0, 0x01), 0x01)\n        /* \"Admin.sol\":9229:9264  UserDeleted(userAddress, firstname) */\n      and\n      0x32b931fea2d04014124dfdebbcff93ed4b64527a35af5d25c75a1a79b2f5b3bf\n        /* \"Admin.sol\":9254:9263  firstname */\n      dup3\n        /* \"Admin.sol\":9229:9264  UserDeleted(userAddress, firstname) */\n      mload(0x40)\n      tag_128\n      swap2\n      swap1\n      tag_114\n      jump\t// in\n        /* \"Admin.sol\":9330:10022  function getUserInfo(address userAddress)\r... */\n    tag_52:\n      sub(shl(0xa0, 0x01), 0x01)\n        /* \"Admin.sol\":9658:9683  UsersDetails[userAddress] */\n      dup2\n      and\n        /* \"Admin.sol\":9416:9426  uint title */\n      0x00\n        /* \"Admin.sol\":9658:9683  UsersDetails[userAddress] */\n      swap1\n      dup2\n      mstore\n        /* \"Admin.sol\":9658:9670  UsersDetails */\n      0x01\n        /* \"Admin.sol\":9658:9683  UsersDetails[userAddress] */\n      0x20\n      mstore\n      0x40\n      dup2\n      keccak256\n        /* \"Admin.sol\":9658:9690  UsersDetails[userAddress].exists */\n      0x04\n      add\n      sload\n        /* \"Admin.sol\":9441:9464  string memory firstname */\n      0x60\n      swap1\n      dup2\n      swap1\n      dup2\n      swap1\n        /* \"Admin.sol\":9416:9426  uint title */\n      dup5\n      swap1\n      dup2\n      swap1\n      dup2\n      swap1\n      shl(0xb0, 0x01)\n        /* \"Admin.sol\":9658:9690  UsersDetails[userAddress].exists */\n      swap1\n      div\n      0xff\n      and\n        /* \"Admin.sol\":9650:9715  require(UsersDetails[userAddress].exists, \"User does not exist.\") */\n      tag_268\n      jumpi\n      mload(0x40)\n      shl(0xe5, 0x461bcd)\n      dup2\n      mstore\n      0x04\n      add\n      tag_89\n      swap1\n      tag_121\n      jump\t// in\n    tag_268:\n      sub(shl(0xa0, 0x01), 0x01)\n        /* \"Admin.sol\":9750:9775  UsersDetails[userAddress] */\n      dup9\n      and\n        /* \"Admin.sol\":9726:9747  UserInfo storage user */\n      0x00\n        /* \"Admin.sol\":9750:9775  UsersDetails[userAddress] */\n      swap1\n      dup2\n      mstore\n        /* \"Admin.sol\":9750:9762  UsersDetails */\n      0x01\n        /* \"Admin.sol\":9750:9775  UsersDetails[userAddress] */\n      0x20\n      mstore\n      0x40\n      swap1\n      keccak256\n        /* \"Admin.sol\":9815:9825  user.title */\n      dup1\n      sload\n      0xff\n      and\n        /* \"Admin.sol\":9810:9826  uint(user.title) */\n      0x03\n      dup2\n      gt\n      iszero\n      tag_270\n      jumpi\n      mstore(0x00, shl(0xe0, 0x4e487b71))\n      mstore(0x04, 0x21)\n      revert(0x00, 0x24)\n    tag_270:\n        /* \"Admin.sol\":9926:9941  user.ethAddress */\n      0x04\n      dup3\n      add\n      sload\n        /* \"Admin.sol\":9841:9855  user.firstname */\n      0x01\n      dup4\n      add\n      swap1\n        /* \"Admin.sol\":9870:9883  user.lastname */\n      0x02\n      dup1\n      dup6\n      add\n      swap2\n        /* \"Admin.sol\":9898:9911  user.location */\n      0x03\n      dup7\n      add\n      swap2\n      sub(shl(0xa0, 0x01), 0x01)\n        /* \"Admin.sol\":9926:9941  user.ethAddress */\n      dup3\n      and\n      swap2\n      shl(0xa0, 0x01)\n        /* \"Admin.sol\":9961:9970  user.role */\n      swap1\n      div\n      0xff\n      and\n      swap1\n        /* \"Admin.sol\":9956:9971  uint(user.role) */\n      dup2\n      gt\n      iszero\n      tag_271\n      jumpi\n      mstore(0x00, shl(0xe0, 0x4e487b71))\n      mstore(0x04, 0x21)\n      revert(0x00, 0x24)\n    tag_271:\n        /* \"Admin.sol\":9991:10002  user.status */\n      0x04\n      dup8\n      add\n      sload\n      shl(0xa8, 0x01)\n      swap1\n      div\n      0xff\n      and\n        /* \"Admin.sol\":9986:10003  uint(user.status) */\n      0x01\n      dup2\n      gt\n      iszero\n      tag_272\n      jumpi\n      mstore(0x00, shl(0xe0, 0x4e487b71))\n      mstore(0x04, 0x21)\n      revert(0x00, 0x24)\n    tag_272:\n        /* \"Admin.sol\":9788:10014  return (\r... */\n      dup6\n      dup1\n      sload\n      tag_273\n      swap1\n      tag_153\n      jump\t// in\n    tag_273:\n      dup1\n      0x1f\n      add\n      0x20\n      dup1\n      swap2\n      div\n      mul\n      0x20\n      add\n      mload(0x40)\n      swap1\n      dup2\n      add\n      0x40\n      mstore\n      dup1\n      swap3\n      swap2\n      swap1\n      dup2\n      dup2\n      mstore\n      0x20\n      add\n      dup3\n      dup1\n      sload\n      tag_274\n      swap1\n      tag_153\n      jump\t// in\n    tag_274:\n      dup1\n      iszero\n      tag_275\n      jumpi\n      dup1\n      0x1f\n      lt\n      tag_276\n      jumpi\n      0x0100\n      dup1\n      dup4\n      sload\n      div\n      mul\n      dup4\n      mstore\n      swap2\n      0x20\n      add\n      swap2\n      jump(tag_275)\n    tag_276:\n      dup3\n      add\n      swap2\n      swap1\n      0x00\n      mstore\n      keccak256(0x00, 0x20)\n      swap1\n    tag_277:\n      dup2\n      sload\n      dup2\n      mstore\n      swap1\n      0x01\n      add\n      swap1\n      0x20\n      add\n      dup1\n      dup4\n      gt\n      tag_277\n      jumpi\n      dup3\n      swap1\n      sub\n      0x1f\n      and\n      dup3\n      add\n      swap2\n    tag_275:\n      pop\n      pop\n      pop\n      pop\n      pop\n      swap6\n      pop\n      dup5\n      dup1\n      sload\n      tag_278\n      swap1\n      tag_153\n      jump\t// in\n    tag_278:\n      dup1\n      0x1f\n      add\n      0x20\n      dup1\n      swap2\n      div\n      mul\n      0x20\n      add\n      mload(0x40)\n      swap1\n      dup2\n      add\n      0x40\n      mstore\n      dup1\n      swap3\n      swap2\n      swap1\n      dup2\n      dup2\n      mstore\n      0x20\n      add\n      dup3\n      dup1\n      sload\n      tag_279\n      swap1\n      tag_153\n      jump\t// in\n    tag_279:\n      dup1\n      iszero\n      tag_280\n      jumpi\n      dup1\n      0x1f\n      lt\n      tag_281\n      jumpi\n      0x0100\n      dup1\n      dup4\n      sload\n      div\n      mul\n      dup4\n      mstore\n      swap2\n      0x20\n      add\n      swap2\n      jump(tag_280)\n    tag_281:\n      dup3\n      add\n      swap2\n      swap1\n      0x00\n      mstore\n      keccak256(0x00, 0x20)\n      swap1\n    tag_282:\n      dup2\n      sload\n      dup2\n      mstore\n      swap1\n      0x01\n      add\n      swap1\n      0x20\n      add\n      dup1\n      dup4\n      gt\n      tag_282\n      jumpi\n      dup3\n      swap1\n      sub\n      0x1f\n      and\n      dup3\n      add\n      swap2\n    tag_280:\n      pop\n      pop\n      pop\n      pop\n      pop\n      swap5\n      pop\n      dup4\n      dup1\n      sload\n      tag_283\n      swap1\n      tag_153\n      jump\t// in\n    tag_283:\n      dup1\n      0x1f\n      add\n      0x20\n      dup1\n      swap2\n      div\n      mul\n      0x20\n      add\n      mload(0x40)\n      swap1\n      dup2\n      add\n      0x40\n      mstore\n      dup1\n      swap3\n      swap2\n      swap1\n      dup2\n      dup2\n      mstore\n      0x20\n      add\n      dup3\n      dup1\n      sload\n      tag_284\n      swap1\n      tag_153\n      jump\t// in\n    tag_284:\n      dup1\n      iszero\n      tag_285\n      jumpi\n      dup1\n      0x1f\n      lt\n      tag_286\n      jumpi\n      0x0100\n      dup1\n      dup4\n      sload\n      div\n      mul\n      dup4\n      mstore\n      swap2\n      0x20\n      add\n      swap2\n      jump(tag_285)\n    tag_286:\n      dup3\n      add\n      swap2\n      swap1\n      0x00\n      mstore\n      keccak256(0x00, 0x20)\n      swap1\n    tag_287:\n      dup2\n      sload\n      dup2\n      mstore\n      swap1\n      0x01\n      add\n      swap1\n      0x20\n      add\n      dup1\n      dup4\n      gt\n      tag_287\n      jumpi\n      dup3\n      swap1\n      sub\n      0x1f\n      and\n      dup3\n      add\n      swap2\n    tag_285:\n      pop\n      pop\n      pop\n      pop\n      pop\n      swap4\n      pop\n      swap8\n      pop\n      swap8\n      pop\n      swap8\n      pop\n      swap8\n      pop\n      swap8\n      pop\n      swap8\n      pop\n      swap8\n      pop\n      pop\n        /* \"Admin.sol\":9330:10022  function getUserInfo(address userAddress)\r... */\n      swap2\n      swap4\n      swap6\n      swap8\n      swap1\n      swap3\n      swap5\n      swap7\n      pop\n      jump\t// out\n        /* \"Admin.sol\":6831:7180  function getPatientPrescriptions(address patientAddress) public view returns (Prescription[] memory) {\r... */\n    tag_57:\n      sub(shl(0xa0, 0x01), 0x01)\n        /* \"Admin.sol\":6951:6979  UsersDetails[patientAddress] */\n      dup2\n      and\n      0x00\n      swap1\n      dup2\n      mstore\n        /* \"Admin.sol\":6951:6963  UsersDetails */\n      0x01\n        /* \"Admin.sol\":6951:6979  UsersDetails[patientAddress] */\n      0x20\n      mstore\n      0x40\n      swap1\n      keccak256\n        /* \"Admin.sol\":6951:6986  UsersDetails[patientAddress].exists */\n      0x04\n      add\n      sload\n        /* \"Admin.sol\":6909:6930  Prescription[] memory */\n      0x60\n      swap1\n      shl(0xb0, 0x01)\n        /* \"Admin.sol\":6951:6986  UsersDetails[patientAddress].exists */\n      swap1\n      div\n      0xff\n      and\n        /* \"Admin.sol\":6943:7014  require(UsersDetails[patientAddress].exists, \"Patient does not exist.\") */\n      tag_289\n      jumpi\n      mload(0x40)\n      shl(0xe5, 0x461bcd)\n      dup2\n      mstore\n      0x04\n      add\n      tag_89\n      swap1\n      tag_141\n      jump\t// in\n    tag_289:\n        /* \"Admin.sol\":7070:7083  Roles.Patient */\n      0x01\n      sub(shl(0xa0, 0x01), 0x01)\n        /* \"Admin.sol\":7033:7061  UsersDetails[patientAddress] */\n      dup4\n      and\n      0x00\n      swap1\n      dup2\n      mstore\n        /* \"Admin.sol\":7033:7045  UsersDetails */\n      0x01\n        /* \"Admin.sol\":7033:7061  UsersDetails[patientAddress] */\n      0x20\n      mstore\n      0x40\n      swap1\n      keccak256\n        /* \"Admin.sol\":7033:7066  UsersDetails[patientAddress].role */\n      0x04\n      add\n      sload\n      shl(0xa0, 0x01)\n      swap1\n      div\n      0xff\n      and\n        /* \"Admin.sol\":7033:7083  UsersDetails[patientAddress].role == Roles.Patient */\n      0x02\n      dup2\n      gt\n      iszero\n      tag_292\n      jumpi\n      mstore(0x00, shl(0xe0, 0x4e487b71))\n      mstore(0x04, 0x21)\n      revert(0x00, 0x24)\n    tag_292:\n      eq\n        /* \"Admin.sol\":7025:7110  require(UsersDetails[patientAddress].role == Roles.Patient, \"User is not a patient.\") */\n      tag_293\n      jumpi\n      mload(0x40)\n      shl(0xe5, 0x461bcd)\n      dup2\n      mstore\n      0x04\n      add\n      tag_89\n      swap1\n      tag_295\n      jump\t// in\n    tag_293:\n      sub(shl(0xa0, 0x01), 0x01)\n        /* \"Admin.sol\":7130:7158  UsersDetails[patientAddress] */\n      dup3\n      and\n      0x00\n      swap1\n      dup2\n      mstore\n        /* \"Admin.sol\":7130:7142  UsersDetails */\n      0x01\n        /* \"Admin.sol\":7130:7158  UsersDetails[patientAddress] */\n      0x20\n      swap1\n      dup2\n      mstore\n      0x40\n      dup1\n      dup4\n      keccak256\n        /* \"Admin.sol\":7130:7172  UsersDetails[patientAddress].prescriptions */\n      0x05\n      add\n        /* \"Admin.sol\":7123:7172  return UsersDetails[patientAddress].prescriptions */\n      dup1\n      sload\n      dup3\n      mload\n      dup2\n      dup6\n      mul\n      dup2\n      add\n      dup6\n      add\n      swap1\n      swap4\n      mstore\n      dup1\n      dup4\n      mstore\n      swap2\n      swap4\n        /* \"Admin.sol\":7130:7172  UsersDetails[patientAddress].prescriptions */\n      swap1\n      swap3\n        /* \"Admin.sol\":7123:7172  return UsersDetails[patientAddress].prescriptions */\n      dup5\n      add\n    tag_296:\n      dup3\n      dup3\n      lt\n      iszero\n      tag_297\n      jumpi\n      0x00\n      dup5\n      dup2\n      mstore\n      0x20\n      swap1\n      dup2\n      swap1\n      keccak256\n      0x40\n      dup1\n      mload\n      0xa0\n      dup2\n      add\n      swap1\n      swap2\n      mstore\n      0x05\n      dup6\n      mul\n      swap1\n      swap2\n      add\n      dup1\n      sload\n      sub(shl(0xa0, 0x01), 0x01)\n      and\n      dup3\n      mstore\n      0x01\n      dup2\n      add\n      dup1\n      sload\n      swap3\n      swap4\n      swap2\n      swap3\n      swap2\n      dup5\n      add\n      swap2\n      tag_299\n      swap1\n      tag_153\n      jump\t// in\n    tag_299:\n      dup1\n      0x1f\n      add\n      0x20\n      dup1\n      swap2\n      div\n      mul\n      0x20\n      add\n      mload(0x40)\n      swap1\n      dup2\n      add\n      0x40\n      mstore\n      dup1\n      swap3\n      swap2\n      swap1\n      dup2\n      dup2\n      mstore\n      0x20\n      add\n      dup3\n      dup1\n      sload\n      tag_300\n      swap1\n      tag_153\n      jump\t// in\n    tag_300:\n      dup1\n      iszero\n      tag_301\n      jumpi\n      dup1\n      0x1f\n      lt\n      tag_302\n      jumpi\n      0x0100\n      dup1\n      dup4\n      sload\n      div\n      mul\n      dup4\n      mstore\n      swap2\n      0x20\n      add\n      swap2\n      jump(tag_301)\n    tag_302:\n      dup3\n      add\n      swap2\n      swap1\n      0x00\n      mstore\n      keccak256(0x00, 0x20)\n      swap1\n    tag_303:\n      dup2\n      sload\n      dup2\n      mstore\n      swap1\n      0x01\n      add\n      swap1\n      0x20\n      add\n      dup1\n      dup4\n      gt\n      tag_303\n      jumpi\n      dup3\n      swap1\n      sub\n      0x1f\n      and\n      dup3\n      add\n      swap2\n    tag_301:\n      pop\n      pop\n      pop\n      pop\n      pop\n      dup2\n      mstore\n      0x20\n      add\n      0x02\n      dup3\n      add\n      dup1\n      sload\n      tag_304\n      swap1\n      tag_153\n      jump\t// in\n    tag_304:\n      dup1\n      0x1f\n      add\n      0x20\n      dup1\n      swap2\n      div\n      mul\n      0x20\n      add\n      mload(0x40)\n      swap1\n      dup2\n      add\n      0x40\n      mstore\n      dup1\n      swap3\n      swap2\n      swap1\n      dup2\n      dup2\n      mstore\n      0x20\n      add\n      dup3\n      dup1\n      sload\n      tag_305\n      swap1\n      tag_153\n      jump\t// in\n    tag_305:\n      dup1\n      iszero\n      tag_306\n      jumpi\n      dup1\n      0x1f\n      lt\n      tag_307\n      jumpi\n      0x0100\n      dup1\n      dup4\n      sload\n      div\n      mul\n      dup4\n      mstore\n      swap2\n      0x20\n      add\n      swap2\n      jump(tag_306)\n    tag_307:\n      dup3\n      add\n      swap2\n      swap1\n      0x00\n      mstore\n      keccak256(0x00, 0x20)\n      swap1\n    tag_308:\n      dup2\n      sload\n      dup2\n      mstore\n      swap1\n      0x01\n      add\n      swap1\n      0x20\n      add\n      dup1\n      dup4\n      gt\n      tag_308\n      jumpi\n      dup3\n      swap1\n      sub\n      0x1f\n      and\n      dup3\n      add\n      swap2\n    tag_306:\n      pop\n      pop\n      pop\n      pop\n      pop\n      dup2\n      mstore\n      0x20\n      add\n      0x03\n      dup3\n      add\n      dup1\n      sload\n      tag_309\n      swap1\n      tag_153\n      jump\t// in\n    tag_309:\n      dup1\n      0x1f\n      add\n      0x20\n      dup1\n      swap2\n      div\n      mul\n      0x20\n      add\n      mload(0x40)\n      swap1\n      dup2\n      add\n      0x40\n      mstore\n      dup1\n      swap3\n      swap2\n      swap1\n      dup2\n      dup2\n      mstore\n      0x20\n      add\n      dup3\n      dup1\n      sload\n      tag_310\n      swap1\n      tag_153\n      jump\t// in\n    tag_310:\n      dup1\n      iszero\n      tag_311\n      jumpi\n      dup1\n      0x1f\n      lt\n      tag_312\n      jumpi\n      0x0100\n      dup1\n      dup4\n      sload\n      div\n      mul\n      dup4\n      mstore\n      swap2\n      0x20\n      add\n      swap2\n      jump(tag_311)\n    tag_312:\n      dup3\n      add\n      swap2\n      swap1\n      0x00\n      mstore\n      keccak256(0x00, 0x20)\n      swap1\n    tag_313:\n      dup2\n      sload\n      dup2\n      mstore\n      swap1\n      0x01\n      add\n      swap1\n      0x20\n      add\n      dup1\n      dup4\n      gt\n      tag_313\n      jumpi\n      dup3\n      swap1\n      sub\n      0x1f\n      and\n      dup3\n      add\n      swap2\n    tag_311:\n      pop\n      pop\n      pop\n      pop\n      pop\n      dup2\n      mstore\n      0x20\n      add\n      0x04\n      dup3\n      add\n      dup1\n      sload\n      tag_314\n      swap1\n      tag_153\n      jump\t// in\n    tag_314:\n      dup1\n      0x1f\n      add\n      0x20\n      dup1\n      swap2\n      div\n      mul\n      0x20\n      add\n      mload(0x40)\n      swap1\n      dup2\n      add\n      0x40\n      mstore\n      dup1\n      swap3\n      swap2\n      swap1\n      dup2\n      dup2\n      mstore\n      0x20\n      add\n      dup3\n      dup1\n      sload\n      tag_315\n      swap1\n      tag_153\n      jump\t// in\n    tag_315:\n      dup1\n      iszero\n      tag_316\n      jumpi\n      dup1\n      0x1f\n      lt\n      tag_317\n      jumpi\n      0x0100\n      dup1\n      dup4\n      sload\n      div\n      mul\n      dup4\n      mstore\n      swap2\n      0x20\n      add\n      swap2\n      jump(tag_316)\n    tag_317:\n      dup3\n      add\n      swap2\n      swap1\n      0x00\n      mstore\n      keccak256(0x00, 0x20)\n      swap1\n    tag_318:\n      dup2\n      sload\n      dup2\n      mstore\n      swap1\n      0x01\n      add\n      swap1\n      0x20\n      add\n      dup1\n      dup4\n      gt\n      tag_318\n      jumpi\n      dup3\n      swap1\n      sub\n      0x1f\n      and\n      dup3\n      add\n      swap2\n    tag_316:\n      pop\n      pop\n      pop\n      pop\n      pop\n      dup2\n      mstore\n      pop\n      pop\n      dup2\n      mstore\n      0x20\n      add\n      swap1\n      0x01\n      add\n      swap1\n      jump(tag_296)\n    tag_297:\n      pop\n      pop\n      pop\n      pop\n      swap1\n      pop\n        /* \"Admin.sol\":6831:7180  function getPatientPrescriptions(address patientAddress) public view returns (Prescription[] memory) {\r... */\n    tag_288:\n      swap2\n      swap1\n      pop\n      jump\t// out\n        /* \"Admin.sol\":10721:11555  function getAllPatientsForDoctor() public view onlyDoctor returns (UserInfo[] memory) {\r... */\n    tag_61:\n        /* \"Admin.sol\":462:472  msg.sender */\n      caller\n        /* \"Admin.sol\":449:473  UsersDetails[msg.sender] */\n      0x00\n      swap1\n      dup2\n      mstore\n        /* \"Admin.sol\":449:461  UsersDetails */\n      0x01\n        /* \"Admin.sol\":449:473  UsersDetails[msg.sender] */\n      0x20\n      mstore\n      0x40\n      swap1\n      keccak256\n        /* \"Admin.sol\":449:480  UsersDetails[msg.sender].exists */\n      0x04\n      add\n      sload\n        /* \"Admin.sol\":10788:10805  UserInfo[] memory */\n      0x60\n      swap1\n      shl(0xb0, 0x01)\n        /* \"Admin.sol\":449:480  UsersDetails[msg.sender].exists */\n      swap1\n      div\n      0xff\n      and\n        /* \"Admin.sol\":427:528  require(\r... */\n      tag_320\n      jumpi\n      mload(0x40)\n      shl(0xe5, 0x461bcd)\n      dup2\n      mstore\n      0x04\n      add\n      tag_89\n      swap1\n      tag_121\n      jump\t// in\n    tag_320:\n        /* \"Admin.sol\":594:606  Roles.Doctor */\n      0x00\n        /* \"Admin.sol\":574:584  msg.sender */\n      caller\n        /* \"Admin.sol\":561:585  UsersDetails[msg.sender] */\n      0x00\n      swap1\n      dup2\n      mstore\n        /* \"Admin.sol\":561:573  UsersDetails */\n      0x01\n        /* \"Admin.sol\":561:585  UsersDetails[msg.sender] */\n      0x20\n      mstore\n      0x40\n      swap1\n      keccak256\n        /* \"Admin.sol\":561:590  UsersDetails[msg.sender].role */\n      0x04\n      add\n      sload\n      shl(0xa0, 0x01)\n      swap1\n      div\n      0xff\n      and\n        /* \"Admin.sol\":561:606  UsersDetails[msg.sender].role == Roles.Doctor */\n      0x02\n      dup2\n      gt\n      iszero\n      tag_323\n      jumpi\n      mstore(0x00, shl(0xe0, 0x4e487b71))\n      mstore(0x04, 0x21)\n      revert(0x00, 0x24)\n    tag_323:\n      eq\n        /* \"Admin.sol\":539:668  require(\r... */\n      tag_324\n      jumpi\n      mload(0x40)\n      shl(0xe5, 0x461bcd)\n      dup2\n      mstore\n      0x04\n      add\n      tag_89\n      swap1\n      tag_212\n      jump\t// in\n    tag_324:\n        /* \"Admin.sol\":10818:10835  uint patientCount */\n      0x00\n        /* \"Admin.sol\":10905:10911  uint i */\n      dup1\n        /* \"Admin.sol\":10900:11065  for (uint i = 0; i < users.length; i++) {\r... */\n    tag_327:\n        /* \"Admin.sol\":10921:10926  users */\n      0x02\n        /* \"Admin.sol\":10921:10933  users.length */\n      sload\n        /* \"Admin.sol\":10917:10933  i < users.length */\n      dup2\n      lt\n        /* \"Admin.sol\":10900:11065  for (uint i = 0; i < users.length; i++) {\r... */\n      iszero\n      tag_328\n      jumpi\n        /* \"Admin.sol\":10990:11003  Roles.Patient */\n      0x01\n        /* \"Admin.sol\":10959:10971  UsersDetails */\n      dup1\n        /* \"Admin.sol\":10959:10981  UsersDetails[users[i]] */\n      0x00\n        /* \"Admin.sol\":10972:10977  users */\n      0x02\n        /* \"Admin.sol\":10978:10979  i */\n      dup5\n        /* \"Admin.sol\":10972:10980  users[i] */\n      dup2\n      sload\n      dup2\n      lt\n      tag_331\n      jumpi\n      mstore(0x00, shl(0xe0, 0x4e487b71))\n      mstore(0x04, 0x32)\n      revert(0x00, 0x24)\n    tag_331:\n      0x00\n      swap2\n      dup3\n      mstore\n      0x20\n      dup1\n      dup4\n      keccak256\n      swap1\n      swap2\n      add\n      sload\n      sub(shl(0xa0, 0x01), 0x01)\n      and\n        /* \"Admin.sol\":10959:10981  UsersDetails[users[i]] */\n      dup4\n      mstore\n      dup3\n      add\n      swap3\n      swap1\n      swap3\n      mstore\n      0x40\n      add\n      swap1\n      keccak256\n        /* \"Admin.sol\":10959:10986  UsersDetails[users[i]].role */\n      0x04\n      add\n      sload\n      0xff\n      shl(0xa0, 0x01)\n      swap1\n      swap2\n      div\n      and\n        /* \"Admin.sol\":10959:11003  UsersDetails[users[i]].role == Roles.Patient */\n      0x02\n      dup2\n      gt\n      iszero\n      tag_333\n      jumpi\n      mstore(0x00, shl(0xe0, 0x4e487b71))\n      mstore(0x04, 0x21)\n      revert(0x00, 0x24)\n    tag_333:\n      eq\n        /* \"Admin.sol\":10955:11054  if (UsersDetails[users[i]].role == Roles.Patient) {\r... */\n      iszero\n      tag_334\n      jumpi\n        /* \"Admin.sol\":11024:11038  patientCount++ */\n      dup2\n      tag_335\n      dup2\n      tag_175\n      jump\t// in\n    tag_335:\n      swap3\n      pop\n      pop\n        /* \"Admin.sol\":10955:11054  if (UsersDetails[users[i]].role == Roles.Patient) {\r... */\n    tag_334:\n        /* \"Admin.sol\":10935:10938  i++ */\n      dup1\n      tag_336\n      dup2\n      tag_175\n      jump\t// in\n    tag_336:\n      swap2\n      pop\n      pop\n        /* \"Admin.sol\":10900:11065  for (uint i = 0; i < users.length; i++) {\r... */\n      jump(tag_327)\n    tag_328:\n      pop\n        /* \"Admin.sol\":11138:11164  UserInfo[] memory patients */\n      0x00\n        /* \"Admin.sol\":11182:11194  patientCount */\n      dup2\n        /* \"Admin.sol\":11167:11195  new UserInfo[](patientCount) */\n      0xffffffffffffffff\n      dup2\n      gt\n      iszero\n      tag_337\n      jumpi\n      mstore(0x00, shl(0xe0, 0x4e487b71))\n      mstore(0x04, 0x41)\n      revert(0x00, 0x24)\n    tag_337:\n      mload(0x40)\n      swap1\n      dup1\n      dup3\n      mstore\n      dup1\n      0x20\n      mul\n      0x20\n      add\n      dup3\n      add\n      0x40\n      mstore\n      dup1\n      iszero\n      tag_338\n      jumpi\n      dup2\n      0x20\n      add\n    tag_339:\n      tag_340\n      tag_341\n      jump\t// in\n    tag_340:\n      dup2\n      mstore\n      0x20\n      add\n      swap1\n      0x01\n      swap1\n      sub\n      swap1\n      dup2\n      tag_339\n      jumpi\n      swap1\n      pop\n    tag_338:\n      pop\n        /* \"Admin.sol\":11138:11195  UserInfo[] memory patients = new UserInfo[](patientCount) */\n      swap1\n      pop\n        /* \"Admin.sol\":11206:11223  uint patientIndex */\n      0x00\n        /* \"Admin.sol\":11294:11300  uint i */\n      dup1\n        /* \"Admin.sol\":11289:11520  for (uint i = 0; i < users.length; i++) {\r... */\n    tag_342:\n        /* \"Admin.sol\":11310:11315  users */\n      0x02\n        /* \"Admin.sol\":11310:11322  users.length */\n      sload\n        /* \"Admin.sol\":11306:11322  i < users.length */\n      dup2\n      lt\n        /* \"Admin.sol\":11289:11520  for (uint i = 0; i < users.length; i++) {\r... */\n      iszero\n      tag_343\n      jumpi\n        /* \"Admin.sol\":11379:11392  Roles.Patient */\n      0x01\n        /* \"Admin.sol\":11348:11360  UsersDetails */\n      dup1\n        /* \"Admin.sol\":11348:11370  UsersDetails[users[i]] */\n      0x00\n        /* \"Admin.sol\":11361:11366  users */\n      0x02\n        /* \"Admin.sol\":11367:11368  i */\n      dup5\n        /* \"Admin.sol\":11361:11369  users[i] */\n      dup2\n      sload\n      dup2\n      lt\n      tag_346\n      jumpi\n      mstore(0x00, shl(0xe0, 0x4e487b71))\n      mstore(0x04, 0x32)\n      revert(0x00, 0x24)\n    tag_346:\n      0x00\n      swap2\n      dup3\n      mstore\n      0x20\n      dup1\n      dup4\n      keccak256\n      swap1\n      swap2\n      add\n      sload\n      sub(shl(0xa0, 0x01), 0x01)\n      and\n        /* \"Admin.sol\":11348:11370  UsersDetails[users[i]] */\n      dup4\n      mstore\n      dup3\n      add\n      swap3\n      swap1\n      swap3\n      mstore\n      0x40\n      add\n      swap1\n      keccak256\n        /* \"Admin.sol\":11348:11375  UsersDetails[users[i]].role */\n      0x04\n      add\n      sload\n      0xff\n      shl(0xa0, 0x01)\n      swap1\n      swap2\n      div\n      and\n        /* \"Admin.sol\":11348:11392  UsersDetails[users[i]].role == Roles.Patient */\n      0x02\n      dup2\n      gt\n      iszero\n      tag_348\n      jumpi\n      mstore(0x00, shl(0xe0, 0x4e487b71))\n      mstore(0x04, 0x21)\n      revert(0x00, 0x24)\n    tag_348:\n      eq\n        /* \"Admin.sol\":11344:11509  if (UsersDetails[users[i]].role == Roles.Patient) {\r... */\n      iszero\n      tag_349\n      jumpi\n        /* \"Admin.sol\":11438:11450  UsersDetails */\n      0x01\n        /* \"Admin.sol\":11438:11460  UsersDetails[users[i]] */\n      0x00\n        /* \"Admin.sol\":11451:11456  users */\n      0x02\n        /* \"Admin.sol\":11457:11458  i */\n      dup4\n        /* \"Admin.sol\":11451:11459  users[i] */\n      dup2\n      sload\n      dup2\n      lt\n      tag_350\n      jumpi\n      mstore(0x00, shl(0xe0, 0x4e487b71))\n      mstore(0x04, 0x32)\n      revert(0x00, 0x24)\n    tag_350:\n      0x00\n      swap2\n      dup3\n      mstore\n      0x20\n      dup1\n      dup4\n      keccak256\n      swap1\n      swap2\n      add\n      sload\n      sub(shl(0xa0, 0x01), 0x01)\n      and\n        /* \"Admin.sol\":11438:11460  UsersDetails[users[i]] */\n      dup4\n      mstore\n      dup3\n      add\n      swap3\n      swap1\n      swap3\n      mstore\n      0x40\n      swap1\n      dup2\n      add\n      swap1\n      swap2\n      keccak256\n        /* \"Admin.sol\":11413:11460  patients[patientIndex] = UsersDetails[users[i]] */\n      dup2\n      mload\n      0x0120\n      dup2\n      add\n      swap1\n      swap3\n      mstore\n      dup1\n      sload\n      dup3\n      swap1\n      0xff\n      and\n      0x03\n      dup2\n      gt\n      iszero\n      tag_352\n      jumpi\n      mstore(0x00, shl(0xe0, 0x4e487b71))\n      mstore(0x04, 0x21)\n      revert(0x00, 0x24)\n    tag_352:\n      0x03\n      dup2\n      gt\n      iszero\n      tag_353\n      jumpi\n      mstore(0x00, shl(0xe0, 0x4e487b71))\n      mstore(0x04, 0x21)\n      revert(0x00, 0x24)\n    tag_353:\n      dup2\n      mstore\n      0x20\n      add\n      0x01\n      dup3\n      add\n      dup1\n      sload\n      tag_354\n      swap1\n      tag_153\n      jump\t// in\n    tag_354:\n      dup1\n      0x1f\n      add\n      0x20\n      dup1\n      swap2\n      div\n      mul\n      0x20\n      add\n      mload(0x40)\n      swap1\n      dup2\n      add\n      0x40\n      mstore\n      dup1\n      swap3\n      swap2\n      swap1\n      dup2\n      dup2\n      mstore\n      0x20\n      add\n      dup3\n      dup1\n      sload\n      tag_355\n      swap1\n      tag_153\n      jump\t// in\n    tag_355:\n      dup1\n      iszero\n      tag_356\n      jumpi\n      dup1\n      0x1f\n      lt\n      tag_357\n      jumpi\n      0x0100\n      dup1\n      dup4\n      sload\n      div\n      mul\n      dup4\n      mstore\n      swap2\n      0x20\n      add\n      swap2\n      jump(tag_356)\n    tag_357:\n      dup3\n      add\n      swap2\n      swap1\n      0x00\n      mstore\n      keccak256(0x00, 0x20)\n      swap1\n    tag_358:\n      dup2\n      sload\n      dup2\n      mstore\n      swap1\n      0x01\n      add\n      swap1\n      0x20\n      add\n      dup1\n      dup4\n      gt\n      tag_358\n      jumpi\n      dup3\n      swap1\n      sub\n      0x1f\n      and\n      dup3\n      add\n      swap2\n    tag_356:\n      pop\n      pop\n      pop\n      pop\n      pop\n      dup2\n      mstore\n      0x20\n      add\n      0x02\n      dup3\n      add\n      dup1\n      sload\n      tag_359\n      swap1\n      tag_153\n      jump\t// in\n    tag_359:\n      dup1\n      0x1f\n      add\n      0x20\n      dup1\n      swap2\n      div\n      mul\n      0x20\n      add\n      mload(0x40)\n      swap1\n      dup2\n      add\n      0x40\n      mstore\n      dup1\n      swap3\n      swap2\n      swap1\n      dup2\n      dup2\n      mstore\n      0x20\n      add\n      dup3\n      dup1\n      sload\n      tag_360\n      swap1\n      tag_153\n      jump\t// in\n    tag_360:\n      dup1\n      iszero\n      tag_361\n      jumpi\n      dup1\n      0x1f\n      lt\n      tag_362\n      jumpi\n      0x0100\n      dup1\n      dup4\n      sload\n      div\n      mul\n      dup4\n      mstore\n      swap2\n      0x20\n      add\n      swap2\n      jump(tag_361)\n    tag_362:\n      dup3\n      add\n      swap2\n      swap1\n      0x00\n      mstore\n      keccak256(0x00, 0x20)\n      swap1\n    tag_363:\n      dup2\n      sload\n      dup2\n      mstore\n      swap1\n      0x01\n      add\n      swap1\n      0x20\n      add\n      dup1\n      dup4\n      gt\n      tag_363\n      jumpi\n      dup3\n      swap1\n      sub\n      0x1f\n      and\n      dup3\n      add\n      swap2\n    tag_361:\n      pop\n      pop\n      pop\n      pop\n      pop\n      dup2\n      mstore\n      0x20\n      add\n      0x03\n      dup3\n      add\n      dup1\n      sload\n      tag_364\n      swap1\n      tag_153\n      jump\t// in\n    tag_364:\n      dup1\n      0x1f\n      add\n      0x20\n      dup1\n      swap2\n      div\n      mul\n      0x20\n      add\n      mload(0x40)\n      swap1\n      dup2\n      add\n      0x40\n      mstore\n      dup1\n      swap3\n      swap2\n      swap1\n      dup2\n      dup2\n      mstore\n      0x20\n      add\n      dup3\n      dup1\n      sload\n      tag_365\n      swap1\n      tag_153\n      jump\t// in\n    tag_365:\n      dup1\n      iszero\n      tag_366\n      jumpi\n      dup1\n      0x1f\n      lt\n      tag_367\n      jumpi\n      0x0100\n      dup1\n      dup4\n      sload\n      div\n      mul\n      dup4\n      mstore\n      swap2\n      0x20\n      add\n      swap2\n      jump(tag_366)\n    tag_367:\n      dup3\n      add\n      swap2\n      swap1\n      0x00\n      mstore\n      keccak256(0x00, 0x20)\n      swap1\n    tag_368:\n      dup2\n      sload\n      dup2\n      mstore\n      swap1\n      0x01\n      add\n      swap1\n      0x20\n      add\n      dup1\n      dup4\n      gt\n      tag_368\n      jumpi\n      dup3\n      swap1\n      sub\n      0x1f\n      and\n      dup3\n      add\n      swap2\n    tag_366:\n      pop\n      pop\n      pop\n      swap2\n      dup4\n      mstore\n      pop\n      pop\n      0x04\n      dup3\n      add\n      sload\n      sub(shl(0xa0, 0x01), 0x01)\n      dup2\n      and\n      0x20\n      dup4\n      add\n      mstore\n      0x40\n      swap1\n      swap2\n      add\n      swap1\n      shl(0xa0, 0x01)\n      swap1\n      div\n      0xff\n      and\n      0x02\n      dup2\n      gt\n      iszero\n      tag_369\n      jumpi\n      mstore(0x00, shl(0xe0, 0x4e487b71))\n      mstore(0x04, 0x21)\n      revert(0x00, 0x24)\n    tag_369:\n      0x02\n      dup2\n      gt\n      iszero\n      tag_370\n      jumpi\n      mstore(0x00, shl(0xe0, 0x4e487b71))\n      mstore(0x04, 0x21)\n      revert(0x00, 0x24)\n    tag_370:\n      dup2\n      mstore\n      0x20\n      add\n      0x04\n      dup3\n      add\n      0x15\n      swap1\n      sload\n      swap1\n      0x0100\n      exp\n      swap1\n      div\n      0xff\n      and\n      0x01\n      dup2\n      gt\n      iszero\n      tag_371\n      jumpi\n      mstore(0x00, shl(0xe0, 0x4e487b71))\n      mstore(0x04, 0x21)\n      revert(0x00, 0x24)\n    tag_371:\n      0x01\n      dup2\n      gt\n      iszero\n      tag_372\n      jumpi\n      mstore(0x00, shl(0xe0, 0x4e487b71))\n      mstore(0x04, 0x21)\n      revert(0x00, 0x24)\n    tag_372:\n      dup2\n      mstore\n      0x04\n      dup3\n      add\n      sload\n      shl(0xb0, 0x01)\n      swap1\n      div\n      0xff\n      and\n      iszero\n      iszero\n      0x20\n      dup1\n      dup4\n      add\n      swap2\n      swap1\n      swap2\n      mstore\n      0x05\n      dup4\n      add\n      dup1\n      sload\n      0x40\n      dup1\n      mload\n      dup3\n      dup6\n      mul\n      dup2\n      add\n      dup6\n      add\n      dup3\n      mstore\n      dup3\n      dup2\n      mstore\n      swap5\n      add\n      swap4\n      swap3\n      0x00\n      swap1\n      dup5\n      add\n    tag_373:\n      dup3\n      dup3\n      lt\n      iszero\n      tag_374\n      jumpi\n      0x00\n      dup5\n      dup2\n      mstore\n      0x20\n      swap1\n      dup2\n      swap1\n      keccak256\n      0x40\n      dup1\n      mload\n      0xa0\n      dup2\n      add\n      swap1\n      swap2\n      mstore\n      0x05\n      dup6\n      mul\n      swap1\n      swap2\n      add\n      dup1\n      sload\n      sub(shl(0xa0, 0x01), 0x01)\n      and\n      dup3\n      mstore\n      0x01\n      dup2\n      add\n      dup1\n      sload\n      swap3\n      swap4\n      swap2\n      swap3\n      swap2\n      dup5\n      add\n      swap2\n      tag_376\n      swap1\n      tag_153\n      jump\t// in\n    tag_376:\n      dup1\n      0x1f\n      add\n      0x20\n      dup1\n      swap2\n      div\n      mul\n      0x20\n      add\n      mload(0x40)\n      swap1\n      dup2\n      add\n      0x40\n      mstore\n      dup1\n      swap3\n      swap2\n      swap1\n      dup2\n      dup2\n      mstore\n      0x20\n      add\n      dup3\n      dup1\n      sload\n      tag_377\n      swap1\n      tag_153\n      jump\t// in\n    tag_377:\n      dup1\n      iszero\n      tag_378\n      jumpi\n      dup1\n      0x1f\n      lt\n      tag_379\n      jumpi\n      0x0100\n      dup1\n      dup4\n      sload\n      div\n      mul\n      dup4\n      mstore\n      swap2\n      0x20\n      add\n      swap2\n      jump(tag_378)\n    tag_379:\n      dup3\n      add\n      swap2\n      swap1\n      0x00\n      mstore\n      keccak256(0x00, 0x20)\n      swap1\n    tag_380:\n      dup2\n      sload\n      dup2\n      mstore\n      swap1\n      0x01\n      add\n      swap1\n      0x20\n      add\n      dup1\n      dup4\n      gt\n      tag_380\n      jumpi\n      dup3\n      swap1\n      sub\n      0x1f\n      and\n      dup3\n      add\n      swap2\n    tag_378:\n      pop\n      pop\n      pop\n      pop\n      pop\n      dup2\n      mstore\n      0x20\n      add\n      0x02\n      dup3\n      add\n      dup1\n      sload\n      tag_381\n      swap1\n      tag_153\n      jump\t// in\n    tag_381:\n      dup1\n      0x1f\n      add\n      0x20\n      dup1\n      swap2\n      div\n      mul\n      0x20\n      add\n      mload(0x40)\n      swap1\n      dup2\n      add\n      0x40\n      mstore\n      dup1\n      swap3\n      swap2\n      swap1\n      dup2\n      dup2\n      mstore\n      0x20\n      add\n      dup3\n      dup1\n      sload\n      tag_382\n      swap1\n      tag_153\n      jump\t// in\n    tag_382:\n      dup1\n      iszero\n      tag_383\n      jumpi\n      dup1\n      0x1f\n      lt\n      tag_384\n      jumpi\n      0x0100\n      dup1\n      dup4\n      sload\n      div\n      mul\n      dup4\n      mstore\n      swap2\n      0x20\n      add\n      swap2\n      jump(tag_383)\n    tag_384:\n      dup3\n      add\n      swap2\n      swap1\n      0x00\n      mstore\n      keccak256(0x00, 0x20)\n      swap1\n    tag_385:\n      dup2\n      sload\n      dup2\n      mstore\n      swap1\n      0x01\n      add\n      swap1\n      0x20\n      add\n      dup1\n      dup4\n      gt\n      tag_385\n      jumpi\n      dup3\n      swap1\n      sub\n      0x1f\n      and\n      dup3\n      add\n      swap2\n    tag_383:\n      pop\n      pop\n      pop\n      pop\n      pop\n      dup2\n      mstore\n      0x20\n      add\n      0x03\n      dup3\n      add\n      dup1\n      sload\n      tag_386\n      swap1\n      tag_153\n      jump\t// in\n    tag_386:\n      dup1\n      0x1f\n      add\n      0x20\n      dup1\n      swap2\n      div\n      mul\n      0x20\n      add\n      mload(0x40)\n      swap1\n      dup2\n      add\n      0x40\n      mstore\n      dup1\n      swap3\n      swap2\n      swap1\n      dup2\n      dup2\n      mstore\n      0x20\n      add\n      dup3\n      dup1\n      sload\n      tag_387\n      swap1\n      tag_153\n      jump\t// in\n    tag_387:\n      dup1\n      iszero\n      tag_388\n      jumpi\n      dup1\n      0x1f\n      lt\n      tag_389\n      jumpi\n      0x0100\n      dup1\n      dup4\n      sload\n      div\n      mul\n      dup4\n      mstore\n      swap2\n      0x20\n      add\n      swap2\n      jump(tag_388)\n    tag_389:\n      dup3\n      add\n      swap2\n      swap1\n      0x00\n      mstore\n      keccak256(0x00, 0x20)\n      swap1\n    tag_390:\n      dup2\n      sload\n      dup2\n      mstore\n      swap1\n      0x01\n      add\n      swap1\n      0x20\n      add\n      dup1\n      dup4\n      gt\n      tag_390\n      jumpi\n      dup3\n      swap1\n      sub\n      0x1f\n      and\n      dup3\n      add\n      swap2\n    tag_388:\n      pop\n      pop\n      pop\n      pop\n      pop\n      dup2\n      mstore\n      0x20\n      add\n      0x04\n      dup3\n      add\n      dup1\n      sload\n      tag_391\n      swap1\n      tag_153\n      jump\t// in\n    tag_391:\n      dup1\n      0x1f\n      add\n      0x20\n      dup1\n      swap2\n      div\n      mul\n      0x20\n      add\n      mload(0x40)\n      swap1\n      dup2\n      add\n      0x40\n      mstore\n      dup1\n      swap3\n      swap2\n      swap1\n      dup2\n      dup2\n      mstore\n      0x20\n      add\n      dup3\n      dup1\n      sload\n      tag_392\n      swap1\n      tag_153\n      jump\t// in\n    tag_392:\n      dup1\n      iszero\n      tag_393\n      jumpi\n      dup1\n      0x1f\n      lt\n      tag_394\n      jumpi\n      0x0100\n      dup1\n      dup4\n      sload\n      div\n      mul\n      dup4\n      mstore\n      swap2\n      0x20\n      add\n      swap2\n      jump(tag_393)\n    tag_394:\n      dup3\n      add\n      swap2\n      swap1\n      0x00\n      mstore\n      keccak256(0x00, 0x20)\n      swap1\n    tag_395:\n      dup2\n      sload\n      dup2\n      mstore\n      swap1\n      0x01\n      add\n      swap1\n      0x20\n      add\n      dup1\n      dup4\n      gt\n      tag_395\n      jumpi\n      dup3\n      swap1\n      sub\n      0x1f\n      and\n      dup3\n      add\n      swap2\n    tag_393:\n      pop\n      pop\n      pop\n      pop\n      pop\n      dup2\n      mstore\n      pop\n      pop\n      dup2\n      mstore\n      0x20\n      add\n      swap1\n      0x01\n      add\n      swap1\n      jump(tag_373)\n    tag_374:\n      pop\n      pop\n      pop\n      pop\n      dup2\n      mstore\n      pop\n      pop\n        /* \"Admin.sol\":11413:11421  patients */\n      dup4\n        /* \"Admin.sol\":11422:11434  patientIndex */\n      dup4\n        /* \"Admin.sol\":11413:11435  patients[patientIndex] */\n      dup2\n      mload\n      dup2\n      lt\n      tag_396\n      jumpi\n      mstore(0x00, shl(0xe0, 0x4e487b71))\n      mstore(0x04, 0x32)\n      revert(0x00, 0x24)\n    tag_396:\n      0x20\n      mul\n      0x20\n      add\n      add\n        /* \"Admin.sol\":11413:11460  patients[patientIndex] = UsersDetails[users[i]] */\n      dup2\n      swap1\n      mstore\n      pop\n        /* \"Admin.sol\":11479:11493  patientIndex++ */\n      dup2\n      dup1\n      tag_397\n      swap1\n      tag_175\n      jump\t// in\n    tag_397:\n      swap3\n      pop\n      pop\n        /* \"Admin.sol\":11344:11509  if (UsersDetails[users[i]].role == Roles.Patient) {\r... */\n    tag_349:\n        /* \"Admin.sol\":11324:11327  i++ */\n      dup1\n      tag_398\n      dup2\n      tag_175\n      jump\t// in\n    tag_398:\n      swap2\n      pop\n      pop\n        /* \"Admin.sol\":11289:11520  for (uint i = 0; i < users.length; i++) {\r... */\n      jump(tag_342)\n    tag_343:\n      pop\n        /* \"Admin.sol\":11539:11547  patients */\n      swap1\n      swap3\n      pop\n      pop\n      pop\n        /* \"Admin.sol\":10721:11555  function getAllPatientsForDoctor() public view onlyDoctor returns (UserInfo[] memory) {\r... */\n      swap1\n      jump\t// out\n        /* \"Admin.sol\":5389:6742  function getPrescriptionsByDoctor(address doctorAddress) public view onlyPatient returns (Prescription[] memory) {\r... */\n    tag_66:\n        /* \"Admin.sol\":765:775  msg.sender */\n      caller\n        /* \"Admin.sol\":752:776  UsersDetails[msg.sender] */\n      0x00\n      swap1\n      dup2\n      mstore\n        /* \"Admin.sol\":752:764  UsersDetails */\n      0x01\n        /* \"Admin.sol\":752:776  UsersDetails[msg.sender] */\n      0x20\n      mstore\n      0x40\n      swap1\n      keccak256\n        /* \"Admin.sol\":752:783  UsersDetails[msg.sender].exists */\n      0x04\n      add\n      sload\n        /* \"Admin.sol\":5479:5500  Prescription[] memory */\n      0x60\n      swap1\n      shl(0xb0, 0x01)\n        /* \"Admin.sol\":752:783  UsersDetails[msg.sender].exists */\n      swap1\n      div\n      0xff\n      and\n        /* \"Admin.sol\":730:831  require(\r... */\n      tag_400\n      jumpi\n      mload(0x40)\n      shl(0xe5, 0x461bcd)\n      dup2\n      mstore\n      0x04\n      add\n      tag_89\n      swap1\n      tag_121\n      jump\t// in\n    tag_400:\n        /* \"Admin.sol\":897:910  Roles.Patient */\n      0x01\n        /* \"Admin.sol\":877:887  msg.sender */\n      caller\n        /* \"Admin.sol\":864:888  UsersDetails[msg.sender] */\n      0x00\n      swap1\n      dup2\n      mstore\n        /* \"Admin.sol\":864:876  UsersDetails */\n      0x01\n        /* \"Admin.sol\":864:888  UsersDetails[msg.sender] */\n      0x20\n      mstore\n      0x40\n      swap1\n      keccak256\n        /* \"Admin.sol\":864:893  UsersDetails[msg.sender].role */\n      0x04\n      add\n      sload\n      shl(0xa0, 0x01)\n      swap1\n      div\n      0xff\n      and\n        /* \"Admin.sol\":864:910  UsersDetails[msg.sender].role == Roles.Patient */\n      0x02\n      dup2\n      gt\n      iszero\n      tag_403\n      jumpi\n      mstore(0x00, shl(0xe0, 0x4e487b71))\n      mstore(0x04, 0x21)\n      revert(0x00, 0x24)\n    tag_403:\n      eq\n        /* \"Admin.sol\":842:973  require(\r... */\n      tag_404\n      jumpi\n      mload(0x40)\n      shl(0xe5, 0x461bcd)\n      dup2\n      mstore\n      0x04\n      add\n      tag_89\n      swap1\n      tag_137\n      jump\t// in\n    tag_404:\n        /* \"Admin.sol\":5534:5544  msg.sender */\n      caller\n        /* \"Admin.sol\":5521:5545  UsersDetails[msg.sender] */\n      0x00\n      swap1\n      dup2\n      mstore\n        /* \"Admin.sol\":5521:5533  UsersDetails */\n      0x01\n        /* \"Admin.sol\":5521:5545  UsersDetails[msg.sender] */\n      0x20\n      mstore\n      0x40\n      swap1\n      keccak256\n        /* \"Admin.sol\":5521:5552  UsersDetails[msg.sender].exists */\n      0x04\n      add\n      sload\n      shl(0xb0, 0x01)\n      swap1\n      div\n      0xff\n      and\n        /* \"Admin.sol\":5513:5580  require(UsersDetails[msg.sender].exists, \"Patient does not exist.\") */\n      tag_407\n      jumpi\n      mload(0x40)\n      shl(0xe5, 0x461bcd)\n      dup2\n      mstore\n      0x04\n      add\n      tag_89\n      swap1\n      tag_141\n      jump\t// in\n    tag_407:\n      sub(shl(0xa0, 0x01), 0x01)\n        /* \"Admin.sol\":5599:5626  UsersDetails[doctorAddress] */\n      dup3\n      and\n      0x00\n      swap1\n      dup2\n      mstore\n        /* \"Admin.sol\":5599:5611  UsersDetails */\n      0x01\n        /* \"Admin.sol\":5599:5626  UsersDetails[doctorAddress] */\n      0x20\n      mstore\n      0x40\n      swap1\n      keccak256\n        /* \"Admin.sol\":5599:5633  UsersDetails[doctorAddress].exists */\n      0x04\n      add\n      sload\n      shl(0xb0, 0x01)\n      swap1\n      div\n      0xff\n      and\n        /* \"Admin.sol\":5591:5660  require(UsersDetails[doctorAddress].exists, \"Doctor does not exist.\") */\n      tag_409\n      jumpi\n      mload(0x40)\n      shl(0xe5, 0x461bcd)\n      dup2\n      mstore\n      0x04\n      add\n      tag_89\n      swap1\n      tag_411\n      jump\t// in\n    tag_409:\n        /* \"Admin.sol\":5715:5727  Roles.Doctor */\n      0x00\n      sub(shl(0xa0, 0x01), 0x01)\n        /* \"Admin.sol\":5679:5706  UsersDetails[doctorAddress] */\n      dup4\n      and\n      0x00\n      swap1\n      dup2\n      mstore\n        /* \"Admin.sol\":5679:5691  UsersDetails */\n      0x01\n        /* \"Admin.sol\":5679:5706  UsersDetails[doctorAddress] */\n      0x20\n      mstore\n      0x40\n      swap1\n      keccak256\n        /* \"Admin.sol\":5679:5711  UsersDetails[doctorAddress].role */\n      0x04\n      add\n      sload\n      shl(0xa0, 0x01)\n      swap1\n      div\n      0xff\n      and\n        /* \"Admin.sol\":5679:5727  UsersDetails[doctorAddress].role == Roles.Doctor */\n      0x02\n      dup2\n      gt\n      iszero\n      tag_413\n      jumpi\n      mstore(0x00, shl(0xe0, 0x4e487b71))\n      mstore(0x04, 0x21)\n      revert(0x00, 0x24)\n    tag_413:\n      eq\n        /* \"Admin.sol\":5671:5782  require(UsersDetails[doctorAddress].role == Roles.Doctor, \"The specified address does not belong to a doctor.\") */\n      tag_414\n      jumpi\n      mload(0x40)\n      shl(0xe5, 0x461bcd)\n      dup2\n      mstore\n      0x04\n      add\n      tag_89\n      swap1\n      tag_416\n      jump\t// in\n    tag_414:\n        /* \"Admin.sol\":5795:5805  uint count */\n      0x00\n        /* \"Admin.sol\":5909:5915  uint i */\n      dup1\n        /* \"Admin.sol\":5904:6116  for (uint i = 0; i < UsersDetails[msg.sender].prescriptions.length; i++) {\r... */\n    tag_417:\n        /* \"Admin.sol\":5938:5948  msg.sender */\n      caller\n        /* \"Admin.sol\":5925:5949  UsersDetails[msg.sender] */\n      0x00\n      swap1\n      dup2\n      mstore\n        /* \"Admin.sol\":5925:5937  UsersDetails */\n      0x01\n        /* \"Admin.sol\":5925:5949  UsersDetails[msg.sender] */\n      0x20\n      mstore\n      0x40\n      swap1\n      keccak256\n        /* \"Admin.sol\":5925:5963  UsersDetails[msg.sender].prescriptions */\n      0x05\n      add\n        /* \"Admin.sol\":5925:5970  UsersDetails[msg.sender].prescriptions.length */\n      sload\n        /* \"Admin.sol\":5921:5970  i < UsersDetails[msg.sender].prescriptions.length */\n      dup2\n      lt\n        /* \"Admin.sol\":5904:6116  for (uint i = 0; i < UsersDetails[msg.sender].prescriptions.length; i++) {\r... */\n      iszero\n      tag_418\n      jumpi\n        /* \"Admin.sol\":6009:6019  msg.sender */\n      caller\n        /* \"Admin.sol\":5996:6020  UsersDetails[msg.sender] */\n      0x00\n      swap1\n      dup2\n      mstore\n        /* \"Admin.sol\":5996:6008  UsersDetails */\n      0x01\n        /* \"Admin.sol\":5996:6020  UsersDetails[msg.sender] */\n      0x20\n      mstore\n      0x40\n      swap1\n      keccak256\n        /* \"Admin.sol\":5996:6034  UsersDetails[msg.sender].prescriptions */\n      0x05\n      add\n        /* \"Admin.sol\":5996:6037  UsersDetails[msg.sender].prescriptions[i] */\n      dup1\n      sload\n      sub(shl(0xa0, 0x01), 0x01)\n        /* \"Admin.sol\":5996:6061  UsersDetails[msg.sender].prescriptions[i].doctor == doctorAddress */\n      dup7\n      and\n      swap2\n        /* \"Admin.sol\":5996:6034  UsersDetails[msg.sender].prescriptions */\n      swap1\n        /* \"Admin.sol\":6035:6036  i */\n      dup4\n      swap1\n        /* \"Admin.sol\":5996:6037  UsersDetails[msg.sender].prescriptions[i] */\n      dup2\n      lt\n      tag_420\n      jumpi\n      mstore(0x00, shl(0xe0, 0x4e487b71))\n      mstore(0x04, 0x32)\n      revert(0x00, 0x24)\n    tag_420:\n      0x00\n      swap2\n      dup3\n      mstore\n      0x20\n      swap1\n      swap2\n      keccak256\n      0x05\n      swap1\n      swap2\n      mul\n      add\n        /* \"Admin.sol\":5996:6044  UsersDetails[msg.sender].prescriptions[i].doctor */\n      sload\n      sub(shl(0xa0, 0x01), 0x01)\n      and\n        /* \"Admin.sol\":5996:6061  UsersDetails[msg.sender].prescriptions[i].doctor == doctorAddress */\n      eq\n        /* \"Admin.sol\":5992:6105  if (UsersDetails[msg.sender].prescriptions[i].doctor == doctorAddress) {\r... */\n      iszero\n      tag_422\n      jumpi\n        /* \"Admin.sol\":6082:6089  count++ */\n      dup2\n      tag_423\n      dup2\n      tag_175\n      jump\t// in\n    tag_423:\n      swap3\n      pop\n      pop\n        /* \"Admin.sol\":5992:6105  if (UsersDetails[msg.sender].prescriptions[i].doctor == doctorAddress) {\r... */\n    tag_422:\n        /* \"Admin.sol\":5972:5975  i++ */\n      dup1\n      tag_424\n      dup2\n      tag_175\n      jump\t// in\n    tag_424:\n      swap2\n      pop\n      pop\n        /* \"Admin.sol\":5904:6116  for (uint i = 0; i < UsersDetails[msg.sender].prescriptions.length; i++) {\r... */\n      jump(tag_417)\n    tag_418:\n      pop\n        /* \"Admin.sol\":6206:6249  Prescription[] memory filteredPrescriptions */\n      0x00\n        /* \"Admin.sol\":6271:6276  count */\n      dup2\n        /* \"Admin.sol\":6252:6277  new Prescription[](count) */\n      0xffffffffffffffff\n      dup2\n      gt\n      iszero\n      tag_425\n      jumpi\n      mstore(0x00, shl(0xe0, 0x4e487b71))\n      mstore(0x04, 0x41)\n      revert(0x00, 0x24)\n    tag_425:\n      mload(0x40)\n      swap1\n      dup1\n      dup3\n      mstore\n      dup1\n      0x20\n      mul\n      0x20\n      add\n      dup3\n      add\n      0x40\n      mstore\n      dup1\n      iszero\n      tag_426\n      jumpi\n      dup2\n      0x20\n      add\n    tag_427:\n      tag_428\n      tag_429\n      jump\t// in\n    tag_428:\n      dup2\n      mstore\n      0x20\n      add\n      swap1\n      0x01\n      swap1\n      sub\n      swap1\n      dup2\n      tag_427\n      jumpi\n      swap1\n      pop\n    tag_426:\n      pop\n        /* \"Admin.sol\":6206:6277  Prescription[] memory filteredPrescriptions = new Prescription[](count) */\n      swap1\n      pop\n        /* \"Admin.sol\":6288:6298  uint index */\n      0x00\n        /* \"Admin.sol\":6396:6402  uint i */\n      dup1\n        /* \"Admin.sol\":6391:6694  for (uint i = 0; i < UsersDetails[msg.sender].prescriptions.length; i++) {\r... */\n    tag_430:\n        /* \"Admin.sol\":6425:6435  msg.sender */\n      caller\n        /* \"Admin.sol\":6412:6436  UsersDetails[msg.sender] */\n      0x00\n      swap1\n      dup2\n      mstore\n        /* \"Admin.sol\":6412:6424  UsersDetails */\n      0x01\n        /* \"Admin.sol\":6412:6436  UsersDetails[msg.sender] */\n      0x20\n      mstore\n      0x40\n      swap1\n      keccak256\n        /* \"Admin.sol\":6412:6450  UsersDetails[msg.sender].prescriptions */\n      0x05\n      add\n        /* \"Admin.sol\":6412:6457  UsersDetails[msg.sender].prescriptions.length */\n      sload\n        /* \"Admin.sol\":6408:6457  i < UsersDetails[msg.sender].prescriptions.length */\n      dup2\n      lt\n        /* \"Admin.sol\":6391:6694  for (uint i = 0; i < UsersDetails[msg.sender].prescriptions.length; i++) {\r... */\n      iszero\n      tag_431\n      jumpi\n        /* \"Admin.sol\":6496:6506  msg.sender */\n      caller\n        /* \"Admin.sol\":6483:6507  UsersDetails[msg.sender] */\n      0x00\n      swap1\n      dup2\n      mstore\n        /* \"Admin.sol\":6483:6495  UsersDetails */\n      0x01\n        /* \"Admin.sol\":6483:6507  UsersDetails[msg.sender] */\n      0x20\n      mstore\n      0x40\n      swap1\n      keccak256\n        /* \"Admin.sol\":6483:6521  UsersDetails[msg.sender].prescriptions */\n      0x05\n      add\n        /* \"Admin.sol\":6483:6524  UsersDetails[msg.sender].prescriptions[i] */\n      dup1\n      sload\n      sub(shl(0xa0, 0x01), 0x01)\n        /* \"Admin.sol\":6483:6548  UsersDetails[msg.sender].prescriptions[i].doctor == doctorAddress */\n      dup9\n      and\n      swap2\n        /* \"Admin.sol\":6483:6521  UsersDetails[msg.sender].prescriptions */\n      swap1\n        /* \"Admin.sol\":6522:6523  i */\n      dup4\n      swap1\n        /* \"Admin.sol\":6483:6524  UsersDetails[msg.sender].prescriptions[i] */\n      dup2\n      lt\n      tag_433\n      jumpi\n      mstore(0x00, shl(0xe0, 0x4e487b71))\n      mstore(0x04, 0x32)\n      revert(0x00, 0x24)\n    tag_433:\n      0x00\n      swap2\n      dup3\n      mstore\n      0x20\n      swap1\n      swap2\n      keccak256\n      0x05\n      swap1\n      swap2\n      mul\n      add\n        /* \"Admin.sol\":6483:6531  UsersDetails[msg.sender].prescriptions[i].doctor */\n      sload\n      sub(shl(0xa0, 0x01), 0x01)\n      and\n        /* \"Admin.sol\":6483:6548  UsersDetails[msg.sender].prescriptions[i].doctor == doctorAddress */\n      eq\n        /* \"Admin.sol\":6479:6683  if (UsersDetails[msg.sender].prescriptions[i].doctor == doctorAddress) {\r... */\n      iszero\n      tag_435\n      jumpi\n        /* \"Admin.sol\":6613:6623  msg.sender */\n      caller\n        /* \"Admin.sol\":6600:6624  UsersDetails[msg.sender] */\n      0x00\n      swap1\n      dup2\n      mstore\n        /* \"Admin.sol\":6600:6612  UsersDetails */\n      0x01\n        /* \"Admin.sol\":6600:6624  UsersDetails[msg.sender] */\n      0x20\n      mstore\n      0x40\n      swap1\n      keccak256\n        /* \"Admin.sol\":6600:6638  UsersDetails[msg.sender].prescriptions */\n      0x05\n      add\n        /* \"Admin.sol\":6600:6641  UsersDetails[msg.sender].prescriptions[i] */\n      dup1\n      sload\n        /* \"Admin.sol\":6639:6640  i */\n      dup3\n      swap1\n        /* \"Admin.sol\":6600:6641  UsersDetails[msg.sender].prescriptions[i] */\n      dup2\n      lt\n      tag_436\n      jumpi\n      mstore(0x00, shl(0xe0, 0x4e487b71))\n      mstore(0x04, 0x32)\n      revert(0x00, 0x24)\n    tag_436:\n      0x00\n      swap2\n      dup3\n      mstore\n      0x20\n      swap2\n      dup3\n      swap1\n      keccak256\n        /* \"Admin.sol\":6569:6641  filteredPrescriptions[index] = UsersDetails[msg.sender].prescriptions[i] */\n      0x40\n      dup1\n      mload\n      0xa0\n      dup2\n      add\n      swap1\n      swap2\n      mstore\n        /* \"Admin.sol\":6600:6641  UsersDetails[msg.sender].prescriptions[i] */\n      0x05\n      swap1\n      swap3\n      mul\n      add\n        /* \"Admin.sol\":6569:6641  filteredPrescriptions[index] = UsersDetails[msg.sender].prescriptions[i] */\n      dup1\n      sload\n      sub(shl(0xa0, 0x01), 0x01)\n      and\n      dup3\n      mstore\n      0x01\n      dup2\n      add\n      dup1\n      sload\n      swap3\n      swap4\n        /* \"Admin.sol\":6600:6641  UsersDetails[msg.sender].prescriptions[i] */\n      swap2\n      swap3\n        /* \"Admin.sol\":6569:6641  filteredPrescriptions[index] = UsersDetails[msg.sender].prescriptions[i] */\n      swap2\n      dup5\n      add\n      swap2\n      tag_438\n      swap1\n      tag_153\n      jump\t// in\n    tag_438:\n      dup1\n      0x1f\n      add\n      0x20\n      dup1\n      swap2\n      div\n      mul\n      0x20\n      add\n      mload(0x40)\n      swap1\n      dup2\n      add\n      0x40\n      mstore\n      dup1\n      swap3\n      swap2\n      swap1\n      dup2\n      dup2\n      mstore\n      0x20\n      add\n      dup3\n      dup1\n      sload\n      tag_439\n      swap1\n      tag_153\n      jump\t// in\n    tag_439:\n      dup1\n      iszero\n      tag_440\n      jumpi\n      dup1\n      0x1f\n      lt\n      tag_441\n      jumpi\n      0x0100\n      dup1\n      dup4\n      sload\n      div\n      mul\n      dup4\n      mstore\n      swap2\n      0x20\n      add\n      swap2\n      jump(tag_440)\n    tag_441:\n      dup3\n      add\n      swap2\n      swap1\n      0x00\n      mstore\n      keccak256(0x00, 0x20)\n      swap1\n    tag_442:\n      dup2\n      sload\n      dup2\n      mstore\n      swap1\n      0x01\n      add\n      swap1\n      0x20\n      add\n      dup1\n      dup4\n      gt\n      tag_442\n      jumpi\n      dup3\n      swap1\n      sub\n      0x1f\n      and\n      dup3\n      add\n      swap2\n    tag_440:\n      pop\n      pop\n      pop\n      pop\n      pop\n      dup2\n      mstore\n      0x20\n      add\n      0x02\n      dup3\n      add\n      dup1\n      sload\n      tag_443\n      swap1\n      tag_153\n      jump\t// in\n    tag_443:\n      dup1\n      0x1f\n      add\n      0x20\n      dup1\n      swap2\n      div\n      mul\n      0x20\n      add\n      mload(0x40)\n      swap1\n      dup2\n      add\n      0x40\n      mstore\n      dup1\n      swap3\n      swap2\n      swap1\n      dup2\n      dup2\n      mstore\n      0x20\n      add\n      dup3\n      dup1\n      sload\n      tag_444\n      swap1\n      tag_153\n      jump\t// in\n    tag_444:\n      dup1\n      iszero\n      tag_445\n      jumpi\n      dup1\n      0x1f\n      lt\n      tag_446\n      jumpi\n      0x0100\n      dup1\n      dup4\n      sload\n      div\n      mul\n      dup4\n      mstore\n      swap2\n      0x20\n      add\n      swap2\n      jump(tag_445)\n    tag_446:\n      dup3\n      add\n      swap2\n      swap1\n      0x00\n      mstore\n      keccak256(0x00, 0x20)\n      swap1\n    tag_447:\n      dup2\n      sload\n      dup2\n      mstore\n      swap1\n      0x01\n      add\n      swap1\n      0x20\n      add\n      dup1\n      dup4\n      gt\n      tag_447\n      jumpi\n      dup3\n      swap1\n      sub\n      0x1f\n      and\n      dup3\n      add\n      swap2\n    tag_445:\n      pop\n      pop\n      pop\n      pop\n      pop\n      dup2\n      mstore\n      0x20\n      add\n      0x03\n      dup3\n      add\n      dup1\n      sload\n      tag_448\n      swap1\n      tag_153\n      jump\t// in\n    tag_448:\n      dup1\n      0x1f\n      add\n      0x20\n      dup1\n      swap2\n      div\n      mul\n      0x20\n      add\n      mload(0x40)\n      swap1\n      dup2\n      add\n      0x40\n      mstore\n      dup1\n      swap3\n      swap2\n      swap1\n      dup2\n      dup2\n      mstore\n      0x20\n      add\n      dup3\n      dup1\n      sload\n      tag_449\n      swap1\n      tag_153\n      jump\t// in\n    tag_449:\n      dup1\n      iszero\n      tag_450\n      jumpi\n      dup1\n      0x1f\n      lt\n      tag_451\n      jumpi\n      0x0100\n      dup1\n      dup4\n      sload\n      div\n      mul\n      dup4\n      mstore\n      swap2\n      0x20\n      add\n      swap2\n      jump(tag_450)\n    tag_451:\n      dup3\n      add\n      swap2\n      swap1\n      0x00\n      mstore\n      keccak256(0x00, 0x20)\n      swap1\n    tag_452:\n      dup2\n      sload\n      dup2\n      mstore\n      swap1\n      0x01\n      add\n      swap1\n      0x20\n      add\n      dup1\n      dup4\n      gt\n      tag_452\n      jumpi\n      dup3\n      swap1\n      sub\n      0x1f\n      and\n      dup3\n      add\n      swap2\n    tag_450:\n      pop\n      pop\n      pop\n      pop\n      pop\n      dup2\n      mstore\n      0x20\n      add\n      0x04\n      dup3\n      add\n      dup1\n      sload\n      tag_453\n      swap1\n      tag_153\n      jump\t// in\n    tag_453:\n      dup1\n      0x1f\n      add\n      0x20\n      dup1\n      swap2\n      div\n      mul\n      0x20\n      add\n      mload(0x40)\n      swap1\n      dup2\n      add\n      0x40\n      mstore\n      dup1\n      swap3\n      swap2\n      swap1\n      dup2\n      dup2\n      mstore\n      0x20\n      add\n      dup3\n      dup1\n      sload\n      tag_454\n      swap1\n      tag_153\n      jump\t// in\n    tag_454:\n      dup1\n      iszero\n      tag_455\n      jumpi\n      dup1\n      0x1f\n      lt\n      tag_456\n      jumpi\n      0x0100\n      dup1\n      dup4\n      sload\n      div\n      mul\n      dup4\n      mstore\n      swap2\n      0x20\n      add\n      swap2\n      jump(tag_455)\n    tag_456:\n      dup3\n      add\n      swap2\n      swap1\n      0x00\n      mstore\n      keccak256(0x00, 0x20)\n      swap1\n    tag_457:\n      dup2\n      sload\n      dup2\n      mstore\n      swap1\n      0x01\n      add\n      swap1\n      0x20\n      add\n      dup1\n      dup4\n      gt\n      tag_457\n      jumpi\n      dup3\n      swap1\n      sub\n      0x1f\n      and\n      dup3\n      add\n      swap2\n    tag_455:\n      pop\n      pop\n      pop\n      pop\n      pop\n      dup2\n      mstore\n      pop\n      pop\n        /* \"Admin.sol\":6569:6590  filteredPrescriptions */\n      dup4\n        /* \"Admin.sol\":6591:6596  index */\n      dup4\n        /* \"Admin.sol\":6569:6597  filteredPrescriptions[index] */\n      dup2\n      mload\n      dup2\n      lt\n      tag_458\n      jumpi\n      mstore(0x00, shl(0xe0, 0x4e487b71))\n      mstore(0x04, 0x32)\n      revert(0x00, 0x24)\n    tag_458:\n      0x20\n      mul\n      0x20\n      add\n      add\n        /* \"Admin.sol\":6569:6641  filteredPrescriptions[index] = UsersDetails[msg.sender].prescriptions[i] */\n      dup2\n      swap1\n      mstore\n      pop\n        /* \"Admin.sol\":6660:6667  index++ */\n      dup2\n      dup1\n      tag_459\n      swap1\n      tag_175\n      jump\t// in\n    tag_459:\n      swap3\n      pop\n      pop\n        /* \"Admin.sol\":6479:6683  if (UsersDetails[msg.sender].prescriptions[i].doctor == doctorAddress) {\r... */\n    tag_435:\n        /* \"Admin.sol\":6459:6462  i++ */\n      dup1\n      tag_460\n      dup2\n      tag_175\n      jump\t// in\n    tag_460:\n      swap2\n      pop\n      pop\n        /* \"Admin.sol\":6391:6694  for (uint i = 0; i < UsersDetails[msg.sender].prescriptions.length; i++) {\r... */\n      jump(tag_430)\n    tag_431:\n      pop\n        /* \"Admin.sol\":6713:6734  filteredPrescriptions */\n      swap1\n      swap5\n        /* \"Admin.sol\":5389:6742  function getPrescriptionsByDoctor(address doctorAddress) public view onlyPatient returns (Prescription[] memory) {\r... */\n      swap4\n      pop\n      pop\n      pop\n      pop\n      jump\t// out\n        /* \"Admin.sol\":10074:10170  function getUsersCount() public view returns (uint count) {\r... */\n    tag_69:\n        /* \"Admin.sol\":10150:10155  users */\n      0x02\n        /* \"Admin.sol\":10150:10162  users.length */\n      sload\n        /* \"Admin.sol\":10074:10170  function getUsersCount() public view returns (uint count) {\r... */\n      swap1\n      jump\t// out\n        /* \"Admin.sol\":7664:8052  function activateUser(address userAddress) public onlyOwner {\r... */\n    tag_74:\n        /* \"Admin.sol\":254:267  hospitalAdmin */\n      and(sub(shl(0xa0, 0x01), 0x01), sload(0x00))\n        /* \"Admin.sol\":240:250  msg.sender */\n      caller\n        /* \"Admin.sol\":240:267  msg.sender == hospitalAdmin */\n      eq\n        /* \"Admin.sol\":218:366  require(\r... */\n      tag_463\n      jumpi\n      mload(0x40)\n      shl(0xe5, 0x461bcd)\n      dup2\n      mstore\n      0x04\n      add\n      tag_89\n      swap1\n      tag_90\n      jump\t// in\n    tag_463:\n      sub(shl(0xa0, 0x01), 0x01)\n        /* \"Admin.sol\":7743:7768  UsersDetails[userAddress] */\n      dup2\n      and\n      0x00\n      swap1\n      dup2\n      mstore\n        /* \"Admin.sol\":7743:7755  UsersDetails */\n      0x01\n        /* \"Admin.sol\":7743:7768  UsersDetails[userAddress] */\n      0x20\n      mstore\n      0x40\n      swap1\n      keccak256\n        /* \"Admin.sol\":7743:7775  UsersDetails[userAddress].exists */\n      0x04\n      add\n      sload\n      shl(0xb0, 0x01)\n      swap1\n      div\n      0xff\n      and\n        /* \"Admin.sol\":7735:7800  require(UsersDetails[userAddress].exists, \"User does not exist.\") */\n      tag_466\n      jumpi\n      mload(0x40)\n      shl(0xe5, 0x461bcd)\n      dup2\n      mstore\n      0x04\n      add\n      tag_89\n      swap1\n      tag_121\n      jump\t// in\n    tag_466:\n        /* \"Admin.sol\":7855:7873  CurStatus.Inactive */\n      0x01\n      sub(shl(0xa0, 0x01), 0x01)\n        /* \"Admin.sol\":7819:7844  UsersDetails[userAddress] */\n      dup3\n      and\n      0x00\n      swap1\n      dup2\n      mstore\n        /* \"Admin.sol\":7819:7831  UsersDetails */\n      0x01\n        /* \"Admin.sol\":7819:7844  UsersDetails[userAddress] */\n      0x20\n      dup2\n      swap1\n      mstore\n      0x40\n      swap1\n      swap2\n      keccak256\n        /* \"Admin.sol\":7819:7851  UsersDetails[userAddress].status */\n      0x04\n      add\n      sload\n      shl(0xa8, 0x01)\n      swap1\n      div\n      0xff\n      and\n      swap1\n        /* \"Admin.sol\":7819:7873  UsersDetails[userAddress].status == CurStatus.Inactive */\n      dup2\n      gt\n      iszero\n      tag_469\n      jumpi\n      mstore(0x00, shl(0xe0, 0x4e487b71))\n      mstore(0x04, 0x21)\n      revert(0x00, 0x24)\n    tag_469:\n      eq\n        /* \"Admin.sol\":7811:7901  require(UsersDetails[userAddress].status == CurStatus.Inactive, \"User is already active.\") */\n      tag_470\n      jumpi\n      mload(0x40)\n      shl(0xe5, 0x461bcd)\n      dup2\n      mstore\n      0x04\n      add\n      tag_89\n      swap1\n      tag_472\n      jump\t// in\n    tag_470:\n      sub(shl(0xa0, 0x01), 0x01)\n        /* \"Admin.sol\":7914:7939  UsersDetails[userAddress] */\n      dup2\n      and\n        /* \"Admin.sol\":7949:7965  CurStatus.Active */\n      0x00\n        /* \"Admin.sol\":7914:7939  UsersDetails[userAddress] */\n      dup2\n      dup2\n      mstore\n        /* \"Admin.sol\":7914:7926  UsersDetails */\n      0x01\n        /* \"Admin.sol\":7914:7939  UsersDetails[userAddress] */\n      0x20\n      dup2\n      swap1\n      mstore\n      0x40\n      swap2\n      dup3\n      swap1\n      keccak256\n        /* \"Admin.sol\":7914:7946  UsersDetails[userAddress].status */\n      0x04\n      dup2\n      add\n        /* \"Admin.sol\":7914:7965  UsersDetails[userAddress].status = CurStatus.Active */\n      dup1\n      sload\n      not(shl(0xa8, 0xff))\n      and\n      swap1\n      sstore\n        /* \"Admin.sol\":7981:8044  UserActivated(userAddress, UsersDetails[userAddress].firstname) */\n      swap2\n      mload\n      0xa9ca73ed87ff19d7e58bc1934416c2db88521dfe4376866e9f6a48e2520ebe6f\n      swap3\n      tag_188\n      swap3\n        /* \"Admin.sol\":8008:8043  UsersDetails[userAddress].firstname */\n      add\n      swap1\n        /* \"Admin.sol\":7981:8044  UserActivated(userAddress, UsersDetails[userAddress].firstname) */\n      tag_189\n      jump\t// in\n        /* \"Admin.sol\":11610:11888  function getAllUsers() public view returns (UserInfo[] memory) {\r... */\n    tag_76:\n        /* \"Admin.sol\":11728:11733  users */\n      0x02\n        /* \"Admin.sol\":11728:11740  users.length */\n      sload\n        /* \"Admin.sol\":11654:11671  UserInfo[] memory */\n      0x60\n      swap1\n        /* \"Admin.sol\":11684:11710  UserInfo[] memory allUsers */\n      0x00\n      swap1\n        /* \"Admin.sol\":11713:11741  new UserInfo[](users.length) */\n      0xffffffffffffffff\n      dup2\n      gt\n      iszero\n      tag_476\n      jumpi\n      mstore(0x00, shl(0xe0, 0x4e487b71))\n      mstore(0x04, 0x41)\n      revert(0x00, 0x24)\n    tag_476:\n      mload(0x40)\n      swap1\n      dup1\n      dup3\n      mstore\n      dup1\n      0x20\n      mul\n      0x20\n      add\n      dup3\n      add\n      0x40\n      mstore\n      dup1\n      iszero\n      tag_477\n      jumpi\n      dup2\n      0x20\n      add\n    tag_478:\n      tag_479\n      tag_341\n      jump\t// in\n    tag_479:\n      dup2\n      mstore\n      0x20\n      add\n      swap1\n      0x01\n      swap1\n      sub\n      swap1\n      dup2\n      tag_478\n      jumpi\n      swap1\n      pop\n    tag_477:\n      pop\n        /* \"Admin.sol\":11684:11741  UserInfo[] memory allUsers = new UserInfo[](users.length) */\n      swap1\n      pop\n        /* \"Admin.sol\":11757:11763  uint i */\n      0x00\n        /* \"Admin.sol\":11752:11855  for (uint i = 0; i < users.length; i++) {\r... */\n    tag_480:\n        /* \"Admin.sol\":11773:11778  users */\n      0x02\n        /* \"Admin.sol\":11773:11785  users.length */\n      sload\n        /* \"Admin.sol\":11769:11785  i < users.length */\n      dup2\n      lt\n        /* \"Admin.sol\":11752:11855  for (uint i = 0; i < users.length; i++) {\r... */\n      iszero\n      tag_481\n      jumpi\n        /* \"Admin.sol\":11821:11833  UsersDetails */\n      0x01\n        /* \"Admin.sol\":11821:11843  UsersDetails[users[i]] */\n      0x00\n        /* \"Admin.sol\":11834:11839  users */\n      0x02\n        /* \"Admin.sol\":11840:11841  i */\n      dup4\n        /* \"Admin.sol\":11834:11842  users[i] */\n      dup2\n      sload\n      dup2\n      lt\n      tag_483\n      jumpi\n      mstore(0x00, shl(0xe0, 0x4e487b71))\n      mstore(0x04, 0x32)\n      revert(0x00, 0x24)\n    tag_483:\n      0x00\n      swap2\n      dup3\n      mstore\n      0x20\n      dup1\n      dup4\n      keccak256\n      swap1\n      swap2\n      add\n      sload\n      sub(shl(0xa0, 0x01), 0x01)\n      and\n        /* \"Admin.sol\":11821:11843  UsersDetails[users[i]] */\n      dup4\n      mstore\n      dup3\n      add\n      swap3\n      swap1\n      swap3\n      mstore\n      0x40\n      swap1\n      dup2\n      add\n      swap1\n      swap2\n      keccak256\n        /* \"Admin.sol\":11807:11843  allUsers[i] = UsersDetails[users[i]] */\n      dup2\n      mload\n      0x0120\n      dup2\n      add\n      swap1\n      swap3\n      mstore\n      dup1\n      sload\n      dup3\n      swap1\n      0xff\n      and\n      0x03\n      dup2\n      gt\n      iszero\n      tag_485\n      jumpi\n      mstore(0x00, shl(0xe0, 0x4e487b71))\n      mstore(0x04, 0x21)\n      revert(0x00, 0x24)\n    tag_485:\n      0x03\n      dup2\n      gt\n      iszero\n      tag_486\n      jumpi\n      mstore(0x00, shl(0xe0, 0x4e487b71))\n      mstore(0x04, 0x21)\n      revert(0x00, 0x24)\n    tag_486:\n      dup2\n      mstore\n      0x20\n      add\n      0x01\n      dup3\n      add\n      dup1\n      sload\n      tag_487\n      swap1\n      tag_153\n      jump\t// in\n    tag_487:\n      dup1\n      0x1f\n      add\n      0x20\n      dup1\n      swap2\n      div\n      mul\n      0x20\n      add\n      mload(0x40)\n      swap1\n      dup2\n      add\n      0x40\n      mstore\n      dup1\n      swap3\n      swap2\n      swap1\n      dup2\n      dup2\n      mstore\n      0x20\n      add\n      dup3\n      dup1\n      sload\n      tag_488\n      swap1\n      tag_153\n      jump\t// in\n    tag_488:\n      dup1\n      iszero\n      tag_489\n      jumpi\n      dup1\n      0x1f\n      lt\n      tag_490\n      jumpi\n      0x0100\n      dup1\n      dup4\n      sload\n      div\n      mul\n      dup4\n      mstore\n      swap2\n      0x20\n      add\n      swap2\n      jump(tag_489)\n    tag_490:\n      dup3\n      add\n      swap2\n      swap1\n      0x00\n      mstore\n      keccak256(0x00, 0x20)\n      swap1\n    tag_491:\n      dup2\n      sload\n      dup2\n      mstore\n      swap1\n      0x01\n      add\n      swap1\n      0x20\n      add\n      dup1\n      dup4\n      gt\n      tag_491\n      jumpi\n      dup3\n      swap1\n      sub\n      0x1f\n      and\n      dup3\n      add\n      swap2\n    tag_489:\n      pop\n      pop\n      pop\n      pop\n      pop\n      dup2\n      mstore\n      0x20\n      add\n      0x02\n      dup3\n      add\n      dup1\n      sload\n      tag_492\n      swap1\n      tag_153\n      jump\t// in\n    tag_492:\n      dup1\n      0x1f\n      add\n      0x20\n      dup1\n      swap2\n      div\n      mul\n      0x20\n      add\n      mload(0x40)\n      swap1\n      dup2\n      add\n      0x40\n      mstore\n      dup1\n      swap3\n      swap2\n      swap1\n      dup2\n      dup2\n      mstore\n      0x20\n      add\n      dup3\n      dup1\n      sload\n      tag_493\n      swap1\n      tag_153\n      jump\t// in\n    tag_493:\n      dup1\n      iszero\n      tag_494\n      jumpi\n      dup1\n      0x1f\n      lt\n      tag_495\n      jumpi\n      0x0100\n      dup1\n      dup4\n      sload\n      div\n      mul\n      dup4\n      mstore\n      swap2\n      0x20\n      add\n      swap2\n      jump(tag_494)\n    tag_495:\n      dup3\n      add\n      swap2\n      swap1\n      0x00\n      mstore\n      keccak256(0x00, 0x20)\n      swap1\n    tag_496:\n      dup2\n      sload\n      dup2\n      mstore\n      swap1\n      0x01\n      add\n      swap1\n      0x20\n      add\n      dup1\n      dup4\n      gt\n      tag_496\n      jumpi\n      dup3\n      swap1\n      sub\n      0x1f\n      and\n      dup3\n      add\n      swap2\n    tag_494:\n      pop\n      pop\n      pop\n      pop\n      pop\n      dup2\n      mstore\n      0x20\n      add\n      0x03\n      dup3\n      add\n      dup1\n      sload\n      tag_497\n      swap1\n      tag_153\n      jump\t// in\n    tag_497:\n      dup1\n      0x1f\n      add\n      0x20\n      dup1\n      swap2\n      div\n      mul\n      0x20\n      add\n      mload(0x40)\n      swap1\n      dup2\n      add\n      0x40\n      mstore\n      dup1\n      swap3\n      swap2\n      swap1\n      dup2\n      dup2\n      mstore\n      0x20\n      add\n      dup3\n      dup1\n      sload\n      tag_498\n      swap1\n      tag_153\n      jump\t// in\n    tag_498:\n      dup1\n      iszero\n      tag_499\n      jumpi\n      dup1\n      0x1f\n      lt\n      tag_500\n      jumpi\n      0x0100\n      dup1\n      dup4\n      sload\n      div\n      mul\n      dup4\n      mstore\n      swap2\n      0x20\n      add\n      swap2\n      jump(tag_499)\n    tag_500:\n      dup3\n      add\n      swap2\n      swap1\n      0x00\n      mstore\n      keccak256(0x00, 0x20)\n      swap1\n    tag_501:\n      dup2\n      sload\n      dup2\n      mstore\n      swap1\n      0x01\n      add\n      swap1\n      0x20\n      add\n      dup1\n      dup4\n      gt\n      tag_501\n      jumpi\n      dup3\n      swap1\n      sub\n      0x1f\n      and\n      dup3\n      add\n      swap2\n    tag_499:\n      pop\n      pop\n      pop\n      swap2\n      dup4\n      mstore\n      pop\n      pop\n      0x04\n      dup3\n      add\n      sload\n      sub(shl(0xa0, 0x01), 0x01)\n      dup2\n      and\n      0x20\n      dup4\n      add\n      mstore\n      0x40\n      swap1\n      swap2\n      add\n      swap1\n      shl(0xa0, 0x01)\n      swap1\n      div\n      0xff\n      and\n      0x02\n      dup2\n      gt\n      iszero\n      tag_502\n      jumpi\n      mstore(0x00, shl(0xe0, 0x4e487b71))\n      mstore(0x04, 0x21)\n      revert(0x00, 0x24)\n    tag_502:\n      0x02\n      dup2\n      gt\n      iszero\n      tag_503\n      jumpi\n      mstore(0x00, shl(0xe0, 0x4e487b71))\n      mstore(0x04, 0x21)\n      revert(0x00, 0x24)\n    tag_503:\n      dup2\n      mstore\n      0x20\n      add\n      0x04\n      dup3\n      add\n      0x15\n      swap1\n      sload\n      swap1\n      0x0100\n      exp\n      swap1\n      div\n      0xff\n      and\n      0x01\n      dup2\n      gt\n      iszero\n      tag_504\n      jumpi\n      mstore(0x00, shl(0xe0, 0x4e487b71))\n      mstore(0x04, 0x21)\n      revert(0x00, 0x24)\n    tag_504:\n      0x01\n      dup2\n      gt\n      iszero\n      tag_505\n      jumpi\n      mstore(0x00, shl(0xe0, 0x4e487b71))\n      mstore(0x04, 0x21)\n      revert(0x00, 0x24)\n    tag_505:\n      dup2\n      mstore\n      0x04\n      dup3\n      add\n      sload\n      shl(0xb0, 0x01)\n      swap1\n      div\n      0xff\n      and\n      iszero\n      iszero\n      0x20\n      dup1\n      dup4\n      add\n      swap2\n      swap1\n      swap2\n      mstore\n      0x05\n      dup4\n      add\n      dup1\n      sload\n      0x40\n      dup1\n      mload\n      dup3\n      dup6\n      mul\n      dup2\n      add\n      dup6\n      add\n      dup3\n      mstore\n      dup3\n      dup2\n      mstore\n      swap5\n      add\n      swap4\n      swap3\n      0x00\n      swap1\n      dup5\n      add\n    tag_506:\n      dup3\n      dup3\n      lt\n      iszero\n      tag_507\n      jumpi\n      0x00\n      dup5\n      dup2\n      mstore\n      0x20\n      swap1\n      dup2\n      swap1\n      keccak256\n      0x40\n      dup1\n      mload\n      0xa0\n      dup2\n      add\n      swap1\n      swap2\n      mstore\n      0x05\n      dup6\n      mul\n      swap1\n      swap2\n      add\n      dup1\n      sload\n      sub(shl(0xa0, 0x01), 0x01)\n      and\n      dup3\n      mstore\n      0x01\n      dup2\n      add\n      dup1\n      sload\n      swap3\n      swap4\n      swap2\n      swap3\n      swap2\n      dup5\n      add\n      swap2\n      tag_509\n      swap1\n      tag_153\n      jump\t// in\n    tag_509:\n      dup1\n      0x1f\n      add\n      0x20\n      dup1\n      swap2\n      div\n      mul\n      0x20\n      add\n      mload(0x40)\n      swap1\n      dup2\n      add\n      0x40\n      mstore\n      dup1\n      swap3\n      swap2\n      swap1\n      dup2\n      dup2\n      mstore\n      0x20\n      add\n      dup3\n      dup1\n      sload\n      tag_510\n      swap1\n      tag_153\n      jump\t// in\n    tag_510:\n      dup1\n      iszero\n      tag_511\n      jumpi\n      dup1\n      0x1f\n      lt\n      tag_512\n      jumpi\n      0x0100\n      dup1\n      dup4\n      sload\n      div\n      mul\n      dup4\n      mstore\n      swap2\n      0x20\n      add\n      swap2\n      jump(tag_511)\n    tag_512:\n      dup3\n      add\n      swap2\n      swap1\n      0x00\n      mstore\n      keccak256(0x00, 0x20)\n      swap1\n    tag_513:\n      dup2\n      sload\n      dup2\n      mstore\n      swap1\n      0x01\n      add\n      swap1\n      0x20\n      add\n      dup1\n      dup4\n      gt\n      tag_513\n      jumpi\n      dup3\n      swap1\n      sub\n      0x1f\n      and\n      dup3\n      add\n      swap2\n    tag_511:\n      pop\n      pop\n      pop\n      pop\n      pop\n      dup2\n      mstore\n      0x20\n      add\n      0x02\n      dup3\n      add\n      dup1\n      sload\n      tag_514\n      swap1\n      tag_153\n      jump\t// in\n    tag_514:\n      dup1\n      0x1f\n      add\n      0x20\n      dup1\n      swap2\n      div\n      mul\n      0x20\n      add\n      mload(0x40)\n      swap1\n      dup2\n      add\n      0x40\n      mstore\n      dup1\n      swap3\n      swap2\n      swap1\n      dup2\n      dup2\n      mstore\n      0x20\n      add\n      dup3\n      dup1\n      sload\n      tag_515\n      swap1\n      tag_153\n      jump\t// in\n    tag_515:\n      dup1\n      iszero\n      tag_516\n      jumpi\n      dup1\n      0x1f\n      lt\n      tag_517\n      jumpi\n      0x0100\n      dup1\n      dup4\n      sload\n      div\n      mul\n      dup4\n      mstore\n      swap2\n      0x20\n      add\n      swap2\n      jump(tag_516)\n    tag_517:\n      dup3\n      add\n      swap2\n      swap1\n      0x00\n      mstore\n      keccak256(0x00, 0x20)\n      swap1\n    tag_518:\n      dup2\n      sload\n      dup2\n      mstore\n      swap1\n      0x01\n      add\n      swap1\n      0x20\n      add\n      dup1\n      dup4\n      gt\n      tag_518\n      jumpi\n      dup3\n      swap1\n      sub\n      0x1f\n      and\n      dup3\n      add\n      swap2\n    tag_516:\n      pop\n      pop\n      pop\n      pop\n      pop\n      dup2\n      mstore\n      0x20\n      add\n      0x03\n      dup3\n      add\n      dup1\n      sload\n      tag_519\n      swap1\n      tag_153\n      jump\t// in\n    tag_519:\n      dup1\n      0x1f\n      add\n      0x20\n      dup1\n      swap2\n      div\n      mul\n      0x20\n      add\n      mload(0x40)\n      swap1\n      dup2\n      add\n      0x40\n      mstore\n      dup1\n      swap3\n      swap2\n      swap1\n      dup2\n      dup2\n      mstore\n      0x20\n      add\n      dup3\n      dup1\n      sload\n      tag_520\n      swap1\n      tag_153\n      jump\t// in\n    tag_520:\n      dup1\n      iszero\n      tag_521\n      jumpi\n      dup1\n      0x1f\n      lt\n      tag_522\n      jumpi\n      0x0100\n      dup1\n      dup4\n      sload\n      div\n      mul\n      dup4\n      mstore\n      swap2\n      0x20\n      add\n      swap2\n      jump(tag_521)\n    tag_522:\n      dup3\n      add\n      swap2\n      swap1\n      0x00\n      mstore\n      keccak256(0x00, 0x20)\n      swap1\n    tag_523:\n      dup2\n      sload\n      dup2\n      mstore\n      swap1\n      0x01\n      add\n      swap1\n      0x20\n      add\n      dup1\n      dup4\n      gt\n      tag_523\n      jumpi\n      dup3\n      swap1\n      sub\n      0x1f\n      and\n      dup3\n      add\n      swap2\n    tag_521:\n      pop\n      pop\n      pop\n      pop\n      pop\n      dup2\n      mstore\n      0x20\n      add\n      0x04\n      dup3\n      add\n      dup1\n      sload\n      tag_524\n      swap1\n      tag_153\n      jump\t// in\n    tag_524:\n      dup1\n      0x1f\n      add\n      0x20\n      dup1\n      swap2\n      div\n      mul\n      0x20\n      add\n      mload(0x40)\n      swap1\n      dup2\n      add\n      0x40\n      mstore\n      dup1\n      swap3\n      swap2\n      swap1\n      dup2\n      dup2\n      mstore\n      0x20\n      add\n      dup3\n      dup1\n      sload\n      tag_525\n      swap1\n      tag_153\n      jump\t// in\n    tag_525:\n      dup1\n      iszero\n      tag_526\n      jumpi\n      dup1\n      0x1f\n      lt\n      tag_527\n      jumpi\n      0x0100\n      dup1\n      dup4\n      sload\n      div\n      mul\n      dup4\n      mstore\n      swap2\n      0x20\n      add\n      swap2\n      jump(tag_526)\n    tag_527:\n      dup3\n      add\n      swap2\n      swap1\n      0x00\n      mstore\n      keccak256(0x00, 0x20)\n      swap1\n    tag_528:\n      dup2\n      sload\n      dup2\n      mstore\n      swap1\n      0x01\n      add\n      swap1\n      0x20\n      add\n      dup1\n      dup4\n      gt\n      tag_528\n      jumpi\n      dup3\n      swap1\n      sub\n      0x1f\n      and\n      dup3\n      add\n      swap2\n    tag_526:\n      pop\n      pop\n      pop\n      pop\n      pop\n      dup2\n      mstore\n      pop\n      pop\n      dup2\n      mstore\n      0x20\n      add\n      swap1\n      0x01\n      add\n      swap1\n      jump(tag_506)\n    tag_507:\n      pop\n      pop\n      pop\n      pop\n      dup2\n      mstore\n      pop\n      pop\n        /* \"Admin.sol\":11807:11815  allUsers */\n      dup3\n        /* \"Admin.sol\":11816:11817  i */\n      dup3\n        /* \"Admin.sol\":11807:11818  allUsers[i] */\n      dup2\n      mload\n      dup2\n      lt\n      tag_529\n      jumpi\n      mstore(0x00, shl(0xe0, 0x4e487b71))\n      mstore(0x04, 0x32)\n      revert(0x00, 0x24)\n    tag_529:\n      0x20\n      mul\n      0x20\n      add\n      add\n        /* \"Admin.sol\":11807:11843  allUsers[i] = UsersDetails[users[i]] */\n      dup2\n      swap1\n      mstore\n      pop\n        /* \"Admin.sol\":11787:11790  i++ */\n      dup1\n      dup1\n      tag_530\n      swap1\n      tag_175\n      jump\t// in\n    tag_530:\n      swap2\n      pop\n      pop\n        /* \"Admin.sol\":11752:11855  for (uint i = 0; i < users.length; i++) {\r... */\n      jump(tag_480)\n    tag_481:\n      pop\n        /* \"Admin.sol\":11872:11880  allUsers */\n      swap1\n      pop\n        /* \"Admin.sol\":11610:11888  function getAllUsers() public view returns (UserInfo[] memory) {\r... */\n      swap1\n      jump\t// out\n        /* \"Admin.sol\":82:110  address public hospitalAdmin */\n    tag_79:\n      and(sub(shl(0xa0, 0x01), 0x01), sload(0x00))\n      dup2\n      jump\t// out\n        /* \"Admin.sol\":10228:10646  function getUserByIndex(uint index)\r... */\n    tag_85:\n        /* \"Admin.sol\":10308:10318  uint title */\n      0x00\n        /* \"Admin.sol\":10333:10356  string memory firstname */\n      0x60\n        /* \"Admin.sol\":10371:10393  string memory lastname */\n      dup1\n        /* \"Admin.sol\":10408:10430  string memory location */\n      0x60\n        /* \"Admin.sol\":10445:10463  address ethAddress */\n      0x00\n        /* \"Admin.sol\":10478:10487  uint role */\n      dup1\n        /* \"Admin.sol\":10502:10513  uint status */\n      0x00\n        /* \"Admin.sol\":10558:10563  users */\n      0x02\n        /* \"Admin.sol\":10558:10570  users.length */\n      dup1\n      sload\n      swap1\n      pop\n        /* \"Admin.sol\":10550:10555  index */\n      dup9\n        /* \"Admin.sol\":10550:10570  index < users.length */\n      lt\n        /* \"Admin.sol\":10542:10595  require(index < users.length, \"Index out of bounds.\") */\n      tag_532\n      jumpi\n      mload(0x40)\n      shl(0xe5, 0x461bcd)\n      dup2\n      mstore\n      0x04\n      add\n      tag_89\n      swap1\n      tag_534\n      jump\t// in\n    tag_532:\n        /* \"Admin.sol\":10613:10638  getUserInfo(users[index]) */\n      tag_535\n        /* \"Admin.sol\":10625:10630  users */\n      0x02\n        /* \"Admin.sol\":10631:10636  index */\n      dup10\n        /* \"Admin.sol\":10625:10637  users[index] */\n      dup2\n      sload\n      dup2\n      lt\n      tag_536\n      jumpi\n      mstore(0x00, shl(0xe0, 0x4e487b71))\n      mstore(0x04, 0x32)\n      revert(0x00, 0x24)\n    tag_536:\n      0x00\n      swap2\n      dup3\n      mstore\n      0x20\n      swap1\n      swap2\n      keccak256\n      add\n      sload\n      sub(shl(0xa0, 0x01), 0x01)\n      and\n        /* \"Admin.sol\":10613:10624  getUserInfo */\n      tag_52\n        /* \"Admin.sol\":10613:10638  getUserInfo(users[index]) */\n      jump\t// in\n    tag_535:\n        /* \"Admin.sol\":10606:10638  return getUserInfo(users[index]) */\n      swap6\n      swap15\n      swap5\n      swap14\n      pop\n      swap3\n      swap12\n      pop\n      swap1\n      swap10\n      pop\n      swap8\n      pop\n      swap6\n      pop\n      swap1\n      swap4\n      pop\n        /* \"Admin.sol\":10228:10646  function getUserByIndex(uint index)\r... */\n      swap2\n      pop\n      pop\n      jump\t// out\n    tag_106:\n      dup3\n      dup1\n      sload\n      tag_538\n      swap1\n      tag_153\n      jump\t// in\n    tag_538:\n      swap1\n      0x00\n      mstore\n      keccak256(0x00, 0x20)\n      swap1\n      0x1f\n      add\n      0x20\n      swap1\n      div\n      dup2\n      add\n      swap3\n      dup3\n      tag_540\n      jumpi\n      0x00\n      dup6\n      sstore\n      jump(tag_543)\n    tag_540:\n      dup3\n      0x1f\n      lt\n      tag_541\n      jumpi\n      dup1\n      mload\n      not(0xff)\n      and\n      dup4\n      dup1\n      add\n      or\n      dup6\n      sstore\n      jump(tag_543)\n    tag_541:\n      dup3\n      dup1\n      add\n      0x01\n      add\n      dup6\n      sstore\n      dup3\n      iszero\n      tag_543\n      jumpi\n      swap2\n      dup3\n      add\n    tag_542:\n      dup3\n      dup2\n      gt\n      iszero\n      tag_543\n      jumpi\n      dup3\n      mload\n      dup3\n      sstore\n      swap2\n      0x20\n      add\n      swap2\n      swap1\n      0x01\n      add\n      swap1\n      jump(tag_542)\n    tag_543:\n      pop\n      tag_544\n      swap3\n      swap2\n      pop\n      tag_545\n      jump\t// in\n    tag_544:\n      pop\n      swap1\n      jump\t// out\n    tag_146:\n      mload(0x40)\n      dup1\n      0x60\n      add\n      0x40\n      mstore\n      dup1\n      and(sub(shl(0xa0, 0x01), 0x01), 0x00)\n      dup2\n      mstore\n      0x20\n      add\n      0x60\n      dup2\n      mstore\n      0x20\n      add\n      0x60\n      dup2\n      mstore\n      pop\n      swap1\n      jump\t// out\n    tag_246:\n      pop\n      dup1\n      sload\n      tag_546\n      swap1\n      tag_153\n      jump\t// in\n    tag_546:\n      0x00\n      dup3\n      sstore\n      dup1\n      0x1f\n      lt\n      tag_548\n      jumpi\n      pop\n      jump(tag_549)\n    tag_548:\n      0x1f\n      add\n      0x20\n      swap1\n      div\n      swap1\n      0x00\n      mstore\n      keccak256(0x00, 0x20)\n      swap1\n      dup2\n      add\n      swap1\n      tag_549\n      swap2\n      swap1\n      tag_545\n      jump\t// in\n    tag_549:\n      pop\n      jump\t// out\n    tag_250:\n      pop\n      dup1\n      sload\n      0x00\n      dup3\n      sstore\n      0x05\n      mul\n      swap1\n      0x00\n      mstore\n      keccak256(0x00, 0x20)\n      swap1\n      dup2\n      add\n      swap1\n      tag_549\n      swap2\n      swap1\n      tag_552\n      jump\t// in\n    tag_341:\n      0x40\n      dup1\n      mload\n      0x0120\n      dup2\n      add\n      swap1\n      swap2\n      mstore\n      dup1\n      0x00\n      dup2\n      mstore\n      0x20\n      add\n      0x60\n      dup2\n      mstore\n      0x20\n      add\n      0x60\n      dup2\n      mstore\n      0x20\n      add\n      0x60\n      dup2\n      mstore\n      0x20\n      add\n      and(sub(shl(0xa0, 0x01), 0x01), 0x00)\n      dup2\n      mstore\n      0x20\n      add\n      0x00\n      0x02\n      dup2\n      gt\n      iszero\n      tag_554\n      jumpi\n      mstore(0x00, shl(0xe0, 0x4e487b71))\n      mstore(0x04, 0x21)\n      revert(0x00, 0x24)\n    tag_554:\n      dup2\n      mstore\n      0x20\n      add\n      0x00\n      dup2\n      mstore\n      0x00\n      0x20\n      dup3\n      add\n      mstore\n      0x60\n      0x40\n      swap1\n      swap2\n      add\n      mstore\n      swap1\n      jump\t// out\n    tag_429:\n      mload(0x40)\n      dup1\n      0xa0\n      add\n      0x40\n      mstore\n      dup1\n      and(sub(shl(0xa0, 0x01), 0x01), 0x00)\n      dup2\n      mstore\n      0x20\n      add\n      0x60\n      dup2\n      mstore\n      0x20\n      add\n      0x60\n      dup2\n      mstore\n      0x20\n      add\n      0x60\n      dup2\n      mstore\n      0x20\n      add\n      0x60\n      dup2\n      mstore\n      pop\n      swap1\n      jump\t// out\n    tag_545:\n    tag_556:\n      dup1\n      dup3\n      gt\n      iszero\n      tag_544\n      jumpi\n      0x00\n      dup2\n      sstore\n      0x01\n      add\n      jump(tag_556)\n    tag_552:\n      dup1\n      dup3\n      gt\n      iszero\n      tag_544\n      jumpi\n      dup1\n      sload\n      not(sub(shl(0xa0, 0x01), 0x01))\n      and\n      dup2\n      sstore\n      0x00\n      tag_560\n      0x01\n      dup4\n      add\n      dup3\n      tag_246\n      jump\t// in\n    tag_560:\n      tag_561\n      0x02\n      dup4\n      add\n      0x00\n      tag_246\n      jump\t// in\n    tag_561:\n      tag_562\n      0x03\n      dup4\n      add\n      0x00\n      tag_246\n      jump\t// in\n    tag_562:\n      tag_563\n      0x04\n      dup4\n      add\n      0x00\n      tag_246\n      jump\t// in\n    tag_563:\n      pop\n      0x05\n      add\n      jump(tag_552)\n        /* \"#utility.yul\":14:189   */\n    tag_565:\n        /* \"#utility.yul\":84:104   */\n      dup1\n      calldataload\n      sub(shl(0xa0, 0x01), 0x01)\n        /* \"#utility.yul\":133:164   */\n      dup2\n      and\n        /* \"#utility.yul\":123:165   */\n      dup2\n      eq\n        /* \"#utility.yul\":113:115   */\n      tag_288\n      jumpi\n        /* \"#utility.yul\":179:180   */\n      0x00\n        /* \"#utility.yul\":176:177   */\n      dup1\n        /* \"#utility.yul\":169:181   */\n      revert\n        /* \"#utility.yul\":194:907   */\n    tag_568:\n      0x00\n        /* \"#utility.yul\":292:295   */\n      dup3\n        /* \"#utility.yul\":285:289   */\n      0x1f\n        /* \"#utility.yul\":277:283   */\n      dup4\n        /* \"#utility.yul\":273:290   */\n      add\n        /* \"#utility.yul\":269:296   */\n      slt\n        /* \"#utility.yul\":259:261   */\n      tag_570\n      jumpi\n        /* \"#utility.yul\":314:319   */\n      dup1\n        /* \"#utility.yul\":307:312   */\n      dup2\n        /* \"#utility.yul\":300:320   */\n      revert\n        /* \"#utility.yul\":259:261   */\n    tag_570:\n        /* \"#utility.yul\":354:360   */\n      dup2\n        /* \"#utility.yul\":341:361   */\n      calldataload\n        /* \"#utility.yul\":380:398   */\n      0xffffffffffffffff\n        /* \"#utility.yul\":417:419   */\n      dup1\n        /* \"#utility.yul\":413:415   */\n      dup3\n        /* \"#utility.yul\":410:420   */\n      gt\n        /* \"#utility.yul\":407:409   */\n      iszero\n      tag_572\n      jumpi\n        /* \"#utility.yul\":423:441   */\n      tag_572\n      tag_573\n      jump\t// in\n    tag_572:\n        /* \"#utility.yul\":472:474   */\n      0x40\n        /* \"#utility.yul\":466:475   */\n      mload\n        /* \"#utility.yul\":541:543   */\n      0x1f\n        /* \"#utility.yul\":522:535   */\n      dup4\n      add\n      not(0x1f)\n        /* \"#utility.yul\":518:545   */\n      and\n        /* \"#utility.yul\":506:546   */\n      dup2\n      add\n        /* \"#utility.yul\":548:552   */\n      0x20\n        /* \"#utility.yul\":502:553   */\n      add\n        /* \"#utility.yul\":568:586   */\n      dup3\n      dup2\n      gt\n        /* \"#utility.yul\":588:610   */\n      dup3\n      dup3\n      lt\n        /* \"#utility.yul\":565:611   */\n      or\n        /* \"#utility.yul\":562:564   */\n      iszero\n      tag_575\n      jumpi\n        /* \"#utility.yul\":614:632   */\n      tag_575\n      tag_573\n      jump\t// in\n    tag_575:\n        /* \"#utility.yul\":650:652   */\n      0x40\n        /* \"#utility.yul\":643:665   */\n      mstore\n        /* \"#utility.yul\":674:692   */\n      dup3\n      dup2\n      mstore\n        /* \"#utility.yul\":711:726   */\n      dup5\n      dup4\n      add\n        /* \"#utility.yul\":728:732   */\n      0x20\n        /* \"#utility.yul\":707:733   */\n      add\n        /* \"#utility.yul\":704:739   */\n      dup7\n      lt\n        /* \"#utility.yul\":701:703   */\n      iszero\n      tag_576\n      jumpi\n        /* \"#utility.yul\":756:761   */\n      dup4\n        /* \"#utility.yul\":749:754   */\n      dup5\n        /* \"#utility.yul\":742:762   */\n      revert\n        /* \"#utility.yul\":701:703   */\n    tag_576:\n        /* \"#utility.yul\":824:826   */\n      dup3\n        /* \"#utility.yul\":817:821   */\n      0x20\n        /* \"#utility.yul\":809:815   */\n      dup7\n        /* \"#utility.yul\":805:822   */\n      add\n        /* \"#utility.yul\":798:802   */\n      0x20\n        /* \"#utility.yul\":790:796   */\n      dup4\n        /* \"#utility.yul\":786:803   */\n      add\n        /* \"#utility.yul\":773:827   */\n      calldatacopy\n        /* \"#utility.yul\":847:862   */\n      swap2\n      dup3\n      add\n        /* \"#utility.yul\":864:868   */\n      0x20\n        /* \"#utility.yul\":843:869   */\n      add\n        /* \"#utility.yul\":836:877   */\n      swap3\n      swap1\n      swap3\n      mstore\n        /* \"#utility.yul\":851:857   */\n      swap4\n        /* \"#utility.yul\":249:907   */\n      swap3\n      pop\n      pop\n      pop\n      jump\t// out\n        /* \"#utility.yul\":912:1110   */\n    tag_36:\n      0x00\n        /* \"#utility.yul\":1024:1026   */\n      0x20\n        /* \"#utility.yul\":1012:1021   */\n      dup3\n        /* \"#utility.yul\":1003:1010   */\n      dup5\n        /* \"#utility.yul\":999:1022   */\n      sub\n        /* \"#utility.yul\":995:1027   */\n      slt\n        /* \"#utility.yul\":992:994   */\n      iszero\n      tag_578\n      jumpi\n        /* \"#utility.yul\":1045:1051   */\n      dup1\n        /* \"#utility.yul\":1037:1043   */\n      dup2\n        /* \"#utility.yul\":1030:1052   */\n      revert\n        /* \"#utility.yul\":992:994   */\n    tag_578:\n        /* \"#utility.yul\":1073:1104   */\n      tag_579\n        /* \"#utility.yul\":1094:1103   */\n      dup3\n        /* \"#utility.yul\":1073:1104   */\n      tag_565\n      jump\t// in\n    tag_579:\n        /* \"#utility.yul\":1063:1104   */\n      swap4\n        /* \"#utility.yul\":982:1110   */\n      swap3\n      pop\n      pop\n      pop\n      jump\t// out\n        /* \"#utility.yul\":1115:1768   */\n    tag_45:\n      0x00\n      dup1\n      0x00\n        /* \"#utility.yul\":1281:1283   */\n      0x60\n        /* \"#utility.yul\":1269:1278   */\n      dup5\n        /* \"#utility.yul\":1260:1267   */\n      dup7\n        /* \"#utility.yul\":1256:1279   */\n      sub\n        /* \"#utility.yul\":1252:1284   */\n      slt\n        /* \"#utility.yul\":1249:1251   */\n      iszero\n      tag_581\n      jumpi\n        /* \"#utility.yul\":1302:1308   */\n      dup2\n        /* \"#utility.yul\":1294:1300   */\n      dup3\n        /* \"#utility.yul\":1287:1309   */\n      revert\n        /* \"#utility.yul\":1249:1251   */\n    tag_581:\n        /* \"#utility.yul\":1330:1361   */\n      tag_582\n        /* \"#utility.yul\":1351:1360   */\n      dup5\n        /* \"#utility.yul\":1330:1361   */\n      tag_565\n      jump\t// in\n    tag_582:\n        /* \"#utility.yul\":1320:1361   */\n      swap3\n      pop\n        /* \"#utility.yul\":1412:1414   */\n      0x20\n        /* \"#utility.yul\":1401:1410   */\n      dup5\n        /* \"#utility.yul\":1397:1415   */\n      add\n        /* \"#utility.yul\":1384:1416   */\n      calldataload\n        /* \"#utility.yul\":1435:1453   */\n      0xffffffffffffffff\n        /* \"#utility.yul\":1476:1478   */\n      dup1\n        /* \"#utility.yul\":1468:1474   */\n      dup3\n        /* \"#utility.yul\":1465:1479   */\n      gt\n        /* \"#utility.yul\":1462:1464   */\n      iszero\n      tag_583\n      jumpi\n        /* \"#utility.yul\":1497:1503   */\n      dup4\n        /* \"#utility.yul\":1489:1495   */\n      dup5\n        /* \"#utility.yul\":1482:1504   */\n      revert\n        /* \"#utility.yul\":1462:1464   */\n    tag_583:\n        /* \"#utility.yul\":1525:1577   */\n      tag_584\n        /* \"#utility.yul\":1569:1576   */\n      dup8\n        /* \"#utility.yul\":1560:1566   */\n      dup4\n        /* \"#utility.yul\":1549:1558   */\n      dup9\n        /* \"#utility.yul\":1545:1567   */\n      add\n        /* \"#utility.yul\":1525:1577   */\n      tag_568\n      jump\t// in\n    tag_584:\n        /* \"#utility.yul\":1515:1577   */\n      swap4\n      pop\n        /* \"#utility.yul\":1630:1632   */\n      0x40\n        /* \"#utility.yul\":1619:1628   */\n      dup7\n        /* \"#utility.yul\":1615:1633   */\n      add\n        /* \"#utility.yul\":1602:1634   */\n      calldataload\n        /* \"#utility.yul\":1586:1634   */\n      swap2\n      pop\n        /* \"#utility.yul\":1659:1661   */\n      dup1\n        /* \"#utility.yul\":1649:1657   */\n      dup3\n        /* \"#utility.yul\":1646:1662   */\n      gt\n        /* \"#utility.yul\":1643:1645   */\n      iszero\n      tag_585\n      jumpi\n        /* \"#utility.yul\":1680:1686   */\n      dup3\n        /* \"#utility.yul\":1672:1678   */\n      dup4\n        /* \"#utility.yul\":1665:1687   */\n      revert\n        /* \"#utility.yul\":1643:1645   */\n    tag_585:\n      pop\n        /* \"#utility.yul\":1708:1762   */\n      tag_586\n        /* \"#utility.yul\":1754:1761   */\n      dup7\n        /* \"#utility.yul\":1743:1751   */\n      dup3\n        /* \"#utility.yul\":1732:1741   */\n      dup8\n        /* \"#utility.yul\":1728:1752   */\n      add\n        /* \"#utility.yul\":1708:1762   */\n      tag_568\n      jump\t// in\n    tag_586:\n        /* \"#utility.yul\":1698:1762   */\n      swap2\n      pop\n      pop\n        /* \"#utility.yul\":1239:1768   */\n      swap3\n      pop\n      swap3\n      pop\n      swap3\n      jump\t// out\n        /* \"#utility.yul\":1773:2039   */\n    tag_28:\n      0x00\n      dup1\n        /* \"#utility.yul\":1902:1904   */\n      0x40\n        /* \"#utility.yul\":1890:1899   */\n      dup4\n        /* \"#utility.yul\":1881:1888   */\n      dup6\n        /* \"#utility.yul\":1877:1900   */\n      sub\n        /* \"#utility.yul\":1873:1905   */\n      slt\n        /* \"#utility.yul\":1870:1872   */\n      iszero\n      tag_588\n      jumpi\n        /* \"#utility.yul\":1923:1929   */\n      dup2\n        /* \"#utility.yul\":1915:1921   */\n      dup3\n        /* \"#utility.yul\":1908:1930   */\n      revert\n        /* \"#utility.yul\":1870:1872   */\n    tag_588:\n        /* \"#utility.yul\":1951:1982   */\n      tag_589\n        /* \"#utility.yul\":1972:1981   */\n      dup4\n        /* \"#utility.yul\":1951:1982   */\n      tag_565\n      jump\t// in\n    tag_589:\n        /* \"#utility.yul\":1941:1982   */\n      swap5\n        /* \"#utility.yul\":2029:2031   */\n      0x20\n        /* \"#utility.yul\":2014:2032   */\n      swap4\n      swap1\n      swap4\n      add\n        /* \"#utility.yul\":2001:2033   */\n      calldataload\n      swap4\n      pop\n      pop\n      pop\n        /* \"#utility.yul\":1860:2039   */\n      jump\t// out\n        /* \"#utility.yul\":2044:3048   */\n    tag_24:\n      0x00\n      dup1\n      0x00\n      dup1\n      0x00\n      dup1\n        /* \"#utility.yul\":2271:2274   */\n      0xc0\n        /* \"#utility.yul\":2259:2268   */\n      dup8\n        /* \"#utility.yul\":2250:2257   */\n      dup10\n        /* \"#utility.yul\":2246:2269   */\n      sub\n        /* \"#utility.yul\":2242:2275   */\n      slt\n        /* \"#utility.yul\":2239:2241   */\n      iszero\n      tag_591\n      jumpi\n        /* \"#utility.yul\":2293:2299   */\n      dup2\n        /* \"#utility.yul\":2285:2291   */\n      dup3\n        /* \"#utility.yul\":2278:2300   */\n      revert\n        /* \"#utility.yul\":2239:2241   */\n    tag_591:\n        /* \"#utility.yul\":2321:2352   */\n      tag_592\n        /* \"#utility.yul\":2342:2351   */\n      dup8\n        /* \"#utility.yul\":2321:2352   */\n      tag_565\n      jump\t// in\n    tag_592:\n        /* \"#utility.yul\":2311:2352   */\n      swap6\n      pop\n        /* \"#utility.yul\":2399:2401   */\n      0x20\n        /* \"#utility.yul\":2388:2397   */\n      dup8\n        /* \"#utility.yul\":2384:2402   */\n      add\n        /* \"#utility.yul\":2371:2403   */\n      calldataload\n        /* \"#utility.yul\":2361:2403   */\n      swap5\n      pop\n        /* \"#utility.yul\":2454:2456   */\n      0x40\n        /* \"#utility.yul\":2443:2452   */\n      dup8\n        /* \"#utility.yul\":2439:2457   */\n      add\n        /* \"#utility.yul\":2426:2458   */\n      calldataload\n        /* \"#utility.yul\":2477:2495   */\n      0xffffffffffffffff\n        /* \"#utility.yul\":2518:2520   */\n      dup1\n        /* \"#utility.yul\":2510:2516   */\n      dup3\n        /* \"#utility.yul\":2507:2521   */\n      gt\n        /* \"#utility.yul\":2504:2506   */\n      iszero\n      tag_593\n      jumpi\n        /* \"#utility.yul\":2539:2545   */\n      dup4\n        /* \"#utility.yul\":2531:2537   */\n      dup5\n        /* \"#utility.yul\":2524:2546   */\n      revert\n        /* \"#utility.yul\":2504:2506   */\n    tag_593:\n        /* \"#utility.yul\":2567:2619   */\n      tag_594\n        /* \"#utility.yul\":2611:2618   */\n      dup11\n        /* \"#utility.yul\":2602:2608   */\n      dup4\n        /* \"#utility.yul\":2591:2600   */\n      dup12\n        /* \"#utility.yul\":2587:2609   */\n      add\n        /* \"#utility.yul\":2567:2619   */\n      tag_568\n      jump\t// in\n    tag_594:\n        /* \"#utility.yul\":2557:2619   */\n      swap6\n      pop\n        /* \"#utility.yul\":2672:2674   */\n      0x60\n        /* \"#utility.yul\":2661:2670   */\n      dup10\n        /* \"#utility.yul\":2657:2675   */\n      add\n        /* \"#utility.yul\":2644:2676   */\n      calldataload\n        /* \"#utility.yul\":2628:2676   */\n      swap2\n      pop\n        /* \"#utility.yul\":2701:2703   */\n      dup1\n        /* \"#utility.yul\":2691:2699   */\n      dup3\n        /* \"#utility.yul\":2688:2704   */\n      gt\n        /* \"#utility.yul\":2685:2687   */\n      iszero\n      tag_595\n      jumpi\n        /* \"#utility.yul\":2722:2728   */\n      dup4\n        /* \"#utility.yul\":2714:2720   */\n      dup5\n        /* \"#utility.yul\":2707:2729   */\n      revert\n        /* \"#utility.yul\":2685:2687   */\n    tag_595:\n        /* \"#utility.yul\":2750:2804   */\n      tag_596\n        /* \"#utility.yul\":2796:2803   */\n      dup11\n        /* \"#utility.yul\":2785:2793   */\n      dup4\n        /* \"#utility.yul\":2774:2783   */\n      dup12\n        /* \"#utility.yul\":2770:2794   */\n      add\n        /* \"#utility.yul\":2750:2804   */\n      tag_568\n      jump\t// in\n    tag_596:\n        /* \"#utility.yul\":2740:2804   */\n      swap5\n      pop\n        /* \"#utility.yul\":2857:2860   */\n      0x80\n        /* \"#utility.yul\":2846:2855   */\n      dup10\n        /* \"#utility.yul\":2842:2861   */\n      add\n        /* \"#utility.yul\":2829:2862   */\n      calldataload\n        /* \"#utility.yul\":2813:2862   */\n      swap2\n      pop\n        /* \"#utility.yul\":2887:2889   */\n      dup1\n        /* \"#utility.yul\":2877:2885   */\n      dup3\n        /* \"#utility.yul\":2874:2890   */\n      gt\n        /* \"#utility.yul\":2871:2873   */\n      iszero\n      tag_597\n      jumpi\n        /* \"#utility.yul\":2908:2914   */\n      dup4\n        /* \"#utility.yul\":2900:2906   */\n      dup5\n        /* \"#utility.yul\":2893:2915   */\n      revert\n        /* \"#utility.yul\":2871:2873   */\n    tag_597:\n      pop\n        /* \"#utility.yul\":2936:2990   */\n      tag_598\n        /* \"#utility.yul\":2982:2989   */\n      dup10\n        /* \"#utility.yul\":2971:2979   */\n      dup3\n        /* \"#utility.yul\":2960:2969   */\n      dup11\n        /* \"#utility.yul\":2956:2980   */\n      add\n        /* \"#utility.yul\":2936:2990   */\n      tag_568\n      jump\t// in\n    tag_598:\n        /* \"#utility.yul\":2926:2990   */\n      swap3\n      pop\n      pop\n        /* \"#utility.yul\":3037:3040   */\n      0xa0\n        /* \"#utility.yul\":3026:3035   */\n      dup8\n        /* \"#utility.yul\":3022:3041   */\n      add\n        /* \"#utility.yul\":3009:3042   */\n      calldataload\n        /* \"#utility.yul\":2999:3042   */\n      swap1\n      pop\n        /* \"#utility.yul\":2229:3048   */\n      swap3\n      swap6\n      pop\n      swap3\n      swap6\n      pop\n      swap3\n      swap6\n      jump\t// out\n        /* \"#utility.yul\":3053:3243   */\n    tag_84:\n      0x00\n        /* \"#utility.yul\":3165:3167   */\n      0x20\n        /* \"#utility.yul\":3153:3162   */\n      dup3\n        /* \"#utility.yul\":3144:3151   */\n      dup5\n        /* \"#utility.yul\":3140:3163   */\n      sub\n        /* \"#utility.yul\":3136:3168   */\n      slt\n        /* \"#utility.yul\":3133:3135   */\n      iszero\n      tag_600\n      jumpi\n        /* \"#utility.yul\":3186:3192   */\n      dup1\n        /* \"#utility.yul\":3178:3184   */\n      dup2\n        /* \"#utility.yul\":3171:3193   */\n      revert\n        /* \"#utility.yul\":3133:3135   */\n    tag_600:\n      pop\n        /* \"#utility.yul\":3214:3237   */\n      calldataload\n      swap2\n        /* \"#utility.yul\":3123:3243   */\n      swap1\n      pop\n      jump\t// out\n        /* \"#utility.yul\":3248:3354   */\n    tag_601:\n      sub(shl(0xa0, 0x01), 0x01)\n        /* \"#utility.yul\":3316:3347   */\n      and\n        /* \"#utility.yul\":3304:3348   */\n      swap1\n      mstore\n        /* \"#utility.yul\":3294:3354   */\n      jump\t// out\n        /* \"#utility.yul\":3359:4807   */\n    tag_603:\n      0x00\n        /* \"#utility.yul\":3462:3465   */\n      dup3\n        /* \"#utility.yul\":3494:3499   */\n      dup3\n        /* \"#utility.yul\":3488:3500   */\n      mload\n        /* \"#utility.yul\":3521:3527   */\n      dup1\n        /* \"#utility.yul\":3516:3519   */\n      dup6\n        /* \"#utility.yul\":3509:3528   */\n      mstore\n        /* \"#utility.yul\":3547:3551   */\n      0x20\n        /* \"#utility.yul\":3576:3578   */\n      dup1\n        /* \"#utility.yul\":3571:3574   */\n      dup7\n        /* \"#utility.yul\":3567:3579   */\n      add\n        /* \"#utility.yul\":3560:3579   */\n      swap6\n      pop\n        /* \"#utility.yul\":3633:3635   */\n      dup1\n        /* \"#utility.yul\":3627:3629   */\n      dup2\n        /* \"#utility.yul\":3619:3625   */\n      dup4\n        /* \"#utility.yul\":3615:3630   */\n      mul\n        /* \"#utility.yul\":3608:3613   */\n      dup5\n        /* \"#utility.yul\":3604:3631   */\n      add\n        /* \"#utility.yul\":3600:3636   */\n      add\n        /* \"#utility.yul\":3670:3672   */\n      dup2\n        /* \"#utility.yul\":3663:3668   */\n      dup7\n        /* \"#utility.yul\":3659:3673   */\n      add\n        /* \"#utility.yul\":3691:3694   */\n      dup6\n        /* \"#utility.yul\":3703:4781   */\n    tag_605:\n        /* \"#utility.yul\":3717:3723   */\n      dup5\n        /* \"#utility.yul\":3714:3715   */\n      dup2\n        /* \"#utility.yul\":3711:3724   */\n      lt\n        /* \"#utility.yul\":3703:4781   */\n      iszero\n      tag_607\n      jumpi\n        /* \"#utility.yul\":3782:3798   */\n      dup6\n      dup4\n      sub\n      not(0x1f)\n        /* \"#utility.yul\":3778:3808   */\n      add\n        /* \"#utility.yul\":3766:3809   */\n      dup10\n      mstore\n        /* \"#utility.yul\":3832:3845   */\n      dup2\n      mload\n        /* \"#utility.yul\":3902:3911   */\n      dup1\n      mload\n      sub(shl(0xa0, 0x01), 0x01)\n        /* \"#utility.yul\":3898:3933   */\n      and\n        /* \"#utility.yul\":3885:3934   */\n      dup5\n      mstore\n        /* \"#utility.yul\":3973:3984   */\n      dup5\n      dup2\n      add\n        /* \"#utility.yul\":3967:3985   */\n      mload\n        /* \"#utility.yul\":3868:3872   */\n      0xa0\n        /* \"#utility.yul\":4005:4018   */\n      dup7\n      dup7\n      add\n        /* \"#utility.yul\":3998:4023   */\n      dup2\n      swap1\n      mstore\n        /* \"#utility.yul\":3868:3872   */\n      swap1\n        /* \"#utility.yul\":4050:4098   */\n      tag_608\n        /* \"#utility.yul\":4084:4097   */\n      dup3\n      dup8\n      add\n        /* \"#utility.yul\":3967:3985   */\n      dup3\n        /* \"#utility.yul\":4050:4098   */\n      tag_609\n      jump\t// in\n    tag_608:\n        /* \"#utility.yul\":4036:4098   */\n      swap2\n      pop\n      pop\n        /* \"#utility.yul\":4121:4125   */\n      0x40\n        /* \"#utility.yul\":4174:4176   */\n      dup1\n        /* \"#utility.yul\":4170:4172   */\n      dup4\n        /* \"#utility.yul\":4166:4177   */\n      add\n        /* \"#utility.yul\":4160:4178   */\n      mload\n        /* \"#utility.yul\":4225:4229   */\n      dup7\n        /* \"#utility.yul\":4217:4223   */\n      dup4\n        /* \"#utility.yul\":4213:4230   */\n      sub\n        /* \"#utility.yul\":4208:4210   */\n      dup3\n        /* \"#utility.yul\":4202:4206   */\n      dup9\n        /* \"#utility.yul\":4198:4211   */\n      add\n        /* \"#utility.yul\":4191:4231   */\n      mstore\n        /* \"#utility.yul\":4258:4301   */\n      tag_610\n        /* \"#utility.yul\":4294:4300   */\n      dup4\n        /* \"#utility.yul\":4278:4292   */\n      dup3\n        /* \"#utility.yul\":4258:4301   */\n      tag_609\n      jump\t// in\n    tag_610:\n        /* \"#utility.yul\":4244:4301   */\n      swap3\n      pop\n      pop\n      pop\n        /* \"#utility.yul\":4324:4328   */\n      0x60\n        /* \"#utility.yul\":4377:4379   */\n      dup1\n        /* \"#utility.yul\":4373:4375   */\n      dup4\n        /* \"#utility.yul\":4369:4380   */\n      add\n        /* \"#utility.yul\":4363:4381   */\n      mload\n        /* \"#utility.yul\":4428:4432   */\n      dup7\n        /* \"#utility.yul\":4420:4426   */\n      dup4\n        /* \"#utility.yul\":4416:4433   */\n      sub\n        /* \"#utility.yul\":4411:4413   */\n      dup3\n        /* \"#utility.yul\":4405:4409   */\n      dup9\n        /* \"#utility.yul\":4401:4414   */\n      add\n        /* \"#utility.yul\":4394:4434   */\n      mstore\n        /* \"#utility.yul\":4461:4504   */\n      tag_611\n        /* \"#utility.yul\":4497:4503   */\n      dup4\n        /* \"#utility.yul\":4481:4495   */\n      dup3\n        /* \"#utility.yul\":4461:4504   */\n      tag_609\n      jump\t// in\n    tag_611:\n        /* \"#utility.yul\":4447:4504   */\n      swap3\n      pop\n      pop\n      pop\n        /* \"#utility.yul\":4527:4531   */\n      0x80\n        /* \"#utility.yul\":4580:4582   */\n      dup1\n        /* \"#utility.yul\":4576:4578   */\n      dup4\n        /* \"#utility.yul\":4572:4583   */\n      add\n        /* \"#utility.yul\":4566:4584   */\n      mload\n        /* \"#utility.yul\":4544:4584   */\n      swap3\n      pop\n        /* \"#utility.yul\":4631:4635   */\n      dup6\n        /* \"#utility.yul\":4623:4629   */\n      dup3\n        /* \"#utility.yul\":4619:4636   */\n      sub\n        /* \"#utility.yul\":4614:4616   */\n      dup2\n        /* \"#utility.yul\":4608:4612   */\n      dup8\n        /* \"#utility.yul\":4604:4617   */\n      add\n        /* \"#utility.yul\":4597:4637   */\n      mstore\n      pop\n        /* \"#utility.yul\":4658:4701   */\n      tag_612\n        /* \"#utility.yul\":4694:4700   */\n      dup2\n        /* \"#utility.yul\":4678:4692   */\n      dup4\n        /* \"#utility.yul\":4658:4701   */\n      tag_609\n      jump\t// in\n    tag_612:\n        /* \"#utility.yul\":4759:4771   */\n      swap11\n      dup7\n      add\n      swap11\n        /* \"#utility.yul\":4650:4701   */\n      swap5\n      pop\n      pop\n      pop\n        /* \"#utility.yul\":4724:4739   */\n      swap1\n      dup4\n      add\n      swap1\n        /* \"#utility.yul\":3739:3740   */\n      0x01\n        /* \"#utility.yul\":3732:3741   */\n      add\n        /* \"#utility.yul\":3703:4781   */\n      jump(tag_605)\n    tag_607:\n      pop\n        /* \"#utility.yul\":4797:4801   */\n      swap1\n      swap8\n        /* \"#utility.yul\":3439:4807   */\n      swap7\n      pop\n      pop\n      pop\n      pop\n      pop\n      pop\n      pop\n      jump\t// out\n        /* \"#utility.yul\":4812:4905   */\n    tag_613:\n        /* \"#utility.yul\":4884:4897   */\n      iszero\n        /* \"#utility.yul\":4877:4898   */\n      iszero\n        /* \"#utility.yul\":4865:4899   */\n      swap1\n      mstore\n        /* \"#utility.yul\":4855:4905   */\n      jump\t// out\n        /* \"#utility.yul\":4910:5053   */\n    tag_615:\n        /* \"#utility.yul\":4994:4995   */\n      0x02\n        /* \"#utility.yul\":4987:4992   */\n      dup2\n        /* \"#utility.yul\":4984:4996   */\n      lt\n        /* \"#utility.yul\":4974:4976   */\n      tag_618\n      jumpi\n        /* \"#utility.yul\":5000:5018   */\n      tag_618\n      tag_619\n      jump\t// in\n    tag_618:\n        /* \"#utility.yul\":5029:5047   */\n      swap1\n      mstore\n        /* \"#utility.yul\":4964:5053   */\n      jump\t// out\n        /* \"#utility.yul\":5058:5197   */\n    tag_620:\n        /* \"#utility.yul\":5138:5139   */\n      0x03\n        /* \"#utility.yul\":5131:5136   */\n      dup2\n        /* \"#utility.yul\":5128:5140   */\n      lt\n        /* \"#utility.yul\":5118:5120   */\n      tag_618\n      jumpi\n        /* \"#utility.yul\":5144:5162   */\n      tag_618\n      tag_619\n      jump\t// in\n        /* \"#utility.yul\":5202:5342   */\n    tag_624:\n        /* \"#utility.yul\":5283:5284   */\n      0x04\n        /* \"#utility.yul\":5276:5281   */\n      dup2\n        /* \"#utility.yul\":5273:5285   */\n      lt\n        /* \"#utility.yul\":5263:5265   */\n      tag_618\n      jumpi\n        /* \"#utility.yul\":5289:5307   */\n      tag_618\n      tag_619\n      jump\t// in\n        /* \"#utility.yul\":5347:5825   */\n    tag_609:\n      0x00\n        /* \"#utility.yul\":5429:5434   */\n      dup2\n        /* \"#utility.yul\":5423:5435   */\n      mload\n        /* \"#utility.yul\":5456:5462   */\n      dup1\n        /* \"#utility.yul\":5451:5454   */\n      dup5\n        /* \"#utility.yul\":5444:5463   */\n      mstore\n        /* \"#utility.yul\":5481:5484   */\n      dup2\n        /* \"#utility.yul\":5493:5655   */\n    tag_629:\n        /* \"#utility.yul\":5507:5513   */\n      dup2\n        /* \"#utility.yul\":5504:5505   */\n      dup2\n        /* \"#utility.yul\":5501:5514   */\n      lt\n        /* \"#utility.yul\":5493:5655   */\n      iszero\n      tag_631\n      jumpi\n        /* \"#utility.yul\":5569:5573   */\n      0x20\n        /* \"#utility.yul\":5625:5638   */\n      dup2\n      dup6\n      add\n        /* \"#utility.yul\":5621:5643   */\n      dup2\n      add\n        /* \"#utility.yul\":5615:5644   */\n      mload\n        /* \"#utility.yul\":5597:5608   */\n      dup7\n      dup4\n      add\n        /* \"#utility.yul\":5593:5613   */\n      dup3\n      add\n        /* \"#utility.yul\":5586:5645   */\n      mstore\n        /* \"#utility.yul\":5522:5534   */\n      add\n        /* \"#utility.yul\":5493:5655   */\n      jump(tag_629)\n    tag_631:\n        /* \"#utility.yul\":5673:5679   */\n      dup2\n        /* \"#utility.yul\":5670:5671   */\n      dup2\n        /* \"#utility.yul\":5667:5680   */\n      gt\n        /* \"#utility.yul\":5664:5666   */\n      iszero\n      tag_632\n      jumpi\n        /* \"#utility.yul\":5739:5742   */\n      dup3\n        /* \"#utility.yul\":5732:5736   */\n      0x20\n        /* \"#utility.yul\":5723:5729   */\n      dup4\n        /* \"#utility.yul\":5718:5721   */\n      dup8\n        /* \"#utility.yul\":5714:5730   */\n      add\n        /* \"#utility.yul\":5710:5737   */\n      add\n        /* \"#utility.yul\":5703:5743   */\n      mstore\n        /* \"#utility.yul\":5664:5666   */\n    tag_632:\n      pop\n        /* \"#utility.yul\":5807:5809   */\n      0x1f\n        /* \"#utility.yul\":5786:5801   */\n      add\n      not(0x1f)\n        /* \"#utility.yul\":5782:5811   */\n      and\n        /* \"#utility.yul\":5773:5812   */\n      swap3\n      swap1\n      swap3\n      add\n        /* \"#utility.yul\":5814:5818   */\n      0x20\n        /* \"#utility.yul\":5769:5819   */\n      add\n      swap3\n        /* \"#utility.yul\":5399:5825   */\n      swap2\n      pop\n      pop\n      jump\t// out\n        /* \"#utility.yul\":5830:6579   */\n    tag_633:\n      0x00\n        /* \"#utility.yul\":5935:5940   */\n      dup2\n        /* \"#utility.yul\":5929:5941   */\n      sload\n        /* \"#utility.yul\":5964:6000   */\n      tag_635\n        /* \"#utility.yul\":5990:5999   */\n      dup2\n        /* \"#utility.yul\":5964:6000   */\n      tag_153\n      jump\t// in\n    tag_635:\n        /* \"#utility.yul\":6009:6028   */\n      dup1\n      dup6\n      mstore\n        /* \"#utility.yul\":6047:6051   */\n      0x20\n        /* \"#utility.yul\":6070:6071   */\n      0x01\n        /* \"#utility.yul\":6087:6105   */\n      dup4\n      dup2\n      and\n        /* \"#utility.yul\":6114:6223   */\n      dup1\n      iszero\n      tag_637\n      jumpi\n        /* \"#utility.yul\":6237:6238   */\n      0x01\n        /* \"#utility.yul\":6232:6573   */\n      dup2\n      eq\n      tag_638\n      jumpi\n        /* \"#utility.yul\":6080:6573   */\n      jump(tag_636)\n        /* \"#utility.yul\":6114:6223   */\n    tag_637:\n      not(0xff)\n        /* \"#utility.yul\":6156:6180   */\n      dup6\n      and\n        /* \"#utility.yul\":6142:6154   */\n      dup9\n      dup5\n      add\n        /* \"#utility.yul\":6135:6181   */\n      mstore\n        /* \"#utility.yul\":6210:6212   */\n      0x40\n        /* \"#utility.yul\":6201:6213   */\n      dup9\n      add\n      swap6\n      pop\n        /* \"#utility.yul\":6114:6223   */\n      jump(tag_636)\n        /* \"#utility.yul\":6232:6573   */\n    tag_638:\n        /* \"#utility.yul\":6263:6268   */\n      dup7\n        /* \"#utility.yul\":6260:6261   */\n      0x00\n        /* \"#utility.yul\":6253:6269   */\n      mstore\n        /* \"#utility.yul\":6310:6312   */\n      dup3\n        /* \"#utility.yul\":6307:6308   */\n      0x00\n        /* \"#utility.yul\":6297:6313   */\n      keccak256\n        /* \"#utility.yul\":6335:6336   */\n      0x00\n        /* \"#utility.yul\":6349:6523   */\n    tag_639:\n        /* \"#utility.yul\":6363:6369   */\n      dup6\n        /* \"#utility.yul\":6360:6361   */\n      dup2\n        /* \"#utility.yul\":6357:6370   */\n      lt\n        /* \"#utility.yul\":6349:6523   */\n      iszero\n      tag_641\n      jumpi\n        /* \"#utility.yul\":6450:6464   */\n      dup2\n      sload\n        /* \"#utility.yul\":6432:6443   */\n      dup11\n      dup3\n      add\n        /* \"#utility.yul\":6428:6448   */\n      dup7\n      add\n        /* \"#utility.yul\":6421:6465   */\n      mstore\n        /* \"#utility.yul\":6493:6509   */\n      swap1\n      dup4\n      add\n      swap1\n        /* \"#utility.yul\":6378:6388   */\n      dup5\n      add\n        /* \"#utility.yul\":6349:6523   */\n      jump(tag_639)\n    tag_641:\n        /* \"#utility.yul\":6547:6558   */\n      dup10\n      add\n        /* \"#utility.yul\":6543:6563   */\n      dup5\n      add\n      swap7\n      pop\n      pop\n        /* \"#utility.yul\":6080:6573   */\n    tag_636:\n      pop\n      pop\n      pop\n      pop\n      pop\n        /* \"#utility.yul\":5902:6579   */\n      swap3\n      swap2\n      pop\n      pop\n      jump\t// out\n        /* \"#utility.yul\":6584:7279   */\n    tag_642:\n      0x00\n        /* \"#utility.yul\":6677:6682   */\n      dup2\n        /* \"#utility.yul\":6671:6683   */\n      sload\n        /* \"#utility.yul\":6706:6742   */\n      tag_644\n        /* \"#utility.yul\":6732:6741   */\n      dup2\n        /* \"#utility.yul\":6706:6742   */\n      tag_153\n      jump\t// in\n    tag_644:\n        /* \"#utility.yul\":6761:6762   */\n      0x01\n        /* \"#utility.yul\":6778:6796   */\n      dup3\n      dup2\n      and\n        /* \"#utility.yul\":6805:6909   */\n      dup1\n      iszero\n      tag_646\n      jumpi\n        /* \"#utility.yul\":6923:6924   */\n      0x01\n        /* \"#utility.yul\":6918:7273   */\n      dup2\n      eq\n      tag_647\n      jumpi\n        /* \"#utility.yul\":6771:7273   */\n      jump(tag_645)\n        /* \"#utility.yul\":6805:6909   */\n    tag_646:\n      not(0xff)\n        /* \"#utility.yul\":6838:6862   */\n      dup5\n      and\n        /* \"#utility.yul\":6826:6863   */\n      dup8\n      mstore\n        /* \"#utility.yul\":6883:6899   */\n      dup3\n      dup8\n      add\n      swap5\n      pop\n        /* \"#utility.yul\":6805:6909   */\n      jump(tag_645)\n        /* \"#utility.yul\":6918:7273   */\n    tag_647:\n        /* \"#utility.yul\":6949:6954   */\n      dup6\n        /* \"#utility.yul\":6946:6947   */\n      0x00\n        /* \"#utility.yul\":6939:6955   */\n      mstore\n        /* \"#utility.yul\":6978:6982   */\n      0x20\n        /* \"#utility.yul\":7023:7025   */\n      dup1\n        /* \"#utility.yul\":7020:7021   */\n      0x00\n        /* \"#utility.yul\":7010:7026   */\n      keccak256\n        /* \"#utility.yul\":7048:7049   */\n      0x00\n        /* \"#utility.yul\":7062:7227   */\n    tag_648:\n        /* \"#utility.yul\":7076:7082   */\n      dup6\n        /* \"#utility.yul\":7073:7074   */\n      dup2\n        /* \"#utility.yul\":7070:7083   */\n      lt\n        /* \"#utility.yul\":7062:7227   */\n      iszero\n      tag_650\n      jumpi\n        /* \"#utility.yul\":7154:7168   */\n      dup2\n      sload\n        /* \"#utility.yul\":7141:7152   */\n      dup11\n      dup3\n      add\n        /* \"#utility.yul\":7134:7169   */\n      mstore\n        /* \"#utility.yul\":7197:7213   */\n      swap1\n      dup5\n      add\n      swap1\n        /* \"#utility.yul\":7091:7101   */\n      dup3\n      add\n        /* \"#utility.yul\":7062:7227   */\n      jump(tag_648)\n    tag_650:\n        /* \"#utility.yul\":7066:7069   */\n      pop\n      pop\n      pop\n        /* \"#utility.yul\":7256:7262   */\n      dup3\n        /* \"#utility.yul\":7251:7254   */\n      dup8\n        /* \"#utility.yul\":7247:7263   */\n      add\n        /* \"#utility.yul\":7240:7263   */\n      swap5\n      pop\n        /* \"#utility.yul\":6771:7273   */\n    tag_645:\n      pop\n      pop\n      pop\n      pop\n        /* \"#utility.yul\":6644:7279   */\n      swap3\n      swap2\n      pop\n      pop\n      jump\t// out\n        /* \"#utility.yul\":7284:7719   */\n    tag_222:\n      0x00\n        /* \"#utility.yul\":7586:7626   */\n      tag_652\n        /* \"#utility.yul\":7622:7625   */\n      dup3\n        /* \"#utility.yul\":7614:7620   */\n      dup6\n        /* \"#utility.yul\":7586:7626   */\n      tag_642\n      jump\t// in\n    tag_652:\n      shl(0xfd, 0x01)\n        /* \"#utility.yul\":7642:7644   */\n      dup2\n        /* \"#utility.yul\":7635:7650   */\n      mstore\n        /* \"#utility.yul\":7666:7713   */\n      tag_653\n        /* \"#utility.yul\":7710:7711   */\n      0x01\n        /* \"#utility.yul\":7706:7708   */\n      dup3\n        /* \"#utility.yul\":7702:7712   */\n      add\n        /* \"#utility.yul\":7694:7700   */\n      dup6\n        /* \"#utility.yul\":7666:7713   */\n      tag_642\n      jump\t// in\n    tag_653:\n        /* \"#utility.yul\":7659:7713   */\n      swap6\n        /* \"#utility.yul\":7566:7719   */\n      swap5\n      pop\n      pop\n      pop\n      pop\n      pop\n      jump\t// out\n        /* \"#utility.yul\":7724:7927   */\n    tag_81:\n      sub(shl(0xa0, 0x01), 0x01)\n        /* \"#utility.yul\":7888:7920   */\n      swap2\n      swap1\n      swap2\n      and\n        /* \"#utility.yul\":7870:7921   */\n      dup2\n      mstore\n        /* \"#utility.yul\":7858:7860   */\n      0x20\n        /* \"#utility.yul\":7843:7861   */\n      add\n      swap1\n        /* \"#utility.yul\":7825:7927   */\n      jump\t// out\n        /* \"#utility.yul\":7932:9194   */\n    tag_33:\n        /* \"#utility.yul\":8149:8151   */\n      0x20\n        /* \"#utility.yul\":8201:8222   */\n      dup1\n      dup3\n      mstore\n        /* \"#utility.yul\":8271:8284   */\n      dup3\n      mload\n        /* \"#utility.yul\":8174:8192   */\n      dup3\n      dup3\n      add\n        /* \"#utility.yul\":8293:8315   */\n      dup2\n      swap1\n      mstore\n        /* \"#utility.yul\":7932:9194   */\n      0x00\n      swap2\n        /* \"#utility.yul\":8149:8151   */\n      swap1\n        /* \"#utility.yul\":8334:8336   */\n      0x40\n      swap1\n        /* \"#utility.yul\":8352:8370   */\n      dup2\n      dup6\n      add\n      swap1\n        /* \"#utility.yul\":8412:8427   */\n      dup1\n      dup5\n      mul\n        /* \"#utility.yul\":8397:8428   */\n      dup7\n      add\n        /* \"#utility.yul\":8393:8433   */\n      dup4\n      add\n        /* \"#utility.yul\":8456:8471   */\n      dup8\n      dup6\n      add\n        /* \"#utility.yul\":7932:9194   */\n      dup7\n        /* \"#utility.yul\":8502:9165   */\n    tag_656:\n        /* \"#utility.yul\":8516:8522   */\n      dup4\n        /* \"#utility.yul\":8513:8514   */\n      dup2\n        /* \"#utility.yul\":8510:8523   */\n      lt\n        /* \"#utility.yul\":8502:9165   */\n      iszero\n      tag_658\n      jumpi\n        /* \"#utility.yul\":8581:8603   */\n      dup9\n      dup4\n      sub\n      not(0x3f)\n        /* \"#utility.yul\":8577:8613   */\n      add\n        /* \"#utility.yul\":8565:8614   */\n      dup6\n      mstore\n        /* \"#utility.yul\":8637:8650   */\n      dup2\n      mload\n        /* \"#utility.yul\":8709:8718   */\n      dup1\n      mload\n      sub(shl(0xa0, 0x01), 0x01)\n        /* \"#utility.yul\":8705:8740   */\n      and\n        /* \"#utility.yul\":8690:8741   */\n      dup5\n      mstore\n        /* \"#utility.yul\":8780:8791   */\n      dup8\n      dup2\n      add\n        /* \"#utility.yul\":8774:8792   */\n      mload\n        /* \"#utility.yul\":8673:8677   */\n      0x60\n        /* \"#utility.yul\":8812:8827   */\n      dup10\n      dup7\n      add\n        /* \"#utility.yul\":8805:8832   */\n      dup2\n      swap1\n      mstore\n        /* \"#utility.yul\":8673:8677   */\n      swap1\n        /* \"#utility.yul\":8859:8909   */\n      tag_659\n        /* \"#utility.yul\":8893:8908   */\n      dup3\n      dup8\n      add\n        /* \"#utility.yul\":8774:8792   */\n      dup3\n        /* \"#utility.yul\":8859:8909   */\n      tag_609\n      jump\t// in\n    tag_659:\n        /* \"#utility.yul\":8845:8909   */\n      swap2\n      pop\n      pop\n        /* \"#utility.yul\":8958:8960   */\n      dup8\n        /* \"#utility.yul\":8954:8956   */\n      dup3\n        /* \"#utility.yul\":8950:8961   */\n      add\n        /* \"#utility.yul\":8944:8962   */\n      mload\n        /* \"#utility.yul\":8922:8962   */\n      swap2\n      pop\n        /* \"#utility.yul\":9011:9017   */\n      dup5\n        /* \"#utility.yul\":9003:9009   */\n      dup2\n        /* \"#utility.yul\":8999:9018   */\n      sub\n        /* \"#utility.yul\":8994:8996   */\n      dup9\n        /* \"#utility.yul\":8986:8992   */\n      dup7\n        /* \"#utility.yul\":8982:8997   */\n      add\n        /* \"#utility.yul\":8975:9019   */\n      mstore\n        /* \"#utility.yul\":9042:9085   */\n      tag_660\n        /* \"#utility.yul\":9078:9084   */\n      dup2\n        /* \"#utility.yul\":9062:9076   */\n      dup4\n        /* \"#utility.yul\":9042:9085   */\n      tag_609\n      jump\t// in\n    tag_660:\n        /* \"#utility.yul\":9143:9155   */\n      swap7\n      dup10\n      add\n      swap7\n        /* \"#utility.yul\":9032:9085   */\n      swap5\n      pop\n      pop\n      pop\n        /* \"#utility.yul\":9108:9123   */\n      swap1\n      dup7\n      add\n      swap1\n        /* \"#utility.yul\":8538:8539   */\n      0x01\n        /* \"#utility.yul\":8531:8540   */\n      add\n        /* \"#utility.yul\":8502:9165   */\n      jump(tag_656)\n    tag_658:\n      pop\n        /* \"#utility.yul\":9182:9188   */\n      swap1\n      swap9\n        /* \"#utility.yul\":8129:9194   */\n      swap8\n      pop\n      pop\n      pop\n      pop\n      pop\n      pop\n      pop\n      pop\n      jump\t// out\n        /* \"#utility.yul\":9199:9535   */\n    tag_59:\n      0x00\n        /* \"#utility.yul\":9434:9436   */\n      0x20\n        /* \"#utility.yul\":9423:9432   */\n      dup3\n        /* \"#utility.yul\":9416:9437   */\n      mstore\n        /* \"#utility.yul\":9454:9529   */\n      tag_579\n        /* \"#utility.yul\":9525:9527   */\n      0x20\n        /* \"#utility.yul\":9514:9523   */\n      dup4\n        /* \"#utility.yul\":9510:9528   */\n      add\n        /* \"#utility.yul\":9502:9508   */\n      dup5\n        /* \"#utility.yul\":9454:9529   */\n      tag_603\n      jump\t// in\n        /* \"#utility.yul\":9540:11841   */\n    tag_63:\n        /* \"#utility.yul\":9761:9763   */\n      0x20\n        /* \"#utility.yul\":9813:9834   */\n      dup1\n      dup3\n      mstore\n        /* \"#utility.yul\":9883:9896   */\n      dup3\n      mload\n        /* \"#utility.yul\":9786:9804   */\n      dup3\n      dup3\n      add\n        /* \"#utility.yul\":9905:9927   */\n      dup2\n      swap1\n      mstore\n        /* \"#utility.yul\":9540:11841   */\n      0x00\n      swap2\n        /* \"#utility.yul\":9761:9763   */\n      swap1\n        /* \"#utility.yul\":9946:9948   */\n      0x40\n      swap1\n        /* \"#utility.yul\":9964:9982   */\n      dup2\n      dup6\n      add\n      swap1\n        /* \"#utility.yul\":10024:10039   */\n      dup1\n      dup5\n      mul\n        /* \"#utility.yul\":10009:10040   */\n      dup7\n      add\n        /* \"#utility.yul\":10005:10045   */\n      dup4\n      add\n        /* \"#utility.yul\":10068:10083   */\n      dup8\n      dup6\n      add\n        /* \"#utility.yul\":9540:11841   */\n      dup7\n        /* \"#utility.yul\":10114:11812   */\n    tag_664:\n        /* \"#utility.yul\":10128:10134   */\n      dup4\n        /* \"#utility.yul\":10125:10126   */\n      dup2\n        /* \"#utility.yul\":10122:10135   */\n      lt\n        /* \"#utility.yul\":10114:11812   */\n      iszero\n      tag_658\n      jumpi\n        /* \"#utility.yul\":10221:10223   */\n      0x3f\n        /* \"#utility.yul\":10217:10224   */\n      not\n        /* \"#utility.yul\":10205:10214   */\n      dup10\n        /* \"#utility.yul\":10197:10203   */\n      dup5\n        /* \"#utility.yul\":10193:10215   */\n      sub\n        /* \"#utility.yul\":10189:10225   */\n      add\n        /* \"#utility.yul\":10184:10187   */\n      dup6\n        /* \"#utility.yul\":10177:10226   */\n      mstore\n        /* \"#utility.yul\":10255:10261   */\n      dup2\n        /* \"#utility.yul\":10249:10262   */\n      mload\n        /* \"#utility.yul\":10285:10291   */\n      0x0120\n        /* \"#utility.yul\":10304:10348   */\n      tag_667\n        /* \"#utility.yul\":10341:10347   */\n      dup6\n        /* \"#utility.yul\":10336:10338   */\n      dup4\n        /* \"#utility.yul\":10330:10339   */\n      mload\n        /* \"#utility.yul\":10304:10348   */\n      tag_624\n      jump\t// in\n    tag_667:\n        /* \"#utility.yul\":10395:10397   */\n      dup9\n        /* \"#utility.yul\":10391:10393   */\n      dup3\n        /* \"#utility.yul\":10387:10398   */\n      add\n        /* \"#utility.yul\":10381:10399   */\n      mload\n        /* \"#utility.yul\":10436:10438   */\n      dup2\n        /* \"#utility.yul\":10431:10433   */\n      dup11\n        /* \"#utility.yul\":10423:10429   */\n      dup8\n        /* \"#utility.yul\":10419:10434   */\n      add\n        /* \"#utility.yul\":10412:10439   */\n      mstore\n        /* \"#utility.yul\":10466:10516   */\n      tag_668\n        /* \"#utility.yul\":10512:10514   */\n      dup3\n        /* \"#utility.yul\":10504:10510   */\n      dup8\n        /* \"#utility.yul\":10500:10515   */\n      add\n        /* \"#utility.yul\":10486:10498   */\n      dup3\n        /* \"#utility.yul\":10466:10516   */\n      tag_609\n      jump\t// in\n    tag_668:\n        /* \"#utility.yul\":10452:10516   */\n      swap2\n      pop\n      pop\n        /* \"#utility.yul\":10565:10567   */\n      dup8\n        /* \"#utility.yul\":10561:10563   */\n      dup3\n        /* \"#utility.yul\":10557:10568   */\n      add\n        /* \"#utility.yul\":10551:10569   */\n      mload\n        /* \"#utility.yul\":10618:10624   */\n      dup6\n        /* \"#utility.yul\":10610:10616   */\n      dup3\n        /* \"#utility.yul\":10606:10625   */\n      sub\n        /* \"#utility.yul\":10601:10603   */\n      dup10\n        /* \"#utility.yul\":10593:10599   */\n      dup8\n        /* \"#utility.yul\":10589:10604   */\n      add\n        /* \"#utility.yul\":10582:10626   */\n      mstore\n        /* \"#utility.yul\":10653:10696   */\n      tag_669\n        /* \"#utility.yul\":10689:10695   */\n      dup3\n        /* \"#utility.yul\":10673:10687   */\n      dup3\n        /* \"#utility.yul\":10653:10696   */\n      tag_609\n      jump\t// in\n    tag_669:\n        /* \"#utility.yul\":10639:10696   */\n      swap2\n      pop\n      pop\n        /* \"#utility.yul\":10719:10723   */\n      0x60\n        /* \"#utility.yul\":10772:10774   */\n      dup1\n        /* \"#utility.yul\":10768:10770   */\n      dup4\n        /* \"#utility.yul\":10764:10775   */\n      add\n        /* \"#utility.yul\":10758:10776   */\n      mload\n        /* \"#utility.yul\":10825:10831   */\n      dup7\n        /* \"#utility.yul\":10817:10823   */\n      dup4\n        /* \"#utility.yul\":10813:10832   */\n      sub\n        /* \"#utility.yul\":10808:10810   */\n      dup3\n        /* \"#utility.yul\":10800:10806   */\n      dup9\n        /* \"#utility.yul\":10796:10811   */\n      add\n        /* \"#utility.yul\":10789:10833   */\n      mstore\n        /* \"#utility.yul\":10860:10903   */\n      tag_670\n        /* \"#utility.yul\":10896:10902   */\n      dup4\n        /* \"#utility.yul\":10880:10894   */\n      dup3\n        /* \"#utility.yul\":10860:10903   */\n      tag_609\n      jump\t// in\n    tag_670:\n        /* \"#utility.yul\":10846:10903   */\n      swap3\n      pop\n      pop\n      pop\n        /* \"#utility.yul\":10926:10930   */\n      0x80\n        /* \"#utility.yul\":10979:10981   */\n      dup1\n        /* \"#utility.yul\":10975:10977   */\n      dup4\n        /* \"#utility.yul\":10971:10982   */\n      add\n        /* \"#utility.yul\":10965:10983   */\n      mload\n        /* \"#utility.yul\":10996:11049   */\n      tag_671\n        /* \"#utility.yul\":11045:11047   */\n      dup3\n        /* \"#utility.yul\":11037:11043   */\n      dup9\n        /* \"#utility.yul\":11033:11048   */\n      add\n        /* \"#utility.yul\":11017:11031   */\n      dup3\n        /* \"#utility.yul\":10996:11049   */\n      tag_601\n      jump\t// in\n    tag_671:\n      pop\n      pop\n        /* \"#utility.yul\":11072:11076   */\n      0xa0\n        /* \"#utility.yul\":11125:11127   */\n      dup1\n        /* \"#utility.yul\":11121:11123   */\n      dup4\n        /* \"#utility.yul\":11117:11128   */\n      add\n        /* \"#utility.yul\":11111:11129   */\n      mload\n        /* \"#utility.yul\":11142:11199   */\n      tag_672\n        /* \"#utility.yul\":11195:11197   */\n      dup3\n        /* \"#utility.yul\":11187:11193   */\n      dup9\n        /* \"#utility.yul\":11183:11198   */\n      add\n        /* \"#utility.yul\":11167:11181   */\n      dup3\n        /* \"#utility.yul\":11142:11199   */\n      tag_620\n      jump\t// in\n    tag_672:\n      pop\n      pop\n        /* \"#utility.yul\":11222:11226   */\n      0xc0\n        /* \"#utility.yul\":11275:11277   */\n      dup1\n        /* \"#utility.yul\":11271:11273   */\n      dup4\n        /* \"#utility.yul\":11267:11278   */\n      add\n        /* \"#utility.yul\":11261:11279   */\n      mload\n        /* \"#utility.yul\":11292:11353   */\n      tag_673\n        /* \"#utility.yul\":11349:11351   */\n      dup3\n        /* \"#utility.yul\":11341:11347   */\n      dup9\n        /* \"#utility.yul\":11337:11352   */\n      add\n        /* \"#utility.yul\":11321:11335   */\n      dup3\n        /* \"#utility.yul\":11292:11353   */\n      tag_615\n      jump\t// in\n    tag_673:\n      pop\n      pop\n        /* \"#utility.yul\":11376:11380   */\n      0xe0\n        /* \"#utility.yul\":11429:11431   */\n      dup1\n        /* \"#utility.yul\":11425:11427   */\n      dup4\n        /* \"#utility.yul\":11421:11432   */\n      add\n        /* \"#utility.yul\":11415:11433   */\n      mload\n        /* \"#utility.yul\":11446:11496   */\n      tag_674\n        /* \"#utility.yul\":11492:11494   */\n      dup3\n        /* \"#utility.yul\":11484:11490   */\n      dup9\n        /* \"#utility.yul\":11480:11495   */\n      add\n        /* \"#utility.yul\":11464:11478   */\n      dup3\n        /* \"#utility.yul\":11446:11496   */\n      tag_613\n      jump\t// in\n    tag_674:\n      pop\n      pop\n        /* \"#utility.yul\":11520:11526   */\n      0x0100\n        /* \"#utility.yul\":11575:11578   */\n      dup1\n        /* \"#utility.yul\":11571:11573   */\n      dup4\n        /* \"#utility.yul\":11567:11579   */\n      add\n        /* \"#utility.yul\":11561:11580   */\n      mload\n        /* \"#utility.yul\":11539:11580   */\n      swap3\n      pop\n        /* \"#utility.yul\":11630:11636   */\n      dup6\n        /* \"#utility.yul\":11622:11628   */\n      dup3\n        /* \"#utility.yul\":11618:11637   */\n      sub\n        /* \"#utility.yul\":11612:11615   */\n      dup2\n        /* \"#utility.yul\":11604:11610   */\n      dup8\n        /* \"#utility.yul\":11600:11616   */\n      add\n        /* \"#utility.yul\":11593:11638   */\n      mstore\n      pop\n        /* \"#utility.yul\":11661:11732   */\n      tag_675\n        /* \"#utility.yul\":11725:11731   */\n      dup2\n        /* \"#utility.yul\":11709:11723   */\n      dup4\n        /* \"#utility.yul\":11661:11732   */\n      tag_603\n      jump\t// in\n    tag_675:\n        /* \"#utility.yul\":11790:11802   */\n      swap7\n      dup10\n      add\n      swap7\n        /* \"#utility.yul\":11651:11732   */\n      swap5\n      pop\n      pop\n      pop\n        /* \"#utility.yul\":11755:11770   */\n      swap1\n      dup7\n      add\n      swap1\n        /* \"#utility.yul\":10150:10151   */\n      0x01\n        /* \"#utility.yul\":10143:10152   */\n      add\n        /* \"#utility.yul\":10114:11812   */\n      jump(tag_664)\n        /* \"#utility.yul\":11846:12897   */\n    tag_42:\n      0x00\n        /* \"#utility.yul\":12240:12243   */\n      0x0100\n        /* \"#utility.yul\":12252:12296   */\n      tag_677\n        /* \"#utility.yul\":12286:12295   */\n      dup4\n        /* \"#utility.yul\":12278:12284   */\n      dup13\n        /* \"#utility.yul\":12252:12296   */\n      tag_624\n      jump\t// in\n    tag_677:\n        /* \"#utility.yul\":12332:12334   */\n      dup1\n        /* \"#utility.yul\":12327:12329   */\n      0x20\n        /* \"#utility.yul\":12316:12325   */\n      dup5\n        /* \"#utility.yul\":12312:12330   */\n      add\n        /* \"#utility.yul\":12305:12335   */\n      mstore\n        /* \"#utility.yul\":12358:12405   */\n      tag_678\n        /* \"#utility.yul\":12401:12403   */\n      dup2\n        /* \"#utility.yul\":12390:12399   */\n      dup5\n        /* \"#utility.yul\":12386:12404   */\n      add\n        /* \"#utility.yul\":12378:12384   */\n      dup12\n        /* \"#utility.yul\":12358:12405   */\n      tag_609\n      jump\t// in\n    tag_678:\n        /* \"#utility.yul\":12344:12405   */\n      swap1\n      pop\n        /* \"#utility.yul\":12453:12462   */\n      dup3\n        /* \"#utility.yul\":12445:12451   */\n      dup2\n        /* \"#utility.yul\":12441:12463   */\n      sub\n        /* \"#utility.yul\":12436:12438   */\n      0x40\n        /* \"#utility.yul\":12425:12434   */\n      dup5\n        /* \"#utility.yul\":12421:12439   */\n      add\n        /* \"#utility.yul\":12414:12464   */\n      mstore\n        /* \"#utility.yul\":12487:12522   */\n      tag_679\n        /* \"#utility.yul\":12515:12521   */\n      dup2\n        /* \"#utility.yul\":12507:12513   */\n      dup11\n        /* \"#utility.yul\":12487:12522   */\n      tag_609\n      jump\t// in\n    tag_679:\n        /* \"#utility.yul\":12473:12522   */\n      swap1\n      pop\n        /* \"#utility.yul\":12570:12579   */\n      dup3\n        /* \"#utility.yul\":12562:12568   */\n      dup2\n        /* \"#utility.yul\":12558:12580   */\n      sub\n        /* \"#utility.yul\":12553:12555   */\n      0x60\n        /* \"#utility.yul\":12542:12551   */\n      dup5\n        /* \"#utility.yul\":12538:12556   */\n      add\n        /* \"#utility.yul\":12531:12581   */\n      mstore\n        /* \"#utility.yul\":12598:12633   */\n      tag_680\n        /* \"#utility.yul\":12626:12632   */\n      dup2\n        /* \"#utility.yul\":12618:12624   */\n      dup10\n        /* \"#utility.yul\":12598:12633   */\n      tag_609\n      jump\t// in\n    tag_680:\n      sub(shl(0xa0, 0x01), 0x01)\n        /* \"#utility.yul\":12670:12702   */\n      dup9\n      and\n        /* \"#utility.yul\":12664:12667   */\n      0x80\n        /* \"#utility.yul\":12649:12668   */\n      dup6\n      add\n        /* \"#utility.yul\":12642:12703   */\n      mstore\n        /* \"#utility.yul\":12590:12633   */\n      swap2\n      pop\n        /* \"#utility.yul\":12712:12765   */\n      tag_681\n      swap1\n      pop\n        /* \"#utility.yul\":12690:12693   */\n      0xa0\n        /* \"#utility.yul\":12745:12764   */\n      dup4\n      add\n        /* \"#utility.yul\":12737:12743   */\n      dup7\n        /* \"#utility.yul\":12712:12765   */\n      tag_620\n      jump\t// in\n    tag_681:\n        /* \"#utility.yul\":12774:12831   */\n      tag_682\n        /* \"#utility.yul\":12826:12829   */\n      0xc0\n        /* \"#utility.yul\":12815:12824   */\n      dup4\n        /* \"#utility.yul\":12811:12830   */\n      add\n        /* \"#utility.yul\":12803:12809   */\n      dup6\n        /* \"#utility.yul\":12774:12831   */\n      tag_615\n      jump\t// in\n    tag_682:\n        /* \"#utility.yul\":12882:12888   */\n      dup3\n        /* \"#utility.yul\":12875:12889   */\n      iszero\n        /* \"#utility.yul\":12868:12890   */\n      iszero\n        /* \"#utility.yul\":12862:12865   */\n      0xe0\n        /* \"#utility.yul\":12851:12860   */\n      dup4\n        /* \"#utility.yul\":12847:12866   */\n      add\n        /* \"#utility.yul\":12840:12891   */\n      mstore\n        /* \"#utility.yul\":12220:12897   */\n      swap10\n      swap9\n      pop\n      pop\n      pop\n      pop\n      pop\n      pop\n      pop\n      pop\n      pop\n      jump\t// out\n        /* \"#utility.yul\":12902:13124   */\n    tag_114:\n      0x00\n        /* \"#utility.yul\":13051:13053   */\n      0x20\n        /* \"#utility.yul\":13040:13049   */\n      dup3\n        /* \"#utility.yul\":13033:13054   */\n      mstore\n        /* \"#utility.yul\":13071:13118   */\n      tag_579\n        /* \"#utility.yul\":13114:13116   */\n      0x20\n        /* \"#utility.yul\":13103:13112   */\n      dup4\n        /* \"#utility.yul\":13099:13117   */\n      add\n        /* \"#utility.yul\":13091:13097   */\n      dup5\n        /* \"#utility.yul\":13071:13118   */\n      tag_609\n      jump\t// in\n        /* \"#utility.yul\":13129:13368   */\n    tag_189:\n      0x00\n        /* \"#utility.yul\":13275:13277   */\n      0x20\n        /* \"#utility.yul\":13264:13273   */\n      dup3\n        /* \"#utility.yul\":13257:13278   */\n      mstore\n        /* \"#utility.yul\":13295:13362   */\n      tag_579\n        /* \"#utility.yul\":13358:13360   */\n      0x20\n        /* \"#utility.yul\":13347:13356   */\n      dup4\n        /* \"#utility.yul\":13343:13361   */\n      add\n        /* \"#utility.yul\":13335:13341   */\n      dup5\n        /* \"#utility.yul\":13295:13362   */\n      tag_633\n      jump\t// in\n        /* \"#utility.yul\":13373:13683   */\n    tag_129:\n      0x00\n        /* \"#utility.yul\":13547:13549   */\n      0x40\n        /* \"#utility.yul\":13536:13545   */\n      dup3\n        /* \"#utility.yul\":13529:13550   */\n      mstore\n        /* \"#utility.yul\":13567:13634   */\n      tag_688\n        /* \"#utility.yul\":13630:13632   */\n      0x40\n        /* \"#utility.yul\":13619:13628   */\n      dup4\n        /* \"#utility.yul\":13615:13633   */\n      add\n        /* \"#utility.yul\":13607:13613   */\n      dup6\n        /* \"#utility.yul\":13567:13634   */\n      tag_633\n      jump\t// in\n    tag_688:\n        /* \"#utility.yul\":13559:13634   */\n      swap1\n      pop\n        /* \"#utility.yul\":13670:13676   */\n      dup3\n        /* \"#utility.yul\":13665:13667   */\n      0x20\n        /* \"#utility.yul\":13654:13663   */\n      dup4\n        /* \"#utility.yul\":13650:13668   */\n      add\n        /* \"#utility.yul\":13643:13677   */\n      mstore\n        /* \"#utility.yul\":13519:13683   */\n      swap4\n      swap3\n      pop\n      pop\n      pop\n      jump\t// out\n        /* \"#utility.yul\":13688:14035   */\n    tag_141:\n        /* \"#utility.yul\":13890:13892   */\n      0x20\n        /* \"#utility.yul\":13872:13893   */\n      dup1\n      dup3\n      mstore\n        /* \"#utility.yul\":13929:13931   */\n      0x17\n        /* \"#utility.yul\":13909:13927   */\n      swap1\n      dup3\n      add\n        /* \"#utility.yul\":13902:13932   */\n      mstore\n        /* \"#utility.yul\":13968:13993   */\n      0x50617469656e7420646f6573206e6f742065786973742e000000000000000000\n        /* \"#utility.yul\":13963:13965   */\n      0x40\n        /* \"#utility.yul\":13948:13966   */\n      dup3\n      add\n        /* \"#utility.yul\":13941:13994   */\n      mstore\n        /* \"#utility.yul\":14026:14028   */\n      0x60\n        /* \"#utility.yul\":14011:14029   */\n      add\n      swap1\n        /* \"#utility.yul\":13862:14035   */\n      jump\t// out\n        /* \"#utility.yul\":14040:14454   */\n    tag_416:\n        /* \"#utility.yul\":14242:14244   */\n      0x20\n        /* \"#utility.yul\":14224:14245   */\n      dup1\n      dup3\n      mstore\n        /* \"#utility.yul\":14281:14283   */\n      0x32\n        /* \"#utility.yul\":14261:14279   */\n      swap1\n      dup3\n      add\n        /* \"#utility.yul\":14254:14284   */\n      mstore\n        /* \"#utility.yul\":14320:14354   */\n      0x54686520737065636966696564206164647265737320646f6573206e6f742062\n        /* \"#utility.yul\":14315:14317   */\n      0x40\n        /* \"#utility.yul\":14300:14318   */\n      dup3\n      add\n        /* \"#utility.yul\":14293:14355   */\n      mstore\n      shl(0x71, 0x32b637b733903a379030903237b1ba37b917)\n        /* \"#utility.yul\":14386:14388   */\n      0x60\n        /* \"#utility.yul\":14371:14389   */\n      dup3\n      add\n        /* \"#utility.yul\":14364:14412   */\n      mstore\n        /* \"#utility.yul\":14444:14447   */\n      0x80\n        /* \"#utility.yul\":14429:14448   */\n      add\n      swap1\n        /* \"#utility.yul\":14214:14454   */\n      jump\t// out\n        /* \"#utility.yul\":14459:14857   */\n    tag_212:\n        /* \"#utility.yul\":14661:14663   */\n      0x20\n        /* \"#utility.yul\":14643:14664   */\n      dup1\n      dup3\n      mstore\n        /* \"#utility.yul\":14700:14702   */\n      0x22\n        /* \"#utility.yul\":14680:14698   */\n      swap1\n      dup3\n      add\n        /* \"#utility.yul\":14673:14703   */\n      mstore\n        /* \"#utility.yul\":14739:14773   */\n      0x416363657373207265737472696374656420746f20646f63746f7273206f6e6c\n        /* \"#utility.yul\":14734:14736   */\n      0x40\n        /* \"#utility.yul\":14719:14737   */\n      dup3\n      add\n        /* \"#utility.yul\":14712:14774   */\n      mstore\n      shl(0xf1, 0x3c97)\n        /* \"#utility.yul\":14805:14807   */\n      0x60\n        /* \"#utility.yul\":14790:14808   */\n      dup3\n      add\n        /* \"#utility.yul\":14783:14815   */\n      mstore\n        /* \"#utility.yul\":14847:14850   */\n      0x80\n        /* \"#utility.yul\":14832:14851   */\n      add\n      swap1\n        /* \"#utility.yul\":14633:14857   */\n      jump\t// out\n        /* \"#utility.yul\":14862:15211   */\n    tag_186:\n        /* \"#utility.yul\":15064:15066   */\n      0x20\n        /* \"#utility.yul\":15046:15067   */\n      dup1\n      dup3\n      mstore\n        /* \"#utility.yul\":15103:15105   */\n      0x19\n        /* \"#utility.yul\":15083:15101   */\n      swap1\n      dup3\n      add\n        /* \"#utility.yul\":15076:15106   */\n      mstore\n        /* \"#utility.yul\":15142:15169   */\n      0x5573657220697320616c726561647920696e6163746976652e00000000000000\n        /* \"#utility.yul\":15137:15139   */\n      0x40\n        /* \"#utility.yul\":15122:15140   */\n      dup3\n      add\n        /* \"#utility.yul\":15115:15170   */\n      mstore\n        /* \"#utility.yul\":15202:15204   */\n      0x60\n        /* \"#utility.yul\":15187:15205   */\n      add\n      swap1\n        /* \"#utility.yul\":15036:15211   */\n      jump\t// out\n        /* \"#utility.yul\":15216:15560   */\n    tag_534:\n        /* \"#utility.yul\":15418:15420   */\n      0x20\n        /* \"#utility.yul\":15400:15421   */\n      dup1\n      dup3\n      mstore\n        /* \"#utility.yul\":15457:15459   */\n      0x14\n        /* \"#utility.yul\":15437:15455   */\n      swap1\n      dup3\n      add\n        /* \"#utility.yul\":15430:15460   */\n      mstore\n      shl(0x61, 0x24b73232bc1037baba1037b3103137bab7323997)\n        /* \"#utility.yul\":15491:15493   */\n      0x40\n        /* \"#utility.yul\":15476:15494   */\n      dup3\n      add\n        /* \"#utility.yul\":15469:15519   */\n      mstore\n        /* \"#utility.yul\":15551:15553   */\n      0x60\n        /* \"#utility.yul\":15536:15554   */\n      add\n      swap1\n        /* \"#utility.yul\":15390:15560   */\n      jump\t// out\n        /* \"#utility.yul\":15565:15911   */\n    tag_295:\n        /* \"#utility.yul\":15767:15769   */\n      0x20\n        /* \"#utility.yul\":15749:15770   */\n      dup1\n      dup3\n      mstore\n        /* \"#utility.yul\":15806:15808   */\n      0x16\n        /* \"#utility.yul\":15786:15804   */\n      swap1\n      dup3\n      add\n        /* \"#utility.yul\":15779:15809   */\n      mstore\n      shl(0x51, 0x2ab9b2b91034b9903737ba1030903830ba34b2b73a17)\n        /* \"#utility.yul\":15840:15842   */\n      0x40\n        /* \"#utility.yul\":15825:15843   */\n      dup3\n      add\n        /* \"#utility.yul\":15818:15870   */\n      mstore\n        /* \"#utility.yul\":15902:15904   */\n      0x60\n        /* \"#utility.yul\":15887:15905   */\n      add\n      swap1\n        /* \"#utility.yul\":15739:15911   */\n      jump\t// out\n        /* \"#utility.yul\":15916:16252   */\n    tag_102:\n        /* \"#utility.yul\":16118:16120   */\n      0x20\n        /* \"#utility.yul\":16100:16121   */\n      dup1\n      dup3\n      mstore\n        /* \"#utility.yul\":16157:16159   */\n      0x0c\n        /* \"#utility.yul\":16137:16155   */\n      swap1\n      dup3\n      add\n        /* \"#utility.yul\":16130:16160   */\n      mstore\n      shl(0xa0, 0x496e76616c696420726f6c65)\n        /* \"#utility.yul\":16191:16193   */\n      0x40\n        /* \"#utility.yul\":16176:16194   */\n      dup3\n      add\n        /* \"#utility.yul\":16169:16211   */\n      mstore\n        /* \"#utility.yul\":16243:16245   */\n      0x60\n        /* \"#utility.yul\":16228:16246   */\n      add\n      swap1\n        /* \"#utility.yul\":16090:16252   */\n      jump\t// out\n        /* \"#utility.yul\":16257:16594   */\n    tag_98:\n        /* \"#utility.yul\":16459:16461   */\n      0x20\n        /* \"#utility.yul\":16441:16462   */\n      dup1\n      dup3\n      mstore\n        /* \"#utility.yul\":16498:16500   */\n      0x0d\n        /* \"#utility.yul\":16478:16496   */\n      swap1\n      dup3\n      add\n        /* \"#utility.yul\":16471:16501   */\n      mstore\n      shl(0x98, 0x496e76616c6964207469746c65)\n        /* \"#utility.yul\":16532:16534   */\n      0x40\n        /* \"#utility.yul\":16517:16535   */\n      dup3\n      add\n        /* \"#utility.yul\":16510:16553   */\n      mstore\n        /* \"#utility.yul\":16585:16587   */\n      0x60\n        /* \"#utility.yul\":16570:16588   */\n      add\n      swap1\n        /* \"#utility.yul\":16431:16594   */\n      jump\t// out\n        /* \"#utility.yul\":16599:16943   */\n    tag_121:\n        /* \"#utility.yul\":16801:16803   */\n      0x20\n        /* \"#utility.yul\":16783:16804   */\n      dup1\n      dup3\n      mstore\n        /* \"#utility.yul\":16840:16842   */\n      0x14\n        /* \"#utility.yul\":16820:16838   */\n      swap1\n      dup3\n      add\n        /* \"#utility.yul\":16813:16843   */\n      mstore\n      shl(0x61, 0x2ab9b2b9103237b2b9903737ba1032bc34b9ba17)\n        /* \"#utility.yul\":16874:16876   */\n      0x40\n        /* \"#utility.yul\":16859:16877   */\n      dup3\n      add\n        /* \"#utility.yul\":16852:16902   */\n      mstore\n        /* \"#utility.yul\":16934:16936   */\n      0x60\n        /* \"#utility.yul\":16919:16937   */\n      add\n      swap1\n        /* \"#utility.yul\":16773:16943   */\n      jump\t// out\n        /* \"#utility.yul\":16948:17423   */\n    tag_90:\n        /* \"#utility.yul\":17150:17152   */\n      0x20\n        /* \"#utility.yul\":17132:17153   */\n      dup1\n      dup3\n      mstore\n        /* \"#utility.yul\":17189:17191   */\n      0x47\n        /* \"#utility.yul\":17169:17187   */\n      swap1\n      dup3\n      add\n        /* \"#utility.yul\":17162:17192   */\n      mstore\n        /* \"#utility.yul\":17228:17262   */\n      0x496e76616c6964206163636573732063726564656e7469616c732e20506c6561\n        /* \"#utility.yul\":17223:17225   */\n      0x40\n        /* \"#utility.yul\":17208:17226   */\n      dup3\n      add\n        /* \"#utility.yul\":17201:17263   */\n      mstore\n        /* \"#utility.yul\":17299:17333   */\n      0x736520636f6e7461637420796f757220686f73706974616c2061646d696e6973\n        /* \"#utility.yul\":17294:17296   */\n      0x60\n        /* \"#utility.yul\":17279:17297   */\n      dup3\n      add\n        /* \"#utility.yul\":17272:17334   */\n      mstore\n      shl(0xc9, 0x3a3930ba37b917)\n        /* \"#utility.yul\":17365:17368   */\n      0x80\n        /* \"#utility.yul\":17350:17369   */\n      dup3\n      add\n        /* \"#utility.yul\":17343:17381   */\n      mstore\n        /* \"#utility.yul\":17413:17416   */\n      0xa0\n        /* \"#utility.yul\":17398:17417   */\n      add\n      swap1\n        /* \"#utility.yul\":17122:17423   */\n      jump\t// out\n        /* \"#utility.yul\":17428:17776   */\n    tag_94:\n        /* \"#utility.yul\":17630:17632   */\n      0x20\n        /* \"#utility.yul\":17612:17633   */\n      dup1\n      dup3\n      mstore\n        /* \"#utility.yul\":17669:17671   */\n      0x18\n        /* \"#utility.yul\":17649:17667   */\n      swap1\n      dup3\n      add\n        /* \"#utility.yul\":17642:17672   */\n      mstore\n        /* \"#utility.yul\":17708:17734   */\n      0x5573657220616c726561647920726567697374657265642e0000000000000000\n        /* \"#utility.yul\":17703:17705   */\n      0x40\n        /* \"#utility.yul\":17688:17706   */\n      dup3\n      add\n        /* \"#utility.yul\":17681:17735   */\n      mstore\n        /* \"#utility.yul\":17767:17769   */\n      0x60\n        /* \"#utility.yul\":17752:17770   */\n      add\n      swap1\n        /* \"#utility.yul\":17602:17776   */\n      jump\t// out\n        /* \"#utility.yul\":17781:18127   */\n    tag_411:\n        /* \"#utility.yul\":17983:17985   */\n      0x20\n        /* \"#utility.yul\":17965:17986   */\n      dup1\n      dup3\n      mstore\n        /* \"#utility.yul\":18022:18024   */\n      0x16\n        /* \"#utility.yul\":18002:18020   */\n      swap1\n      dup3\n      add\n        /* \"#utility.yul\":17995:18025   */\n      mstore\n      shl(0x51, 0x2237b1ba37b9103237b2b9903737ba1032bc34b9ba17)\n        /* \"#utility.yul\":18056:18058   */\n      0x40\n        /* \"#utility.yul\":18041:18059   */\n      dup3\n      add\n        /* \"#utility.yul\":18034:18086   */\n      mstore\n        /* \"#utility.yul\":18118:18120   */\n      0x60\n        /* \"#utility.yul\":18103:18121   */\n      add\n      swap1\n        /* \"#utility.yul\":17955:18127   */\n      jump\t// out\n        /* \"#utility.yul\":18132:18538   */\n    tag_220:\n        /* \"#utility.yul\":18334:18336   */\n      0x20\n        /* \"#utility.yul\":18316:18337   */\n      dup1\n      dup3\n      mstore\n        /* \"#utility.yul\":18373:18375   */\n      0x2a\n        /* \"#utility.yul\":18353:18371   */\n      swap1\n      dup3\n      add\n        /* \"#utility.yul\":18346:18376   */\n      mstore\n        /* \"#utility.yul\":18412:18446   */\n      0x43616e206f6e6c7920707265736372696265206d656469636174696f6e20746f\n        /* \"#utility.yul\":18407:18409   */\n      0x40\n        /* \"#utility.yul\":18392:18410   */\n      dup3\n      add\n        /* \"#utility.yul\":18385:18447   */\n      mstore\n      shl(0xb1, 0x103830ba34b2b73a3997)\n        /* \"#utility.yul\":18478:18480   */\n      0x60\n        /* \"#utility.yul\":18463:18481   */\n      dup3\n      add\n        /* \"#utility.yul\":18456:18496   */\n      mstore\n        /* \"#utility.yul\":18528:18531   */\n      0x80\n        /* \"#utility.yul\":18513:18532   */\n      add\n      swap1\n        /* \"#utility.yul\":18306:18538   */\n      jump\t// out\n        /* \"#utility.yul\":18543:18942   */\n    tag_137:\n        /* \"#utility.yul\":18745:18747   */\n      0x20\n        /* \"#utility.yul\":18727:18748   */\n      dup1\n      dup3\n      mstore\n        /* \"#utility.yul\":18784:18786   */\n      0x23\n        /* \"#utility.yul\":18764:18782   */\n      swap1\n      dup3\n      add\n        /* \"#utility.yul\":18757:18787   */\n      mstore\n        /* \"#utility.yul\":18823:18857   */\n      0x416363657373207265737472696374656420746f2070617469656e7473206f6e\n        /* \"#utility.yul\":18818:18820   */\n      0x40\n        /* \"#utility.yul\":18803:18821   */\n      dup3\n      add\n        /* \"#utility.yul\":18796:18858   */\n      mstore\n      shl(0xe9, 0x363c97)\n        /* \"#utility.yul\":18889:18891   */\n      0x60\n        /* \"#utility.yul\":18874:18892   */\n      dup3\n      add\n        /* \"#utility.yul\":18867:18900   */\n      mstore\n        /* \"#utility.yul\":18932:18935   */\n      0x80\n        /* \"#utility.yul\":18917:18936   */\n      add\n      swap1\n        /* \"#utility.yul\":18717:18942   */\n      jump\t// out\n        /* \"#utility.yul\":18947:19294   */\n    tag_472:\n        /* \"#utility.yul\":19149:19151   */\n      0x20\n        /* \"#utility.yul\":19131:19152   */\n      dup1\n      dup3\n      mstore\n        /* \"#utility.yul\":19188:19190   */\n      0x17\n        /* \"#utility.yul\":19168:19186   */\n      swap1\n      dup3\n      add\n        /* \"#utility.yul\":19161:19191   */\n      mstore\n        /* \"#utility.yul\":19227:19252   */\n      0x5573657220697320616c7265616479206163746976652e000000000000000000\n        /* \"#utility.yul\":19222:19224   */\n      0x40\n        /* \"#utility.yul\":19207:19225   */\n      dup3\n      add\n        /* \"#utility.yul\":19200:19253   */\n      mstore\n        /* \"#utility.yul\":19285:19287   */\n      0x60\n        /* \"#utility.yul\":19270:19288   */\n      add\n      swap1\n        /* \"#utility.yul\":19121:19294   */\n      jump\t// out\n        /* \"#utility.yul\":19299:19476   */\n    tag_71:\n        /* \"#utility.yul\":19445:19470   */\n      swap1\n      dup2\n      mstore\n        /* \"#utility.yul\":19433:19435   */\n      0x20\n        /* \"#utility.yul\":19418:19436   */\n      add\n      swap1\n        /* \"#utility.yul\":19400:19476   */\n      jump\t// out\n        /* \"#utility.yul\":19481:20348   */\n    tag_54:\n      0x00\n        /* \"#utility.yul\":19838:19844   */\n      dup9\n        /* \"#utility.yul\":19827:19836   */\n      dup3\n        /* \"#utility.yul\":19820:19845   */\n      mstore\n        /* \"#utility.yul\":19881:19884   */\n      0xe0\n        /* \"#utility.yul\":19876:19878   */\n      0x20\n        /* \"#utility.yul\":19865:19874   */\n      dup4\n        /* \"#utility.yul\":19861:19879   */\n      add\n        /* \"#utility.yul\":19854:19885   */\n      mstore\n        /* \"#utility.yul\":19908:19956   */\n      tag_706\n        /* \"#utility.yul\":19951:19954   */\n      0xe0\n        /* \"#utility.yul\":19940:19949   */\n      dup4\n        /* \"#utility.yul\":19936:19955   */\n      add\n        /* \"#utility.yul\":19928:19934   */\n      dup10\n        /* \"#utility.yul\":19908:19956   */\n      tag_609\n      jump\t// in\n    tag_706:\n        /* \"#utility.yul\":20004:20013   */\n      dup3\n        /* \"#utility.yul\":19996:20002   */\n      dup2\n        /* \"#utility.yul\":19992:20014   */\n      sub\n        /* \"#utility.yul\":19987:19989   */\n      0x40\n        /* \"#utility.yul\":19976:19985   */\n      dup5\n        /* \"#utility.yul\":19972:19990   */\n      add\n        /* \"#utility.yul\":19965:20015   */\n      mstore\n        /* \"#utility.yul\":20038:20073   */\n      tag_707\n        /* \"#utility.yul\":20066:20072   */\n      dup2\n        /* \"#utility.yul\":20058:20064   */\n      dup10\n        /* \"#utility.yul\":20038:20073   */\n      tag_609\n      jump\t// in\n    tag_707:\n        /* \"#utility.yul\":20024:20073   */\n      swap1\n      pop\n        /* \"#utility.yul\":20121:20130   */\n      dup3\n        /* \"#utility.yul\":20113:20119   */\n      dup2\n        /* \"#utility.yul\":20109:20131   */\n      sub\n        /* \"#utility.yul\":20104:20106   */\n      0x60\n        /* \"#utility.yul\":20093:20102   */\n      dup5\n        /* \"#utility.yul\":20089:20107   */\n      add\n        /* \"#utility.yul\":20082:20132   */\n      mstore\n        /* \"#utility.yul\":20149:20184   */\n      tag_708\n        /* \"#utility.yul\":20177:20183   */\n      dup2\n        /* \"#utility.yul\":20169:20175   */\n      dup9\n        /* \"#utility.yul\":20149:20184   */\n      tag_609\n      jump\t// in\n    tag_708:\n      sub(shl(0xa0, 0x01), 0x01)\n        /* \"#utility.yul\":20221:20253   */\n      swap7\n      swap1\n      swap7\n      and\n        /* \"#utility.yul\":20215:20218   */\n      0x80\n        /* \"#utility.yul\":20200:20219   */\n      dup5\n      add\n        /* \"#utility.yul\":20193:20254   */\n      mstore\n      pop\n      pop\n        /* \"#utility.yul\":20241:20244   */\n      0xa0\n        /* \"#utility.yul\":20270:20289   */\n      dup2\n      add\n        /* \"#utility.yul\":20263:20298   */\n      swap3\n      swap1\n      swap3\n      mstore\n        /* \"#utility.yul\":20329:20332   */\n      0xc0\n        /* \"#utility.yul\":20314:20333   */\n      swap1\n      swap2\n      add\n        /* \"#utility.yul\":20307:20342   */\n      mstore\n        /* \"#utility.yul\":20141:20184   */\n      swap5\n        /* \"#utility.yul\":19810:20348   */\n      swap4\n      pop\n      pop\n      pop\n      pop\n      jump\t// out\n        /* \"#utility.yul\":20353:20478   */\n    tag_258:\n      0x00\n        /* \"#utility.yul\":20421:20422   */\n      dup3\n        /* \"#utility.yul\":20418:20419   */\n      dup3\n        /* \"#utility.yul\":20415:20423   */\n      lt\n        /* \"#utility.yul\":20412:20414   */\n      iszero\n      tag_711\n      jumpi\n        /* \"#utility.yul\":20426:20444   */\n      tag_711\n      tag_712\n      jump\t// in\n    tag_711:\n      pop\n        /* \"#utility.yul\":20463:20472   */\n      sub\n      swap1\n        /* \"#utility.yul\":20402:20478   */\n      jump\t// out\n        /* \"#utility.yul\":20483:20863   */\n    tag_153:\n        /* \"#utility.yul\":20568:20569   */\n      0x02\n        /* \"#utility.yul\":20558:20570   */\n      dup2\n      div\n        /* \"#utility.yul\":20615:20616   */\n      0x01\n        /* \"#utility.yul\":20605:20617   */\n      dup3\n      and\n      dup1\n        /* \"#utility.yul\":20626:20628   */\n      tag_714\n      jumpi\n        /* \"#utility.yul\":20680:20684   */\n      0x7f\n        /* \"#utility.yul\":20672:20678   */\n      dup3\n        /* \"#utility.yul\":20668:20685   */\n      and\n        /* \"#utility.yul\":20658:20685   */\n      swap2\n      pop\n        /* \"#utility.yul\":20626:20628   */\n    tag_714:\n        /* \"#utility.yul\":20733:20735   */\n      0x20\n        /* \"#utility.yul\":20725:20731   */\n      dup3\n        /* \"#utility.yul\":20722:20736   */\n      lt\n        /* \"#utility.yul\":20702:20720   */\n      dup2\n        /* \"#utility.yul\":20699:20737   */\n      eq\n        /* \"#utility.yul\":20696:20698   */\n      iszero\n      tag_715\n      jumpi\n        /* \"#utility.yul\":20779:20789   */\n      0x4e487b71\n        /* \"#utility.yul\":20774:20777   */\n      0xe0\n        /* \"#utility.yul\":20770:20790   */\n      shl\n        /* \"#utility.yul\":20767:20768   */\n      0x00\n        /* \"#utility.yul\":20760:20791   */\n      mstore\n        /* \"#utility.yul\":20814:20818   */\n      0x22\n        /* \"#utility.yul\":20811:20812   */\n      0x04\n        /* \"#utility.yul\":20804:20819   */\n      mstore\n        /* \"#utility.yul\":20842:20846   */\n      0x24\n        /* \"#utility.yul\":20839:20840   */\n      0x00\n        /* \"#utility.yul\":20832:20847   */\n      revert\n        /* \"#utility.yul\":20696:20698   */\n    tag_715:\n      pop\n        /* \"#utility.yul\":20538:20863   */\n      swap2\n      swap1\n      pop\n      jump\t// out\n        /* \"#utility.yul\":20868:21003   */\n    tag_175:\n      0x00\n      not(0x00)\n        /* \"#utility.yul\":20928:20945   */\n      dup3\n      eq\n        /* \"#utility.yul\":20925:20927   */\n      iszero\n      tag_718\n      jumpi\n        /* \"#utility.yul\":20948:20966   */\n      tag_718\n      tag_712\n      jump\t// in\n    tag_718:\n      pop\n        /* \"#utility.yul\":20995:20996   */\n      0x01\n        /* \"#utility.yul\":20984:20997   */\n      add\n      swap1\n        /* \"#utility.yul\":20915:21003   */\n      jump\t// out\n        /* \"#utility.yul\":21008:21135   */\n    tag_712:\n        /* \"#utility.yul\":21069:21079   */\n      0x4e487b71\n        /* \"#utility.yul\":21064:21067   */\n      0xe0\n        /* \"#utility.yul\":21060:21080   */\n      shl\n        /* \"#utility.yul\":21057:21058   */\n      0x00\n        /* \"#utility.yul\":21050:21081   */\n      mstore\n        /* \"#utility.yul\":21100:21104   */\n      0x11\n        /* \"#utility.yul\":21097:21098   */\n      0x04\n        /* \"#utility.yul\":21090:21105   */\n      mstore\n        /* \"#utility.yul\":21124:21128   */\n      0x24\n        /* \"#utility.yul\":21121:21122   */\n      0x00\n        /* \"#utility.yul\":21114:21129   */\n      revert\n        /* \"#utility.yul\":21140:21267   */\n    tag_619:\n        /* \"#utility.yul\":21201:21211   */\n      0x4e487b71\n        /* \"#utility.yul\":21196:21199   */\n      0xe0\n        /* \"#utility.yul\":21192:21212   */\n      shl\n        /* \"#utility.yul\":21189:21190   */\n      0x00\n        /* \"#utility.yul\":21182:21213   */\n      mstore\n        /* \"#utility.yul\":21232:21236   */\n      0x21\n        /* \"#utility.yul\":21229:21230   */\n      0x04\n        /* \"#utility.yul\":21222:21237   */\n      mstore\n        /* \"#utility.yul\":21256:21260   */\n      0x24\n        /* \"#utility.yul\":21253:21254   */\n      0x00\n        /* \"#utility.yul\":21246:21261   */\n      revert\n        /* \"#utility.yul\":21272:21399   */\n    tag_573:\n        /* \"#utility.yul\":21333:21343   */\n      0x4e487b71\n        /* \"#utility.yul\":21328:21331   */\n      0xe0\n        /* \"#utility.yul\":21324:21344   */\n      shl\n        /* \"#utility.yul\":21321:21322   */\n      0x00\n        /* \"#utility.yul\":21314:21345   */\n      mstore\n        /* \"#utility.yul\":21364:21368   */\n      0x41\n        /* \"#utility.yul\":21361:21362   */\n      0x04\n        /* \"#utility.yul\":21354:21369   */\n      mstore\n        /* \"#utility.yul\":21388:21392   */\n      0x24\n        /* \"#utility.yul\":21385:21386   */\n      0x00\n        /* \"#utility.yul\":21378:21393   */\n      revert\n\n    auxdata: 0xa2646970667358221220fea06ddb60601d33326399bb6b90102cf28096338f4ced0a7b5a3e19a972baf964736f6c63430008000033\n}\n",
				"bytecode": {
					"linkReferences": {},
					"object": "608060405234801561001057600080fd5b50600080546001600160a01b03191633179055613f5e806100326000396000f3fe608060405234801561001057600080fd5b50600436106101005760003560e01c80638a462e1a11610097578063b4acfe1c11610066578063b4acfe1c1461022e578063e2842d7914610241578063f9db398214610249578063ff5d32fe1461025e57610100565b80638a462e1a146101d15780639057c82b146101f1578063988559f514610206578063a4a1e2631461021957610100565b80631ecd6563116100d35780631ecd65631461015e5780633b5761d5146101855780635c60f226146101985780636386c1c7146101ab57610100565b8063094289d6146101055780630acfd58e1461011a578063163301f91461012d5780631a47767b1461014b575b600080fd5b6101186101133660046134cb565b610271565b005b6101186101283660046134a2565b6104ec565b610135610671565b6040516101429190613807565b60405180910390f35b610118610159366004613410565b610ae5565b61017161016c366004613410565b610c1f565b6040516101429897969594939291906139c2565b610118610193366004613431565b610e15565b6101186101a6366004613410565b61115c565b6101be6101b9366004613410565b611458565b6040516101429796959493929190613e11565b6101e46101df366004613410565b611717565b60405161014291906138a0565b6101f9611a92565b60405161014291906138b3565b6101e4610214366004613410565b6122fb565b6102216128ef565b6040516101429190613e08565b61011861023c366004613410565b6128f5565b6101f9612a21565b6102516130bc565b60405161014291906137f3565b6101be61026c366004613572565b6130cb565b6000546001600160a01b031633146102a45760405162461bcd60e51b815260040161029b90613c70565b60405180910390fd5b6001600160a01b038616600090815260016020526040902060040154600160b01b900460ff16156102e75760405162461bcd60e51b815260040161029b90613cdd565b60038511156103085760405162461bcd60e51b815260040161029b90613c1b565b60028111156103295760405162461bcd60e51b815260040161029b90613bf5565b6001600160a01b038616600090815260016020526040902085600381111561036157634e487b7160e01b600052602160045260246000fd5b8154829060ff1916600183600381111561038b57634e487b7160e01b600052602160045260246000fd5b021790555084516103a59060018301906020880190613150565b5083516103bb9060028301906020870190613150565b5082516103d19060038301906020860190613150565b506004810180546001600160a01b0319166001600160a01b03891617905581600281111561040f57634e487b7160e01b600052602160045260246000fd5b60048201805460ff60a01b1916600160a01b83600281111561044157634e487b7160e01b600052602160045260246000fd5b021790555060048101805461ffff60a81b1916600160b01b179055600280546001810182556000919091527f405787fa12a823e0f2b7631cc41b3ba8828b3321ca811111fa75cd3aa3bb5ace0180546001600160a01b0389166001600160a01b031990911681179091556040517f48cac28ad4dc618e15f4c2dd5e97751182f166de97b25618318b2112aa951a2f906104db908890613a4d565b60405180910390a250505050505050565b6000546001600160a01b031633146105165760405162461bcd60e51b815260040161029b90613c70565b6001600160a01b038216600090815260016020526040902060040154600160b01b900460ff166105585760405162461bcd60e51b815260040161029b90613c42565b60028111156105795760405162461bcd60e51b815260040161029b90613bf5565b80600281111561059957634e487b7160e01b600052602160045260246000fd5b6001600160a01b0383166000908152600160205260409020600401805460ff60a01b1916600160a01b8360028111156105e257634e487b7160e01b600052602160045260246000fd5b02179055506001600160a01b038216600081815260016020819052604090912060048101547fcafb1db9b8c52cb0a968881f29a2af39b69ba3538422ed833c1d3bdc14792c2f929190910190600160a01b900460ff16600281111561065757634e487b7160e01b600052602160045260246000fd5b604051610665929190613a73565b60405180910390a25050565b33600090815260016020526040902060040154606090600160b01b900460ff166106ad5760405162461bcd60e51b815260040161029b90613c42565b600133600090815260016020526040902060040154600160a01b900460ff1660028111156106eb57634e487b7160e01b600052602160045260246000fd5b146107085760405162461bcd60e51b815260040161029b90613d8e565b33600090815260016020526040902060040154600160b01b900460ff166107415760405162461bcd60e51b815260040161029b90613a95565b33600090815260016020526040812060050154908167ffffffffffffffff81111561077c57634e487b7160e01b600052604160045260246000fd5b6040519080825280602002602001820160405280156107b557816020015b6107a26131d4565b81526020019060019003908161079a5790505b50905060005b82811015610ade573360009081526001602052604081206005018054839081106107f557634e487b7160e01b600052603260045260246000fd5b60009182526020918290206040805160a0810190915260059092020180546001600160a01b03168252600181018054929391929184019161083590613e90565b80601f016020809104026020016040519081016040528092919081815260200182805461086190613e90565b80156108ae5780601f10610883576101008083540402835291602001916108ae565b820191906000526020600020905b81548152906001019060200180831161089157829003601f168201915b505050505081526020016002820180546108c790613e90565b80601f01602080910402602001604051908101604052809291908181526020018280546108f390613e90565b80156109405780601f1061091557610100808354040283529160200191610940565b820191906000526020600020905b81548152906001019060200180831161092357829003601f168201915b5050505050815260200160038201805461095990613e90565b80601f016020809104026020016040519081016040528092919081815260200182805461098590613e90565b80156109d25780601f106109a7576101008083540402835291602001916109d2565b820191906000526020600020905b8154815290600101906020018083116109b557829003601f168201915b505050505081526020016004820180546109eb90613e90565b80601f0160208091040260200160405190810160405280929190818152602001828054610a1790613e90565b8015610a645780601f10610a3957610100808354040283529160200191610a64565b820191906000526020600020905b815481529060010190602001808311610a4757829003601f168201915b5050505050815250509050604051806060016040528082600001516001600160a01b03168152602001826020015181526020018260400151815250838381518110610abf57634e487b7160e01b600052603260045260246000fd5b6020026020010181905250508080610ad690613ecb565b9150506107bb565b5091505090565b6000546001600160a01b03163314610b0f5760405162461bcd60e51b815260040161029b90613c70565b6001600160a01b038116600090815260016020526040902060040154600160b01b900460ff16610b515760405162461bcd60e51b815260040161029b90613c42565b6001600160a01b0381166000908152600160208190526040822060040154600160a81b900460ff1690811115610b9757634e487b7160e01b600052602160045260246000fd5b14610bb45760405162461bcd60e51b815260040161029b90613b60565b6001600160a01b03811660008181526001602081905260409182902060048101805460ff60a81b1916600160a81b17905591517f070e56ba67d3ba524c013e12ff9e91b873414f09f9c31c5365afcf94b1e2842492610c14920190613a60565b60405180910390a250565b60016020819052600091825260409091208054918101805460ff90931692610c4690613e90565b80601f0160208091040260200160405190810160405280929190818152602001828054610c7290613e90565b8015610cbf5780601f10610c9457610100808354040283529160200191610cbf565b820191906000526020600020905b815481529060010190602001808311610ca257829003601f168201915b505050505090806002018054610cd490613e90565b80601f0160208091040260200160405190810160405280929190818152602001828054610d0090613e90565b8015610d4d5780601f10610d2257610100808354040283529160200191610d4d565b820191906000526020600020905b815481529060010190602001808311610d3057829003601f168201915b505050505090806003018054610d6290613e90565b80601f0160208091040260200160405190810160405280929190818152602001828054610d8e90613e90565b8015610ddb5780601f10610db057610100808354040283529160200191610ddb565b820191906000526020600020905b815481529060010190602001808311610dbe57829003601f168201915b505050600490930154919250506001600160a01b0381169060ff600160a01b8204811691600160a81b8104821691600160b01b9091041688565b33600090815260016020526040902060040154600160b01b900460ff16610e4e5760405162461bcd60e51b815260040161029b90613c42565b600033600090815260016020526040902060040154600160a01b900460ff166002811115610e8c57634e487b7160e01b600052602160045260246000fd5b14610ea95760405162461bcd60e51b815260040161029b90613b1e565b6001600160a01b038316600090815260016020526040902060040154600160b01b900460ff16610eeb5760405162461bcd60e51b815260040161029b90613a95565b60016001600160a01b038416600090815260016020526040902060040154600160a01b900460ff166002811115610f3257634e487b7160e01b600052602160045260246000fd5b14610f4f5760405162461bcd60e51b815260040161029b90613d44565b3360009081526001602081815260408084209051610f7693820192600290920191016137ca565b60408051601f198184030181526001600160a01b03871660009081526001602081815284832060a08701865233808852878301869052845291905290839020600301805492955060059091019392830191610fd090613e90565b80601f0160208091040260200160405190810160405280929190818152602001828054610ffc90613e90565b80156110495780601f1061101e57610100808354040283529160200191611049565b820191906000526020600020905b81548152906001019060200180831161102c57829003601f168201915b505050918352505060208082018790526040909101859052825460018082018555600094855293829020835160059092020180546001600160a01b0319166001600160a01b03909216919091178155828201518051939491936110b493928501929190910190613150565b50604082015180516110d0916002840191602090910190613150565b50606082015180516110ec916003840191602090910190613150565b5060808201518051611108916004840191602090910190613150565b505050836001600160a01b0316336001600160a01b03167f349c187a0459596ea8356279c33b8d579810659bfcf9831c05c58e30cc1031d38560405161114e9190613a4d565b60405180910390a350505050565b6000546001600160a01b031633146111865760405162461bcd60e51b815260040161029b90613c70565b6001600160a01b038116600090815260016020526040902060040154600160b01b900460ff166111c85760405162461bcd60e51b815260040161029b90613c42565b6001600160a01b038116600090815260016020819052604082200180546111ee90613e90565b80601f016020809104026020016040519081016040528092919081815260200182805461121a90613e90565b80156112675780601f1061123c57610100808354040283529160200191611267565b820191906000526020600020905b81548152906001019060200180831161124a57829003601f168201915b5050506001600160a01b03851660009081526001602081905260408220805460ff1916815594955090925061129f91508301826131fe565b6112ad6002830160006131fe565b6112bb6003830160006131fe565b6004820180546001600160b81b03191690556112db60058301600061323d565b505060005b60025481101561141e57826001600160a01b03166002828154811061131557634e487b7160e01b600052603260045260246000fd5b6000918252602090912001546001600160a01b0316141561140c576002805461134090600190613e79565b8154811061135e57634e487b7160e01b600052603260045260246000fd5b600091825260209091200154600280546001600160a01b03909216918390811061139857634e487b7160e01b600052603260045260246000fd5b9060005260206000200160006101000a8154816001600160a01b0302191690836001600160a01b0316021790555060028054806113e557634e487b7160e01b600052603160045260246000fd5b600082815260209020810160001990810180546001600160a01b031916905501905561141e565b8061141681613ecb565b9150506112e0565b50816001600160a01b03167f32b931fea2d04014124dfdebbcff93ed4b64527a35af5d25c75a1a79b2f5b3bf826040516106659190613a4d565b6001600160a01b03811660009081526001602052604081206004015460609081908190849081908190600160b01b900460ff166114a75760405162461bcd60e51b815260040161029b90613c42565b6001600160a01b0388166000908152600160205260409020805460ff1660038111156114e357634e487b7160e01b600052602160045260246000fd5b6004820154600183019060028085019160038601916001600160a01b03821691600160a01b900460ff169081111561152b57634e487b7160e01b600052602160045260246000fd5b6004870154600160a81b900460ff16600181111561155957634e487b7160e01b600052602160045260246000fd5b85805461156590613e90565b80601f016020809104026020016040519081016040528092919081815260200182805461159190613e90565b80156115de5780601f106115b3576101008083540402835291602001916115de565b820191906000526020600020905b8154815290600101906020018083116115c157829003601f168201915b505050505095508480546115f190613e90565b80601f016020809104026020016040519081016040528092919081815260200182805461161d90613e90565b801561166a5780601f1061163f5761010080835404028352916020019161166a565b820191906000526020600020905b81548152906001019060200180831161164d57829003601f168201915b5050505050945083805461167d90613e90565b80601f01602080910402602001604051908101604052809291908181526020018280546116a990613e90565b80156116f65780601f106116cb576101008083540402835291602001916116f6565b820191906000526020600020905b8154815290600101906020018083116116d957829003601f168201915b50505050509350975097509750975097509750975050919395979092949650565b6001600160a01b038116600090815260016020526040902060040154606090600160b01b900460ff1661175c5760405162461bcd60e51b815260040161029b90613a95565b60016001600160a01b038316600090815260016020526040902060040154600160a01b900460ff1660028111156117a357634e487b7160e01b600052602160045260246000fd5b146117c05760405162461bcd60e51b815260040161029b90613bc5565b6001600160a01b038216600090815260016020908152604080832060050180548251818502810185019093528083529193909284015b82821015611a865760008481526020908190206040805160a081019091526005850290910180546001600160a01b03168252600181018054929391929184019161183f90613e90565b80601f016020809104026020016040519081016040528092919081815260200182805461186b90613e90565b80156118b85780601f1061188d576101008083540402835291602001916118b8565b820191906000526020600020905b81548152906001019060200180831161189b57829003601f168201915b505050505081526020016002820180546118d190613e90565b80601f01602080910402602001604051908101604052809291908181526020018280546118fd90613e90565b801561194a5780601f1061191f5761010080835404028352916020019161194a565b820191906000526020600020905b81548152906001019060200180831161192d57829003601f168201915b5050505050815260200160038201805461196390613e90565b80601f016020809104026020016040519081016040528092919081815260200182805461198f90613e90565b80156119dc5780601f106119b1576101008083540402835291602001916119dc565b820191906000526020600020905b8154815290600101906020018083116119bf57829003601f168201915b505050505081526020016004820180546119f590613e90565b80601f0160208091040260200160405190810160405280929190818152602001828054611a2190613e90565b8015611a6e5780601f10611a4357610100808354040283529160200191611a6e565b820191906000526020600020905b815481529060010190602001808311611a5157829003601f168201915b505050505081525050815260200190600101906117f6565b5050505090505b919050565b33600090815260016020526040902060040154606090600160b01b900460ff16611ace5760405162461bcd60e51b815260040161029b90613c42565b600033600090815260016020526040902060040154600160a01b900460ff166002811115611b0c57634e487b7160e01b600052602160045260246000fd5b14611b295760405162461bcd60e51b815260040161029b90613b1e565b6000805b600254811015611bd557600180600060028481548110611b5d57634e487b7160e01b600052603260045260246000fd5b60009182526020808320909101546001600160a01b0316835282019290925260400190206004015460ff600160a01b909104166002811115611baf57634e487b7160e01b600052602160045260246000fd5b1415611bc35781611bbf81613ecb565b9250505b80611bcd81613ecb565b915050611b2d565b5060008167ffffffffffffffff811115611bff57634e487b7160e01b600052604160045260246000fd5b604051908082528060200260200182016040528015611c3857816020015b611c2561325e565b815260200190600190039081611c1d5790505b5090506000805b6002548110156122f257600180600060028481548110611c6f57634e487b7160e01b600052603260045260246000fd5b60009182526020808320909101546001600160a01b0316835282019290925260400190206004015460ff600160a01b909104166002811115611cc157634e487b7160e01b600052602160045260246000fd5b14156122e0576001600060028381548110611cec57634e487b7160e01b600052603260045260246000fd5b60009182526020808320909101546001600160a01b031683528201929092526040908101909120815161012081019092528054829060ff166003811115611d4357634e487b7160e01b600052602160045260246000fd5b6003811115611d6257634e487b7160e01b600052602160045260246000fd5b8152602001600182018054611d7690613e90565b80601f0160208091040260200160405190810160405280929190818152602001828054611da290613e90565b8015611def5780601f10611dc457610100808354040283529160200191611def565b820191906000526020600020905b815481529060010190602001808311611dd257829003601f168201915b50505050508152602001600282018054611e0890613e90565b80601f0160208091040260200160405190810160405280929190818152602001828054611e3490613e90565b8015611e815780601f10611e5657610100808354040283529160200191611e81565b820191906000526020600020905b815481529060010190602001808311611e6457829003601f168201915b50505050508152602001600382018054611e9a90613e90565b80601f0160208091040260200160405190810160405280929190818152602001828054611ec690613e90565b8015611f135780601f10611ee857610100808354040283529160200191611f13565b820191906000526020600020905b815481529060010190602001808311611ef657829003601f168201915b505050918352505060048201546001600160a01b0381166020830152604090910190600160a01b900460ff166002811115611f5e57634e487b7160e01b600052602160045260246000fd5b6002811115611f7d57634e487b7160e01b600052602160045260246000fd5b81526020016004820160159054906101000a900460ff166001811115611fb357634e487b7160e01b600052602160045260246000fd5b6001811115611fd257634e487b7160e01b600052602160045260246000fd5b81526004820154600160b01b900460ff161515602080830191909152600583018054604080518285028101850182528281529401939260009084015b8282101561229e5760008481526020908190206040805160a081019091526005850290910180546001600160a01b03168252600181018054929391929184019161205790613e90565b80601f016020809104026020016040519081016040528092919081815260200182805461208390613e90565b80156120d05780601f106120a5576101008083540402835291602001916120d0565b820191906000526020600020905b8154815290600101906020018083116120b357829003601f168201915b505050505081526020016002820180546120e990613e90565b80601f016020809104026020016040519081016040528092919081815260200182805461211590613e90565b80156121625780601f1061213757610100808354040283529160200191612162565b820191906000526020600020905b81548152906001019060200180831161214557829003601f168201915b5050505050815260200160038201805461217b90613e90565b80601f01602080910402602001604051908101604052809291908181526020018280546121a790613e90565b80156121f45780601f106121c9576101008083540402835291602001916121f4565b820191906000526020600020905b8154815290600101906020018083116121d757829003601f168201915b5050505050815260200160048201805461220d90613e90565b80601f016020809104026020016040519081016040528092919081815260200182805461223990613e90565b80156122865780601f1061225b57610100808354040283529160200191612286565b820191906000526020600020905b81548152906001019060200180831161226957829003601f168201915b5050505050815250508152602001906001019061200e565b50505050815250508383815181106122c657634e487b7160e01b600052603260045260246000fd5b602002602001018190525081806122dc90613ecb565b9250505b806122ea81613ecb565b915050611c3f565b50909250505090565b33600090815260016020526040902060040154606090600160b01b900460ff166123375760405162461bcd60e51b815260040161029b90613c42565b600133600090815260016020526040902060040154600160a01b900460ff16600281111561237557634e487b7160e01b600052602160045260246000fd5b146123925760405162461bcd60e51b815260040161029b90613d8e565b33600090815260016020526040902060040154600160b01b900460ff166123cb5760405162461bcd60e51b815260040161029b90613a95565b6001600160a01b038216600090815260016020526040902060040154600160b01b900460ff1661240d5760405162461bcd60e51b815260040161029b90613d14565b60006001600160a01b038316600090815260016020526040902060040154600160a01b900460ff16600281111561245457634e487b7160e01b600052602160045260246000fd5b146124715760405162461bcd60e51b815260040161029b90613acc565b6000805b3360009081526001602052604090206005015481101561250d5733600090815260016020526040902060050180546001600160a01b0386169190839081106124cd57634e487b7160e01b600052603260045260246000fd5b60009182526020909120600590910201546001600160a01b031614156124fb57816124f781613ecb565b9250505b8061250581613ecb565b915050612475565b5060008167ffffffffffffffff81111561253757634e487b7160e01b600052604160045260246000fd5b60405190808252806020026020018201604052801561257057816020015b61255d6132d3565b8152602001906001900390816125555790505b5090506000805b336000908152600160205260409020600501548110156128e55733600090815260016020526040902060050180546001600160a01b0388169190839081106125cf57634e487b7160e01b600052603260045260246000fd5b60009182526020909120600590910201546001600160a01b031614156128d35733600090815260016020526040902060050180548290811061262157634e487b7160e01b600052603260045260246000fd5b60009182526020918290206040805160a0810190915260059092020180546001600160a01b03168252600181018054929391929184019161266190613e90565b80601f016020809104026020016040519081016040528092919081815260200182805461268d90613e90565b80156126da5780601f106126af576101008083540402835291602001916126da565b820191906000526020600020905b8154815290600101906020018083116126bd57829003601f168201915b505050505081526020016002820180546126f390613e90565b80601f016020809104026020016040519081016040528092919081815260200182805461271f90613e90565b801561276c5780601f106127415761010080835404028352916020019161276c565b820191906000526020600020905b81548152906001019060200180831161274f57829003601f168201915b5050505050815260200160038201805461278590613e90565b80601f01602080910402602001604051908101604052809291908181526020018280546127b190613e90565b80156127fe5780601f106127d3576101008083540402835291602001916127fe565b820191906000526020600020905b8154815290600101906020018083116127e157829003601f168201915b5050505050815260200160048201805461281790613e90565b80601f016020809104026020016040519081016040528092919081815260200182805461284390613e90565b80156128905780601f1061286557610100808354040283529160200191612890565b820191906000526020600020905b81548152906001019060200180831161287357829003601f168201915b5050505050815250508383815181106128b957634e487b7160e01b600052603260045260246000fd5b602002602001018190525081806128cf90613ecb565b9250505b806128dd81613ecb565b915050612577565b5090949350505050565b60025490565b6000546001600160a01b0316331461291f5760405162461bcd60e51b815260040161029b90613c70565b6001600160a01b038116600090815260016020526040902060040154600160b01b900460ff166129615760405162461bcd60e51b815260040161029b90613c42565b60016001600160a01b038216600090815260016020819052604090912060040154600160a81b900460ff16908111156129aa57634e487b7160e01b600052602160045260246000fd5b146129c75760405162461bcd60e51b815260040161029b90613dd1565b6001600160a01b03811660008181526001602081905260409182902060048101805460ff60a81b1916905591517fa9ca73ed87ff19d7e58bc1934416c2db88521dfe4376866e9f6a48e2520ebe6f92610c14920190613a60565b60025460609060009067ffffffffffffffff811115612a5057634e487b7160e01b600052604160045260246000fd5b604051908082528060200260200182016040528015612a8957816020015b612a7661325e565b815260200190600190039081612a6e5790505b50905060005b6002548110156130b6576001600060028381548110612abe57634e487b7160e01b600052603260045260246000fd5b60009182526020808320909101546001600160a01b031683528201929092526040908101909120815161012081019092528054829060ff166003811115612b1557634e487b7160e01b600052602160045260246000fd5b6003811115612b3457634e487b7160e01b600052602160045260246000fd5b8152602001600182018054612b4890613e90565b80601f0160208091040260200160405190810160405280929190818152602001828054612b7490613e90565b8015612bc15780601f10612b9657610100808354040283529160200191612bc1565b820191906000526020600020905b815481529060010190602001808311612ba457829003601f168201915b50505050508152602001600282018054612bda90613e90565b80601f0160208091040260200160405190810160405280929190818152602001828054612c0690613e90565b8015612c535780601f10612c2857610100808354040283529160200191612c53565b820191906000526020600020905b815481529060010190602001808311612c3657829003601f168201915b50505050508152602001600382018054612c6c90613e90565b80601f0160208091040260200160405190810160405280929190818152602001828054612c9890613e90565b8015612ce55780601f10612cba57610100808354040283529160200191612ce5565b820191906000526020600020905b815481529060010190602001808311612cc857829003601f168201915b505050918352505060048201546001600160a01b0381166020830152604090910190600160a01b900460ff166002811115612d3057634e487b7160e01b600052602160045260246000fd5b6002811115612d4f57634e487b7160e01b600052602160045260246000fd5b81526020016004820160159054906101000a900460ff166001811115612d8557634e487b7160e01b600052602160045260246000fd5b6001811115612da457634e487b7160e01b600052602160045260246000fd5b81526004820154600160b01b900460ff161515602080830191909152600583018054604080518285028101850182528281529401939260009084015b828210156130705760008481526020908190206040805160a081019091526005850290910180546001600160a01b031682526001810180549293919291840191612e2990613e90565b80601f0160208091040260200160405190810160405280929190818152602001828054612e5590613e90565b8015612ea25780601f10612e7757610100808354040283529160200191612ea2565b820191906000526020600020905b815481529060010190602001808311612e8557829003601f168201915b50505050508152602001600282018054612ebb90613e90565b80601f0160208091040260200160405190810160405280929190818152602001828054612ee790613e90565b8015612f345780601f10612f0957610100808354040283529160200191612f34565b820191906000526020600020905b815481529060010190602001808311612f1757829003601f168201915b50505050508152602001600382018054612f4d90613e90565b80601f0160208091040260200160405190810160405280929190818152602001828054612f7990613e90565b8015612fc65780601f10612f9b57610100808354040283529160200191612fc6565b820191906000526020600020905b815481529060010190602001808311612fa957829003601f168201915b50505050508152602001600482018054612fdf90613e90565b80601f016020809104026020016040519081016040528092919081815260200182805461300b90613e90565b80156130585780601f1061302d57610100808354040283529160200191613058565b820191906000526020600020905b81548152906001019060200180831161303b57829003601f168201915b50505050508152505081526020019060010190612de0565b505050508152505082828151811061309857634e487b7160e01b600052603260045260246000fd5b602002602001018190525080806130ae90613ecb565b915050612a8f565b50905090565b6000546001600160a01b031681565b60006060806060600080600060028054905088106130fb5760405162461bcd60e51b815260040161029b90613b97565b6131396002898154811061311f57634e487b7160e01b600052603260045260246000fd5b6000918252602090912001546001600160a01b0316611458565b959e949d50929b5090995097509550909350915050565b82805461315c90613e90565b90600052602060002090601f01602090048101928261317e57600085556131c4565b82601f1061319757805160ff19168380011785556131c4565b828001600101855582156131c4579182015b828111156131c45782518255916020019190600101906131a9565b506131d092915061330b565b5090565b604051806060016040528060006001600160a01b0316815260200160608152602001606081525090565b50805461320a90613e90565b6000825580601f1061321c575061323a565b601f01602090049060005260206000209081019061323a919061330b565b50565b508054600082556005029060005260206000209081019061323a9190613320565b604080516101208101909152806000815260200160608152602001606081526020016060815260200160006001600160a01b03168152602001600060028111156132b857634e487b7160e01b600052602160045260246000fd5b81526020016000815260006020820152606060409091015290565b6040518060a0016040528060006001600160a01b03168152602001606081526020016060815260200160608152602001606081525090565b5b808211156131d0576000815560010161330c565b808211156131d05780546001600160a01b0319168155600061334560018301826131fe565b6133536002830160006131fe565b6133616003830160006131fe565b61336f6004830160006131fe565b50600501613320565b80356001600160a01b0381168114611a8d57600080fd5b600082601f83011261339f578081fd5b813567ffffffffffffffff808211156133ba576133ba613f12565b604051601f8301601f1916810160200182811182821017156133de576133de613f12565b6040528281528483016020018610156133f5578384fd5b82602086016020830137918201602001929092529392505050565b600060208284031215613421578081fd5b61342a82613378565b9392505050565b600080600060608486031215613445578182fd5b61344e84613378565b9250602084013567ffffffffffffffff8082111561346a578384fd5b6134768783880161338f565b9350604086013591508082111561348b578283fd5b506134988682870161338f565b9150509250925092565b600080604083850312156134b4578182fd5b6134bd83613378565b946020939093013593505050565b60008060008060008060c087890312156134e3578182fd5b6134ec87613378565b955060208701359450604087013567ffffffffffffffff8082111561350f578384fd5b61351b8a838b0161338f565b95506060890135915080821115613530578384fd5b61353c8a838b0161338f565b94506080890135915080821115613551578384fd5b5061355e89828a0161338f565b92505060a087013590509295509295509295565b600060208284031215613583578081fd5b5035919050565b6001600160a01b03169052565b60008282518085526020808601955080818302840101818601855b8481101561365257858303601f19018952815180516001600160a01b031684528481015160a0868601819052906135eb82870182613699565b915050604080830151868303828801526136058382613699565b92505050606080830151868303828801526136208382613699565b925050506080808301519250858203818701525061363e8183613699565b9a86019a94505050908301906001016135b2565b5090979650505050505050565b15159052565b6002811061367557613675613efc565b9052565b6003811061367557613675613efc565b6004811061367557613675613efc565b60008151808452815b818110156136be576020818501810151868301820152016136a2565b818111156136cf5782602083870101525b50601f01601f19169290920160200192915050565b600081546136f181613e90565b80855260206001838116801561370e576001811461372257613750565b60ff19851688840152604088019550613750565b866000528260002060005b858110156137485781548a820186015290830190840161372d565b890184019650505b505050505092915050565b6000815461376881613e90565b600182811680156137805760018114613791576137c0565b60ff198416875282870194506137c0565b8560005260208060002060005b858110156137b75781548a82015290840190820161379e565b50505082870194505b5050505092915050565b60006137d6828561375b565b600160fd1b81526137ea600182018561375b565b95945050505050565b6001600160a01b0391909116815260200190565b60208082528251828201819052600091906040908185019080840286018301878501865b8381101561389257888303603f19018552815180516001600160a01b031684528781015160608986018190529061386482870182613699565b9150508782015191508481038886015261387e8183613699565b96890196945050509086019060010161382b565b509098975050505050505050565b60006020825261342a6020830184613597565b60208082528251828201819052600091906040908185019080840286018301878501865b8381101561389257603f1989840301855281516101206138f8858351613689565b88820151818a87015261390d82870182613699565b91505087820151858203898701526139258282613699565b9150506060808301518683038288015261393f8382613699565b925050506080808301516139558288018261358a565b505060a08083015161396982880182613679565b505060c08083015161397d82880182613665565b505060e0808301516139918288018261365f565b505061010080830151925085820381870152506139ae8183613597565b9689019694505050908601906001016138d7565b60006101006139d1838c613689565b8060208401526139e38184018b613699565b905082810360408401526139f7818a613699565b90508281036060840152613a0b8189613699565b6001600160a01b03881660808501529150613a2b905060a0830186613679565b613a3860c0830185613665565b82151560e08301529998505050505050505050565b60006020825261342a6020830184613699565b60006020825261342a60208301846136e4565b600060408252613a8660408301856136e4565b90508260208301529392505050565b60208082526017908201527f50617469656e7420646f6573206e6f742065786973742e000000000000000000604082015260600190565b60208082526032908201527f54686520737065636966696564206164647265737320646f6573206e6f74206260408201527132b637b733903a379030903237b1ba37b91760711b606082015260800190565b60208082526022908201527f416363657373207265737472696374656420746f20646f63746f7273206f6e6c6040820152613c9760f11b606082015260800190565b60208082526019908201527f5573657220697320616c726561647920696e6163746976652e00000000000000604082015260600190565b60208082526014908201527324b73232bc1037baba1037b3103137bab732399760611b604082015260600190565b6020808252601690820152752ab9b2b91034b9903737ba1030903830ba34b2b73a1760511b604082015260600190565b6020808252600c908201526b496e76616c696420726f6c6560a01b604082015260600190565b6020808252600d908201526c496e76616c6964207469746c6560981b604082015260600190565b6020808252601490820152732ab9b2b9103237b2b9903737ba1032bc34b9ba1760611b604082015260600190565b60208082526047908201527f496e76616c6964206163636573732063726564656e7469616c732e20506c656160408201527f736520636f6e7461637420796f757220686f73706974616c2061646d696e69736060820152663a3930ba37b91760c91b608082015260a00190565b60208082526018908201527f5573657220616c726561647920726567697374657265642e0000000000000000604082015260600190565b6020808252601690820152752237b1ba37b9103237b2b9903737ba1032bc34b9ba1760511b604082015260600190565b6020808252602a908201527f43616e206f6e6c7920707265736372696265206d656469636174696f6e20746f604082015269103830ba34b2b73a399760b11b606082015260800190565b60208082526023908201527f416363657373207265737472696374656420746f2070617469656e7473206f6e604082015262363c9760e91b606082015260800190565b60208082526017908201527f5573657220697320616c7265616479206163746976652e000000000000000000604082015260600190565b90815260200190565b600088825260e06020830152613e2a60e0830189613699565b8281036040840152613e3c8189613699565b90508281036060840152613e508188613699565b6001600160a01b03969096166080840152505060a081019290925260c090910152949350505050565b600082821015613e8b57613e8b613ee6565b500390565b600281046001821680613ea457607f821691505b60208210811415613ec557634e487b7160e01b600052602260045260246000fd5b50919050565b6000600019821415613edf57613edf613ee6565b5060010190565b634e487b7160e01b600052601160045260246000fd5b634e487b7160e01b600052602160045260246000fd5b634e487b7160e01b600052604160045260246000fdfea2646970667358221220fea06ddb60601d33326399bb6b90102cf28096338f4ced0a7b5a3e19a972baf964736f6c63430008000033",
					"opcodes": "PUSH1 0x80 PUSH1 0x40 MSTORE CALLVALUE DUP1 ISZERO PUSH2 0x10 JUMPI PUSH1 0x0 DUP1 REVERT JUMPDEST POP PUSH1 0x0 DUP1 SLOAD PUSH1 0x1 PUSH1 0x1 PUSH1 0xA0 SHL SUB NOT AND CALLER OR SWAP1 SSTORE PUSH2 0x3F5E DUP1 PUSH2 0x32 PUSH1 0x0 CODECOPY PUSH1 0x0 RETURN INVALID PUSH1 0x80 PUSH1 0x40 MSTORE CALLVALUE DUP1 ISZERO PUSH2 0x10 JUMPI PUSH1 0x0 DUP1 REVERT JUMPDEST POP PUSH1 0x4 CALLDATASIZE LT PUSH2 0x100 JUMPI PUSH1 0x0 CALLDATALOAD PUSH1 0xE0 SHR DUP1 PUSH4 0x8A462E1A GT PUSH2 0x97 JUMPI DUP1 PUSH4 0xB4ACFE1C GT PUSH2 0x66 JUMPI DUP1 PUSH4 0xB4ACFE1C EQ PUSH2 0x22E JUMPI DUP1 PUSH4 0xE2842D79 EQ PUSH2 0x241 JUMPI DUP1 PUSH4 0xF9DB3982 EQ PUSH2 0x249 JUMPI DUP1 PUSH4 0xFF5D32FE EQ PUSH2 0x25E JUMPI PUSH2 0x100 JUMP JUMPDEST DUP1 PUSH4 0x8A462E1A EQ PUSH2 0x1D1 JUMPI DUP1 PUSH4 0x9057C82B EQ PUSH2 0x1F1 JUMPI DUP1 PUSH4 0x988559F5 EQ PUSH2 0x206 JUMPI DUP1 PUSH4 0xA4A1E263 EQ PUSH2 0x219 JUMPI PUSH2 0x100 JUMP JUMPDEST DUP1 PUSH4 0x1ECD6563 GT PUSH2 0xD3 JUMPI DUP1 PUSH4 0x1ECD6563 EQ PUSH2 0x15E JUMPI DUP1 PUSH4 0x3B5761D5 EQ PUSH2 0x185 JUMPI DUP1 PUSH4 0x5C60F226 EQ PUSH2 0x198 JUMPI DUP1 PUSH4 0x6386C1C7 EQ PUSH2 0x1AB JUMPI PUSH2 0x100 JUMP JUMPDEST DUP1 PUSH4 0x94289D6 EQ PUSH2 0x105 JUMPI DUP1 PUSH4 0xACFD58E EQ PUSH2 0x11A JUMPI DUP1 PUSH4 0x163301F9 EQ PUSH2 0x12D JUMPI DUP1 PUSH4 0x1A47767B EQ PUSH2 0x14B JUMPI JUMPDEST PUSH1 0x0 DUP1 REVERT JUMPDEST PUSH2 0x118 PUSH2 0x113 CALLDATASIZE PUSH1 0x4 PUSH2 0x34CB JUMP JUMPDEST PUSH2 0x271 JUMP JUMPDEST STOP JUMPDEST PUSH2 0x118 PUSH2 0x128 CALLDATASIZE PUSH1 0x4 PUSH2 0x34A2 JUMP JUMPDEST PUSH2 0x4EC JUMP JUMPDEST PUSH2 0x135 PUSH2 0x671 JUMP JUMPDEST PUSH1 0x40 MLOAD PUSH2 0x142 SWAP2 SWAP1 PUSH2 0x3807 JUMP JUMPDEST PUSH1 0x40 MLOAD DUP1 SWAP2 SUB SWAP1 RETURN JUMPDEST PUSH2 0x118 PUSH2 0x159 CALLDATASIZE PUSH1 0x4 PUSH2 0x3410 JUMP JUMPDEST PUSH2 0xAE5 JUMP JUMPDEST PUSH2 0x171 PUSH2 0x16C CALLDATASIZE PUSH1 0x4 PUSH2 0x3410 JUMP JUMPDEST PUSH2 0xC1F JUMP JUMPDEST PUSH1 0x40 MLOAD PUSH2 0x142 SWAP9 SWAP8 SWAP7 SWAP6 SWAP5 SWAP4 SWAP3 SWAP2 SWAP1 PUSH2 0x39C2 JUMP JUMPDEST PUSH2 0x118 PUSH2 0x193 CALLDATASIZE PUSH1 0x4 PUSH2 0x3431 JUMP JUMPDEST PUSH2 0xE15 JUMP JUMPDEST PUSH2 0x118 PUSH2 0x1A6 CALLDATASIZE PUSH1 0x4 PUSH2 0x3410 JUMP JUMPDEST PUSH2 0x115C JUMP JUMPDEST PUSH2 0x1BE PUSH2 0x1B9 CALLDATASIZE PUSH1 0x4 PUSH2 0x3410 JUMP JUMPDEST PUSH2 0x1458 JUMP JUMPDEST PUSH1 0x40 MLOAD PUSH2 0x142 SWAP8 SWAP7 SWAP6 SWAP5 SWAP4 SWAP3 SWAP2 SWAP1 PUSH2 0x3E11 JUMP JUMPDEST PUSH2 0x1E4 PUSH2 0x1DF CALLDATASIZE PUSH1 0x4 PUSH2 0x3410 JUMP JUMPDEST PUSH2 0x1717 JUMP JUMPDEST PUSH1 0x40 MLOAD PUSH2 0x142 SWAP2 SWAP1 PUSH2 0x38A0 JUMP JUMPDEST PUSH2 0x1F9 PUSH2 0x1A92 JUMP JUMPDEST PUSH1 0x40 MLOAD PUSH2 0x142 SWAP2 SWAP1 PUSH2 0x38B3 JUMP JUMPDEST PUSH2 0x1E4 PUSH2 0x214 CALLDATASIZE PUSH1 0x4 PUSH2 0x3410 JUMP JUMPDEST PUSH2 0x22FB JUMP JUMPDEST PUSH2 0x221 PUSH2 0x28EF JUMP JUMPDEST PUSH1 0x40 MLOAD PUSH2 0x142 SWAP2 SWAP1 PUSH2 0x3E08 JUMP JUMPDEST PUSH2 0x118 PUSH2 0x23C CALLDATASIZE PUSH1 0x4 PUSH2 0x3410 JUMP JUMPDEST PUSH2 0x28F5 JUMP JUMPDEST PUSH2 0x1F9 PUSH2 0x2A21 JUMP JUMPDEST PUSH2 0x251 PUSH2 0x30BC JUMP JUMPDEST PUSH1 0x40 MLOAD PUSH2 0x142 SWAP2 SWAP1 PUSH2 0x37F3 JUMP JUMPDEST PUSH2 0x1BE PUSH2 0x26C CALLDATASIZE PUSH1 0x4 PUSH2 0x3572 JUMP JUMPDEST PUSH2 0x30CB JUMP JUMPDEST PUSH1 0x0 SLOAD PUSH1 0x1 PUSH1 0x1 PUSH1 0xA0 SHL SUB AND CALLER EQ PUSH2 0x2A4 JUMPI PUSH1 0x40 MLOAD PUSH3 0x461BCD PUSH1 0xE5 SHL DUP2 MSTORE PUSH1 0x4 ADD PUSH2 0x29B SWAP1 PUSH2 0x3C70 JUMP JUMPDEST PUSH1 0x40 MLOAD DUP1 SWAP2 SUB SWAP1 REVERT JUMPDEST PUSH1 0x1 PUSH1 0x1 PUSH1 0xA0 SHL SUB DUP7 AND PUSH1 0x0 SWAP1 DUP2 MSTORE PUSH1 0x1 PUSH1 0x20 MSTORE PUSH1 0x40 SWAP1 KECCAK256 PUSH1 0x4 ADD SLOAD PUSH1 0x1 PUSH1 0xB0 SHL SWAP1 DIV PUSH1 0xFF AND ISZERO PUSH2 0x2E7 JUMPI PUSH1 0x40 MLOAD PUSH3 0x461BCD PUSH1 0xE5 SHL DUP2 MSTORE PUSH1 0x4 ADD PUSH2 0x29B SWAP1 PUSH2 0x3CDD JUMP JUMPDEST PUSH1 0x3 DUP6 GT ISZERO PUSH2 0x308 JUMPI PUSH1 0x40 MLOAD PUSH3 0x461BCD PUSH1 0xE5 SHL DUP2 MSTORE PUSH1 0x4 ADD PUSH2 0x29B SWAP1 PUSH2 0x3C1B JUMP JUMPDEST PUSH1 0x2 DUP2 GT ISZERO PUSH2 0x329 JUMPI PUSH1 0x40 MLOAD PUSH3 0x461BCD PUSH1 0xE5 SHL DUP2 MSTORE PUSH1 0x4 ADD PUSH2 0x29B SWAP1 PUSH2 0x3BF5 JUMP JUMPDEST PUSH1 0x1 PUSH1 0x1 PUSH1 0xA0 SHL SUB DUP7 AND PUSH1 0x0 SWAP1 DUP2 MSTORE PUSH1 0x1 PUSH1 0x20 MSTORE PUSH1 0x40 SWAP1 KECCAK256 DUP6 PUSH1 0x3 DUP2 GT ISZERO PUSH2 0x361 JUMPI PUSH4 0x4E487B71 PUSH1 0xE0 SHL PUSH1 0x0 MSTORE PUSH1 0x21 PUSH1 0x4 MSTORE PUSH1 0x24 PUSH1 0x0 REVERT JUMPDEST DUP2 SLOAD DUP3 SWAP1 PUSH1 0xFF NOT AND PUSH1 0x1 DUP4 PUSH1 0x3 DUP2 GT ISZERO PUSH2 0x38B JUMPI PUSH4 0x4E487B71 PUSH1 0xE0 SHL PUSH1 0x0 MSTORE PUSH1 0x21 PUSH1 0x4 MSTORE PUSH1 0x24 PUSH1 0x0 REVERT JUMPDEST MUL OR SWAP1 SSTORE POP DUP5 MLOAD PUSH2 0x3A5 SWAP1 PUSH1 0x1 DUP4 ADD SWAP1 PUSH1 0x20 DUP9 ADD SWAP1 PUSH2 0x3150 JUMP JUMPDEST POP DUP4 MLOAD PUSH2 0x3BB SWAP1 PUSH1 0x2 DUP4 ADD SWAP1 PUSH1 0x20 DUP8 ADD SWAP1 PUSH2 0x3150 JUMP JUMPDEST POP DUP3 MLOAD PUSH2 0x3D1 SWAP1 PUSH1 0x3 DUP4 ADD SWAP1 PUSH1 0x20 DUP7 ADD SWAP1 PUSH2 0x3150 JUMP JUMPDEST POP PUSH1 0x4 DUP2 ADD DUP1 SLOAD PUSH1 0x1 PUSH1 0x1 PUSH1 0xA0 SHL SUB NOT AND PUSH1 0x1 PUSH1 0x1 PUSH1 0xA0 SHL SUB DUP10 AND OR SWAP1 SSTORE DUP2 PUSH1 0x2 DUP2 GT ISZERO PUSH2 0x40F JUMPI PUSH4 0x4E487B71 PUSH1 0xE0 SHL PUSH1 0x0 MSTORE PUSH1 0x21 PUSH1 0x4 MSTORE PUSH1 0x24 PUSH1 0x0 REVERT JUMPDEST PUSH1 0x4 DUP3 ADD DUP1 SLOAD PUSH1 0xFF PUSH1 0xA0 SHL NOT AND PUSH1 0x1 PUSH1 0xA0 SHL DUP4 PUSH1 0x2 DUP2 GT ISZERO PUSH2 0x441 JUMPI PUSH4 0x4E487B71 PUSH1 0xE0 SHL PUSH1 0x0 MSTORE PUSH1 0x21 PUSH1 0x4 MSTORE PUSH1 0x24 PUSH1 0x0 REVERT JUMPDEST MUL OR SWAP1 SSTORE POP PUSH1 0x4 DUP2 ADD DUP1 SLOAD PUSH2 0xFFFF PUSH1 0xA8 SHL NOT AND PUSH1 0x1 PUSH1 0xB0 SHL OR SWAP1 SSTORE PUSH1 0x2 DUP1 SLOAD PUSH1 0x1 DUP2 ADD DUP3 SSTORE PUSH1 0x0 SWAP2 SWAP1 SWAP2 MSTORE PUSH32 0x405787FA12A823E0F2B7631CC41B3BA8828B3321CA811111FA75CD3AA3BB5ACE ADD DUP1 SLOAD PUSH1 0x1 PUSH1 0x1 PUSH1 0xA0 SHL SUB DUP10 AND PUSH1 0x1 PUSH1 0x1 PUSH1 0xA0 SHL SUB NOT SWAP1 SWAP2 AND DUP2 OR SWAP1 SWAP2 SSTORE PUSH1 0x40 MLOAD PUSH32 0x48CAC28AD4DC618E15F4C2DD5E97751182F166DE97B25618318B2112AA951A2F SWAP1 PUSH2 0x4DB SWAP1 DUP9 SWAP1 PUSH2 0x3A4D JUMP JUMPDEST PUSH1 0x40 MLOAD DUP1 SWAP2 SUB SWAP1 LOG2 POP POP POP POP POP POP POP JUMP JUMPDEST PUSH1 0x0 SLOAD PUSH1 0x1 PUSH1 0x1 PUSH1 0xA0 SHL SUB AND CALLER EQ PUSH2 0x516 JUMPI PUSH1 0x40 MLOAD PUSH3 0x461BCD PUSH1 0xE5 SHL DUP2 MSTORE PUSH1 0x4 ADD PUSH2 0x29B SWAP1 PUSH2 0x3C70 JUMP JUMPDEST PUSH1 0x1 PUSH1 0x1 PUSH1 0xA0 SHL SUB DUP3 AND PUSH1 0x0 SWAP1 DUP2 MSTORE PUSH1 0x1 PUSH1 0x20 MSTORE PUSH1 0x40 SWAP1 KECCAK256 PUSH1 0x4 ADD SLOAD PUSH1 0x1 PUSH1 0xB0 SHL SWAP1 DIV PUSH1 0xFF AND PUSH2 0x558 JUMPI PUSH1 0x40 MLOAD PUSH3 0x461BCD PUSH1 0xE5 SHL DUP2 MSTORE PUSH1 0x4 ADD PUSH2 0x29B SWAP1 PUSH2 0x3C42 JUMP JUMPDEST PUSH1 0x2 DUP2 GT ISZERO PUSH2 0x579 JUMPI PUSH1 0x40 MLOAD PUSH3 0x461BCD PUSH1 0xE5 SHL DUP2 MSTORE PUSH1 0x4 ADD PUSH2 0x29B SWAP1 PUSH2 0x3BF5 JUMP JUMPDEST DUP1 PUSH1 0x2 DUP2 GT ISZERO PUSH2 0x599 JUMPI PUSH4 0x4E487B71 PUSH1 0xE0 SHL PUSH1 0x0 MSTORE PUSH1 0x21 PUSH1 0x4 MSTORE PUSH1 0x24 PUSH1 0x0 REVERT JUMPDEST PUSH1 0x1 PUSH1 0x1 PUSH1 0xA0 SHL SUB DUP4 AND PUSH1 0x0 SWAP1 DUP2 MSTORE PUSH1 0x1 PUSH1 0x20 MSTORE PUSH1 0x40 SWAP1 KECCAK256 PUSH1 0x4 ADD DUP1 SLOAD PUSH1 0xFF PUSH1 0xA0 SHL NOT AND PUSH1 0x1 PUSH1 0xA0 SHL DUP4 PUSH1 0x2 DUP2 GT ISZERO PUSH2 0x5E2 JUMPI PUSH4 0x4E487B71 PUSH1 0xE0 SHL PUSH1 0x0 MSTORE PUSH1 0x21 PUSH1 0x4 MSTORE PUSH1 0x24 PUSH1 0x0 REVERT JUMPDEST MUL OR SWAP1 SSTORE POP PUSH1 0x1 PUSH1 0x1 PUSH1 0xA0 SHL SUB DUP3 AND PUSH1 0x0 DUP2 DUP2 MSTORE PUSH1 0x1 PUSH1 0x20 DUP2 SWAP1 MSTORE PUSH1 0x40 SWAP1 SWAP2 KECCAK256 PUSH1 0x4 DUP2 ADD SLOAD PUSH32 0xCAFB1DB9B8C52CB0A968881F29A2AF39B69BA3538422ED833C1D3BDC14792C2F SWAP3 SWAP2 SWAP1 SWAP2 ADD SWAP1 PUSH1 0x1 PUSH1 0xA0 SHL SWAP1 DIV PUSH1 0xFF AND PUSH1 0x2 DUP2 GT ISZERO PUSH2 0x657 JUMPI PUSH4 0x4E487B71 PUSH1 0xE0 SHL PUSH1 0x0 MSTORE PUSH1 0x21 PUSH1 0x4 MSTORE PUSH1 0x24 PUSH1 0x0 REVERT JUMPDEST PUSH1 0x40 MLOAD PUSH2 0x665 SWAP3 SWAP2 SWAP1 PUSH2 0x3A73 JUMP JUMPDEST PUSH1 0x40 MLOAD DUP1 SWAP2 SUB SWAP1 LOG2 POP POP JUMP JUMPDEST CALLER PUSH1 0x0 SWAP1 DUP2 MSTORE PUSH1 0x1 PUSH1 0x20 MSTORE PUSH1 0x40 SWAP1 KECCAK256 PUSH1 0x4 ADD SLOAD PUSH1 0x60 SWAP1 PUSH1 0x1 PUSH1 0xB0 SHL SWAP1 DIV PUSH1 0xFF AND PUSH2 0x6AD JUMPI PUSH1 0x40 MLOAD PUSH3 0x461BCD PUSH1 0xE5 SHL DUP2 MSTORE PUSH1 0x4 ADD PUSH2 0x29B SWAP1 PUSH2 0x3C42 JUMP JUMPDEST PUSH1 0x1 CALLER PUSH1 0x0 SWAP1 DUP2 MSTORE PUSH1 0x1 PUSH1 0x20 MSTORE PUSH1 0x40 SWAP1 KECCAK256 PUSH1 0x4 ADD SLOAD PUSH1 0x1 PUSH1 0xA0 SHL SWAP1 DIV PUSH1 0xFF AND PUSH1 0x2 DUP2 GT ISZERO PUSH2 0x6EB JUMPI PUSH4 0x4E487B71 PUSH1 0xE0 SHL PUSH1 0x0 MSTORE PUSH1 0x21 PUSH1 0x4 MSTORE PUSH1 0x24 PUSH1 0x0 REVERT JUMPDEST EQ PUSH2 0x708 JUMPI PUSH1 0x40 MLOAD PUSH3 0x461BCD PUSH1 0xE5 SHL DUP2 MSTORE PUSH1 0x4 ADD PUSH2 0x29B SWAP1 PUSH2 0x3D8E JUMP JUMPDEST CALLER PUSH1 0x0 SWAP1 DUP2 MSTORE PUSH1 0x1 PUSH1 0x20 MSTORE PUSH1 0x40 SWAP1 KECCAK256 PUSH1 0x4 ADD SLOAD PUSH1 0x1 PUSH1 0xB0 SHL SWAP1 DIV PUSH1 0xFF AND PUSH2 0x741 JUMPI PUSH1 0x40 MLOAD PUSH3 0x461BCD PUSH1 0xE5 SHL DUP2 MSTORE PUSH1 0x4 ADD PUSH2 0x29B SWAP1 PUSH2 0x3A95 JUMP JUMPDEST CALLER PUSH1 0x0 SWAP1 DUP2 MSTORE PUSH1 0x1 PUSH1 0x20 MSTORE PUSH1 0x40 DUP2 KECCAK256 PUSH1 0x5 ADD SLOAD SWAP1 DUP2 PUSH8 0xFFFFFFFFFFFFFFFF DUP2 GT ISZERO PUSH2 0x77C JUMPI PUSH4 0x4E487B71 PUSH1 0xE0 SHL PUSH1 0x0 MSTORE PUSH1 0x41 PUSH1 0x4 MSTORE PUSH1 0x24 PUSH1 0x0 REVERT JUMPDEST PUSH1 0x40 MLOAD SWAP1 DUP1 DUP3 MSTORE DUP1 PUSH1 0x20 MUL PUSH1 0x20 ADD DUP3 ADD PUSH1 0x40 MSTORE DUP1 ISZERO PUSH2 0x7B5 JUMPI DUP2 PUSH1 0x20 ADD JUMPDEST PUSH2 0x7A2 PUSH2 0x31D4 JUMP JUMPDEST DUP2 MSTORE PUSH1 0x20 ADD SWAP1 PUSH1 0x1 SWAP1 SUB SWAP1 DUP2 PUSH2 0x79A JUMPI SWAP1 POP JUMPDEST POP SWAP1 POP PUSH1 0x0 JUMPDEST DUP3 DUP2 LT ISZERO PUSH2 0xADE JUMPI CALLER PUSH1 0x0 SWAP1 DUP2 MSTORE PUSH1 0x1 PUSH1 0x20 MSTORE PUSH1 0x40 DUP2 KECCAK256 PUSH1 0x5 ADD DUP1 SLOAD DUP4 SWAP1 DUP2 LT PUSH2 0x7F5 JUMPI PUSH4 0x4E487B71 PUSH1 0xE0 SHL PUSH1 0x0 MSTORE PUSH1 0x32 PUSH1 0x4 MSTORE PUSH1 0x24 PUSH1 0x0 REVERT JUMPDEST PUSH1 0x0 SWAP2 DUP3 MSTORE PUSH1 0x20 SWAP2 DUP3 SWAP1 KECCAK256 PUSH1 0x40 DUP1 MLOAD PUSH1 0xA0 DUP2 ADD SWAP1 SWAP2 MSTORE PUSH1 0x5 SWAP1 SWAP3 MUL ADD DUP1 SLOAD PUSH1 0x1 PUSH1 0x1 PUSH1 0xA0 SHL SUB AND DUP3 MSTORE PUSH1 0x1 DUP2 ADD DUP1 SLOAD SWAP3 SWAP4 SWAP2 SWAP3 SWAP2 DUP5 ADD SWAP2 PUSH2 0x835 SWAP1 PUSH2 0x3E90 JUMP JUMPDEST DUP1 PUSH1 0x1F ADD PUSH1 0x20 DUP1 SWAP2 DIV MUL PUSH1 0x20 ADD PUSH1 0x40 MLOAD SWAP1 DUP2 ADD PUSH1 0x40 MSTORE DUP1 SWAP3 SWAP2 SWAP1 DUP2 DUP2 MSTORE PUSH1 0x20 ADD DUP3 DUP1 SLOAD PUSH2 0x861 SWAP1 PUSH2 0x3E90 JUMP JUMPDEST DUP1 ISZERO PUSH2 0x8AE JUMPI DUP1 PUSH1 0x1F LT PUSH2 0x883 JUMPI PUSH2 0x100 DUP1 DUP4 SLOAD DIV MUL DUP4 MSTORE SWAP2 PUSH1 0x20 ADD SWAP2 PUSH2 0x8AE JUMP JUMPDEST DUP3 ADD SWAP2 SWAP1 PUSH1 0x0 MSTORE PUSH1 0x20 PUSH1 0x0 KECCAK256 SWAP1 JUMPDEST DUP2 SLOAD DUP2 MSTORE SWAP1 PUSH1 0x1 ADD SWAP1 PUSH1 0x20 ADD DUP1 DUP4 GT PUSH2 0x891 JUMPI DUP3 SWAP1 SUB PUSH1 0x1F AND DUP3 ADD SWAP2 JUMPDEST POP POP POP POP POP DUP2 MSTORE PUSH1 0x20 ADD PUSH1 0x2 DUP3 ADD DUP1 SLOAD PUSH2 0x8C7 SWAP1 PUSH2 0x3E90 JUMP JUMPDEST DUP1 PUSH1 0x1F ADD PUSH1 0x20 DUP1 SWAP2 DIV MUL PUSH1 0x20 ADD PUSH1 0x40 MLOAD SWAP1 DUP2 ADD PUSH1 0x40 MSTORE DUP1 SWAP3 SWAP2 SWAP1 DUP2 DUP2 MSTORE PUSH1 0x20 ADD DUP3 DUP1 SLOAD PUSH2 0x8F3 SWAP1 PUSH2 0x3E90 JUMP JUMPDEST DUP1 ISZERO PUSH2 0x940 JUMPI DUP1 PUSH1 0x1F LT PUSH2 0x915 JUMPI PUSH2 0x100 DUP1 DUP4 SLOAD DIV MUL DUP4 MSTORE SWAP2 PUSH1 0x20 ADD SWAP2 PUSH2 0x940 JUMP JUMPDEST DUP3 ADD SWAP2 SWAP1 PUSH1 0x0 MSTORE PUSH1 0x20 PUSH1 0x0 KECCAK256 SWAP1 JUMPDEST DUP2 SLOAD DUP2 MSTORE SWAP1 PUSH1 0x1 ADD SWAP1 PUSH1 0x20 ADD DUP1 DUP4 GT PUSH2 0x923 JUMPI DUP3 SWAP1 SUB PUSH1 0x1F AND DUP3 ADD SWAP2 JUMPDEST POP POP POP POP POP DUP2 MSTORE PUSH1 0x20 ADD PUSH1 0x3 DUP3 ADD DUP1 SLOAD PUSH2 0x959 SWAP1 PUSH2 0x3E90 JUMP JUMPDEST DUP1 PUSH1 0x1F ADD PUSH1 0x20 DUP1 SWAP2 DIV MUL PUSH1 0x20 ADD PUSH1 0x40 MLOAD SWAP1 DUP2 ADD PUSH1 0x40 MSTORE DUP1 SWAP3 SWAP2 SWAP1 DUP2 DUP2 MSTORE PUSH1 0x20 ADD DUP3 DUP1 SLOAD PUSH2 0x985 SWAP1 PUSH2 0x3E90 JUMP JUMPDEST DUP1 ISZERO PUSH2 0x9D2 JUMPI DUP1 PUSH1 0x1F LT PUSH2 0x9A7 JUMPI PUSH2 0x100 DUP1 DUP4 SLOAD DIV MUL DUP4 MSTORE SWAP2 PUSH1 0x20 ADD SWAP2 PUSH2 0x9D2 JUMP JUMPDEST DUP3 ADD SWAP2 SWAP1 PUSH1 0x0 MSTORE PUSH1 0x20 PUSH1 0x0 KECCAK256 SWAP1 JUMPDEST DUP2 SLOAD DUP2 MSTORE SWAP1 PUSH1 0x1 ADD SWAP1 PUSH1 0x20 ADD DUP1 DUP4 GT PUSH2 0x9B5 JUMPI DUP3 SWAP1 SUB PUSH1 0x1F AND DUP3 ADD SWAP2 JUMPDEST POP POP POP POP POP DUP2 MSTORE PUSH1 0x20 ADD PUSH1 0x4 DUP3 ADD DUP1 SLOAD PUSH2 0x9EB SWAP1 PUSH2 0x3E90 JUMP JUMPDEST DUP1 PUSH1 0x1F ADD PUSH1 0x20 DUP1 SWAP2 DIV MUL PUSH1 0x20 ADD PUSH1 0x40 MLOAD SWAP1 DUP2 ADD PUSH1 0x40 MSTORE DUP1 SWAP3 SWAP2 SWAP1 DUP2 DUP2 MSTORE PUSH1 0x20 ADD DUP3 DUP1 SLOAD PUSH2 0xA17 SWAP1 PUSH2 0x3E90 JUMP JUMPDEST DUP1 ISZERO PUSH2 0xA64 JUMPI DUP1 PUSH1 0x1F LT PUSH2 0xA39 JUMPI PUSH2 0x100 DUP1 DUP4 SLOAD DIV MUL DUP4 MSTORE SWAP2 PUSH1 0x20 ADD SWAP2 PUSH2 0xA64 JUMP JUMPDEST DUP3 ADD SWAP2 SWAP1 PUSH1 0x0 MSTORE PUSH1 0x20 PUSH1 0x0 KECCAK256 SWAP1 JUMPDEST DUP2 SLOAD DUP2 MSTORE SWAP1 PUSH1 0x1 ADD SWAP1 PUSH1 0x20 ADD DUP1 DUP4 GT PUSH2 0xA47 JUMPI DUP3 SWAP1 SUB PUSH1 0x1F AND DUP3 ADD SWAP2 JUMPDEST POP POP POP POP POP DUP2 MSTORE POP POP SWAP1 POP PUSH1 0x40 MLOAD DUP1 PUSH1 0x60 ADD PUSH1 0x40 MSTORE DUP1 DUP3 PUSH1 0x0 ADD MLOAD PUSH1 0x1 PUSH1 0x1 PUSH1 0xA0 SHL SUB AND DUP2 MSTORE PUSH1 0x20 ADD DUP3 PUSH1 0x20 ADD MLOAD DUP2 MSTORE PUSH1 0x20 ADD DUP3 PUSH1 0x40 ADD MLOAD DUP2 MSTORE POP DUP4 DUP4 DUP2 MLOAD DUP2 LT PUSH2 0xABF JUMPI PUSH4 0x4E487B71 PUSH1 0xE0 SHL PUSH1 0x0 MSTORE PUSH1 0x32 PUSH1 0x4 MSTORE PUSH1 0x24 PUSH1 0x0 REVERT JUMPDEST PUSH1 0x20 MUL PUSH1 0x20 ADD ADD DUP2 SWAP1 MSTORE POP POP DUP1 DUP1 PUSH2 0xAD6 SWAP1 PUSH2 0x3ECB JUMP JUMPDEST SWAP2 POP POP PUSH2 0x7BB JUMP JUMPDEST POP SWAP2 POP POP SWAP1 JUMP JUMPDEST PUSH1 0x0 SLOAD PUSH1 0x1 PUSH1 0x1 PUSH1 0xA0 SHL SUB AND CALLER EQ PUSH2 0xB0F JUMPI PUSH1 0x40 MLOAD PUSH3 0x461BCD PUSH1 0xE5 SHL DUP2 MSTORE PUSH1 0x4 ADD PUSH2 0x29B SWAP1 PUSH2 0x3C70 JUMP JUMPDEST PUSH1 0x1 PUSH1 0x1 PUSH1 0xA0 SHL SUB DUP2 AND PUSH1 0x0 SWAP1 DUP2 MSTORE PUSH1 0x1 PUSH1 0x20 MSTORE PUSH1 0x40 SWAP1 KECCAK256 PUSH1 0x4 ADD SLOAD PUSH1 0x1 PUSH1 0xB0 SHL SWAP1 DIV PUSH1 0xFF AND PUSH2 0xB51 JUMPI PUSH1 0x40 MLOAD PUSH3 0x461BCD PUSH1 0xE5 SHL DUP2 MSTORE PUSH1 0x4 ADD PUSH2 0x29B SWAP1 PUSH2 0x3C42 JUMP JUMPDEST PUSH1 0x1 PUSH1 0x1 PUSH1 0xA0 SHL SUB DUP2 AND PUSH1 0x0 SWAP1 DUP2 MSTORE PUSH1 0x1 PUSH1 0x20 DUP2 SWAP1 MSTORE PUSH1 0x40 DUP3 KECCAK256 PUSH1 0x4 ADD SLOAD PUSH1 0x1 PUSH1 0xA8 SHL SWAP1 DIV PUSH1 0xFF AND SWAP1 DUP2 GT ISZERO PUSH2 0xB97 JUMPI PUSH4 0x4E487B71 PUSH1 0xE0 SHL PUSH1 0x0 MSTORE PUSH1 0x21 PUSH1 0x4 MSTORE PUSH1 0x24 PUSH1 0x0 REVERT JUMPDEST EQ PUSH2 0xBB4 JUMPI PUSH1 0x40 MLOAD PUSH3 0x461BCD PUSH1 0xE5 SHL DUP2 MSTORE PUSH1 0x4 ADD PUSH2 0x29B SWAP1 PUSH2 0x3B60 JUMP JUMPDEST PUSH1 0x1 PUSH1 0x1 PUSH1 0xA0 SHL SUB DUP2 AND PUSH1 0x0 DUP2 DUP2 MSTORE PUSH1 0x1 PUSH1 0x20 DUP2 SWAP1 MSTORE PUSH1 0x40 SWAP2 DUP3 SWAP1 KECCAK256 PUSH1 0x4 DUP2 ADD DUP1 SLOAD PUSH1 0xFF PUSH1 0xA8 SHL NOT AND PUSH1 0x1 PUSH1 0xA8 SHL OR SWAP1 SSTORE SWAP2 MLOAD PUSH32 0x70E56BA67D3BA524C013E12FF9E91B873414F09F9C31C5365AFCF94B1E28424 SWAP3 PUSH2 0xC14 SWAP3 ADD SWAP1 PUSH2 0x3A60 JUMP JUMPDEST PUSH1 0x40 MLOAD DUP1 SWAP2 SUB SWAP1 LOG2 POP JUMP JUMPDEST PUSH1 0x1 PUSH1 0x20 DUP2 SWAP1 MSTORE PUSH1 0x0 SWAP2 DUP3 MSTORE PUSH1 0x40 SWAP1 SWAP2 KECCAK256 DUP1 SLOAD SWAP2 DUP2 ADD DUP1 SLOAD PUSH1 0xFF SWAP1 SWAP4 AND SWAP3 PUSH2 0xC46 SWAP1 PUSH2 0x3E90 JUMP JUMPDEST DUP1 PUSH1 0x1F ADD PUSH1 0x20 DUP1 SWAP2 DIV MUL PUSH1 0x20 ADD PUSH1 0x40 MLOAD SWAP1 DUP2 ADD PUSH1 0x40 MSTORE DUP1 SWAP3 SWAP2 SWAP1 DUP2 DUP2 MSTORE PUSH1 0x20 ADD DUP3 DUP1 SLOAD PUSH2 0xC72 SWAP1 PUSH2 0x3E90 JUMP JUMPDEST DUP1 ISZERO PUSH2 0xCBF JUMPI DUP1 PUSH1 0x1F LT PUSH2 0xC94 JUMPI PUSH2 0x100 DUP1 DUP4 SLOAD DIV MUL DUP4 MSTORE SWAP2 PUSH1 0x20 ADD SWAP2 PUSH2 0xCBF JUMP JUMPDEST DUP3 ADD SWAP2 SWAP1 PUSH1 0x0 MSTORE PUSH1 0x20 PUSH1 0x0 KECCAK256 SWAP1 JUMPDEST DUP2 SLOAD DUP2 MSTORE SWAP1 PUSH1 0x1 ADD SWAP1 PUSH1 0x20 ADD DUP1 DUP4 GT PUSH2 0xCA2 JUMPI DUP3 SWAP1 SUB PUSH1 0x1F AND DUP3 ADD SWAP2 JUMPDEST POP POP POP POP POP SWAP1 DUP1 PUSH1 0x2 ADD DUP1 SLOAD PUSH2 0xCD4 SWAP1 PUSH2 0x3E90 JUMP JUMPDEST DUP1 PUSH1 0x1F ADD PUSH1 0x20 DUP1 SWAP2 DIV MUL PUSH1 0x20 ADD PUSH1 0x40 MLOAD SWAP1 DUP2 ADD PUSH1 0x40 MSTORE DUP1 SWAP3 SWAP2 SWAP1 DUP2 DUP2 MSTORE PUSH1 0x20 ADD DUP3 DUP1 SLOAD PUSH2 0xD00 SWAP1 PUSH2 0x3E90 JUMP JUMPDEST DUP1 ISZERO PUSH2 0xD4D JUMPI DUP1 PUSH1 0x1F LT PUSH2 0xD22 JUMPI PUSH2 0x100 DUP1 DUP4 SLOAD DIV MUL DUP4 MSTORE SWAP2 PUSH1 0x20 ADD SWAP2 PUSH2 0xD4D JUMP JUMPDEST DUP3 ADD SWAP2 SWAP1 PUSH1 0x0 MSTORE PUSH1 0x20 PUSH1 0x0 KECCAK256 SWAP1 JUMPDEST DUP2 SLOAD DUP2 MSTORE SWAP1 PUSH1 0x1 ADD SWAP1 PUSH1 0x20 ADD DUP1 DUP4 GT PUSH2 0xD30 JUMPI DUP3 SWAP1 SUB PUSH1 0x1F AND DUP3 ADD SWAP2 JUMPDEST POP POP POP POP POP SWAP1 DUP1 PUSH1 0x3 ADD DUP1 SLOAD PUSH2 0xD62 SWAP1 PUSH2 0x3E90 JUMP JUMPDEST DUP1 PUSH1 0x1F ADD PUSH1 0x20 DUP1 SWAP2 DIV MUL PUSH1 0x20 ADD PUSH1 0x40 MLOAD SWAP1 DUP2 ADD PUSH1 0x40 MSTORE DUP1 SWAP3 SWAP2 SWAP1 DUP2 DUP2 MSTORE PUSH1 0x20 ADD DUP3 DUP1 SLOAD PUSH2 0xD8E SWAP1 PUSH2 0x3E90 JUMP JUMPDEST DUP1 ISZERO PUSH2 0xDDB JUMPI DUP1 PUSH1 0x1F LT PUSH2 0xDB0 JUMPI PUSH2 0x100 DUP1 DUP4 SLOAD DIV MUL DUP4 MSTORE SWAP2 PUSH1 0x20 ADD SWAP2 PUSH2 0xDDB JUMP JUMPDEST DUP3 ADD SWAP2 SWAP1 PUSH1 0x0 MSTORE PUSH1 0x20 PUSH1 0x0 KECCAK256 SWAP1 JUMPDEST DUP2 SLOAD DUP2 MSTORE SWAP1 PUSH1 0x1 ADD SWAP1 PUSH1 0x20 ADD DUP1 DUP4 GT PUSH2 0xDBE JUMPI DUP3 SWAP1 SUB PUSH1 0x1F AND DUP3 ADD SWAP2 JUMPDEST POP POP POP PUSH1 0x4 SWAP1 SWAP4 ADD SLOAD SWAP2 SWAP3 POP POP PUSH1 0x1 PUSH1 0x1 PUSH1 0xA0 SHL SUB DUP2 AND SWAP1 PUSH1 0xFF PUSH1 0x1 PUSH1 0xA0 SHL DUP3 DIV DUP2 AND SWAP2 PUSH1 0x1 PUSH1 0xA8 SHL DUP2 DIV DUP3 AND SWAP2 PUSH1 0x1 PUSH1 0xB0 SHL SWAP1 SWAP2 DIV AND DUP9 JUMP JUMPDEST CALLER PUSH1 0x0 SWAP1 DUP2 MSTORE PUSH1 0x1 PUSH1 0x20 MSTORE PUSH1 0x40 SWAP1 KECCAK256 PUSH1 0x4 ADD SLOAD PUSH1 0x1 PUSH1 0xB0 SHL SWAP1 DIV PUSH1 0xFF AND PUSH2 0xE4E JUMPI PUSH1 0x40 MLOAD PUSH3 0x461BCD PUSH1 0xE5 SHL DUP2 MSTORE PUSH1 0x4 ADD PUSH2 0x29B SWAP1 PUSH2 0x3C42 JUMP JUMPDEST PUSH1 0x0 CALLER PUSH1 0x0 SWAP1 DUP2 MSTORE PUSH1 0x1 PUSH1 0x20 MSTORE PUSH1 0x40 SWAP1 KECCAK256 PUSH1 0x4 ADD SLOAD PUSH1 0x1 PUSH1 0xA0 SHL SWAP1 DIV PUSH1 0xFF AND PUSH1 0x2 DUP2 GT ISZERO PUSH2 0xE8C JUMPI PUSH4 0x4E487B71 PUSH1 0xE0 SHL PUSH1 0x0 MSTORE PUSH1 0x21 PUSH1 0x4 MSTORE PUSH1 0x24 PUSH1 0x0 REVERT JUMPDEST EQ PUSH2 0xEA9 JUMPI PUSH1 0x40 MLOAD PUSH3 0x461BCD PUSH1 0xE5 SHL DUP2 MSTORE PUSH1 0x4 ADD PUSH2 0x29B SWAP1 PUSH2 0x3B1E JUMP JUMPDEST PUSH1 0x1 PUSH1 0x1 PUSH1 0xA0 SHL SUB DUP4 AND PUSH1 0x0 SWAP1 DUP2 MSTORE PUSH1 0x1 PUSH1 0x20 MSTORE PUSH1 0x40 SWAP1 KECCAK256 PUSH1 0x4 ADD SLOAD PUSH1 0x1 PUSH1 0xB0 SHL SWAP1 DIV PUSH1 0xFF AND PUSH2 0xEEB JUMPI PUSH1 0x40 MLOAD PUSH3 0x461BCD PUSH1 0xE5 SHL DUP2 MSTORE PUSH1 0x4 ADD PUSH2 0x29B SWAP1 PUSH2 0x3A95 JUMP JUMPDEST PUSH1 0x1 PUSH1 0x1 PUSH1 0x1 PUSH1 0xA0 SHL SUB DUP5 AND PUSH1 0x0 SWAP1 DUP2 MSTORE PUSH1 0x1 PUSH1 0x20 MSTORE PUSH1 0x40 SWAP1 KECCAK256 PUSH1 0x4 ADD SLOAD PUSH1 0x1 PUSH1 0xA0 SHL SWAP1 DIV PUSH1 0xFF AND PUSH1 0x2 DUP2 GT ISZERO PUSH2 0xF32 JUMPI PUSH4 0x4E487B71 PUSH1 0xE0 SHL PUSH1 0x0 MSTORE PUSH1 0x21 PUSH1 0x4 MSTORE PUSH1 0x24 PUSH1 0x0 REVERT JUMPDEST EQ PUSH2 0xF4F JUMPI PUSH1 0x40 MLOAD PUSH3 0x461BCD PUSH1 0xE5 SHL DUP2 MSTORE PUSH1 0x4 ADD PUSH2 0x29B SWAP1 PUSH2 0x3D44 JUMP JUMPDEST CALLER PUSH1 0x0 SWAP1 DUP2 MSTORE PUSH1 0x1 PUSH1 0x20 DUP2 DUP2 MSTORE PUSH1 0x40 DUP1 DUP5 KECCAK256 SWAP1 MLOAD PUSH2 0xF76 SWAP4 DUP3 ADD SWAP3 PUSH1 0x2 SWAP1 SWAP3 ADD SWAP2 ADD PUSH2 0x37CA JUMP JUMPDEST PUSH1 0x40 DUP1 MLOAD PUSH1 0x1F NOT DUP2 DUP5 SUB ADD DUP2 MSTORE PUSH1 0x1 PUSH1 0x1 PUSH1 0xA0 SHL SUB DUP8 AND PUSH1 0x0 SWAP1 DUP2 MSTORE PUSH1 0x1 PUSH1 0x20 DUP2 DUP2 MSTORE DUP5 DUP4 KECCAK256 PUSH1 0xA0 DUP8 ADD DUP7 MSTORE CALLER DUP1 DUP9 MSTORE DUP8 DUP4 ADD DUP7 SWAP1 MSTORE DUP5 MSTORE SWAP2 SWAP1 MSTORE SWAP1 DUP4 SWAP1 KECCAK256 PUSH1 0x3 ADD DUP1 SLOAD SWAP3 SWAP6 POP PUSH1 0x5 SWAP1 SWAP2 ADD SWAP4 SWAP3 DUP4 ADD SWAP2 PUSH2 0xFD0 SWAP1 PUSH2 0x3E90 JUMP JUMPDEST DUP1 PUSH1 0x1F ADD PUSH1 0x20 DUP1 SWAP2 DIV MUL PUSH1 0x20 ADD PUSH1 0x40 MLOAD SWAP1 DUP2 ADD PUSH1 0x40 MSTORE DUP1 SWAP3 SWAP2 SWAP1 DUP2 DUP2 MSTORE PUSH1 0x20 ADD DUP3 DUP1 SLOAD PUSH2 0xFFC SWAP1 PUSH2 0x3E90 JUMP JUMPDEST DUP1 ISZERO PUSH2 0x1049 JUMPI DUP1 PUSH1 0x1F LT PUSH2 0x101E JUMPI PUSH2 0x100 DUP1 DUP4 SLOAD DIV MUL DUP4 MSTORE SWAP2 PUSH1 0x20 ADD SWAP2 PUSH2 0x1049 JUMP JUMPDEST DUP3 ADD SWAP2 SWAP1 PUSH1 0x0 MSTORE PUSH1 0x20 PUSH1 0x0 KECCAK256 SWAP1 JUMPDEST DUP2 SLOAD DUP2 MSTORE SWAP1 PUSH1 0x1 ADD SWAP1 PUSH1 0x20 ADD DUP1 DUP4 GT PUSH2 0x102C JUMPI DUP3 SWAP1 SUB PUSH1 0x1F AND DUP3 ADD SWAP2 JUMPDEST POP POP POP SWAP2 DUP4 MSTORE POP POP PUSH1 0x20 DUP1 DUP3 ADD DUP8 SWAP1 MSTORE PUSH1 0x40 SWAP1 SWAP2 ADD DUP6 SWAP1 MSTORE DUP3 SLOAD PUSH1 0x1 DUP1 DUP3 ADD DUP6 SSTORE PUSH1 0x0 SWAP5 DUP6 MSTORE SWAP4 DUP3 SWAP1 KECCAK256 DUP4 MLOAD PUSH1 0x5 SWAP1 SWAP3 MUL ADD DUP1 SLOAD PUSH1 0x1 PUSH1 0x1 PUSH1 0xA0 SHL SUB NOT AND PUSH1 0x1 PUSH1 0x1 PUSH1 0xA0 SHL SUB SWAP1 SWAP3 AND SWAP2 SWAP1 SWAP2 OR DUP2 SSTORE DUP3 DUP3 ADD MLOAD DUP1 MLOAD SWAP4 SWAP5 SWAP2 SWAP4 PUSH2 0x10B4 SWAP4 SWAP3 DUP6 ADD SWAP3 SWAP2 SWAP1 SWAP2 ADD SWAP1 PUSH2 0x3150 JUMP JUMPDEST POP PUSH1 0x40 DUP3 ADD MLOAD DUP1 MLOAD PUSH2 0x10D0 SWAP2 PUSH1 0x2 DUP5 ADD SWAP2 PUSH1 0x20 SWAP1 SWAP2 ADD SWAP1 PUSH2 0x3150 JUMP JUMPDEST POP PUSH1 0x60 DUP3 ADD MLOAD DUP1 MLOAD PUSH2 0x10EC SWAP2 PUSH1 0x3 DUP5 ADD SWAP2 PUSH1 0x20 SWAP1 SWAP2 ADD SWAP1 PUSH2 0x3150 JUMP JUMPDEST POP PUSH1 0x80 DUP3 ADD MLOAD DUP1 MLOAD PUSH2 0x1108 SWAP2 PUSH1 0x4 DUP5 ADD SWAP2 PUSH1 0x20 SWAP1 SWAP2 ADD SWAP1 PUSH2 0x3150 JUMP JUMPDEST POP POP POP DUP4 PUSH1 0x1 PUSH1 0x1 PUSH1 0xA0 SHL SUB AND CALLER PUSH1 0x1 PUSH1 0x1 PUSH1 0xA0 SHL SUB AND PUSH32 0x349C187A0459596EA8356279C33B8D579810659BFCF9831C05C58E30CC1031D3 DUP6 PUSH1 0x40 MLOAD PUSH2 0x114E SWAP2 SWAP1 PUSH2 0x3A4D JUMP JUMPDEST PUSH1 0x40 MLOAD DUP1 SWAP2 SUB SWAP1 LOG3 POP POP POP POP JUMP JUMPDEST PUSH1 0x0 SLOAD PUSH1 0x1 PUSH1 0x1 PUSH1 0xA0 SHL SUB AND CALLER EQ PUSH2 0x1186 JUMPI PUSH1 0x40 MLOAD PUSH3 0x461BCD PUSH1 0xE5 SHL DUP2 MSTORE PUSH1 0x4 ADD PUSH2 0x29B SWAP1 PUSH2 0x3C70 JUMP JUMPDEST PUSH1 0x1 PUSH1 0x1 PUSH1 0xA0 SHL SUB DUP2 AND PUSH1 0x0 SWAP1 DUP2 MSTORE PUSH1 0x1 PUSH1 0x20 MSTORE PUSH1 0x40 SWAP1 KECCAK256 PUSH1 0x4 ADD SLOAD PUSH1 0x1 PUSH1 0xB0 SHL SWAP1 DIV PUSH1 0xFF AND PUSH2 0x11C8 JUMPI PUSH1 0x40 MLOAD PUSH3 0x461BCD PUSH1 0xE5 SHL DUP2 MSTORE PUSH1 0x4 ADD PUSH2 0x29B SWAP1 PUSH2 0x3C42 JUMP JUMPDEST PUSH1 0x1 PUSH1 0x1 PUSH1 0xA0 SHL SUB DUP2 AND PUSH1 0x0 SWAP1 DUP2 MSTORE PUSH1 0x1 PUSH1 0x20 DUP2 SWAP1 MSTORE PUSH1 0x40 DUP3 KECCAK256 ADD DUP1 SLOAD PUSH2 0x11EE SWAP1 PUSH2 0x3E90 JUMP JUMPDEST DUP1 PUSH1 0x1F ADD PUSH1 0x20 DUP1 SWAP2 DIV MUL PUSH1 0x20 ADD PUSH1 0x40 MLOAD SWAP1 DUP2 ADD PUSH1 0x40 MSTORE DUP1 SWAP3 SWAP2 SWAP1 DUP2 DUP2 MSTORE PUSH1 0x20 ADD DUP3 DUP1 SLOAD PUSH2 0x121A SWAP1 PUSH2 0x3E90 JUMP JUMPDEST DUP1 ISZERO PUSH2 0x1267 JUMPI DUP1 PUSH1 0x1F LT PUSH2 0x123C JUMPI PUSH2 0x100 DUP1 DUP4 SLOAD DIV MUL DUP4 MSTORE SWAP2 PUSH1 0x20 ADD SWAP2 PUSH2 0x1267 JUMP JUMPDEST DUP3 ADD SWAP2 SWAP1 PUSH1 0x0 MSTORE PUSH1 0x20 PUSH1 0x0 KECCAK256 SWAP1 JUMPDEST DUP2 SLOAD DUP2 MSTORE SWAP1 PUSH1 0x1 ADD SWAP1 PUSH1 0x20 ADD DUP1 DUP4 GT PUSH2 0x124A JUMPI DUP3 SWAP1 SUB PUSH1 0x1F AND DUP3 ADD SWAP2 JUMPDEST POP POP POP PUSH1 0x1 PUSH1 0x1 PUSH1 0xA0 SHL SUB DUP6 AND PUSH1 0x0 SWAP1 DUP2 MSTORE PUSH1 0x1 PUSH1 0x20 DUP2 SWAP1 MSTORE PUSH1 0x40 DUP3 KECCAK256 DUP1 SLOAD PUSH1 0xFF NOT AND DUP2 SSTORE SWAP5 SWAP6 POP SWAP1 SWAP3 POP PUSH2 0x129F SWAP2 POP DUP4 ADD DUP3 PUSH2 0x31FE JUMP JUMPDEST PUSH2 0x12AD PUSH1 0x2 DUP4 ADD PUSH1 0x0 PUSH2 0x31FE JUMP JUMPDEST PUSH2 0x12BB PUSH1 0x3 DUP4 ADD PUSH1 0x0 PUSH2 0x31FE JUMP JUMPDEST PUSH1 0x4 DUP3 ADD DUP1 SLOAD PUSH1 0x1 PUSH1 0x1 PUSH1 0xB8 SHL SUB NOT AND SWAP1 SSTORE PUSH2 0x12DB PUSH1 0x5 DUP4 ADD PUSH1 0x0 PUSH2 0x323D JUMP JUMPDEST POP POP PUSH1 0x0 JUMPDEST PUSH1 0x2 SLOAD DUP2 LT ISZERO PUSH2 0x141E JUMPI DUP3 PUSH1 0x1 PUSH1 0x1 PUSH1 0xA0 SHL SUB AND PUSH1 0x2 DUP3 DUP2 SLOAD DUP2 LT PUSH2 0x1315 JUMPI PUSH4 0x4E487B71 PUSH1 0xE0 SHL PUSH1 0x0 MSTORE PUSH1 0x32 PUSH1 0x4 MSTORE PUSH1 0x24 PUSH1 0x0 REVERT JUMPDEST PUSH1 0x0 SWAP2 DUP3 MSTORE PUSH1 0x20 SWAP1 SWAP2 KECCAK256 ADD SLOAD PUSH1 0x1 PUSH1 0x1 PUSH1 0xA0 SHL SUB AND EQ ISZERO PUSH2 0x140C JUMPI PUSH1 0x2 DUP1 SLOAD PUSH2 0x1340 SWAP1 PUSH1 0x1 SWAP1 PUSH2 0x3E79 JUMP JUMPDEST DUP2 SLOAD DUP2 LT PUSH2 0x135E JUMPI PUSH4 0x4E487B71 PUSH1 0xE0 SHL PUSH1 0x0 MSTORE PUSH1 0x32 PUSH1 0x4 MSTORE PUSH1 0x24 PUSH1 0x0 REVERT JUMPDEST PUSH1 0x0 SWAP2 DUP3 MSTORE PUSH1 0x20 SWAP1 SWAP2 KECCAK256 ADD SLOAD PUSH1 0x2 DUP1 SLOAD PUSH1 0x1 PUSH1 0x1 PUSH1 0xA0 SHL SUB SWAP1 SWAP3 AND SWAP2 DUP4 SWAP1 DUP2 LT PUSH2 0x1398 JUMPI PUSH4 0x4E487B71 PUSH1 0xE0 SHL PUSH1 0x0 MSTORE PUSH1 0x32 PUSH1 0x4 MSTORE PUSH1 0x24 PUSH1 0x0 REVERT JUMPDEST SWAP1 PUSH1 0x0 MSTORE PUSH1 0x20 PUSH1 0x0 KECCAK256 ADD PUSH1 0x0 PUSH2 0x100 EXP DUP2 SLOAD DUP2 PUSH1 0x1 PUSH1 0x1 PUSH1 0xA0 SHL SUB MUL NOT AND SWAP1 DUP4 PUSH1 0x1 PUSH1 0x1 PUSH1 0xA0 SHL SUB AND MUL OR SWAP1 SSTORE POP PUSH1 0x2 DUP1 SLOAD DUP1 PUSH2 0x13E5 JUMPI PUSH4 0x4E487B71 PUSH1 0xE0 SHL PUSH1 0x0 MSTORE PUSH1 0x31 PUSH1 0x4 MSTORE PUSH1 0x24 PUSH1 0x0 REVERT JUMPDEST PUSH1 0x0 DUP3 DUP2 MSTORE PUSH1 0x20 SWAP1 KECCAK256 DUP2 ADD PUSH1 0x0 NOT SWAP1 DUP2 ADD DUP1 SLOAD PUSH1 0x1 PUSH1 0x1 PUSH1 0xA0 SHL SUB NOT AND SWAP1 SSTORE ADD SWAP1 SSTORE PUSH2 0x141E JUMP JUMPDEST DUP1 PUSH2 0x1416 DUP2 PUSH2 0x3ECB JUMP JUMPDEST SWAP2 POP POP PUSH2 0x12E0 JUMP JUMPDEST POP DUP2 PUSH1 0x1 PUSH1 0x1 PUSH1 0xA0 SHL SUB AND PUSH32 0x32B931FEA2D04014124DFDEBBCFF93ED4B64527A35AF5D25C75A1A79B2F5B3BF DUP3 PUSH1 0x40 MLOAD PUSH2 0x665 SWAP2 SWAP1 PUSH2 0x3A4D JUMP JUMPDEST PUSH1 0x1 PUSH1 0x1 PUSH1 0xA0 SHL SUB DUP2 AND PUSH1 0x0 SWAP1 DUP2 MSTORE PUSH1 0x1 PUSH1 0x20 MSTORE PUSH1 0x40 DUP2 KECCAK256 PUSH1 0x4 ADD SLOAD PUSH1 0x60 SWAP1 DUP2 SWAP1 DUP2 SWAP1 DUP5 SWAP1 DUP2 SWAP1 DUP2 SWAP1 PUSH1 0x1 PUSH1 0xB0 SHL SWAP1 DIV PUSH1 0xFF AND PUSH2 0x14A7 JUMPI PUSH1 0x40 MLOAD PUSH3 0x461BCD PUSH1 0xE5 SHL DUP2 MSTORE PUSH1 0x4 ADD PUSH2 0x29B SWAP1 PUSH2 0x3C42 JUMP JUMPDEST PUSH1 0x1 PUSH1 0x1 PUSH1 0xA0 SHL SUB DUP9 AND PUSH1 0x0 SWAP1 DUP2 MSTORE PUSH1 0x1 PUSH1 0x20 MSTORE PUSH1 0x40 SWAP1 KECCAK256 DUP1 SLOAD PUSH1 0xFF AND PUSH1 0x3 DUP2 GT ISZERO PUSH2 0x14E3 JUMPI PUSH4 0x4E487B71 PUSH1 0xE0 SHL PUSH1 0x0 MSTORE PUSH1 0x21 PUSH1 0x4 MSTORE PUSH1 0x24 PUSH1 0x0 REVERT JUMPDEST PUSH1 0x4 DUP3 ADD SLOAD PUSH1 0x1 DUP4 ADD SWAP1 PUSH1 0x2 DUP1 DUP6 ADD SWAP2 PUSH1 0x3 DUP7 ADD SWAP2 PUSH1 0x1 PUSH1 0x1 PUSH1 0xA0 SHL SUB DUP3 AND SWAP2 PUSH1 0x1 PUSH1 0xA0 SHL SWAP1 DIV PUSH1 0xFF AND SWAP1 DUP2 GT ISZERO PUSH2 0x152B JUMPI PUSH4 0x4E487B71 PUSH1 0xE0 SHL PUSH1 0x0 MSTORE PUSH1 0x21 PUSH1 0x4 MSTORE PUSH1 0x24 PUSH1 0x0 REVERT JUMPDEST PUSH1 0x4 DUP8 ADD SLOAD PUSH1 0x1 PUSH1 0xA8 SHL SWAP1 DIV PUSH1 0xFF AND PUSH1 0x1 DUP2 GT ISZERO PUSH2 0x1559 JUMPI PUSH4 0x4E487B71 PUSH1 0xE0 SHL PUSH1 0x0 MSTORE PUSH1 0x21 PUSH1 0x4 MSTORE PUSH1 0x24 PUSH1 0x0 REVERT JUMPDEST DUP6 DUP1 SLOAD PUSH2 0x1565 SWAP1 PUSH2 0x3E90 JUMP JUMPDEST DUP1 PUSH1 0x1F ADD PUSH1 0x20 DUP1 SWAP2 DIV MUL PUSH1 0x20 ADD PUSH1 0x40 MLOAD SWAP1 DUP2 ADD PUSH1 0x40 MSTORE DUP1 SWAP3 SWAP2 SWAP1 DUP2 DUP2 MSTORE PUSH1 0x20 ADD DUP3 DUP1 SLOAD PUSH2 0x1591 SWAP1 PUSH2 0x3E90 JUMP JUMPDEST DUP1 ISZERO PUSH2 0x15DE JUMPI DUP1 PUSH1 0x1F LT PUSH2 0x15B3 JUMPI PUSH2 0x100 DUP1 DUP4 SLOAD DIV MUL DUP4 MSTORE SWAP2 PUSH1 0x20 ADD SWAP2 PUSH2 0x15DE JUMP JUMPDEST DUP3 ADD SWAP2 SWAP1 PUSH1 0x0 MSTORE PUSH1 0x20 PUSH1 0x0 KECCAK256 SWAP1 JUMPDEST DUP2 SLOAD DUP2 MSTORE SWAP1 PUSH1 0x1 ADD SWAP1 PUSH1 0x20 ADD DUP1 DUP4 GT PUSH2 0x15C1 JUMPI DUP3 SWAP1 SUB PUSH1 0x1F AND DUP3 ADD SWAP2 JUMPDEST POP POP POP POP POP SWAP6 POP DUP5 DUP1 SLOAD PUSH2 0x15F1 SWAP1 PUSH2 0x3E90 JUMP JUMPDEST DUP1 PUSH1 0x1F ADD PUSH1 0x20 DUP1 SWAP2 DIV MUL PUSH1 0x20 ADD PUSH1 0x40 MLOAD SWAP1 DUP2 ADD PUSH1 0x40 MSTORE DUP1 SWAP3 SWAP2 SWAP1 DUP2 DUP2 MSTORE PUSH1 0x20 ADD DUP3 DUP1 SLOAD PUSH2 0x161D SWAP1 PUSH2 0x3E90 JUMP JUMPDEST DUP1 ISZERO PUSH2 0x166A JUMPI DUP1 PUSH1 0x1F LT PUSH2 0x163F JUMPI PUSH2 0x100 DUP1 DUP4 SLOAD DIV MUL DUP4 MSTORE SWAP2 PUSH1 0x20 ADD SWAP2 PUSH2 0x166A JUMP JUMPDEST DUP3 ADD SWAP2 SWAP1 PUSH1 0x0 MSTORE PUSH1 0x20 PUSH1 0x0 KECCAK256 SWAP1 JUMPDEST DUP2 SLOAD DUP2 MSTORE SWAP1 PUSH1 0x1 ADD SWAP1 PUSH1 0x20 ADD DUP1 DUP4 GT PUSH2 0x164D JUMPI DUP3 SWAP1 SUB PUSH1 0x1F AND DUP3 ADD SWAP2 JUMPDEST POP POP POP POP POP SWAP5 POP DUP4 DUP1 SLOAD PUSH2 0x167D SWAP1 PUSH2 0x3E90 JUMP JUMPDEST DUP1 PUSH1 0x1F ADD PUSH1 0x20 DUP1 SWAP2 DIV MUL PUSH1 0x20 ADD PUSH1 0x40 MLOAD SWAP1 DUP2 ADD PUSH1 0x40 MSTORE DUP1 SWAP3 SWAP2 SWAP1 DUP2 DUP2 MSTORE PUSH1 0x20 ADD DUP3 DUP1 SLOAD PUSH2 0x16A9 SWAP1 PUSH2 0x3E90 JUMP JUMPDEST DUP1 ISZERO PUSH2 0x16F6 JUMPI DUP1 PUSH1 0x1F LT PUSH2 0x16CB JUMPI PUSH2 0x100 DUP1 DUP4 SLOAD DIV MUL DUP4 MSTORE SWAP2 PUSH1 0x20 ADD SWAP2 PUSH2 0x16F6 JUMP JUMPDEST DUP3 ADD SWAP2 SWAP1 PUSH1 0x0 MSTORE PUSH1 0x20 PUSH1 0x0 KECCAK256 SWAP1 JUMPDEST DUP2 SLOAD DUP2 MSTORE SWAP1 PUSH1 0x1 ADD SWAP1 PUSH1 0x20 ADD DUP1 DUP4 GT PUSH2 0x16D9 JUMPI DUP3 SWAP1 SUB PUSH1 0x1F AND DUP3 ADD SWAP2 JUMPDEST POP POP POP POP POP SWAP4 POP SWAP8 POP SWAP8 POP SWAP8 POP SWAP8 POP SWAP8 POP SWAP8 POP SWAP8 POP POP SWAP2 SWAP4 SWAP6 SWAP8 SWAP1 SWAP3 SWAP5 SWAP7 POP JUMP JUMPDEST PUSH1 0x1 PUSH1 0x1 PUSH1 0xA0 SHL SUB DUP2 AND PUSH1 0x0 SWAP1 DUP2 MSTORE PUSH1 0x1 PUSH1 0x20 MSTORE PUSH1 0x40 SWAP1 KECCAK256 PUSH1 0x4 ADD SLOAD PUSH1 0x60 SWAP1 PUSH1 0x1 PUSH1 0xB0 SHL SWAP1 DIV PUSH1 0xFF AND PUSH2 0x175C JUMPI PUSH1 0x40 MLOAD PUSH3 0x461BCD PUSH1 0xE5 SHL DUP2 MSTORE PUSH1 0x4 ADD PUSH2 0x29B SWAP1 PUSH2 0x3A95 JUMP JUMPDEST PUSH1 0x1 PUSH1 0x1 PUSH1 0x1 PUSH1 0xA0 SHL SUB DUP4 AND PUSH1 0x0 SWAP1 DUP2 MSTORE PUSH1 0x1 PUSH1 0x20 MSTORE PUSH1 0x40 SWAP1 KECCAK256 PUSH1 0x4 ADD SLOAD PUSH1 0x1 PUSH1 0xA0 SHL SWAP1 DIV PUSH1 0xFF AND PUSH1 0x2 DUP2 GT ISZERO PUSH2 0x17A3 JUMPI PUSH4 0x4E487B71 PUSH1 0xE0 SHL PUSH1 0x0 MSTORE PUSH1 0x21 PUSH1 0x4 MSTORE PUSH1 0x24 PUSH1 0x0 REVERT JUMPDEST EQ PUSH2 0x17C0 JUMPI PUSH1 0x40 MLOAD PUSH3 0x461BCD PUSH1 0xE5 SHL DUP2 MSTORE PUSH1 0x4 ADD PUSH2 0x29B SWAP1 PUSH2 0x3BC5 JUMP JUMPDEST PUSH1 0x1 PUSH1 0x1 PUSH1 0xA0 SHL SUB DUP3 AND PUSH1 0x0 SWAP1 DUP2 MSTORE PUSH1 0x1 PUSH1 0x20 SWAP1 DUP2 MSTORE PUSH1 0x40 DUP1 DUP4 KECCAK256 PUSH1 0x5 ADD DUP1 SLOAD DUP3 MLOAD DUP2 DUP6 MUL DUP2 ADD DUP6 ADD SWAP1 SWAP4 MSTORE DUP1 DUP4 MSTORE SWAP2 SWAP4 SWAP1 SWAP3 DUP5 ADD JUMPDEST DUP3 DUP3 LT ISZERO PUSH2 0x1A86 JUMPI PUSH1 0x0 DUP5 DUP2 MSTORE PUSH1 0x20 SWAP1 DUP2 SWAP1 KECCAK256 PUSH1 0x40 DUP1 MLOAD PUSH1 0xA0 DUP2 ADD SWAP1 SWAP2 MSTORE PUSH1 0x5 DUP6 MUL SWAP1 SWAP2 ADD DUP1 SLOAD PUSH1 0x1 PUSH1 0x1 PUSH1 0xA0 SHL SUB AND DUP3 MSTORE PUSH1 0x1 DUP2 ADD DUP1 SLOAD SWAP3 SWAP4 SWAP2 SWAP3 SWAP2 DUP5 ADD SWAP2 PUSH2 0x183F SWAP1 PUSH2 0x3E90 JUMP JUMPDEST DUP1 PUSH1 0x1F ADD PUSH1 0x20 DUP1 SWAP2 DIV MUL PUSH1 0x20 ADD PUSH1 0x40 MLOAD SWAP1 DUP2 ADD PUSH1 0x40 MSTORE DUP1 SWAP3 SWAP2 SWAP1 DUP2 DUP2 MSTORE PUSH1 0x20 ADD DUP3 DUP1 SLOAD PUSH2 0x186B SWAP1 PUSH2 0x3E90 JUMP JUMPDEST DUP1 ISZERO PUSH2 0x18B8 JUMPI DUP1 PUSH1 0x1F LT PUSH2 0x188D JUMPI PUSH2 0x100 DUP1 DUP4 SLOAD DIV MUL DUP4 MSTORE SWAP2 PUSH1 0x20 ADD SWAP2 PUSH2 0x18B8 JUMP JUMPDEST DUP3 ADD SWAP2 SWAP1 PUSH1 0x0 MSTORE PUSH1 0x20 PUSH1 0x0 KECCAK256 SWAP1 JUMPDEST DUP2 SLOAD DUP2 MSTORE SWAP1 PUSH1 0x1 ADD SWAP1 PUSH1 0x20 ADD DUP1 DUP4 GT PUSH2 0x189B JUMPI DUP3 SWAP1 SUB PUSH1 0x1F AND DUP3 ADD SWAP2 JUMPDEST POP POP POP POP POP DUP2 MSTORE PUSH1 0x20 ADD PUSH1 0x2 DUP3 ADD DUP1 SLOAD PUSH2 0x18D1 SWAP1 PUSH2 0x3E90 JUMP JUMPDEST DUP1 PUSH1 0x1F ADD PUSH1 0x20 DUP1 SWAP2 DIV MUL PUSH1 0x20 ADD PUSH1 0x40 MLOAD SWAP1 DUP2 ADD PUSH1 0x40 MSTORE DUP1 SWAP3 SWAP2 SWAP1 DUP2 DUP2 MSTORE PUSH1 0x20 ADD DUP3 DUP1 SLOAD PUSH2 0x18FD SWAP1 PUSH2 0x3E90 JUMP JUMPDEST DUP1 ISZERO PUSH2 0x194A JUMPI DUP1 PUSH1 0x1F LT PUSH2 0x191F JUMPI PUSH2 0x100 DUP1 DUP4 SLOAD DIV MUL DUP4 MSTORE SWAP2 PUSH1 0x20 ADD SWAP2 PUSH2 0x194A JUMP JUMPDEST DUP3 ADD SWAP2 SWAP1 PUSH1 0x0 MSTORE PUSH1 0x20 PUSH1 0x0 KECCAK256 SWAP1 JUMPDEST DUP2 SLOAD DUP2 MSTORE SWAP1 PUSH1 0x1 ADD SWAP1 PUSH1 0x20 ADD DUP1 DUP4 GT PUSH2 0x192D JUMPI DUP3 SWAP1 SUB PUSH1 0x1F AND DUP3 ADD SWAP2 JUMPDEST POP POP POP POP POP DUP2 MSTORE PUSH1 0x20 ADD PUSH1 0x3 DUP3 ADD DUP1 SLOAD PUSH2 0x1963 SWAP1 PUSH2 0x3E90 JUMP JUMPDEST DUP1 PUSH1 0x1F ADD PUSH1 0x20 DUP1 SWAP2 DIV MUL PUSH1 0x20 ADD PUSH1 0x40 MLOAD SWAP1 DUP2 ADD PUSH1 0x40 MSTORE DUP1 SWAP3 SWAP2 SWAP1 DUP2 DUP2 MSTORE PUSH1 0x20 ADD DUP3 DUP1 SLOAD PUSH2 0x198F SWAP1 PUSH2 0x3E90 JUMP JUMPDEST DUP1 ISZERO PUSH2 0x19DC JUMPI DUP1 PUSH1 0x1F LT PUSH2 0x19B1 JUMPI PUSH2 0x100 DUP1 DUP4 SLOAD DIV MUL DUP4 MSTORE SWAP2 PUSH1 0x20 ADD SWAP2 PUSH2 0x19DC JUMP JUMPDEST DUP3 ADD SWAP2 SWAP1 PUSH1 0x0 MSTORE PUSH1 0x20 PUSH1 0x0 KECCAK256 SWAP1 JUMPDEST DUP2 SLOAD DUP2 MSTORE SWAP1 PUSH1 0x1 ADD SWAP1 PUSH1 0x20 ADD DUP1 DUP4 GT PUSH2 0x19BF JUMPI DUP3 SWAP1 SUB PUSH1 0x1F AND DUP3 ADD SWAP2 JUMPDEST POP POP POP POP POP DUP2 MSTORE PUSH1 0x20 ADD PUSH1 0x4 DUP3 ADD DUP1 SLOAD PUSH2 0x19F5 SWAP1 PUSH2 0x3E90 JUMP JUMPDEST DUP1 PUSH1 0x1F ADD PUSH1 0x20 DUP1 SWAP2 DIV MUL PUSH1 0x20 ADD PUSH1 0x40 MLOAD SWAP1 DUP2 ADD PUSH1 0x40 MSTORE DUP1 SWAP3 SWAP2 SWAP1 DUP2 DUP2 MSTORE PUSH1 0x20 ADD DUP3 DUP1 SLOAD PUSH2 0x1A21 SWAP1 PUSH2 0x3E90 JUMP JUMPDEST DUP1 ISZERO PUSH2 0x1A6E JUMPI DUP1 PUSH1 0x1F LT PUSH2 0x1A43 JUMPI PUSH2 0x100 DUP1 DUP4 SLOAD DIV MUL DUP4 MSTORE SWAP2 PUSH1 0x20 ADD SWAP2 PUSH2 0x1A6E JUMP JUMPDEST DUP3 ADD SWAP2 SWAP1 PUSH1 0x0 MSTORE PUSH1 0x20 PUSH1 0x0 KECCAK256 SWAP1 JUMPDEST DUP2 SLOAD DUP2 MSTORE SWAP1 PUSH1 0x1 ADD SWAP1 PUSH1 0x20 ADD DUP1 DUP4 GT PUSH2 0x1A51 JUMPI DUP3 SWAP1 SUB PUSH1 0x1F AND DUP3 ADD SWAP2 JUMPDEST POP POP POP POP POP DUP2 MSTORE POP POP DUP2 MSTORE PUSH1 0x20 ADD SWAP1 PUSH1 0x1 ADD SWAP1 PUSH2 0x17F6 JUMP JUMPDEST POP POP POP POP SWAP1 POP JUMPDEST SWAP2 SWAP1 POP JUMP JUMPDEST CALLER PUSH1 0x0 SWAP1 DUP2 MSTORE PUSH1 0x1 PUSH1 0x20 MSTORE PUSH1 0x40 SWAP1 KECCAK256 PUSH1 0x4 ADD SLOAD PUSH1 0x60 SWAP1 PUSH1 0x1 PUSH1 0xB0 SHL SWAP1 DIV PUSH1 0xFF AND PUSH2 0x1ACE JUMPI PUSH1 0x40 MLOAD PUSH3 0x461BCD PUSH1 0xE5 SHL DUP2 MSTORE PUSH1 0x4 ADD PUSH2 0x29B SWAP1 PUSH2 0x3C42 JUMP JUMPDEST PUSH1 0x0 CALLER PUSH1 0x0 SWAP1 DUP2 MSTORE PUSH1 0x1 PUSH1 0x20 MSTORE PUSH1 0x40 SWAP1 KECCAK256 PUSH1 0x4 ADD SLOAD PUSH1 0x1 PUSH1 0xA0 SHL SWAP1 DIV PUSH1 0xFF AND PUSH1 0x2 DUP2 GT ISZERO PUSH2 0x1B0C JUMPI PUSH4 0x4E487B71 PUSH1 0xE0 SHL PUSH1 0x0 MSTORE PUSH1 0x21 PUSH1 0x4 MSTORE PUSH1 0x24 PUSH1 0x0 REVERT JUMPDEST EQ PUSH2 0x1B29 JUMPI PUSH1 0x40 MLOAD PUSH3 0x461BCD PUSH1 0xE5 SHL DUP2 MSTORE PUSH1 0x4 ADD PUSH2 0x29B SWAP1 PUSH2 0x3B1E JUMP JUMPDEST PUSH1 0x0 DUP1 JUMPDEST PUSH1 0x2 SLOAD DUP2 LT ISZERO PUSH2 0x1BD5 JUMPI PUSH1 0x1 DUP1 PUSH1 0x0 PUSH1 0x2 DUP5 DUP2 SLOAD DUP2 LT PUSH2 0x1B5D JUMPI PUSH4 0x4E487B71 PUSH1 0xE0 SHL PUSH1 0x0 MSTORE PUSH1 0x32 PUSH1 0x4 MSTORE PUSH1 0x24 PUSH1 0x0 REVERT JUMPDEST PUSH1 0x0 SWAP2 DUP3 MSTORE PUSH1 0x20 DUP1 DUP4 KECCAK256 SWAP1 SWAP2 ADD SLOAD PUSH1 0x1 PUSH1 0x1 PUSH1 0xA0 SHL SUB AND DUP4 MSTORE DUP3 ADD SWAP3 SWAP1 SWAP3 MSTORE PUSH1 0x40 ADD SWAP1 KECCAK256 PUSH1 0x4 ADD SLOAD PUSH1 0xFF PUSH1 0x1 PUSH1 0xA0 SHL SWAP1 SWAP2 DIV AND PUSH1 0x2 DUP2 GT ISZERO PUSH2 0x1BAF JUMPI PUSH4 0x4E487B71 PUSH1 0xE0 SHL PUSH1 0x0 MSTORE PUSH1 0x21 PUSH1 0x4 MSTORE PUSH1 0x24 PUSH1 0x0 REVERT JUMPDEST EQ ISZERO PUSH2 0x1BC3 JUMPI DUP2 PUSH2 0x1BBF DUP2 PUSH2 0x3ECB JUMP JUMPDEST SWAP3 POP POP JUMPDEST DUP1 PUSH2 0x1BCD DUP2 PUSH2 0x3ECB JUMP JUMPDEST SWAP2 POP POP PUSH2 0x1B2D JUMP JUMPDEST POP PUSH1 0x0 DUP2 PUSH8 0xFFFFFFFFFFFFFFFF DUP2 GT ISZERO PUSH2 0x1BFF JUMPI PUSH4 0x4E487B71 PUSH1 0xE0 SHL PUSH1 0x0 MSTORE PUSH1 0x41 PUSH1 0x4 MSTORE PUSH1 0x24 PUSH1 0x0 REVERT JUMPDEST PUSH1 0x40 MLOAD SWAP1 DUP1 DUP3 MSTORE DUP1 PUSH1 0x20 MUL PUSH1 0x20 ADD DUP3 ADD PUSH1 0x40 MSTORE DUP1 ISZERO PUSH2 0x1C38 JUMPI DUP2 PUSH1 0x20 ADD JUMPDEST PUSH2 0x1C25 PUSH2 0x325E JUMP JUMPDEST DUP2 MSTORE PUSH1 0x20 ADD SWAP1 PUSH1 0x1 SWAP1 SUB SWAP1 DUP2 PUSH2 0x1C1D JUMPI SWAP1 POP JUMPDEST POP SWAP1 POP PUSH1 0x0 DUP1 JUMPDEST PUSH1 0x2 SLOAD DUP2 LT ISZERO PUSH2 0x22F2 JUMPI PUSH1 0x1 DUP1 PUSH1 0x0 PUSH1 0x2 DUP5 DUP2 SLOAD DUP2 LT PUSH2 0x1C6F JUMPI PUSH4 0x4E487B71 PUSH1 0xE0 SHL PUSH1 0x0 MSTORE PUSH1 0x32 PUSH1 0x4 MSTORE PUSH1 0x24 PUSH1 0x0 REVERT JUMPDEST PUSH1 0x0 SWAP2 DUP3 MSTORE PUSH1 0x20 DUP1 DUP4 KECCAK256 SWAP1 SWAP2 ADD SLOAD PUSH1 0x1 PUSH1 0x1 PUSH1 0xA0 SHL SUB AND DUP4 MSTORE DUP3 ADD SWAP3 SWAP1 SWAP3 MSTORE PUSH1 0x40 ADD SWAP1 KECCAK256 PUSH1 0x4 ADD SLOAD PUSH1 0xFF PUSH1 0x1 PUSH1 0xA0 SHL SWAP1 SWAP2 DIV AND PUSH1 0x2 DUP2 GT ISZERO PUSH2 0x1CC1 JUMPI PUSH4 0x4E487B71 PUSH1 0xE0 SHL PUSH1 0x0 MSTORE PUSH1 0x21 PUSH1 0x4 MSTORE PUSH1 0x24 PUSH1 0x0 REVERT JUMPDEST EQ ISZERO PUSH2 0x22E0 JUMPI PUSH1 0x1 PUSH1 0x0 PUSH1 0x2 DUP4 DUP2 SLOAD DUP2 LT PUSH2 0x1CEC JUMPI PUSH4 0x4E487B71 PUSH1 0xE0 SHL PUSH1 0x0 MSTORE PUSH1 0x32 PUSH1 0x4 MSTORE PUSH1 0x24 PUSH1 0x0 REVERT JUMPDEST PUSH1 0x0 SWAP2 DUP3 MSTORE PUSH1 0x20 DUP1 DUP4 KECCAK256 SWAP1 SWAP2 ADD SLOAD PUSH1 0x1 PUSH1 0x1 PUSH1 0xA0 SHL SUB AND DUP4 MSTORE DUP3 ADD SWAP3 SWAP1 SWAP3 MSTORE PUSH1 0x40 SWAP1 DUP2 ADD SWAP1 SWAP2 KECCAK256 DUP2 MLOAD PUSH2 0x120 DUP2 ADD SWAP1 SWAP3 MSTORE DUP1 SLOAD DUP3 SWAP1 PUSH1 0xFF AND PUSH1 0x3 DUP2 GT ISZERO PUSH2 0x1D43 JUMPI PUSH4 0x4E487B71 PUSH1 0xE0 SHL PUSH1 0x0 MSTORE PUSH1 0x21 PUSH1 0x4 MSTORE PUSH1 0x24 PUSH1 0x0 REVERT JUMPDEST PUSH1 0x3 DUP2 GT ISZERO PUSH2 0x1D62 JUMPI PUSH4 0x4E487B71 PUSH1 0xE0 SHL PUSH1 0x0 MSTORE PUSH1 0x21 PUSH1 0x4 MSTORE PUSH1 0x24 PUSH1 0x0 REVERT JUMPDEST DUP2 MSTORE PUSH1 0x20 ADD PUSH1 0x1 DUP3 ADD DUP1 SLOAD PUSH2 0x1D76 SWAP1 PUSH2 0x3E90 JUMP JUMPDEST DUP1 PUSH1 0x1F ADD PUSH1 0x20 DUP1 SWAP2 DIV MUL PUSH1 0x20 ADD PUSH1 0x40 MLOAD SWAP1 DUP2 ADD PUSH1 0x40 MSTORE DUP1 SWAP3 SWAP2 SWAP1 DUP2 DUP2 MSTORE PUSH1 0x20 ADD DUP3 DUP1 SLOAD PUSH2 0x1DA2 SWAP1 PUSH2 0x3E90 JUMP JUMPDEST DUP1 ISZERO PUSH2 0x1DEF JUMPI DUP1 PUSH1 0x1F LT PUSH2 0x1DC4 JUMPI PUSH2 0x100 DUP1 DUP4 SLOAD DIV MUL DUP4 MSTORE SWAP2 PUSH1 0x20 ADD SWAP2 PUSH2 0x1DEF JUMP JUMPDEST DUP3 ADD SWAP2 SWAP1 PUSH1 0x0 MSTORE PUSH1 0x20 PUSH1 0x0 KECCAK256 SWAP1 JUMPDEST DUP2 SLOAD DUP2 MSTORE SWAP1 PUSH1 0x1 ADD SWAP1 PUSH1 0x20 ADD DUP1 DUP4 GT PUSH2 0x1DD2 JUMPI DUP3 SWAP1 SUB PUSH1 0x1F AND DUP3 ADD SWAP2 JUMPDEST POP POP POP POP POP DUP2 MSTORE PUSH1 0x20 ADD PUSH1 0x2 DUP3 ADD DUP1 SLOAD PUSH2 0x1E08 SWAP1 PUSH2 0x3E90 JUMP JUMPDEST DUP1 PUSH1 0x1F ADD PUSH1 0x20 DUP1 SWAP2 DIV MUL PUSH1 0x20 ADD PUSH1 0x40 MLOAD SWAP1 DUP2 ADD PUSH1 0x40 MSTORE DUP1 SWAP3 SWAP2 SWAP1 DUP2 DUP2 MSTORE PUSH1 0x20 ADD DUP3 DUP1 SLOAD PUSH2 0x1E34 SWAP1 PUSH2 0x3E90 JUMP JUMPDEST DUP1 ISZERO PUSH2 0x1E81 JUMPI DUP1 PUSH1 0x1F LT PUSH2 0x1E56 JUMPI PUSH2 0x100 DUP1 DUP4 SLOAD DIV MUL DUP4 MSTORE SWAP2 PUSH1 0x20 ADD SWAP2 PUSH2 0x1E81 JUMP JUMPDEST DUP3 ADD SWAP2 SWAP1 PUSH1 0x0 MSTORE PUSH1 0x20 PUSH1 0x0 KECCAK256 SWAP1 JUMPDEST DUP2 SLOAD DUP2 MSTORE SWAP1 PUSH1 0x1 ADD SWAP1 PUSH1 0x20 ADD DUP1 DUP4 GT PUSH2 0x1E64 JUMPI DUP3 SWAP1 SUB PUSH1 0x1F AND DUP3 ADD SWAP2 JUMPDEST POP POP POP POP POP DUP2 MSTORE PUSH1 0x20 ADD PUSH1 0x3 DUP3 ADD DUP1 SLOAD PUSH2 0x1E9A SWAP1 PUSH2 0x3E90 JUMP JUMPDEST DUP1 PUSH1 0x1F ADD PUSH1 0x20 DUP1 SWAP2 DIV MUL PUSH1 0x20 ADD PUSH1 0x40 MLOAD SWAP1 DUP2 ADD PUSH1 0x40 MSTORE DUP1 SWAP3 SWAP2 SWAP1 DUP2 DUP2 MSTORE PUSH1 0x20 ADD DUP3 DUP1 SLOAD PUSH2 0x1EC6 SWAP1 PUSH2 0x3E90 JUMP JUMPDEST DUP1 ISZERO PUSH2 0x1F13 JUMPI DUP1 PUSH1 0x1F LT PUSH2 0x1EE8 JUMPI PUSH2 0x100 DUP1 DUP4 SLOAD DIV MUL DUP4 MSTORE SWAP2 PUSH1 0x20 ADD SWAP2 PUSH2 0x1F13 JUMP JUMPDEST DUP3 ADD SWAP2 SWAP1 PUSH1 0x0 MSTORE PUSH1 0x20 PUSH1 0x0 KECCAK256 SWAP1 JUMPDEST DUP2 SLOAD DUP2 MSTORE SWAP1 PUSH1 0x1 ADD SWAP1 PUSH1 0x20 ADD DUP1 DUP4 GT PUSH2 0x1EF6 JUMPI DUP3 SWAP1 SUB PUSH1 0x1F AND DUP3 ADD SWAP2 JUMPDEST POP POP POP SWAP2 DUP4 MSTORE POP POP PUSH1 0x4 DUP3 ADD SLOAD PUSH1 0x1 PUSH1 0x1 PUSH1 0xA0 SHL SUB DUP2 AND PUSH1 0x20 DUP4 ADD MSTORE PUSH1 0x40 SWAP1 SWAP2 ADD SWAP1 PUSH1 0x1 PUSH1 0xA0 SHL SWAP1 DIV PUSH1 0xFF AND PUSH1 0x2 DUP2 GT ISZERO PUSH2 0x1F5E JUMPI PUSH4 0x4E487B71 PUSH1 0xE0 SHL PUSH1 0x0 MSTORE PUSH1 0x21 PUSH1 0x4 MSTORE PUSH1 0x24 PUSH1 0x0 REVERT JUMPDEST PUSH1 0x2 DUP2 GT ISZERO PUSH2 0x1F7D JUMPI PUSH4 0x4E487B71 PUSH1 0xE0 SHL PUSH1 0x0 MSTORE PUSH1 0x21 PUSH1 0x4 MSTORE PUSH1 0x24 PUSH1 0x0 REVERT JUMPDEST DUP2 MSTORE PUSH1 0x20 ADD PUSH1 0x4 DUP3 ADD PUSH1 0x15 SWAP1 SLOAD SWAP1 PUSH2 0x100 EXP SWAP1 DIV PUSH1 0xFF AND PUSH1 0x1 DUP2 GT ISZERO PUSH2 0x1FB3 JUMPI PUSH4 0x4E487B71 PUSH1 0xE0 SHL PUSH1 0x0 MSTORE PUSH1 0x21 PUSH1 0x4 MSTORE PUSH1 0x24 PUSH1 0x0 REVERT JUMPDEST PUSH1 0x1 DUP2 GT ISZERO PUSH2 0x1FD2 JUMPI PUSH4 0x4E487B71 PUSH1 0xE0 SHL PUSH1 0x0 MSTORE PUSH1 0x21 PUSH1 0x4 MSTORE PUSH1 0x24 PUSH1 0x0 REVERT JUMPDEST DUP2 MSTORE PUSH1 0x4 DUP3 ADD SLOAD PUSH1 0x1 PUSH1 0xB0 SHL SWAP1 DIV PUSH1 0xFF AND ISZERO ISZERO PUSH1 0x20 DUP1 DUP4 ADD SWAP2 SWAP1 SWAP2 MSTORE PUSH1 0x5 DUP4 ADD DUP1 SLOAD PUSH1 0x40 DUP1 MLOAD DUP3 DUP6 MUL DUP2 ADD DUP6 ADD DUP3 MSTORE DUP3 DUP2 MSTORE SWAP5 ADD SWAP4 SWAP3 PUSH1 0x0 SWAP1 DUP5 ADD JUMPDEST DUP3 DUP3 LT ISZERO PUSH2 0x229E JUMPI PUSH1 0x0 DUP5 DUP2 MSTORE PUSH1 0x20 SWAP1 DUP2 SWAP1 KECCAK256 PUSH1 0x40 DUP1 MLOAD PUSH1 0xA0 DUP2 ADD SWAP1 SWAP2 MSTORE PUSH1 0x5 DUP6 MUL SWAP1 SWAP2 ADD DUP1 SLOAD PUSH1 0x1 PUSH1 0x1 PUSH1 0xA0 SHL SUB AND DUP3 MSTORE PUSH1 0x1 DUP2 ADD DUP1 SLOAD SWAP3 SWAP4 SWAP2 SWAP3 SWAP2 DUP5 ADD SWAP2 PUSH2 0x2057 SWAP1 PUSH2 0x3E90 JUMP JUMPDEST DUP1 PUSH1 0x1F ADD PUSH1 0x20 DUP1 SWAP2 DIV MUL PUSH1 0x20 ADD PUSH1 0x40 MLOAD SWAP1 DUP2 ADD PUSH1 0x40 MSTORE DUP1 SWAP3 SWAP2 SWAP1 DUP2 DUP2 MSTORE PUSH1 0x20 ADD DUP3 DUP1 SLOAD PUSH2 0x2083 SWAP1 PUSH2 0x3E90 JUMP JUMPDEST DUP1 ISZERO PUSH2 0x20D0 JUMPI DUP1 PUSH1 0x1F LT PUSH2 0x20A5 JUMPI PUSH2 0x100 DUP1 DUP4 SLOAD DIV MUL DUP4 MSTORE SWAP2 PUSH1 0x20 ADD SWAP2 PUSH2 0x20D0 JUMP JUMPDEST DUP3 ADD SWAP2 SWAP1 PUSH1 0x0 MSTORE PUSH1 0x20 PUSH1 0x0 KECCAK256 SWAP1 JUMPDEST DUP2 SLOAD DUP2 MSTORE SWAP1 PUSH1 0x1 ADD SWAP1 PUSH1 0x20 ADD DUP1 DUP4 GT PUSH2 0x20B3 JUMPI DUP3 SWAP1 SUB PUSH1 0x1F AND DUP3 ADD SWAP2 JUMPDEST POP POP POP POP POP DUP2 MSTORE PUSH1 0x20 ADD PUSH1 0x2 DUP3 ADD DUP1 SLOAD PUSH2 0x20E9 SWAP1 PUSH2 0x3E90 JUMP JUMPDEST DUP1 PUSH1 0x1F ADD PUSH1 0x20 DUP1 SWAP2 DIV MUL PUSH1 0x20 ADD PUSH1 0x40 MLOAD SWAP1 DUP2 ADD PUSH1 0x40 MSTORE DUP1 SWAP3 SWAP2 SWAP1 DUP2 DUP2 MSTORE PUSH1 0x20 ADD DUP3 DUP1 SLOAD PUSH2 0x2115 SWAP1 PUSH2 0x3E90 JUMP JUMPDEST DUP1 ISZERO PUSH2 0x2162 JUMPI DUP1 PUSH1 0x1F LT PUSH2 0x2137 JUMPI PUSH2 0x100 DUP1 DUP4 SLOAD DIV MUL DUP4 MSTORE SWAP2 PUSH1 0x20 ADD SWAP2 PUSH2 0x2162 JUMP JUMPDEST DUP3 ADD SWAP2 SWAP1 PUSH1 0x0 MSTORE PUSH1 0x20 PUSH1 0x0 KECCAK256 SWAP1 JUMPDEST DUP2 SLOAD DUP2 MSTORE SWAP1 PUSH1 0x1 ADD SWAP1 PUSH1 0x20 ADD DUP1 DUP4 GT PUSH2 0x2145 JUMPI DUP3 SWAP1 SUB PUSH1 0x1F AND DUP3 ADD SWAP2 JUMPDEST POP POP POP POP POP DUP2 MSTORE PUSH1 0x20 ADD PUSH1 0x3 DUP3 ADD DUP1 SLOAD PUSH2 0x217B SWAP1 PUSH2 0x3E90 JUMP JUMPDEST DUP1 PUSH1 0x1F ADD PUSH1 0x20 DUP1 SWAP2 DIV MUL PUSH1 0x20 ADD PUSH1 0x40 MLOAD SWAP1 DUP2 ADD PUSH1 0x40 MSTORE DUP1 SWAP3 SWAP2 SWAP1 DUP2 DUP2 MSTORE PUSH1 0x20 ADD DUP3 DUP1 SLOAD PUSH2 0x21A7 SWAP1 PUSH2 0x3E90 JUMP JUMPDEST DUP1 ISZERO PUSH2 0x21F4 JUMPI DUP1 PUSH1 0x1F LT PUSH2 0x21C9 JUMPI PUSH2 0x100 DUP1 DUP4 SLOAD DIV MUL DUP4 MSTORE SWAP2 PUSH1 0x20 ADD SWAP2 PUSH2 0x21F4 JUMP JUMPDEST DUP3 ADD SWAP2 SWAP1 PUSH1 0x0 MSTORE PUSH1 0x20 PUSH1 0x0 KECCAK256 SWAP1 JUMPDEST DUP2 SLOAD DUP2 MSTORE SWAP1 PUSH1 0x1 ADD SWAP1 PUSH1 0x20 ADD DUP1 DUP4 GT PUSH2 0x21D7 JUMPI DUP3 SWAP1 SUB PUSH1 0x1F AND DUP3 ADD SWAP2 JUMPDEST POP POP POP POP POP DUP2 MSTORE PUSH1 0x20 ADD PUSH1 0x4 DUP3 ADD DUP1 SLOAD PUSH2 0x220D SWAP1 PUSH2 0x3E90 JUMP JUMPDEST DUP1 PUSH1 0x1F ADD PUSH1 0x20 DUP1 SWAP2 DIV MUL PUSH1 0x20 ADD PUSH1 0x40 MLOAD SWAP1 DUP2 ADD PUSH1 0x40 MSTORE DUP1 SWAP3 SWAP2 SWAP1 DUP2 DUP2 MSTORE PUSH1 0x20 ADD DUP3 DUP1 SLOAD PUSH2 0x2239 SWAP1 PUSH2 0x3E90 JUMP JUMPDEST DUP1 ISZERO PUSH2 0x2286 JUMPI DUP1 PUSH1 0x1F LT PUSH2 0x225B JUMPI PUSH2 0x100 DUP1 DUP4 SLOAD DIV MUL DUP4 MSTORE SWAP2 PUSH1 0x20 ADD SWAP2 PUSH2 0x2286 JUMP JUMPDEST DUP3 ADD SWAP2 SWAP1 PUSH1 0x0 MSTORE PUSH1 0x20 PUSH1 0x0 KECCAK256 SWAP1 JUMPDEST DUP2 SLOAD DUP2 MSTORE SWAP1 PUSH1 0x1 ADD SWAP1 PUSH1 0x20 ADD DUP1 DUP4 GT PUSH2 0x2269 JUMPI DUP3 SWAP1 SUB PUSH1 0x1F AND DUP3 ADD SWAP2 JUMPDEST POP POP POP POP POP DUP2 MSTORE POP POP DUP2 MSTORE PUSH1 0x20 ADD SWAP1 PUSH1 0x1 ADD SWAP1 PUSH2 0x200E JUMP JUMPDEST POP POP POP POP DUP2 MSTORE POP POP DUP4 DUP4 DUP2 MLOAD DUP2 LT PUSH2 0x22C6 JUMPI PUSH4 0x4E487B71 PUSH1 0xE0 SHL PUSH1 0x0 MSTORE PUSH1 0x32 PUSH1 0x4 MSTORE PUSH1 0x24 PUSH1 0x0 REVERT JUMPDEST PUSH1 0x20 MUL PUSH1 0x20 ADD ADD DUP2 SWAP1 MSTORE POP DUP2 DUP1 PUSH2 0x22DC SWAP1 PUSH2 0x3ECB JUMP JUMPDEST SWAP3 POP POP JUMPDEST DUP1 PUSH2 0x22EA DUP2 PUSH2 0x3ECB JUMP JUMPDEST SWAP2 POP POP PUSH2 0x1C3F JUMP JUMPDEST POP SWAP1 SWAP3 POP POP POP SWAP1 JUMP JUMPDEST CALLER PUSH1 0x0 SWAP1 DUP2 MSTORE PUSH1 0x1 PUSH1 0x20 MSTORE PUSH1 0x40 SWAP1 KECCAK256 PUSH1 0x4 ADD SLOAD PUSH1 0x60 SWAP1 PUSH1 0x1 PUSH1 0xB0 SHL SWAP1 DIV PUSH1 0xFF AND PUSH2 0x2337 JUMPI PUSH1 0x40 MLOAD PUSH3 0x461BCD PUSH1 0xE5 SHL DUP2 MSTORE PUSH1 0x4 ADD PUSH2 0x29B SWAP1 PUSH2 0x3C42 JUMP JUMPDEST PUSH1 0x1 CALLER PUSH1 0x0 SWAP1 DUP2 MSTORE PUSH1 0x1 PUSH1 0x20 MSTORE PUSH1 0x40 SWAP1 KECCAK256 PUSH1 0x4 ADD SLOAD PUSH1 0x1 PUSH1 0xA0 SHL SWAP1 DIV PUSH1 0xFF AND PUSH1 0x2 DUP2 GT ISZERO PUSH2 0x2375 JUMPI PUSH4 0x4E487B71 PUSH1 0xE0 SHL PUSH1 0x0 MSTORE PUSH1 0x21 PUSH1 0x4 MSTORE PUSH1 0x24 PUSH1 0x0 REVERT JUMPDEST EQ PUSH2 0x2392 JUMPI PUSH1 0x40 MLOAD PUSH3 0x461BCD PUSH1 0xE5 SHL DUP2 MSTORE PUSH1 0x4 ADD PUSH2 0x29B SWAP1 PUSH2 0x3D8E JUMP JUMPDEST CALLER PUSH1 0x0 SWAP1 DUP2 MSTORE PUSH1 0x1 PUSH1 0x20 MSTORE PUSH1 0x40 SWAP1 KECCAK256 PUSH1 0x4 ADD SLOAD PUSH1 0x1 PUSH1 0xB0 SHL SWAP1 DIV PUSH1 0xFF AND PUSH2 0x23CB JUMPI PUSH1 0x40 MLOAD PUSH3 0x461BCD PUSH1 0xE5 SHL DUP2 MSTORE PUSH1 0x4 ADD PUSH2 0x29B SWAP1 PUSH2 0x3A95 JUMP JUMPDEST PUSH1 0x1 PUSH1 0x1 PUSH1 0xA0 SHL SUB DUP3 AND PUSH1 0x0 SWAP1 DUP2 MSTORE PUSH1 0x1 PUSH1 0x20 MSTORE PUSH1 0x40 SWAP1 KECCAK256 PUSH1 0x4 ADD SLOAD PUSH1 0x1 PUSH1 0xB0 SHL SWAP1 DIV PUSH1 0xFF AND PUSH2 0x240D JUMPI PUSH1 0x40 MLOAD PUSH3 0x461BCD PUSH1 0xE5 SHL DUP2 MSTORE PUSH1 0x4 ADD PUSH2 0x29B SWAP1 PUSH2 0x3D14 JUMP JUMPDEST PUSH1 0x0 PUSH1 0x1 PUSH1 0x1 PUSH1 0xA0 SHL SUB DUP4 AND PUSH1 0x0 SWAP1 DUP2 MSTORE PUSH1 0x1 PUSH1 0x20 MSTORE PUSH1 0x40 SWAP1 KECCAK256 PUSH1 0x4 ADD SLOAD PUSH1 0x1 PUSH1 0xA0 SHL SWAP1 DIV PUSH1 0xFF AND PUSH1 0x2 DUP2 GT ISZERO PUSH2 0x2454 JUMPI PUSH4 0x4E487B71 PUSH1 0xE0 SHL PUSH1 0x0 MSTORE PUSH1 0x21 PUSH1 0x4 MSTORE PUSH1 0x24 PUSH1 0x0 REVERT JUMPDEST EQ PUSH2 0x2471 JUMPI PUSH1 0x40 MLOAD PUSH3 0x461BCD PUSH1 0xE5 SHL DUP2 MSTORE PUSH1 0x4 ADD PUSH2 0x29B SWAP1 PUSH2 0x3ACC JUMP JUMPDEST PUSH1 0x0 DUP1 JUMPDEST CALLER PUSH1 0x0 SWAP1 DUP2 MSTORE PUSH1 0x1 PUSH1 0x20 MSTORE PUSH1 0x40 SWAP1 KECCAK256 PUSH1 0x5 ADD SLOAD DUP2 LT ISZERO PUSH2 0x250D JUMPI CALLER PUSH1 0x0 SWAP1 DUP2 MSTORE PUSH1 0x1 PUSH1 0x20 MSTORE PUSH1 0x40 SWAP1 KECCAK256 PUSH1 0x5 ADD DUP1 SLOAD PUSH1 0x1 PUSH1 0x1 PUSH1 0xA0 SHL SUB DUP7 AND SWAP2 SWAP1 DUP4 SWAP1 DUP2 LT PUSH2 0x24CD JUMPI PUSH4 0x4E487B71 PUSH1 0xE0 SHL PUSH1 0x0 MSTORE PUSH1 0x32 PUSH1 0x4 MSTORE PUSH1 0x24 PUSH1 0x0 REVERT JUMPDEST PUSH1 0x0 SWAP2 DUP3 MSTORE PUSH1 0x20 SWAP1 SWAP2 KECCAK256 PUSH1 0x5 SWAP1 SWAP2 MUL ADD SLOAD PUSH1 0x1 PUSH1 0x1 PUSH1 0xA0 SHL SUB AND EQ ISZERO PUSH2 0x24FB JUMPI DUP2 PUSH2 0x24F7 DUP2 PUSH2 0x3ECB JUMP JUMPDEST SWAP3 POP POP JUMPDEST DUP1 PUSH2 0x2505 DUP2 PUSH2 0x3ECB JUMP JUMPDEST SWAP2 POP POP PUSH2 0x2475 JUMP JUMPDEST POP PUSH1 0x0 DUP2 PUSH8 0xFFFFFFFFFFFFFFFF DUP2 GT ISZERO PUSH2 0x2537 JUMPI PUSH4 0x4E487B71 PUSH1 0xE0 SHL PUSH1 0x0 MSTORE PUSH1 0x41 PUSH1 0x4 MSTORE PUSH1 0x24 PUSH1 0x0 REVERT JUMPDEST PUSH1 0x40 MLOAD SWAP1 DUP1 DUP3 MSTORE DUP1 PUSH1 0x20 MUL PUSH1 0x20 ADD DUP3 ADD PUSH1 0x40 MSTORE DUP1 ISZERO PUSH2 0x2570 JUMPI DUP2 PUSH1 0x20 ADD JUMPDEST PUSH2 0x255D PUSH2 0x32D3 JUMP JUMPDEST DUP2 MSTORE PUSH1 0x20 ADD SWAP1 PUSH1 0x1 SWAP1 SUB SWAP1 DUP2 PUSH2 0x2555 JUMPI SWAP1 POP JUMPDEST POP SWAP1 POP PUSH1 0x0 DUP1 JUMPDEST CALLER PUSH1 0x0 SWAP1 DUP2 MSTORE PUSH1 0x1 PUSH1 0x20 MSTORE PUSH1 0x40 SWAP1 KECCAK256 PUSH1 0x5 ADD SLOAD DUP2 LT ISZERO PUSH2 0x28E5 JUMPI CALLER PUSH1 0x0 SWAP1 DUP2 MSTORE PUSH1 0x1 PUSH1 0x20 MSTORE PUSH1 0x40 SWAP1 KECCAK256 PUSH1 0x5 ADD DUP1 SLOAD PUSH1 0x1 PUSH1 0x1 PUSH1 0xA0 SHL SUB DUP9 AND SWAP2 SWAP1 DUP4 SWAP1 DUP2 LT PUSH2 0x25CF JUMPI PUSH4 0x4E487B71 PUSH1 0xE0 SHL PUSH1 0x0 MSTORE PUSH1 0x32 PUSH1 0x4 MSTORE PUSH1 0x24 PUSH1 0x0 REVERT JUMPDEST PUSH1 0x0 SWAP2 DUP3 MSTORE PUSH1 0x20 SWAP1 SWAP2 KECCAK256 PUSH1 0x5 SWAP1 SWAP2 MUL ADD SLOAD PUSH1 0x1 PUSH1 0x1 PUSH1 0xA0 SHL SUB AND EQ ISZERO PUSH2 0x28D3 JUMPI CALLER PUSH1 0x0 SWAP1 DUP2 MSTORE PUSH1 0x1 PUSH1 0x20 MSTORE PUSH1 0x40 SWAP1 KECCAK256 PUSH1 0x5 ADD DUP1 SLOAD DUP3 SWAP1 DUP2 LT PUSH2 0x2621 JUMPI PUSH4 0x4E487B71 PUSH1 0xE0 SHL PUSH1 0x0 MSTORE PUSH1 0x32 PUSH1 0x4 MSTORE PUSH1 0x24 PUSH1 0x0 REVERT JUMPDEST PUSH1 0x0 SWAP2 DUP3 MSTORE PUSH1 0x20 SWAP2 DUP3 SWAP1 KECCAK256 PUSH1 0x40 DUP1 MLOAD PUSH1 0xA0 DUP2 ADD SWAP1 SWAP2 MSTORE PUSH1 0x5 SWAP1 SWAP3 MUL ADD DUP1 SLOAD PUSH1 0x1 PUSH1 0x1 PUSH1 0xA0 SHL SUB AND DUP3 MSTORE PUSH1 0x1 DUP2 ADD DUP1 SLOAD SWAP3 SWAP4 SWAP2 SWAP3 SWAP2 DUP5 ADD SWAP2 PUSH2 0x2661 SWAP1 PUSH2 0x3E90 JUMP JUMPDEST DUP1 PUSH1 0x1F ADD PUSH1 0x20 DUP1 SWAP2 DIV MUL PUSH1 0x20 ADD PUSH1 0x40 MLOAD SWAP1 DUP2 ADD PUSH1 0x40 MSTORE DUP1 SWAP3 SWAP2 SWAP1 DUP2 DUP2 MSTORE PUSH1 0x20 ADD DUP3 DUP1 SLOAD PUSH2 0x268D SWAP1 PUSH2 0x3E90 JUMP JUMPDEST DUP1 ISZERO PUSH2 0x26DA JUMPI DUP1 PUSH1 0x1F LT PUSH2 0x26AF JUMPI PUSH2 0x100 DUP1 DUP4 SLOAD DIV MUL DUP4 MSTORE SWAP2 PUSH1 0x20 ADD SWAP2 PUSH2 0x26DA JUMP JUMPDEST DUP3 ADD SWAP2 SWAP1 PUSH1 0x0 MSTORE PUSH1 0x20 PUSH1 0x0 KECCAK256 SWAP1 JUMPDEST DUP2 SLOAD DUP2 MSTORE SWAP1 PUSH1 0x1 ADD SWAP1 PUSH1 0x20 ADD DUP1 DUP4 GT PUSH2 0x26BD JUMPI DUP3 SWAP1 SUB PUSH1 0x1F AND DUP3 ADD SWAP2 JUMPDEST POP POP POP POP POP DUP2 MSTORE PUSH1 0x20 ADD PUSH1 0x2 DUP3 ADD DUP1 SLOAD PUSH2 0x26F3 SWAP1 PUSH2 0x3E90 JUMP JUMPDEST DUP1 PUSH1 0x1F ADD PUSH1 0x20 DUP1 SWAP2 DIV MUL PUSH1 0x20 ADD PUSH1 0x40 MLOAD SWAP1 DUP2 ADD PUSH1 0x40 MSTORE DUP1 SWAP3 SWAP2 SWAP1 DUP2 DUP2 MSTORE PUSH1 0x20 ADD DUP3 DUP1 SLOAD PUSH2 0x271F SWAP1 PUSH2 0x3E90 JUMP JUMPDEST DUP1 ISZERO PUSH2 0x276C JUMPI DUP1 PUSH1 0x1F LT PUSH2 0x2741 JUMPI PUSH2 0x100 DUP1 DUP4 SLOAD DIV MUL DUP4 MSTORE SWAP2 PUSH1 0x20 ADD SWAP2 PUSH2 0x276C JUMP JUMPDEST DUP3 ADD SWAP2 SWAP1 PUSH1 0x0 MSTORE PUSH1 0x20 PUSH1 0x0 KECCAK256 SWAP1 JUMPDEST DUP2 SLOAD DUP2 MSTORE SWAP1 PUSH1 0x1 ADD SWAP1 PUSH1 0x20 ADD DUP1 DUP4 GT PUSH2 0x274F JUMPI DUP3 SWAP1 SUB PUSH1 0x1F AND DUP3 ADD SWAP2 JUMPDEST POP POP POP POP POP DUP2 MSTORE PUSH1 0x20 ADD PUSH1 0x3 DUP3 ADD DUP1 SLOAD PUSH2 0x2785 SWAP1 PUSH2 0x3E90 JUMP JUMPDEST DUP1 PUSH1 0x1F ADD PUSH1 0x20 DUP1 SWAP2 DIV MUL PUSH1 0x20 ADD PUSH1 0x40 MLOAD SWAP1 DUP2 ADD PUSH1 0x40 MSTORE DUP1 SWAP3 SWAP2 SWAP1 DUP2 DUP2 MSTORE PUSH1 0x20 ADD DUP3 DUP1 SLOAD PUSH2 0x27B1 SWAP1 PUSH2 0x3E90 JUMP JUMPDEST DUP1 ISZERO PUSH2 0x27FE JUMPI DUP1 PUSH1 0x1F LT PUSH2 0x27D3 JUMPI PUSH2 0x100 DUP1 DUP4 SLOAD DIV MUL DUP4 MSTORE SWAP2 PUSH1 0x20 ADD SWAP2 PUSH2 0x27FE JUMP JUMPDEST DUP3 ADD SWAP2 SWAP1 PUSH1 0x0 MSTORE PUSH1 0x20 PUSH1 0x0 KECCAK256 SWAP1 JUMPDEST DUP2 SLOAD DUP2 MSTORE SWAP1 PUSH1 0x1 ADD SWAP1 PUSH1 0x20 ADD DUP1 DUP4 GT PUSH2 0x27E1 JUMPI DUP3 SWAP1 SUB PUSH1 0x1F AND DUP3 ADD SWAP2 JUMPDEST POP POP POP POP POP DUP2 MSTORE PUSH1 0x20 ADD PUSH1 0x4 DUP3 ADD DUP1 SLOAD PUSH2 0x2817 SWAP1 PUSH2 0x3E90 JUMP JUMPDEST DUP1 PUSH1 0x1F ADD PUSH1 0x20 DUP1 SWAP2 DIV MUL PUSH1 0x20 ADD PUSH1 0x40 MLOAD SWAP1 DUP2 ADD PUSH1 0x40 MSTORE DUP1 SWAP3 SWAP2 SWAP1 DUP2 DUP2 MSTORE PUSH1 0x20 ADD DUP3 DUP1 SLOAD PUSH2 0x2843 SWAP1 PUSH2 0x3E90 JUMP JUMPDEST DUP1 ISZERO PUSH2 0x2890 JUMPI DUP1 PUSH1 0x1F LT PUSH2 0x2865 JUMPI PUSH2 0x100 DUP1 DUP4 SLOAD DIV MUL DUP4 MSTORE SWAP2 PUSH1 0x20 ADD SWAP2 PUSH2 0x2890 JUMP JUMPDEST DUP3 ADD SWAP2 SWAP1 PUSH1 0x0 MSTORE PUSH1 0x20 PUSH1 0x0 KECCAK256 SWAP1 JUMPDEST DUP2 SLOAD DUP2 MSTORE SWAP1 PUSH1 0x1 ADD SWAP1 PUSH1 0x20 ADD DUP1 DUP4 GT PUSH2 0x2873 JUMPI DUP3 SWAP1 SUB PUSH1 0x1F AND DUP3 ADD SWAP2 JUMPDEST POP POP POP POP POP DUP2 MSTORE POP POP DUP4 DUP4 DUP2 MLOAD DUP2 LT PUSH2 0x28B9 JUMPI PUSH4 0x4E487B71 PUSH1 0xE0 SHL PUSH1 0x0 MSTORE PUSH1 0x32 PUSH1 0x4 MSTORE PUSH1 0x24 PUSH1 0x0 REVERT JUMPDEST PUSH1 0x20 MUL PUSH1 0x20 ADD ADD DUP2 SWAP1 MSTORE POP DUP2 DUP1 PUSH2 0x28CF SWAP1 PUSH2 0x3ECB JUMP JUMPDEST SWAP3 POP POP JUMPDEST DUP1 PUSH2 0x28DD DUP2 PUSH2 0x3ECB JUMP JUMPDEST SWAP2 POP POP PUSH2 0x2577 JUMP JUMPDEST POP SWAP1 SWAP5 SWAP4 POP POP POP POP JUMP JUMPDEST PUSH1 0x2 SLOAD SWAP1 JUMP JUMPDEST PUSH1 0x0 SLOAD PUSH1 0x1 PUSH1 0x1 PUSH1 0xA0 SHL SUB AND CALLER EQ PUSH2 0x291F JUMPI PUSH1 0x40 MLOAD PUSH3 0x461BCD PUSH1 0xE5 SHL DUP2 MSTORE PUSH1 0x4 ADD PUSH2 0x29B SWAP1 PUSH2 0x3C70 JUMP JUMPDEST PUSH1 0x1 PUSH1 0x1 PUSH1 0xA0 SHL SUB DUP2 AND PUSH1 0x0 SWAP1 DUP2 MSTORE PUSH1 0x1 PUSH1 0x20 MSTORE PUSH1 0x40 SWAP1 KECCAK256 PUSH1 0x4 ADD SLOAD PUSH1 0x1 PUSH1 0xB0 SHL SWAP1 DIV PUSH1 0xFF AND PUSH2 0x2961 JUMPI PUSH1 0x40 MLOAD PUSH3 0x461BCD PUSH1 0xE5 SHL DUP2 MSTORE PUSH1 0x4 ADD PUSH2 0x29B SWAP1 PUSH2 0x3C42 JUMP JUMPDEST PUSH1 0x1 PUSH1 0x1 PUSH1 0x1 PUSH1 0xA0 SHL SUB DUP3 AND PUSH1 0x0 SWAP1 DUP2 MSTORE PUSH1 0x1 PUSH1 0x20 DUP2 SWAP1 MSTORE PUSH1 0x40 SWAP1 SWAP2 KECCAK256 PUSH1 0x4 ADD SLOAD PUSH1 0x1 PUSH1 0xA8 SHL SWAP1 DIV PUSH1 0xFF AND SWAP1 DUP2 GT ISZERO PUSH2 0x29AA JUMPI PUSH4 0x4E487B71 PUSH1 0xE0 SHL PUSH1 0x0 MSTORE PUSH1 0x21 PUSH1 0x4 MSTORE PUSH1 0x24 PUSH1 0x0 REVERT JUMPDEST EQ PUSH2 0x29C7 JUMPI PUSH1 0x40 MLOAD PUSH3 0x461BCD PUSH1 0xE5 SHL DUP2 MSTORE PUSH1 0x4 ADD PUSH2 0x29B SWAP1 PUSH2 0x3DD1 JUMP JUMPDEST PUSH1 0x1 PUSH1 0x1 PUSH1 0xA0 SHL SUB DUP2 AND PUSH1 0x0 DUP2 DUP2 MSTORE PUSH1 0x1 PUSH1 0x20 DUP2 SWAP1 MSTORE PUSH1 0x40 SWAP2 DUP3 SWAP1 KECCAK256 PUSH1 0x4 DUP2 ADD DUP1 SLOAD PUSH1 0xFF PUSH1 0xA8 SHL NOT AND SWAP1 SSTORE SWAP2 MLOAD PUSH32 0xA9CA73ED87FF19D7E58BC1934416C2DB88521DFE4376866E9F6A48E2520EBE6F SWAP3 PUSH2 0xC14 SWAP3 ADD SWAP1 PUSH2 0x3A60 JUMP JUMPDEST PUSH1 0x2 SLOAD PUSH1 0x60 SWAP1 PUSH1 0x0 SWAP1 PUSH8 0xFFFFFFFFFFFFFFFF DUP2 GT ISZERO PUSH2 0x2A50 JUMPI PUSH4 0x4E487B71 PUSH1 0xE0 SHL PUSH1 0x0 MSTORE PUSH1 0x41 PUSH1 0x4 MSTORE PUSH1 0x24 PUSH1 0x0 REVERT JUMPDEST PUSH1 0x40 MLOAD SWAP1 DUP1 DUP3 MSTORE DUP1 PUSH1 0x20 MUL PUSH1 0x20 ADD DUP3 ADD PUSH1 0x40 MSTORE DUP1 ISZERO PUSH2 0x2A89 JUMPI DUP2 PUSH1 0x20 ADD JUMPDEST PUSH2 0x2A76 PUSH2 0x325E JUMP JUMPDEST DUP2 MSTORE PUSH1 0x20 ADD SWAP1 PUSH1 0x1 SWAP1 SUB SWAP1 DUP2 PUSH2 0x2A6E JUMPI SWAP1 POP JUMPDEST POP SWAP1 POP PUSH1 0x0 JUMPDEST PUSH1 0x2 SLOAD DUP2 LT ISZERO PUSH2 0x30B6 JUMPI PUSH1 0x1 PUSH1 0x0 PUSH1 0x2 DUP4 DUP2 SLOAD DUP2 LT PUSH2 0x2ABE JUMPI PUSH4 0x4E487B71 PUSH1 0xE0 SHL PUSH1 0x0 MSTORE PUSH1 0x32 PUSH1 0x4 MSTORE PUSH1 0x24 PUSH1 0x0 REVERT JUMPDEST PUSH1 0x0 SWAP2 DUP3 MSTORE PUSH1 0x20 DUP1 DUP4 KECCAK256 SWAP1 SWAP2 ADD SLOAD PUSH1 0x1 PUSH1 0x1 PUSH1 0xA0 SHL SUB AND DUP4 MSTORE DUP3 ADD SWAP3 SWAP1 SWAP3 MSTORE PUSH1 0x40 SWAP1 DUP2 ADD SWAP1 SWAP2 KECCAK256 DUP2 MLOAD PUSH2 0x120 DUP2 ADD SWAP1 SWAP3 MSTORE DUP1 SLOAD DUP3 SWAP1 PUSH1 0xFF AND PUSH1 0x3 DUP2 GT ISZERO PUSH2 0x2B15 JUMPI PUSH4 0x4E487B71 PUSH1 0xE0 SHL PUSH1 0x0 MSTORE PUSH1 0x21 PUSH1 0x4 MSTORE PUSH1 0x24 PUSH1 0x0 REVERT JUMPDEST PUSH1 0x3 DUP2 GT ISZERO PUSH2 0x2B34 JUMPI PUSH4 0x4E487B71 PUSH1 0xE0 SHL PUSH1 0x0 MSTORE PUSH1 0x21 PUSH1 0x4 MSTORE PUSH1 0x24 PUSH1 0x0 REVERT JUMPDEST DUP2 MSTORE PUSH1 0x20 ADD PUSH1 0x1 DUP3 ADD DUP1 SLOAD PUSH2 0x2B48 SWAP1 PUSH2 0x3E90 JUMP JUMPDEST DUP1 PUSH1 0x1F ADD PUSH1 0x20 DUP1 SWAP2 DIV MUL PUSH1 0x20 ADD PUSH1 0x40 MLOAD SWAP1 DUP2 ADD PUSH1 0x40 MSTORE DUP1 SWAP3 SWAP2 SWAP1 DUP2 DUP2 MSTORE PUSH1 0x20 ADD DUP3 DUP1 SLOAD PUSH2 0x2B74 SWAP1 PUSH2 0x3E90 JUMP JUMPDEST DUP1 ISZERO PUSH2 0x2BC1 JUMPI DUP1 PUSH1 0x1F LT PUSH2 0x2B96 JUMPI PUSH2 0x100 DUP1 DUP4 SLOAD DIV MUL DUP4 MSTORE SWAP2 PUSH1 0x20 ADD SWAP2 PUSH2 0x2BC1 JUMP JUMPDEST DUP3 ADD SWAP2 SWAP1 PUSH1 0x0 MSTORE PUSH1 0x20 PUSH1 0x0 KECCAK256 SWAP1 JUMPDEST DUP2 SLOAD DUP2 MSTORE SWAP1 PUSH1 0x1 ADD SWAP1 PUSH1 0x20 ADD DUP1 DUP4 GT PUSH2 0x2BA4 JUMPI DUP3 SWAP1 SUB PUSH1 0x1F AND DUP3 ADD SWAP2 JUMPDEST POP POP POP POP POP DUP2 MSTORE PUSH1 0x20 ADD PUSH1 0x2 DUP3 ADD DUP1 SLOAD PUSH2 0x2BDA SWAP1 PUSH2 0x3E90 JUMP JUMPDEST DUP1 PUSH1 0x1F ADD PUSH1 0x20 DUP1 SWAP2 DIV MUL PUSH1 0x20 ADD PUSH1 0x40 MLOAD SWAP1 DUP2 ADD PUSH1 0x40 MSTORE DUP1 SWAP3 SWAP2 SWAP1 DUP2 DUP2 MSTORE PUSH1 0x20 ADD DUP3 DUP1 SLOAD PUSH2 0x2C06 SWAP1 PUSH2 0x3E90 JUMP JUMPDEST DUP1 ISZERO PUSH2 0x2C53 JUMPI DUP1 PUSH1 0x1F LT PUSH2 0x2C28 JUMPI PUSH2 0x100 DUP1 DUP4 SLOAD DIV MUL DUP4 MSTORE SWAP2 PUSH1 0x20 ADD SWAP2 PUSH2 0x2C53 JUMP JUMPDEST DUP3 ADD SWAP2 SWAP1 PUSH1 0x0 MSTORE PUSH1 0x20 PUSH1 0x0 KECCAK256 SWAP1 JUMPDEST DUP2 SLOAD DUP2 MSTORE SWAP1 PUSH1 0x1 ADD SWAP1 PUSH1 0x20 ADD DUP1 DUP4 GT PUSH2 0x2C36 JUMPI DUP3 SWAP1 SUB PUSH1 0x1F AND DUP3 ADD SWAP2 JUMPDEST POP POP POP POP POP DUP2 MSTORE PUSH1 0x20 ADD PUSH1 0x3 DUP3 ADD DUP1 SLOAD PUSH2 0x2C6C SWAP1 PUSH2 0x3E90 JUMP JUMPDEST DUP1 PUSH1 0x1F ADD PUSH1 0x20 DUP1 SWAP2 DIV MUL PUSH1 0x20 ADD PUSH1 0x40 MLOAD SWAP1 DUP2 ADD PUSH1 0x40 MSTORE DUP1 SWAP3 SWAP2 SWAP1 DUP2 DUP2 MSTORE PUSH1 0x20 ADD DUP3 DUP1 SLOAD PUSH2 0x2C98 SWAP1 PUSH2 0x3E90 JUMP JUMPDEST DUP1 ISZERO PUSH2 0x2CE5 JUMPI DUP1 PUSH1 0x1F LT PUSH2 0x2CBA JUMPI PUSH2 0x100 DUP1 DUP4 SLOAD DIV MUL DUP4 MSTORE SWAP2 PUSH1 0x20 ADD SWAP2 PUSH2 0x2CE5 JUMP JUMPDEST DUP3 ADD SWAP2 SWAP1 PUSH1 0x0 MSTORE PUSH1 0x20 PUSH1 0x0 KECCAK256 SWAP1 JUMPDEST DUP2 SLOAD DUP2 MSTORE SWAP1 PUSH1 0x1 ADD SWAP1 PUSH1 0x20 ADD DUP1 DUP4 GT PUSH2 0x2CC8 JUMPI DUP3 SWAP1 SUB PUSH1 0x1F AND DUP3 ADD SWAP2 JUMPDEST POP POP POP SWAP2 DUP4 MSTORE POP POP PUSH1 0x4 DUP3 ADD SLOAD PUSH1 0x1 PUSH1 0x1 PUSH1 0xA0 SHL SUB DUP2 AND PUSH1 0x20 DUP4 ADD MSTORE PUSH1 0x40 SWAP1 SWAP2 ADD SWAP1 PUSH1 0x1 PUSH1 0xA0 SHL SWAP1 DIV PUSH1 0xFF AND PUSH1 0x2 DUP2 GT ISZERO PUSH2 0x2D30 JUMPI PUSH4 0x4E487B71 PUSH1 0xE0 SHL PUSH1 0x0 MSTORE PUSH1 0x21 PUSH1 0x4 MSTORE PUSH1 0x24 PUSH1 0x0 REVERT JUMPDEST PUSH1 0x2 DUP2 GT ISZERO PUSH2 0x2D4F JUMPI PUSH4 0x4E487B71 PUSH1 0xE0 SHL PUSH1 0x0 MSTORE PUSH1 0x21 PUSH1 0x4 MSTORE PUSH1 0x24 PUSH1 0x0 REVERT JUMPDEST DUP2 MSTORE PUSH1 0x20 ADD PUSH1 0x4 DUP3 ADD PUSH1 0x15 SWAP1 SLOAD SWAP1 PUSH2 0x100 EXP SWAP1 DIV PUSH1 0xFF AND PUSH1 0x1 DUP2 GT ISZERO PUSH2 0x2D85 JUMPI PUSH4 0x4E487B71 PUSH1 0xE0 SHL PUSH1 0x0 MSTORE PUSH1 0x21 PUSH1 0x4 MSTORE PUSH1 0x24 PUSH1 0x0 REVERT JUMPDEST PUSH1 0x1 DUP2 GT ISZERO PUSH2 0x2DA4 JUMPI PUSH4 0x4E487B71 PUSH1 0xE0 SHL PUSH1 0x0 MSTORE PUSH1 0x21 PUSH1 0x4 MSTORE PUSH1 0x24 PUSH1 0x0 REVERT JUMPDEST DUP2 MSTORE PUSH1 0x4 DUP3 ADD SLOAD PUSH1 0x1 PUSH1 0xB0 SHL SWAP1 DIV PUSH1 0xFF AND ISZERO ISZERO PUSH1 0x20 DUP1 DUP4 ADD SWAP2 SWAP1 SWAP2 MSTORE PUSH1 0x5 DUP4 ADD DUP1 SLOAD PUSH1 0x40 DUP1 MLOAD DUP3 DUP6 MUL DUP2 ADD DUP6 ADD DUP3 MSTORE DUP3 DUP2 MSTORE SWAP5 ADD SWAP4 SWAP3 PUSH1 0x0 SWAP1 DUP5 ADD JUMPDEST DUP3 DUP3 LT ISZERO PUSH2 0x3070 JUMPI PUSH1 0x0 DUP5 DUP2 MSTORE PUSH1 0x20 SWAP1 DUP2 SWAP1 KECCAK256 PUSH1 0x40 DUP1 MLOAD PUSH1 0xA0 DUP2 ADD SWAP1 SWAP2 MSTORE PUSH1 0x5 DUP6 MUL SWAP1 SWAP2 ADD DUP1 SLOAD PUSH1 0x1 PUSH1 0x1 PUSH1 0xA0 SHL SUB AND DUP3 MSTORE PUSH1 0x1 DUP2 ADD DUP1 SLOAD SWAP3 SWAP4 SWAP2 SWAP3 SWAP2 DUP5 ADD SWAP2 PUSH2 0x2E29 SWAP1 PUSH2 0x3E90 JUMP JUMPDEST DUP1 PUSH1 0x1F ADD PUSH1 0x20 DUP1 SWAP2 DIV MUL PUSH1 0x20 ADD PUSH1 0x40 MLOAD SWAP1 DUP2 ADD PUSH1 0x40 MSTORE DUP1 SWAP3 SWAP2 SWAP1 DUP2 DUP2 MSTORE PUSH1 0x20 ADD DUP3 DUP1 SLOAD PUSH2 0x2E55 SWAP1 PUSH2 0x3E90 JUMP JUMPDEST DUP1 ISZERO PUSH2 0x2EA2 JUMPI DUP1 PUSH1 0x1F LT PUSH2 0x2E77 JUMPI PUSH2 0x100 DUP1 DUP4 SLOAD DIV MUL DUP4 MSTORE SWAP2 PUSH1 0x20 ADD SWAP2 PUSH2 0x2EA2 JUMP JUMPDEST DUP3 ADD SWAP2 SWAP1 PUSH1 0x0 MSTORE PUSH1 0x20 PUSH1 0x0 KECCAK256 SWAP1 JUMPDEST DUP2 SLOAD DUP2 MSTORE SWAP1 PUSH1 0x1 ADD SWAP1 PUSH1 0x20 ADD DUP1 DUP4 GT PUSH2 0x2E85 JUMPI DUP3 SWAP1 SUB PUSH1 0x1F AND DUP3 ADD SWAP2 JUMPDEST POP POP POP POP POP DUP2 MSTORE PUSH1 0x20 ADD PUSH1 0x2 DUP3 ADD DUP1 SLOAD PUSH2 0x2EBB SWAP1 PUSH2 0x3E90 JUMP JUMPDEST DUP1 PUSH1 0x1F ADD PUSH1 0x20 DUP1 SWAP2 DIV MUL PUSH1 0x20 ADD PUSH1 0x40 MLOAD SWAP1 DUP2 ADD PUSH1 0x40 MSTORE DUP1 SWAP3 SWAP2 SWAP1 DUP2 DUP2 MSTORE PUSH1 0x20 ADD DUP3 DUP1 SLOAD PUSH2 0x2EE7 SWAP1 PUSH2 0x3E90 JUMP JUMPDEST DUP1 ISZERO PUSH2 0x2F34 JUMPI DUP1 PUSH1 0x1F LT PUSH2 0x2F09 JUMPI PUSH2 0x100 DUP1 DUP4 SLOAD DIV MUL DUP4 MSTORE SWAP2 PUSH1 0x20 ADD SWAP2 PUSH2 0x2F34 JUMP JUMPDEST DUP3 ADD SWAP2 SWAP1 PUSH1 0x0 MSTORE PUSH1 0x20 PUSH1 0x0 KECCAK256 SWAP1 JUMPDEST DUP2 SLOAD DUP2 MSTORE SWAP1 PUSH1 0x1 ADD SWAP1 PUSH1 0x20 ADD DUP1 DUP4 GT PUSH2 0x2F17 JUMPI DUP3 SWAP1 SUB PUSH1 0x1F AND DUP3 ADD SWAP2 JUMPDEST POP POP POP POP POP DUP2 MSTORE PUSH1 0x20 ADD PUSH1 0x3 DUP3 ADD DUP1 SLOAD PUSH2 0x2F4D SWAP1 PUSH2 0x3E90 JUMP JUMPDEST DUP1 PUSH1 0x1F ADD PUSH1 0x20 DUP1 SWAP2 DIV MUL PUSH1 0x20 ADD PUSH1 0x40 MLOAD SWAP1 DUP2 ADD PUSH1 0x40 MSTORE DUP1 SWAP3 SWAP2 SWAP1 DUP2 DUP2 MSTORE PUSH1 0x20 ADD DUP3 DUP1 SLOAD PUSH2 0x2F79 SWAP1 PUSH2 0x3E90 JUMP JUMPDEST DUP1 ISZERO PUSH2 0x2FC6 JUMPI DUP1 PUSH1 0x1F LT PUSH2 0x2F9B JUMPI PUSH2 0x100 DUP1 DUP4 SLOAD DIV MUL DUP4 MSTORE SWAP2 PUSH1 0x20 ADD SWAP2 PUSH2 0x2FC6 JUMP JUMPDEST DUP3 ADD SWAP2 SWAP1 PUSH1 0x0 MSTORE PUSH1 0x20 PUSH1 0x0 KECCAK256 SWAP1 JUMPDEST DUP2 SLOAD DUP2 MSTORE SWAP1 PUSH1 0x1 ADD SWAP1 PUSH1 0x20 ADD DUP1 DUP4 GT PUSH2 0x2FA9 JUMPI DUP3 SWAP1 SUB PUSH1 0x1F AND DUP3 ADD SWAP2 JUMPDEST POP POP POP POP POP DUP2 MSTORE PUSH1 0x20 ADD PUSH1 0x4 DUP3 ADD DUP1 SLOAD PUSH2 0x2FDF SWAP1 PUSH2 0x3E90 JUMP JUMPDEST DUP1 PUSH1 0x1F ADD PUSH1 0x20 DUP1 SWAP2 DIV MUL PUSH1 0x20 ADD PUSH1 0x40 MLOAD SWAP1 DUP2 ADD PUSH1 0x40 MSTORE DUP1 SWAP3 SWAP2 SWAP1 DUP2 DUP2 MSTORE PUSH1 0x20 ADD DUP3 DUP1 SLOAD PUSH2 0x300B SWAP1 PUSH2 0x3E90 JUMP JUMPDEST DUP1 ISZERO PUSH2 0x3058 JUMPI DUP1 PUSH1 0x1F LT PUSH2 0x302D JUMPI PUSH2 0x100 DUP1 DUP4 SLOAD DIV MUL DUP4 MSTORE SWAP2 PUSH1 0x20 ADD SWAP2 PUSH2 0x3058 JUMP JUMPDEST DUP3 ADD SWAP2 SWAP1 PUSH1 0x0 MSTORE PUSH1 0x20 PUSH1 0x0 KECCAK256 SWAP1 JUMPDEST DUP2 SLOAD DUP2 MSTORE SWAP1 PUSH1 0x1 ADD SWAP1 PUSH1 0x20 ADD DUP1 DUP4 GT PUSH2 0x303B JUMPI DUP3 SWAP1 SUB PUSH1 0x1F AND DUP3 ADD SWAP2 JUMPDEST POP POP POP POP POP DUP2 MSTORE POP POP DUP2 MSTORE PUSH1 0x20 ADD SWAP1 PUSH1 0x1 ADD SWAP1 PUSH2 0x2DE0 JUMP JUMPDEST POP POP POP POP DUP2 MSTORE POP POP DUP3 DUP3 DUP2 MLOAD DUP2 LT PUSH2 0x3098 JUMPI PUSH4 0x4E487B71 PUSH1 0xE0 SHL PUSH1 0x0 MSTORE PUSH1 0x32 PUSH1 0x4 MSTORE PUSH1 0x24 PUSH1 0x0 REVERT JUMPDEST PUSH1 0x20 MUL PUSH1 0x20 ADD ADD DUP2 SWAP1 MSTORE POP DUP1 DUP1 PUSH2 0x30AE SWAP1 PUSH2 0x3ECB JUMP JUMPDEST SWAP2 POP POP PUSH2 0x2A8F JUMP JUMPDEST POP SWAP1 POP SWAP1 JUMP JUMPDEST PUSH1 0x0 SLOAD PUSH1 0x1 PUSH1 0x1 PUSH1 0xA0 SHL SUB AND DUP2 JUMP JUMPDEST PUSH1 0x0 PUSH1 0x60 DUP1 PUSH1 0x60 PUSH1 0x0 DUP1 PUSH1 0x0 PUSH1 0x2 DUP1 SLOAD SWAP1 POP DUP9 LT PUSH2 0x30FB JUMPI PUSH1 0x40 MLOAD PUSH3 0x461BCD PUSH1 0xE5 SHL DUP2 MSTORE PUSH1 0x4 ADD PUSH2 0x29B SWAP1 PUSH2 0x3B97 JUMP JUMPDEST PUSH2 0x3139 PUSH1 0x2 DUP10 DUP2 SLOAD DUP2 LT PUSH2 0x311F JUMPI PUSH4 0x4E487B71 PUSH1 0xE0 SHL PUSH1 0x0 MSTORE PUSH1 0x32 PUSH1 0x4 MSTORE PUSH1 0x24 PUSH1 0x0 REVERT JUMPDEST PUSH1 0x0 SWAP2 DUP3 MSTORE PUSH1 0x20 SWAP1 SWAP2 KECCAK256 ADD SLOAD PUSH1 0x1 PUSH1 0x1 PUSH1 0xA0 SHL SUB AND PUSH2 0x1458 JUMP JUMPDEST SWAP6 SWAP15 SWAP5 SWAP14 POP SWAP3 SWAP12 POP SWAP1 SWAP10 POP SWAP8 POP SWAP6 POP SWAP1 SWAP4 POP SWAP2 POP POP JUMP JUMPDEST DUP3 DUP1 SLOAD PUSH2 0x315C SWAP1 PUSH2 0x3E90 JUMP JUMPDEST SWAP1 PUSH1 0x0 MSTORE PUSH1 0x20 PUSH1 0x0 KECCAK256 SWAP1 PUSH1 0x1F ADD PUSH1 0x20 SWAP1 DIV DUP2 ADD SWAP3 DUP3 PUSH2 0x317E JUMPI PUSH1 0x0 DUP6 SSTORE PUSH2 0x31C4 JUMP JUMPDEST DUP3 PUSH1 0x1F LT PUSH2 0x3197 JUMPI DUP1 MLOAD PUSH1 0xFF NOT AND DUP4 DUP1 ADD OR DUP6 SSTORE PUSH2 0x31C4 JUMP JUMPDEST DUP3 DUP1 ADD PUSH1 0x1 ADD DUP6 SSTORE DUP3 ISZERO PUSH2 0x31C4 JUMPI SWAP2 DUP3 ADD JUMPDEST DUP3 DUP2 GT ISZERO PUSH2 0x31C4 JUMPI DUP3 MLOAD DUP3 SSTORE SWAP2 PUSH1 0x20 ADD SWAP2 SWAP1 PUSH1 0x1 ADD SWAP1 PUSH2 0x31A9 JUMP JUMPDEST POP PUSH2 0x31D0 SWAP3 SWAP2 POP PUSH2 0x330B JUMP JUMPDEST POP SWAP1 JUMP JUMPDEST PUSH1 0x40 MLOAD DUP1 PUSH1 0x60 ADD PUSH1 0x40 MSTORE DUP1 PUSH1 0x0 PUSH1 0x1 PUSH1 0x1 PUSH1 0xA0 SHL SUB AND DUP2 MSTORE PUSH1 0x20 ADD PUSH1 0x60 DUP2 MSTORE PUSH1 0x20 ADD PUSH1 0x60 DUP2 MSTORE POP SWAP1 JUMP JUMPDEST POP DUP1 SLOAD PUSH2 0x320A SWAP1 PUSH2 0x3E90 JUMP JUMPDEST PUSH1 0x0 DUP3 SSTORE DUP1 PUSH1 0x1F LT PUSH2 0x321C JUMPI POP PUSH2 0x323A JUMP JUMPDEST PUSH1 0x1F ADD PUSH1 0x20 SWAP1 DIV SWAP1 PUSH1 0x0 MSTORE PUSH1 0x20 PUSH1 0x0 KECCAK256 SWAP1 DUP2 ADD SWAP1 PUSH2 0x323A SWAP2 SWAP1 PUSH2 0x330B JUMP JUMPDEST POP JUMP JUMPDEST POP DUP1 SLOAD PUSH1 0x0 DUP3 SSTORE PUSH1 0x5 MUL SWAP1 PUSH1 0x0 MSTORE PUSH1 0x20 PUSH1 0x0 KECCAK256 SWAP1 DUP2 ADD SWAP1 PUSH2 0x323A SWAP2 SWAP1 PUSH2 0x3320 JUMP JUMPDEST PUSH1 0x40 DUP1 MLOAD PUSH2 0x120 DUP2 ADD SWAP1 SWAP2 MSTORE DUP1 PUSH1 0x0 DUP2 MSTORE PUSH1 0x20 ADD PUSH1 0x60 DUP2 MSTORE PUSH1 0x20 ADD PUSH1 0x60 DUP2 MSTORE PUSH1 0x20 ADD PUSH1 0x60 DUP2 MSTORE PUSH1 0x20 ADD PUSH1 0x0 PUSH1 0x1 PUSH1 0x1 PUSH1 0xA0 SHL SUB AND DUP2 MSTORE PUSH1 0x20 ADD PUSH1 0x0 PUSH1 0x2 DUP2 GT ISZERO PUSH2 0x32B8 JUMPI PUSH4 0x4E487B71 PUSH1 0xE0 SHL PUSH1 0x0 MSTORE PUSH1 0x21 PUSH1 0x4 MSTORE PUSH1 0x24 PUSH1 0x0 REVERT JUMPDEST DUP2 MSTORE PUSH1 0x20 ADD PUSH1 0x0 DUP2 MSTORE PUSH1 0x0 PUSH1 0x20 DUP3 ADD MSTORE PUSH1 0x60 PUSH1 0x40 SWAP1 SWAP2 ADD MSTORE SWAP1 JUMP JUMPDEST PUSH1 0x40 MLOAD DUP1 PUSH1 0xA0 ADD PUSH1 0x40 MSTORE DUP1 PUSH1 0x0 PUSH1 0x1 PUSH1 0x1 PUSH1 0xA0 SHL SUB AND DUP2 MSTORE PUSH1 0x20 ADD PUSH1 0x60 DUP2 MSTORE PUSH1 0x20 ADD PUSH1 0x60 DUP2 MSTORE PUSH1 0x20 ADD PUSH1 0x60 DUP2 MSTORE PUSH1 0x20 ADD PUSH1 0x60 DUP2 MSTORE POP SWAP1 JUMP JUMPDEST JUMPDEST DUP1 DUP3 GT ISZERO PUSH2 0x31D0 JUMPI PUSH1 0x0 DUP2 SSTORE PUSH1 0x1 ADD PUSH2 0x330C JUMP JUMPDEST DUP1 DUP3 GT ISZERO PUSH2 0x31D0 JUMPI DUP1 SLOAD PUSH1 0x1 PUSH1 0x1 PUSH1 0xA0 SHL SUB NOT AND DUP2 SSTORE PUSH1 0x0 PUSH2 0x3345 PUSH1 0x1 DUP4 ADD DUP3 PUSH2 0x31FE JUMP JUMPDEST PUSH2 0x3353 PUSH1 0x2 DUP4 ADD PUSH1 0x0 PUSH2 0x31FE JUMP JUMPDEST PUSH2 0x3361 PUSH1 0x3 DUP4 ADD PUSH1 0x0 PUSH2 0x31FE JUMP JUMPDEST PUSH2 0x336F PUSH1 0x4 DUP4 ADD PUSH1 0x0 PUSH2 0x31FE JUMP JUMPDEST POP PUSH1 0x5 ADD PUSH2 0x3320 JUMP JUMPDEST DUP1 CALLDATALOAD PUSH1 0x1 PUSH1 0x1 PUSH1 0xA0 SHL SUB DUP2 AND DUP2 EQ PUSH2 0x1A8D JUMPI PUSH1 0x0 DUP1 REVERT JUMPDEST PUSH1 0x0 DUP3 PUSH1 0x1F DUP4 ADD SLT PUSH2 0x339F JUMPI DUP1 DUP2 REVERT JUMPDEST DUP2 CALLDATALOAD PUSH8 0xFFFFFFFFFFFFFFFF DUP1 DUP3 GT ISZERO PUSH2 0x33BA JUMPI PUSH2 0x33BA PUSH2 0x3F12 JUMP JUMPDEST PUSH1 0x40 MLOAD PUSH1 0x1F DUP4 ADD PUSH1 0x1F NOT AND DUP2 ADD PUSH1 0x20 ADD DUP3 DUP2 GT DUP3 DUP3 LT OR ISZERO PUSH2 0x33DE JUMPI PUSH2 0x33DE PUSH2 0x3F12 JUMP JUMPDEST PUSH1 0x40 MSTORE DUP3 DUP2 MSTORE DUP5 DUP4 ADD PUSH1 0x20 ADD DUP7 LT ISZERO PUSH2 0x33F5 JUMPI DUP4 DUP5 REVERT JUMPDEST DUP3 PUSH1 0x20 DUP7 ADD PUSH1 0x20 DUP4 ADD CALLDATACOPY SWAP2 DUP3 ADD PUSH1 0x20 ADD SWAP3 SWAP1 SWAP3 MSTORE SWAP4 SWAP3 POP POP POP JUMP JUMPDEST PUSH1 0x0 PUSH1 0x20 DUP3 DUP5 SUB SLT ISZERO PUSH2 0x3421 JUMPI DUP1 DUP2 REVERT JUMPDEST PUSH2 0x342A DUP3 PUSH2 0x3378 JUMP JUMPDEST SWAP4 SWAP3 POP POP POP JUMP JUMPDEST PUSH1 0x0 DUP1 PUSH1 0x0 PUSH1 0x60 DUP5 DUP7 SUB SLT ISZERO PUSH2 0x3445 JUMPI DUP2 DUP3 REVERT JUMPDEST PUSH2 0x344E DUP5 PUSH2 0x3378 JUMP JUMPDEST SWAP3 POP PUSH1 0x20 DUP5 ADD CALLDATALOAD PUSH8 0xFFFFFFFFFFFFFFFF DUP1 DUP3 GT ISZERO PUSH2 0x346A JUMPI DUP4 DUP5 REVERT JUMPDEST PUSH2 0x3476 DUP8 DUP4 DUP9 ADD PUSH2 0x338F JUMP JUMPDEST SWAP4 POP PUSH1 0x40 DUP7 ADD CALLDATALOAD SWAP2 POP DUP1 DUP3 GT ISZERO PUSH2 0x348B JUMPI DUP3 DUP4 REVERT JUMPDEST POP PUSH2 0x3498 DUP7 DUP3 DUP8 ADD PUSH2 0x338F JUMP JUMPDEST SWAP2 POP POP SWAP3 POP SWAP3 POP SWAP3 JUMP JUMPDEST PUSH1 0x0 DUP1 PUSH1 0x40 DUP4 DUP6 SUB SLT ISZERO PUSH2 0x34B4 JUMPI DUP2 DUP3 REVERT JUMPDEST PUSH2 0x34BD DUP4 PUSH2 0x3378 JUMP JUMPDEST SWAP5 PUSH1 0x20 SWAP4 SWAP1 SWAP4 ADD CALLDATALOAD SWAP4 POP POP POP JUMP JUMPDEST PUSH1 0x0 DUP1 PUSH1 0x0 DUP1 PUSH1 0x0 DUP1 PUSH1 0xC0 DUP8 DUP10 SUB SLT ISZERO PUSH2 0x34E3 JUMPI DUP2 DUP3 REVERT JUMPDEST PUSH2 0x34EC DUP8 PUSH2 0x3378 JUMP JUMPDEST SWAP6 POP PUSH1 0x20 DUP8 ADD CALLDATALOAD SWAP5 POP PUSH1 0x40 DUP8 ADD CALLDATALOAD PUSH8 0xFFFFFFFFFFFFFFFF DUP1 DUP3 GT ISZERO PUSH2 0x350F JUMPI DUP4 DUP5 REVERT JUMPDEST PUSH2 0x351B DUP11 DUP4 DUP12 ADD PUSH2 0x338F JUMP JUMPDEST SWAP6 POP PUSH1 0x60 DUP10 ADD CALLDATALOAD SWAP2 POP DUP1 DUP3 GT ISZERO PUSH2 0x3530 JUMPI DUP4 DUP5 REVERT JUMPDEST PUSH2 0x353C DUP11 DUP4 DUP12 ADD PUSH2 0x338F JUMP JUMPDEST SWAP5 POP PUSH1 0x80 DUP10 ADD CALLDATALOAD SWAP2 POP DUP1 DUP3 GT ISZERO PUSH2 0x3551 JUMPI DUP4 DUP5 REVERT JUMPDEST POP PUSH2 0x355E DUP10 DUP3 DUP11 ADD PUSH2 0x338F JUMP JUMPDEST SWAP3 POP POP PUSH1 0xA0 DUP8 ADD CALLDATALOAD SWAP1 POP SWAP3 SWAP6 POP SWAP3 SWAP6 POP SWAP3 SWAP6 JUMP JUMPDEST PUSH1 0x0 PUSH1 0x20 DUP3 DUP5 SUB SLT ISZERO PUSH2 0x3583 JUMPI DUP1 DUP2 REVERT JUMPDEST POP CALLDATALOAD SWAP2 SWAP1 POP JUMP JUMPDEST PUSH1 0x1 PUSH1 0x1 PUSH1 0xA0 SHL SUB AND SWAP1 MSTORE JUMP JUMPDEST PUSH1 0x0 DUP3 DUP3 MLOAD DUP1 DUP6 MSTORE PUSH1 0x20 DUP1 DUP7 ADD SWAP6 POP DUP1 DUP2 DUP4 MUL DUP5 ADD ADD DUP2 DUP7 ADD DUP6 JUMPDEST DUP5 DUP2 LT ISZERO PUSH2 0x3652 JUMPI DUP6 DUP4 SUB PUSH1 0x1F NOT ADD DUP10 MSTORE DUP2 MLOAD DUP1 MLOAD PUSH1 0x1 PUSH1 0x1 PUSH1 0xA0 SHL SUB AND DUP5 MSTORE DUP5 DUP2 ADD MLOAD PUSH1 0xA0 DUP7 DUP7 ADD DUP2 SWAP1 MSTORE SWAP1 PUSH2 0x35EB DUP3 DUP8 ADD DUP3 PUSH2 0x3699 JUMP JUMPDEST SWAP2 POP POP PUSH1 0x40 DUP1 DUP4 ADD MLOAD DUP7 DUP4 SUB DUP3 DUP9 ADD MSTORE PUSH2 0x3605 DUP4 DUP3 PUSH2 0x3699 JUMP JUMPDEST SWAP3 POP POP POP PUSH1 0x60 DUP1 DUP4 ADD MLOAD DUP7 DUP4 SUB DUP3 DUP9 ADD MSTORE PUSH2 0x3620 DUP4 DUP3 PUSH2 0x3699 JUMP JUMPDEST SWAP3 POP POP POP PUSH1 0x80 DUP1 DUP4 ADD MLOAD SWAP3 POP DUP6 DUP3 SUB DUP2 DUP8 ADD MSTORE POP PUSH2 0x363E DUP2 DUP4 PUSH2 0x3699 JUMP JUMPDEST SWAP11 DUP7 ADD SWAP11 SWAP5 POP POP POP SWAP1 DUP4 ADD SWAP1 PUSH1 0x1 ADD PUSH2 0x35B2 JUMP JUMPDEST POP SWAP1 SWAP8 SWAP7 POP POP POP POP POP POP POP JUMP JUMPDEST ISZERO ISZERO SWAP1 MSTORE JUMP JUMPDEST PUSH1 0x2 DUP2 LT PUSH2 0x3675 JUMPI PUSH2 0x3675 PUSH2 0x3EFC JUMP JUMPDEST SWAP1 MSTORE JUMP JUMPDEST PUSH1 0x3 DUP2 LT PUSH2 0x3675 JUMPI PUSH2 0x3675 PUSH2 0x3EFC JUMP JUMPDEST PUSH1 0x4 DUP2 LT PUSH2 0x3675 JUMPI PUSH2 0x3675 PUSH2 0x3EFC JUMP JUMPDEST PUSH1 0x0 DUP2 MLOAD DUP1 DUP5 MSTORE DUP2 JUMPDEST DUP2 DUP2 LT ISZERO PUSH2 0x36BE JUMPI PUSH1 0x20 DUP2 DUP6 ADD DUP2 ADD MLOAD DUP7 DUP4 ADD DUP3 ADD MSTORE ADD PUSH2 0x36A2 JUMP JUMPDEST DUP2 DUP2 GT ISZERO PUSH2 0x36CF JUMPI DUP3 PUSH1 0x20 DUP4 DUP8 ADD ADD MSTORE JUMPDEST POP PUSH1 0x1F ADD PUSH1 0x1F NOT AND SWAP3 SWAP1 SWAP3 ADD PUSH1 0x20 ADD SWAP3 SWAP2 POP POP JUMP JUMPDEST PUSH1 0x0 DUP2 SLOAD PUSH2 0x36F1 DUP2 PUSH2 0x3E90 JUMP JUMPDEST DUP1 DUP6 MSTORE PUSH1 0x20 PUSH1 0x1 DUP4 DUP2 AND DUP1 ISZERO PUSH2 0x370E JUMPI PUSH1 0x1 DUP2 EQ PUSH2 0x3722 JUMPI PUSH2 0x3750 JUMP JUMPDEST PUSH1 0xFF NOT DUP6 AND DUP9 DUP5 ADD MSTORE PUSH1 0x40 DUP9 ADD SWAP6 POP PUSH2 0x3750 JUMP JUMPDEST DUP7 PUSH1 0x0 MSTORE DUP3 PUSH1 0x0 KECCAK256 PUSH1 0x0 JUMPDEST DUP6 DUP2 LT ISZERO PUSH2 0x3748 JUMPI DUP2 SLOAD DUP11 DUP3 ADD DUP7 ADD MSTORE SWAP1 DUP4 ADD SWAP1 DUP5 ADD PUSH2 0x372D JUMP JUMPDEST DUP10 ADD DUP5 ADD SWAP7 POP POP JUMPDEST POP POP POP POP POP SWAP3 SWAP2 POP POP JUMP JUMPDEST PUSH1 0x0 DUP2 SLOAD PUSH2 0x3768 DUP2 PUSH2 0x3E90 JUMP JUMPDEST PUSH1 0x1 DUP3 DUP2 AND DUP1 ISZERO PUSH2 0x3780 JUMPI PUSH1 0x1 DUP2 EQ PUSH2 0x3791 JUMPI PUSH2 0x37C0 JUMP JUMPDEST PUSH1 0xFF NOT DUP5 AND DUP8 MSTORE DUP3 DUP8 ADD SWAP5 POP PUSH2 0x37C0 JUMP JUMPDEST DUP6 PUSH1 0x0 MSTORE PUSH1 0x20 DUP1 PUSH1 0x0 KECCAK256 PUSH1 0x0 JUMPDEST DUP6 DUP2 LT ISZERO PUSH2 0x37B7 JUMPI DUP2 SLOAD DUP11 DUP3 ADD MSTORE SWAP1 DUP5 ADD SWAP1 DUP3 ADD PUSH2 0x379E JUMP JUMPDEST POP POP POP DUP3 DUP8 ADD SWAP5 POP JUMPDEST POP POP POP POP SWAP3 SWAP2 POP POP JUMP JUMPDEST PUSH1 0x0 PUSH2 0x37D6 DUP3 DUP6 PUSH2 0x375B JUMP JUMPDEST PUSH1 0x1 PUSH1 0xFD SHL DUP2 MSTORE PUSH2 0x37EA PUSH1 0x1 DUP3 ADD DUP6 PUSH2 0x375B JUMP JUMPDEST SWAP6 SWAP5 POP POP POP POP POP JUMP JUMPDEST PUSH1 0x1 PUSH1 0x1 PUSH1 0xA0 SHL SUB SWAP2 SWAP1 SWAP2 AND DUP2 MSTORE PUSH1 0x20 ADD SWAP1 JUMP JUMPDEST PUSH1 0x20 DUP1 DUP3 MSTORE DUP3 MLOAD DUP3 DUP3 ADD DUP2 SWAP1 MSTORE PUSH1 0x0 SWAP2 SWAP1 PUSH1 0x40 SWAP1 DUP2 DUP6 ADD SWAP1 DUP1 DUP5 MUL DUP7 ADD DUP4 ADD DUP8 DUP6 ADD DUP7 JUMPDEST DUP4 DUP2 LT ISZERO PUSH2 0x3892 JUMPI DUP9 DUP4 SUB PUSH1 0x3F NOT ADD DUP6 MSTORE DUP2 MLOAD DUP1 MLOAD PUSH1 0x1 PUSH1 0x1 PUSH1 0xA0 SHL SUB AND DUP5 MSTORE DUP8 DUP2 ADD MLOAD PUSH1 0x60 DUP10 DUP7 ADD DUP2 SWAP1 MSTORE SWAP1 PUSH2 0x3864 DUP3 DUP8 ADD DUP3 PUSH2 0x3699 JUMP JUMPDEST SWAP2 POP POP DUP8 DUP3 ADD MLOAD SWAP2 POP DUP5 DUP2 SUB DUP9 DUP7 ADD MSTORE PUSH2 0x387E DUP2 DUP4 PUSH2 0x3699 JUMP JUMPDEST SWAP7 DUP10 ADD SWAP7 SWAP5 POP POP POP SWAP1 DUP7 ADD SWAP1 PUSH1 0x1 ADD PUSH2 0x382B JUMP JUMPDEST POP SWAP1 SWAP9 SWAP8 POP POP POP POP POP POP POP POP JUMP JUMPDEST PUSH1 0x0 PUSH1 0x20 DUP3 MSTORE PUSH2 0x342A PUSH1 0x20 DUP4 ADD DUP5 PUSH2 0x3597 JUMP JUMPDEST PUSH1 0x20 DUP1 DUP3 MSTORE DUP3 MLOAD DUP3 DUP3 ADD DUP2 SWAP1 MSTORE PUSH1 0x0 SWAP2 SWAP1 PUSH1 0x40 SWAP1 DUP2 DUP6 ADD SWAP1 DUP1 DUP5 MUL DUP7 ADD DUP4 ADD DUP8 DUP6 ADD DUP7 JUMPDEST DUP4 DUP2 LT ISZERO PUSH2 0x3892 JUMPI PUSH1 0x3F NOT DUP10 DUP5 SUB ADD DUP6 MSTORE DUP2 MLOAD PUSH2 0x120 PUSH2 0x38F8 DUP6 DUP4 MLOAD PUSH2 0x3689 JUMP JUMPDEST DUP9 DUP3 ADD MLOAD DUP2 DUP11 DUP8 ADD MSTORE PUSH2 0x390D DUP3 DUP8 ADD DUP3 PUSH2 0x3699 JUMP JUMPDEST SWAP2 POP POP DUP8 DUP3 ADD MLOAD DUP6 DUP3 SUB DUP10 DUP8 ADD MSTORE PUSH2 0x3925 DUP3 DUP3 PUSH2 0x3699 JUMP JUMPDEST SWAP2 POP POP PUSH1 0x60 DUP1 DUP4 ADD MLOAD DUP7 DUP4 SUB DUP3 DUP9 ADD MSTORE PUSH2 0x393F DUP4 DUP3 PUSH2 0x3699 JUMP JUMPDEST SWAP3 POP POP POP PUSH1 0x80 DUP1 DUP4 ADD MLOAD PUSH2 0x3955 DUP3 DUP9 ADD DUP3 PUSH2 0x358A JUMP JUMPDEST POP POP PUSH1 0xA0 DUP1 DUP4 ADD MLOAD PUSH2 0x3969 DUP3 DUP9 ADD DUP3 PUSH2 0x3679 JUMP JUMPDEST POP POP PUSH1 0xC0 DUP1 DUP4 ADD MLOAD PUSH2 0x397D DUP3 DUP9 ADD DUP3 PUSH2 0x3665 JUMP JUMPDEST POP POP PUSH1 0xE0 DUP1 DUP4 ADD MLOAD PUSH2 0x3991 DUP3 DUP9 ADD DUP3 PUSH2 0x365F JUMP JUMPDEST POP POP PUSH2 0x100 DUP1 DUP4 ADD MLOAD SWAP3 POP DUP6 DUP3 SUB DUP2 DUP8 ADD MSTORE POP PUSH2 0x39AE DUP2 DUP4 PUSH2 0x3597 JUMP JUMPDEST SWAP7 DUP10 ADD SWAP7 SWAP5 POP POP POP SWAP1 DUP7 ADD SWAP1 PUSH1 0x1 ADD PUSH2 0x38D7 JUMP JUMPDEST PUSH1 0x0 PUSH2 0x100 PUSH2 0x39D1 DUP4 DUP13 PUSH2 0x3689 JUMP JUMPDEST DUP1 PUSH1 0x20 DUP5 ADD MSTORE PUSH2 0x39E3 DUP2 DUP5 ADD DUP12 PUSH2 0x3699 JUMP JUMPDEST SWAP1 POP DUP3 DUP2 SUB PUSH1 0x40 DUP5 ADD MSTORE PUSH2 0x39F7 DUP2 DUP11 PUSH2 0x3699 JUMP JUMPDEST SWAP1 POP DUP3 DUP2 SUB PUSH1 0x60 DUP5 ADD MSTORE PUSH2 0x3A0B DUP2 DUP10 PUSH2 0x3699 JUMP JUMPDEST PUSH1 0x1 PUSH1 0x1 PUSH1 0xA0 SHL SUB DUP9 AND PUSH1 0x80 DUP6 ADD MSTORE SWAP2 POP PUSH2 0x3A2B SWAP1 POP PUSH1 0xA0 DUP4 ADD DUP7 PUSH2 0x3679 JUMP JUMPDEST PUSH2 0x3A38 PUSH1 0xC0 DUP4 ADD DUP6 PUSH2 0x3665 JUMP JUMPDEST DUP3 ISZERO ISZERO PUSH1 0xE0 DUP4 ADD MSTORE SWAP10 SWAP9 POP POP POP POP POP POP POP POP POP JUMP JUMPDEST PUSH1 0x0 PUSH1 0x20 DUP3 MSTORE PUSH2 0x342A PUSH1 0x20 DUP4 ADD DUP5 PUSH2 0x3699 JUMP JUMPDEST PUSH1 0x0 PUSH1 0x20 DUP3 MSTORE PUSH2 0x342A PUSH1 0x20 DUP4 ADD DUP5 PUSH2 0x36E4 JUMP JUMPDEST PUSH1 0x0 PUSH1 0x40 DUP3 MSTORE PUSH2 0x3A86 PUSH1 0x40 DUP4 ADD DUP6 PUSH2 0x36E4 JUMP JUMPDEST SWAP1 POP DUP3 PUSH1 0x20 DUP4 ADD MSTORE SWAP4 SWAP3 POP POP POP JUMP JUMPDEST PUSH1 0x20 DUP1 DUP3 MSTORE PUSH1 0x17 SWAP1 DUP3 ADD MSTORE PUSH32 0x50617469656E7420646F6573206E6F742065786973742E000000000000000000 PUSH1 0x40 DUP3 ADD MSTORE PUSH1 0x60 ADD SWAP1 JUMP JUMPDEST PUSH1 0x20 DUP1 DUP3 MSTORE PUSH1 0x32 SWAP1 DUP3 ADD MSTORE PUSH32 0x54686520737065636966696564206164647265737320646F6573206E6F742062 PUSH1 0x40 DUP3 ADD MSTORE PUSH18 0x32B637B733903A379030903237B1BA37B917 PUSH1 0x71 SHL PUSH1 0x60 DUP3 ADD MSTORE PUSH1 0x80 ADD SWAP1 JUMP JUMPDEST PUSH1 0x20 DUP1 DUP3 MSTORE PUSH1 0x22 SWAP1 DUP3 ADD MSTORE PUSH32 0x416363657373207265737472696374656420746F20646F63746F7273206F6E6C PUSH1 0x40 DUP3 ADD MSTORE PUSH2 0x3C97 PUSH1 0xF1 SHL PUSH1 0x60 DUP3 ADD MSTORE PUSH1 0x80 ADD SWAP1 JUMP JUMPDEST PUSH1 0x20 DUP1 DUP3 MSTORE PUSH1 0x19 SWAP1 DUP3 ADD MSTORE PUSH32 0x5573657220697320616C726561647920696E6163746976652E00000000000000 PUSH1 0x40 DUP3 ADD MSTORE PUSH1 0x60 ADD SWAP1 JUMP JUMPDEST PUSH1 0x20 DUP1 DUP3 MSTORE PUSH1 0x14 SWAP1 DUP3 ADD MSTORE PUSH20 0x24B73232BC1037BABA1037B3103137BAB7323997 PUSH1 0x61 SHL PUSH1 0x40 DUP3 ADD MSTORE PUSH1 0x60 ADD SWAP1 JUMP JUMPDEST PUSH1 0x20 DUP1 DUP3 MSTORE PUSH1 0x16 SWAP1 DUP3 ADD MSTORE PUSH22 0x2AB9B2B91034B9903737BA1030903830BA34B2B73A17 PUSH1 0x51 SHL PUSH1 0x40 DUP3 ADD MSTORE PUSH1 0x60 ADD SWAP1 JUMP JUMPDEST PUSH1 0x20 DUP1 DUP3 MSTORE PUSH1 0xC SWAP1 DUP3 ADD MSTORE PUSH12 0x496E76616C696420726F6C65 PUSH1 0xA0 SHL PUSH1 0x40 DUP3 ADD MSTORE PUSH1 0x60 ADD SWAP1 JUMP JUMPDEST PUSH1 0x20 DUP1 DUP3 MSTORE PUSH1 0xD SWAP1 DUP3 ADD MSTORE PUSH13 0x496E76616C6964207469746C65 PUSH1 0x98 SHL PUSH1 0x40 DUP3 ADD MSTORE PUSH1 0x60 ADD SWAP1 JUMP JUMPDEST PUSH1 0x20 DUP1 DUP3 MSTORE PUSH1 0x14 SWAP1 DUP3 ADD MSTORE PUSH20 0x2AB9B2B9103237B2B9903737BA1032BC34B9BA17 PUSH1 0x61 SHL PUSH1 0x40 DUP3 ADD MSTORE PUSH1 0x60 ADD SWAP1 JUMP JUMPDEST PUSH1 0x20 DUP1 DUP3 MSTORE PUSH1 0x47 SWAP1 DUP3 ADD MSTORE PUSH32 0x496E76616C6964206163636573732063726564656E7469616C732E20506C6561 PUSH1 0x40 DUP3 ADD MSTORE PUSH32 0x736520636F6E7461637420796F757220686F73706974616C2061646D696E6973 PUSH1 0x60 DUP3 ADD MSTORE PUSH7 0x3A3930BA37B917 PUSH1 0xC9 SHL PUSH1 0x80 DUP3 ADD MSTORE PUSH1 0xA0 ADD SWAP1 JUMP JUMPDEST PUSH1 0x20 DUP1 DUP3 MSTORE PUSH1 0x18 SWAP1 DUP3 ADD MSTORE PUSH32 0x5573657220616C726561647920726567697374657265642E0000000000000000 PUSH1 0x40 DUP3 ADD MSTORE PUSH1 0x60 ADD SWAP1 JUMP JUMPDEST PUSH1 0x20 DUP1 DUP3 MSTORE PUSH1 0x16 SWAP1 DUP3 ADD MSTORE PUSH22 0x2237B1BA37B9103237B2B9903737BA1032BC34B9BA17 PUSH1 0x51 SHL PUSH1 0x40 DUP3 ADD MSTORE PUSH1 0x60 ADD SWAP1 JUMP JUMPDEST PUSH1 0x20 DUP1 DUP3 MSTORE PUSH1 0x2A SWAP1 DUP3 ADD MSTORE PUSH32 0x43616E206F6E6C7920707265736372696265206D656469636174696F6E20746F PUSH1 0x40 DUP3 ADD MSTORE PUSH10 0x103830BA34B2B73A3997 PUSH1 0xB1 SHL PUSH1 0x60 DUP3 ADD MSTORE PUSH1 0x80 ADD SWAP1 JUMP JUMPDEST PUSH1 0x20 DUP1 DUP3 MSTORE PUSH1 0x23 SWAP1 DUP3 ADD MSTORE PUSH32 0x416363657373207265737472696374656420746F2070617469656E7473206F6E PUSH1 0x40 DUP3 ADD MSTORE PUSH3 0x363C97 PUSH1 0xE9 SHL PUSH1 0x60 DUP3 ADD MSTORE PUSH1 0x80 ADD SWAP1 JUMP JUMPDEST PUSH1 0x20 DUP1 DUP3 MSTORE PUSH1 0x17 SWAP1 DUP3 ADD MSTORE PUSH32 0x5573657220697320616C7265616479206163746976652E000000000000000000 PUSH1 0x40 DUP3 ADD MSTORE PUSH1 0x60 ADD SWAP1 JUMP JUMPDEST SWAP1 DUP2 MSTORE PUSH1 0x20 ADD SWAP1 JUMP JUMPDEST PUSH1 0x0 DUP9 DUP3 MSTORE PUSH1 0xE0 PUSH1 0x20 DUP4 ADD MSTORE PUSH2 0x3E2A PUSH1 0xE0 DUP4 ADD DUP10 PUSH2 0x3699 JUMP JUMPDEST DUP3 DUP2 SUB PUSH1 0x40 DUP5 ADD MSTORE PUSH2 0x3E3C DUP2 DUP10 PUSH2 0x3699 JUMP JUMPDEST SWAP1 POP DUP3 DUP2 SUB PUSH1 0x60 DUP5 ADD MSTORE PUSH2 0x3E50 DUP2 DUP9 PUSH2 0x3699 JUMP JUMPDEST PUSH1 0x1 PUSH1 0x1 PUSH1 0xA0 SHL SUB SWAP7 SWAP1 SWAP7 AND PUSH1 0x80 DUP5 ADD MSTORE POP POP PUSH1 0xA0 DUP2 ADD SWAP3 SWAP1 SWAP3 MSTORE PUSH1 0xC0 SWAP1 SWAP2 ADD MSTORE SWAP5 SWAP4 POP POP POP POP JUMP JUMPDEST PUSH1 0x0 DUP3 DUP3 LT ISZERO PUSH2 0x3E8B JUMPI PUSH2 0x3E8B PUSH2 0x3EE6 JUMP JUMPDEST POP SUB SWAP1 JUMP JUMPDEST PUSH1 0x2 DUP2 DIV PUSH1 0x1 DUP3 AND DUP1 PUSH2 0x3EA4 JUMPI PUSH1 0x7F DUP3 AND SWAP2 POP JUMPDEST PUSH1 0x20 DUP3 LT DUP2 EQ ISZERO PUSH2 0x3EC5 JUMPI PUSH4 0x4E487B71 PUSH1 0xE0 SHL PUSH1 0x0 MSTORE PUSH1 0x22 PUSH1 0x4 MSTORE PUSH1 0x24 PUSH1 0x0 REVERT JUMPDEST POP SWAP2 SWAP1 POP JUMP JUMPDEST PUSH1 0x0 PUSH1 0x0 NOT DUP3 EQ ISZERO PUSH2 0x3EDF JUMPI PUSH2 0x3EDF PUSH2 0x3EE6 JUMP JUMPDEST POP PUSH1 0x1 ADD SWAP1 JUMP JUMPDEST PUSH4 0x4E487B71 PUSH1 0xE0 SHL PUSH1 0x0 MSTORE PUSH1 0x11 PUSH1 0x4 MSTORE PUSH1 0x24 PUSH1 0x0 REVERT JUMPDEST PUSH4 0x4E487B71 PUSH1 0xE0 SHL PUSH1 0x0 MSTORE PUSH1 0x21 PUSH1 0x4 MSTORE PUSH1 0x24 PUSH1 0x0 REVERT JUMPDEST PUSH4 0x4E487B71 PUSH1 0xE0 SHL PUSH1 0x0 MSTORE PUSH1 0x41 PUSH1 0x4 MSTORE PUSH1 0x24 PUSH1 0x0 REVERT INVALID LOG2 PUSH5 0x6970667358 0x22 SLT KECCAK256 INVALID LOG0 PUSH14 0xDB60601D33326399BB6B90102CF2 DUP1 SWAP7 CALLER DUP16 0x4C 0xED EXP PUSH28 0x5A3E19A972BAF964736F6C6343000800003300000000000000000000 "
				},
				"gasEstimates": {
					"creation": {
						"codeDepositCost": "3244400",
						"executionCost": "24430",
						"totalCost": "3268830"
					},
					"external": {
						"UsersDetails(address)": "infinite",
						"activateUser(address)": "infinite",
						"changeRole(address,uint256)": "infinite",
						"deactivateUser(address)": "infinite",
						"deleteUser(address)": "infinite",
						"getAllPatientsForDoctor()": "infinite",
						"getAllUsers()": "infinite",
						"getPatientPrescriptions(address)": "infinite",
						"getPrescriptionsByDoctor(address)": "infinite",
						"getUserByIndex(uint256)": "infinite",
						"getUserInfo(address)": "infinite",
						"getUsersCount()": "1117",
						"hospitalAdmin()": "1136",
						"prescribeMedication(address,string,string)": "infinite",
						"registerNewUser(address,uint256,string,string,string,uint256)": "infinite",
						"viewMyDoctors()": "infinite"
					}
				},
				"methodIdentifiers": {
					"UsersDetails(address)": "1ecd6563",
					"activateUser(address)": "b4acfe1c",
					"changeRole(address,uint256)": "0acfd58e",
					"deactivateUser(address)": "1a47767b",
					"deleteUser(address)": "5c60f226",
					"getAllPatientsForDoctor()": "9057c82b",
					"getAllUsers()": "e2842d79",
					"getPatientPrescriptions(address)": "8a462e1a",
					"getPrescriptionsByDoctor(address)": "988559f5",
					"getUserByIndex(uint256)": "ff5d32fe",
					"getUserInfo(address)": "6386c1c7",
					"getUsersCount()": "a4a1e263",
					"hospitalAdmin()": "f9db3982",
					"prescribeMedication(address,string,string)": "3b5761d5",
					"registerNewUser(address,uint256,string,string,string,uint256)": "094289d6",
					"viewMyDoctors()": "163301f9"
				}
			},
			"storageLayout": {
				"storage": [
					{
						"astId": 3,
						"contract": "Admin.sol:Admin",
						"label": "hospitalAdmin",
						"offset": 0,
						"slot": "0",
						"type": "t_address"
					},
					{
						"astId": 166,
						"contract": "Admin.sol:Admin",
						"label": "UsersDetails",
						"offset": 0,
						"slot": "1",
						"type": "t_mapping(t_address,t_struct(UserInfo)161_storage)"
					},
					{
						"astId": 169,
						"contract": "Admin.sol:Admin",
						"label": "users",
						"offset": 0,
						"slot": "2",
						"type": "t_array(t_address)dyn_storage"
					}
				],
				"types": {
					"t_address": {
						"encoding": "inplace",
						"label": "address",
						"numberOfBytes": "20"
					},
					"t_array(t_address)dyn_storage": {
						"base": "t_address",
						"encoding": "dynamic_array",
						"label": "address[]",
						"numberOfBytes": "32"
					},
					"t_array(t_struct(Prescription)97_storage)dyn_storage": {
						"base": "t_struct(Prescription)97_storage",
						"encoding": "dynamic_array",
						"label": "struct Admin.Prescription[]",
						"numberOfBytes": "32"
					},
					"t_bool": {
						"encoding": "inplace",
						"label": "bool",
						"numberOfBytes": "1"
					},
					"t_enum(CurStatus)86": {
						"encoding": "inplace",
						"label": "enum Admin.CurStatus",
						"numberOfBytes": "1"
					},
					"t_enum(Roles)83": {
						"encoding": "inplace",
						"label": "enum Admin.Roles",
						"numberOfBytes": "1"
					},
					"t_enum(Titles)79": {
						"encoding": "inplace",
						"label": "enum Admin.Titles",
						"numberOfBytes": "1"
					},
					"t_mapping(t_address,t_struct(UserInfo)161_storage)": {
						"encoding": "mapping",
						"key": "t_address",
						"label": "mapping(address => struct Admin.UserInfo)",
						"numberOfBytes": "32",
						"value": "t_struct(UserInfo)161_storage"
					},
					"t_string_storage": {
						"encoding": "bytes",
						"label": "string",
						"numberOfBytes": "32"
					},
					"t_struct(Prescription)97_storage": {
						"encoding": "inplace",
						"label": "struct Admin.Prescription",
						"members": [
							{
								"astId": 88,
								"contract": "Admin.sol:Admin",
								"label": "doctor",
								"offset": 0,
								"slot": "0",
								"type": "t_address"
							},
							{
								"astId": 90,
								"contract": "Admin.sol:Admin",
								"label": "doctorName",
								"offset": 0,
								"slot": "1",
								"type": "t_string_storage"
							},
							{
								"astId": 92,
								"contract": "Admin.sol:Admin",
								"label": "doctorLocation",
								"offset": 0,
								"slot": "2",
								"type": "t_string_storage"
							},
							{
								"astId": 94,
								"contract": "Admin.sol:Admin",
								"label": "treatment",
								"offset": 0,
								"slot": "3",
								"type": "t_string_storage"
							},
							{
								"astId": 96,
								"contract": "Admin.sol:Admin",
								"label": "notes",
								"offset": 0,
								"slot": "4",
								"type": "t_string_storage"
							}
						],
						"numberOfBytes": "160"
					},
					"t_struct(UserInfo)161_storage": {
						"encoding": "inplace",
						"label": "struct Admin.UserInfo",
						"members": [
							{
								"astId": 140,
								"contract": "Admin.sol:Admin",
								"label": "title",
								"offset": 0,
								"slot": "0",
								"type": "t_enum(Titles)79"
							},
							{
								"astId": 142,
								"contract": "Admin.sol:Admin",
								"label": "firstname",
								"offset": 0,
								"slot": "1",
								"type": "t_string_storage"
							},
							{
								"astId": 144,
								"contract": "Admin.sol:Admin",
								"label": "lastname",
								"offset": 0,
								"slot": "2",
								"type": "t_string_storage"
							},
							{
								"astId": 146,
								"contract": "Admin.sol:Admin",
								"label": "location",
								"offset": 0,
								"slot": "3",
								"type": "t_string_storage"
							},
							{
								"astId": 148,
								"contract": "Admin.sol:Admin",
								"label": "ethAddress",
								"offset": 0,
								"slot": "4",
								"type": "t_address"
							},
							{
								"astId": 151,
								"contract": "Admin.sol:Admin",
								"label": "role",
								"offset": 20,
								"slot": "4",
								"type": "t_enum(Roles)83"
							},
							{
								"astId": 154,
								"contract": "Admin.sol:Admin",
								"label": "status",
								"offset": 21,
								"slot": "4",
								"type": "t_enum(CurStatus)86"
							},
							{
								"astId": 156,
								"contract": "Admin.sol:Admin",
								"label": "exists",
								"offset": 22,
								"slot": "4",
								"type": "t_bool"
							},
							{
								"astId": 160,
								"contract": "Admin.sol:Admin",
								"label": "prescriptions",
								"offset": 0,
								"slot": "5",
								"type": "t_array(t_struct(Prescription)97_storage)dyn_storage"
							}
						],
						"numberOfBytes": "192"
					}
				}
			},
			"userdoc": {
				"kind": "user",
				"methods": {},
				"version": 1
			}
		}
	}
}