{
	"PrescriptionManager.sol": {
		"PrescriptionManager": {
			"abi": [
				{
					"anonymous": false,
					"inputs": [
						{
							"indexed": false,
							"internalType": "uint256",
							"name": "id",
							"type": "uint256"
						},
						{
							"indexed": true,
							"internalType": "address",
							"name": "patient",
							"type": "address"
						},
						{
							"indexed": true,
							"internalType": "address",
							"name": "doctor",
							"type": "address"
						},
						{
							"indexed": false,
							"internalType": "string",
							"name": "details",
							"type": "string"
						},
						{
							"indexed": false,
							"internalType": "uint256",
							"name": "timestamp",
							"type": "uint256"
						}
					],
					"name": "PrescriptionCreated",
					"type": "event"
				},
				{
					"inputs": [
						{
							"internalType": "address",
							"name": "_patient",
							"type": "address"
						},
						{
							"internalType": "string",
							"name": "_details",
							"type": "string"
						}
					],
					"name": "createPrescription",
					"outputs": [],
					"stateMutability": "nonpayable",
					"type": "function"
				},
				{
					"inputs": [],
					"name": "getAllPrescriptions",
					"outputs": [
						{
							"components": [
								{
									"internalType": "address",
									"name": "patient",
									"type": "address"
								},
								{
									"internalType": "address",
									"name": "doctor",
									"type": "address"
								},
								{
									"internalType": "string",
									"name": "details",
									"type": "string"
								},
								{
									"internalType": "uint256",
									"name": "timestamp",
									"type": "uint256"
								}
							],
							"internalType": "struct PrescriptionManager.Prescription[]",
							"name": "",
							"type": "tuple[]"
						}
					],
					"stateMutability": "view",
					"type": "function"
				},
				{
					"inputs": [
						{
							"internalType": "uint256",
							"name": "_id",
							"type": "uint256"
						}
					],
					"name": "getPrescription",
					"outputs": [
						{
							"internalType": "address",
							"name": "",
							"type": "address"
						},
						{
							"internalType": "address",
							"name": "",
							"type": "address"
						},
						{
							"internalType": "string",
							"name": "",
							"type": "string"
						},
						{
							"internalType": "uint256",
							"name": "",
							"type": "uint256"
						}
					],
					"stateMutability": "view",
					"type": "function"
				},
				{
					"inputs": [
						{
							"internalType": "uint256",
							"name": "",
							"type": "uint256"
						}
					],
					"name": "prescriptions",
					"outputs": [
						{
							"internalType": "address",
							"name": "patient",
							"type": "address"
						},
						{
							"internalType": "address",
							"name": "doctor",
							"type": "address"
						},
						{
							"internalType": "string",
							"name": "details",
							"type": "string"
						},
						{
							"internalType": "uint256",
							"name": "timestamp",
							"type": "uint256"
						}
					],
					"stateMutability": "view",
					"type": "function"
				}
			],
			"devdoc": {
				"kind": "dev",
				"methods": {},
				"version": 1
			},
			"evm": {
				"assembly": "    /* \"PrescriptionManager.sol\":60:1379  contract PrescriptionManager {\r... */\n  mstore(0x40, 0x80)\n  callvalue\n  dup1\n  iszero\n  tag_1\n  jumpi\n  0x00\n  dup1\n  revert\ntag_1:\n  pop\n  dataSize(sub_0)\n  dup1\n  dataOffset(sub_0)\n  0x00\n  codecopy\n  0x00\n  return\nstop\n\nsub_0: assembly {\n        /* \"PrescriptionManager.sol\":60:1379  contract PrescriptionManager {\r... */\n      mstore(0x40, 0x80)\n      callvalue\n      dup1\n      iszero\n      tag_1\n      jumpi\n      0x00\n      dup1\n      revert\n    tag_1:\n      pop\n      jumpi(tag_2, lt(calldatasize, 0x04))\n      shr(0xe0, calldataload(0x00))\n      dup1\n      0x0163e4f8\n      eq\n      tag_3\n      jumpi\n      dup1\n      0x31dfc91b\n      eq\n      tag_4\n      jumpi\n      dup1\n      0x6f16af10\n      eq\n      tag_5\n      jumpi\n      dup1\n      0x8a49b9cb\n      eq\n      tag_6\n      jumpi\n    tag_2:\n      0x00\n      dup1\n      revert\n        /* \"PrescriptionManager.sol\":1262:1376  function getAllPrescriptions() public view returns (Prescription[] memory) {\r... */\n    tag_3:\n      tag_7\n      tag_8\n      jump\t// in\n    tag_7:\n      mload(0x40)\n      tag_9\n      swap2\n      swap1\n      tag_10\n      jump\t// in\n    tag_9:\n      mload(0x40)\n      dup1\n      swap2\n      sub\n      swap1\n      return\n        /* \"PrescriptionManager.sol\":236:271  Prescription[] public prescriptions */\n    tag_4:\n      tag_11\n      0x04\n      dup1\n      calldatasize\n      sub\n      dup2\n      add\n      swap1\n      tag_12\n      swap2\n      swap1\n      tag_13\n      jump\t// in\n    tag_12:\n      tag_14\n      jump\t// in\n    tag_11:\n      mload(0x40)\n      tag_15\n      swap5\n      swap4\n      swap3\n      swap2\n      swap1\n      tag_16\n      jump\t// in\n    tag_15:\n      mload(0x40)\n      dup1\n      swap2\n      sub\n      swap1\n      return\n        /* \"PrescriptionManager.sol\":937:1254  function getPrescription(uint256 _id) public view returns (address, address, string memory, uint256) {\r... */\n    tag_5:\n      tag_17\n      0x04\n      dup1\n      calldatasize\n      sub\n      dup2\n      add\n      swap1\n      tag_18\n      swap2\n      swap1\n      tag_13\n      jump\t// in\n    tag_18:\n      tag_19\n      jump\t// in\n    tag_17:\n      mload(0x40)\n      tag_20\n      swap5\n      swap4\n      swap3\n      swap2\n      swap1\n      tag_16\n      jump\t// in\n    tag_20:\n      mload(0x40)\n      dup1\n      swap2\n      sub\n      swap1\n      return\n        /* \"PrescriptionManager.sol\":462:929  function createPrescription(address _patient, string memory _details) public {\r... */\n    tag_6:\n      tag_21\n      0x04\n      dup1\n      calldatasize\n      sub\n      dup2\n      add\n      swap1\n      tag_22\n      swap2\n      swap1\n      tag_23\n      jump\t// in\n    tag_22:\n      tag_24\n      jump\t// in\n    tag_21:\n      stop\n        /* \"PrescriptionManager.sol\":1262:1376  function getAllPrescriptions() public view returns (Prescription[] memory) {\r... */\n    tag_8:\n        /* \"PrescriptionManager.sol\":1314:1335  Prescription[] memory */\n      0x60\n        /* \"PrescriptionManager.sol\":1355:1368  prescriptions */\n      0x00\n        /* \"PrescriptionManager.sol\":1348:1368  return prescriptions */\n      dup1\n      sload\n      dup1\n      0x20\n      mul\n      0x20\n      add\n      mload(0x40)\n      swap1\n      dup2\n      add\n      0x40\n      mstore\n      dup1\n      swap3\n      swap2\n      swap1\n      dup2\n      dup2\n      mstore\n      0x20\n      add\n      0x00\n      swap1\n    tag_26:\n      dup3\n      dup3\n      lt\n      iszero\n      tag_27\n      jumpi\n      dup4\n      dup3\n      swap1\n      0x00\n      mstore\n      keccak256(0x00, 0x20)\n      swap1\n      0x04\n      mul\n      add\n      mload(0x40)\n      dup1\n      0x80\n      add\n      0x40\n      mstore\n      swap1\n      dup2\n      0x00\n      dup3\n      add\n      0x00\n      swap1\n      sload\n      swap1\n      0x0100\n      exp\n      swap1\n      div\n      0xffffffffffffffffffffffffffffffffffffffff\n      and\n      0xffffffffffffffffffffffffffffffffffffffff\n      and\n      0xffffffffffffffffffffffffffffffffffffffff\n      and\n      dup2\n      mstore\n      0x20\n      add\n      0x01\n      dup3\n      add\n      0x00\n      swap1\n      sload\n      swap1\n      0x0100\n      exp\n      swap1\n      div\n      0xffffffffffffffffffffffffffffffffffffffff\n      and\n      0xffffffffffffffffffffffffffffffffffffffff\n      and\n      0xffffffffffffffffffffffffffffffffffffffff\n      and\n      dup2\n      mstore\n      0x20\n      add\n      0x02\n      dup3\n      add\n      dup1\n      sload\n      tag_29\n      swap1\n      tag_30\n      jump\t// in\n    tag_29:\n      dup1\n      0x1f\n      add\n      0x20\n      dup1\n      swap2\n      div\n      mul\n      0x20\n      add\n      mload(0x40)\n      swap1\n      dup2\n      add\n      0x40\n      mstore\n      dup1\n      swap3\n      swap2\n      swap1\n      dup2\n      dup2\n      mstore\n      0x20\n      add\n      dup3\n      dup1\n      sload\n      tag_31\n      swap1\n      tag_30\n      jump\t// in\n    tag_31:\n      dup1\n      iszero\n      tag_32\n      jumpi\n      dup1\n      0x1f\n      lt\n      tag_33\n      jumpi\n      0x0100\n      dup1\n      dup4\n      sload\n      div\n      mul\n      dup4\n      mstore\n      swap2\n      0x20\n      add\n      swap2\n      jump(tag_32)\n    tag_33:\n      dup3\n      add\n      swap2\n      swap1\n      0x00\n      mstore\n      keccak256(0x00, 0x20)\n      swap1\n    tag_34:\n      dup2\n      sload\n      dup2\n      mstore\n      swap1\n      0x01\n      add\n      swap1\n      0x20\n      add\n      dup1\n      dup4\n      gt\n      tag_34\n      jumpi\n      dup3\n      swap1\n      sub\n      0x1f\n      and\n      dup3\n      add\n      swap2\n    tag_32:\n      pop\n      pop\n      pop\n      pop\n      pop\n      dup2\n      mstore\n      0x20\n      add\n      0x03\n      dup3\n      add\n      sload\n      dup2\n      mstore\n      pop\n      pop\n      dup2\n      mstore\n      0x20\n      add\n      swap1\n      0x01\n      add\n      swap1\n      jump(tag_26)\n    tag_27:\n      pop\n      pop\n      pop\n      pop\n      swap1\n      pop\n        /* \"PrescriptionManager.sol\":1262:1376  function getAllPrescriptions() public view returns (Prescription[] memory) {\r... */\n      swap1\n      jump\t// out\n        /* \"PrescriptionManager.sol\":236:271  Prescription[] public prescriptions */\n    tag_14:\n      0x00\n      dup2\n      dup2\n      sload\n      dup2\n      lt\n      tag_35\n      jumpi\n      0x00\n      dup1\n      revert\n    tag_35:\n      swap1\n      0x00\n      mstore\n      keccak256(0x00, 0x20)\n      swap1\n      0x04\n      mul\n      add\n      0x00\n      swap2\n      pop\n      swap1\n      pop\n      dup1\n      0x00\n      add\n      0x00\n      swap1\n      sload\n      swap1\n      0x0100\n      exp\n      swap1\n      div\n      0xffffffffffffffffffffffffffffffffffffffff\n      and\n      swap1\n      dup1\n      0x01\n      add\n      0x00\n      swap1\n      sload\n      swap1\n      0x0100\n      exp\n      swap1\n      div\n      0xffffffffffffffffffffffffffffffffffffffff\n      and\n      swap1\n      dup1\n      0x02\n      add\n      dup1\n      sload\n      tag_37\n      swap1\n      tag_30\n      jump\t// in\n    tag_37:\n      dup1\n      0x1f\n      add\n      0x20\n      dup1\n      swap2\n      div\n      mul\n      0x20\n      add\n      mload(0x40)\n      swap1\n      dup2\n      add\n      0x40\n      mstore\n      dup1\n      swap3\n      swap2\n      swap1\n      dup2\n      dup2\n      mstore\n      0x20\n      add\n      dup3\n      dup1\n      sload\n      tag_38\n      swap1\n      tag_30\n      jump\t// in\n    tag_38:\n      dup1\n      iszero\n      tag_39\n      jumpi\n      dup1\n      0x1f\n      lt\n      tag_40\n      jumpi\n      0x0100\n      dup1\n      dup4\n      sload\n      div\n      mul\n      dup4\n      mstore\n      swap2\n      0x20\n      add\n      swap2\n      jump(tag_39)\n    tag_40:\n      dup3\n      add\n      swap2\n      swap1\n      0x00\n      mstore\n      keccak256(0x00, 0x20)\n      swap1\n    tag_41:\n      dup2\n      sload\n      dup2\n      mstore\n      swap1\n      0x01\n      add\n      swap1\n      0x20\n      add\n      dup1\n      dup4\n      gt\n      tag_41\n      jumpi\n      dup3\n      swap1\n      sub\n      0x1f\n      and\n      dup3\n      add\n      swap2\n    tag_39:\n      pop\n      pop\n      pop\n      pop\n      pop\n      swap1\n      dup1\n      0x03\n      add\n      sload\n      swap1\n      pop\n      dup5\n      jump\t// out\n        /* \"PrescriptionManager.sol\":937:1254  function getPrescription(uint256 _id) public view returns (address, address, string memory, uint256) {\r... */\n    tag_19:\n        /* \"PrescriptionManager.sol\":996:1003  address */\n      0x00\n        /* \"PrescriptionManager.sol\":1005:1012  address */\n      dup1\n        /* \"PrescriptionManager.sol\":1014:1027  string memory */\n      0x60\n        /* \"PrescriptionManager.sol\":1029:1036  uint256 */\n      0x00\n        /* \"PrescriptionManager.sol\":1063:1076  prescriptions */\n      dup1\n        /* \"PrescriptionManager.sol\":1063:1083  prescriptions.length */\n      dup1\n      sload\n      swap1\n      pop\n        /* \"PrescriptionManager.sol\":1057:1060  _id */\n      dup6\n        /* \"PrescriptionManager.sol\":1057:1083  _id < prescriptions.length */\n      lt\n        /* \"PrescriptionManager.sol\":1049:1115  require(_id < prescriptions.length, \"Prescription does not exist\") */\n      tag_43\n      jumpi\n      mload(0x40)\n      0x08c379a000000000000000000000000000000000000000000000000000000000\n      dup2\n      mstore\n      0x04\n      add\n      tag_44\n      swap1\n      tag_45\n      jump\t// in\n    tag_44:\n      mload(0x40)\n      dup1\n      swap2\n      sub\n      swap1\n      revert\n    tag_43:\n        /* \"PrescriptionManager.sol\":1126:1150  Prescription memory pres */\n      0x00\n        /* \"PrescriptionManager.sol\":1153:1166  prescriptions */\n      dup1\n        /* \"PrescriptionManager.sol\":1167:1170  _id */\n      dup7\n        /* \"PrescriptionManager.sol\":1153:1171  prescriptions[_id] */\n      dup2\n      sload\n      dup2\n      lt\n      tag_46\n      jumpi\n      mstore(0x00, 0x4e487b7100000000000000000000000000000000000000000000000000000000)\n      mstore(0x04, 0x32)\n      revert(0x00, 0x24)\n    tag_46:\n      swap1\n      0x00\n      mstore\n      keccak256(0x00, 0x20)\n      swap1\n      0x04\n      mul\n      add\n        /* \"PrescriptionManager.sol\":1126:1171  Prescription memory pres = prescriptions[_id] */\n      mload(0x40)\n      dup1\n      0x80\n      add\n      0x40\n      mstore\n      swap1\n      dup2\n      0x00\n      dup3\n      add\n      0x00\n      swap1\n      sload\n      swap1\n      0x0100\n      exp\n      swap1\n      div\n      0xffffffffffffffffffffffffffffffffffffffff\n      and\n      0xffffffffffffffffffffffffffffffffffffffff\n      and\n      0xffffffffffffffffffffffffffffffffffffffff\n      and\n      dup2\n      mstore\n      0x20\n      add\n      0x01\n      dup3\n      add\n      0x00\n      swap1\n      sload\n      swap1\n      0x0100\n      exp\n      swap1\n      div\n      0xffffffffffffffffffffffffffffffffffffffff\n      and\n      0xffffffffffffffffffffffffffffffffffffffff\n      and\n      0xffffffffffffffffffffffffffffffffffffffff\n      and\n      dup2\n      mstore\n      0x20\n      add\n      0x02\n      dup3\n      add\n      dup1\n      sload\n      tag_48\n      swap1\n      tag_30\n      jump\t// in\n    tag_48:\n      dup1\n      0x1f\n      add\n      0x20\n      dup1\n      swap2\n      div\n      mul\n      0x20\n      add\n      mload(0x40)\n      swap1\n      dup2\n      add\n      0x40\n      mstore\n      dup1\n      swap3\n      swap2\n      swap1\n      dup2\n      dup2\n      mstore\n      0x20\n      add\n      dup3\n      dup1\n      sload\n      tag_49\n      swap1\n      tag_30\n      jump\t// in\n    tag_49:\n      dup1\n      iszero\n      tag_50\n      jumpi\n      dup1\n      0x1f\n      lt\n      tag_51\n      jumpi\n      0x0100\n      dup1\n      dup4\n      sload\n      div\n      mul\n      dup4\n      mstore\n      swap2\n      0x20\n      add\n      swap2\n      jump(tag_50)\n    tag_51:\n      dup3\n      add\n      swap2\n      swap1\n      0x00\n      mstore\n      keccak256(0x00, 0x20)\n      swap1\n    tag_52:\n      dup2\n      sload\n      dup2\n      mstore\n      swap1\n      0x01\n      add\n      swap1\n      0x20\n      add\n      dup1\n      dup4\n      gt\n      tag_52\n      jumpi\n      dup3\n      swap1\n      sub\n      0x1f\n      and\n      dup3\n      add\n      swap2\n    tag_50:\n      pop\n      pop\n      pop\n      pop\n      pop\n      dup2\n      mstore\n      0x20\n      add\n      0x03\n      dup3\n      add\n      sload\n      dup2\n      mstore\n      pop\n      pop\n      swap1\n      pop\n        /* \"PrescriptionManager.sol\":1190:1194  pres */\n      dup1\n        /* \"PrescriptionManager.sol\":1190:1202  pres.patient */\n      0x00\n      add\n      mload\n        /* \"PrescriptionManager.sol\":1204:1208  pres */\n      dup2\n        /* \"PrescriptionManager.sol\":1204:1215  pres.doctor */\n      0x20\n      add\n      mload\n        /* \"PrescriptionManager.sol\":1217:1221  pres */\n      dup3\n        /* \"PrescriptionManager.sol\":1217:1229  pres.details */\n      0x40\n      add\n      mload\n        /* \"PrescriptionManager.sol\":1231:1235  pres */\n      dup4\n        /* \"PrescriptionManager.sol\":1231:1245  pres.timestamp */\n      0x60\n      add\n      mload\n        /* \"PrescriptionManager.sol\":1182:1246  return (pres.patient, pres.doctor, pres.details, pres.timestamp) */\n      swap5\n      pop\n      swap5\n      pop\n      swap5\n      pop\n      swap5\n      pop\n      pop\n        /* \"PrescriptionManager.sol\":937:1254  function getPrescription(uint256 _id) public view returns (address, address, string memory, uint256) {\r... */\n      swap2\n      swap4\n      pop\n      swap2\n      swap4\n      jump\t// out\n        /* \"PrescriptionManager.sol\":462:929  function createPrescription(address _patient, string memory _details) public {\r... */\n    tag_24:\n        /* \"PrescriptionManager.sol\":550:563  prescriptions */\n      0x00\n        /* \"PrescriptionManager.sol\":569:732  Prescription({\r... */\n      mload(0x40)\n      dup1\n      0x80\n      add\n      0x40\n      mstore\n      dup1\n        /* \"PrescriptionManager.sol\":606:614  _patient */\n      dup5\n        /* \"PrescriptionManager.sol\":569:732  Prescription({\r... */\n      0xffffffffffffffffffffffffffffffffffffffff\n      and\n      dup2\n      mstore\n      0x20\n      add\n        /* \"PrescriptionManager.sol\":637:647  msg.sender */\n      caller\n        /* \"PrescriptionManager.sol\":569:732  Prescription({\r... */\n      0xffffffffffffffffffffffffffffffffffffffff\n      and\n      dup2\n      mstore\n      0x20\n      add\n        /* \"PrescriptionManager.sol\":671:679  _details */\n      dup4\n        /* \"PrescriptionManager.sol\":569:732  Prescription({\r... */\n      dup2\n      mstore\n      0x20\n      add\n        /* \"PrescriptionManager.sol\":705:720  block.timestamp */\n      timestamp\n        /* \"PrescriptionManager.sol\":569:732  Prescription({\r... */\n      dup2\n      mstore\n      pop\n        /* \"PrescriptionManager.sol\":550:733  prescriptions.push(Prescription({\r... */\n      swap1\n      dup1\n      0x01\n      dup2\n      sload\n      add\n      dup1\n      dup3\n      sstore\n      dup1\n      swap2\n      pop\n      pop\n      0x01\n      swap1\n      sub\n      swap1\n      0x00\n      mstore\n      keccak256(0x00, 0x20)\n      swap1\n      0x04\n      mul\n      add\n      0x00\n      swap1\n      swap2\n      swap1\n      swap2\n      swap1\n      swap2\n      pop\n      0x00\n      dup3\n      add\n      mload\n      dup2\n      0x00\n      add\n      exp(0x0100, 0x00)\n      dup2\n      sload\n      dup2\n      0xffffffffffffffffffffffffffffffffffffffff\n      mul\n      not\n      and\n      swap1\n      dup4\n      0xffffffffffffffffffffffffffffffffffffffff\n      and\n      mul\n      or\n      swap1\n      sstore\n      pop\n      0x20\n      dup3\n      add\n      mload\n      dup2\n      0x01\n      add\n      exp(0x0100, 0x00)\n      dup2\n      sload\n      dup2\n      0xffffffffffffffffffffffffffffffffffffffff\n      mul\n      not\n      and\n      swap1\n      dup4\n      0xffffffffffffffffffffffffffffffffffffffff\n      and\n      mul\n      or\n      swap1\n      sstore\n      pop\n      0x40\n      dup3\n      add\n      mload\n      dup2\n      0x02\n      add\n      swap1\n      dup1\n      mload\n      swap1\n      0x20\n      add\n      swap1\n      tag_55\n      swap3\n      swap2\n      swap1\n      tag_56\n      jump\t// in\n    tag_55:\n      pop\n      0x60\n      dup3\n      add\n      mload\n      dup2\n      0x03\n      add\n      sstore\n      pop\n      pop\n        /* \"PrescriptionManager.sol\":847:857  msg.sender */\n      caller\n        /* \"PrescriptionManager.sol\":751:921  PrescriptionCreated(\r... */\n      0xffffffffffffffffffffffffffffffffffffffff\n      and\n        /* \"PrescriptionManager.sol\":824:832  _patient */\n      dup3\n        /* \"PrescriptionManager.sol\":751:921  PrescriptionCreated(\r... */\n      0xffffffffffffffffffffffffffffffffffffffff\n      and\n      0x4e50d65e3039b1935ded6e5a2f5959659f6edf55fef2bb96d093f76cdcf62850\n        /* \"PrescriptionManager.sol\":808:809  1 */\n      0x01\n        /* \"PrescriptionManager.sol\":785:798  prescriptions */\n      0x00\n        /* \"PrescriptionManager.sol\":785:805  prescriptions.length */\n      dup1\n      sload\n      swap1\n      pop\n        /* \"PrescriptionManager.sol\":785:809  prescriptions.length - 1 */\n      tag_57\n      swap2\n      swap1\n      tag_58\n      jump\t// in\n    tag_57:\n        /* \"PrescriptionManager.sol\":872:880  _details */\n      dup5\n        /* \"PrescriptionManager.sol\":895:910  block.timestamp */\n      timestamp\n        /* \"PrescriptionManager.sol\":751:921  PrescriptionCreated(\r... */\n      mload(0x40)\n      tag_59\n      swap4\n      swap3\n      swap2\n      swap1\n      tag_60\n      jump\t// in\n    tag_59:\n      mload(0x40)\n      dup1\n      swap2\n      sub\n      swap1\n      log3\n        /* \"PrescriptionManager.sol\":462:929  function createPrescription(address _patient, string memory _details) public {\r... */\n      pop\n      pop\n      jump\t// out\n    tag_56:\n      dup3\n      dup1\n      sload\n      tag_61\n      swap1\n      tag_30\n      jump\t// in\n    tag_61:\n      swap1\n      0x00\n      mstore\n      keccak256(0x00, 0x20)\n      swap1\n      0x1f\n      add\n      0x20\n      swap1\n      div\n      dup2\n      add\n      swap3\n      dup3\n      tag_63\n      jumpi\n      0x00\n      dup6\n      sstore\n      jump(tag_62)\n    tag_63:\n      dup3\n      0x1f\n      lt\n      tag_64\n      jumpi\n      dup1\n      mload\n      not(0xff)\n      and\n      dup4\n      dup1\n      add\n      or\n      dup6\n      sstore\n      jump(tag_62)\n    tag_64:\n      dup3\n      dup1\n      add\n      0x01\n      add\n      dup6\n      sstore\n      dup3\n      iszero\n      tag_62\n      jumpi\n      swap2\n      dup3\n      add\n    tag_65:\n      dup3\n      dup2\n      gt\n      iszero\n      tag_66\n      jumpi\n      dup3\n      mload\n      dup3\n      sstore\n      swap2\n      0x20\n      add\n      swap2\n      swap1\n      0x01\n      add\n      swap1\n      jump(tag_65)\n    tag_66:\n    tag_62:\n      pop\n      swap1\n      pop\n      tag_67\n      swap2\n      swap1\n      tag_68\n      jump\t// in\n    tag_67:\n      pop\n      swap1\n      jump\t// out\n    tag_68:\n    tag_69:\n      dup1\n      dup3\n      gt\n      iszero\n      tag_70\n      jumpi\n      0x00\n      dup2\n      0x00\n      swap1\n      sstore\n      pop\n      0x01\n      add\n      jump(tag_69)\n    tag_70:\n      pop\n      swap1\n      jump\t// out\n        /* \"#utility.yul\":7:351   */\n    tag_72:\n      0x00\n        /* \"#utility.yul\":110:175   */\n      tag_74\n        /* \"#utility.yul\":125:174   */\n      tag_75\n        /* \"#utility.yul\":167:173   */\n      dup5\n        /* \"#utility.yul\":125:174   */\n      tag_76\n      jump\t// in\n    tag_75:\n        /* \"#utility.yul\":110:175   */\n      tag_77\n      jump\t// in\n    tag_74:\n        /* \"#utility.yul\":101:175   */\n      swap1\n      pop\n        /* \"#utility.yul\":198:204   */\n      dup3\n        /* \"#utility.yul\":191:196   */\n      dup2\n        /* \"#utility.yul\":184:205   */\n      mstore\n        /* \"#utility.yul\":236:240   */\n      0x20\n        /* \"#utility.yul\":229:234   */\n      dup2\n        /* \"#utility.yul\":225:241   */\n      add\n        /* \"#utility.yul\":274:277   */\n      dup5\n        /* \"#utility.yul\":265:271   */\n      dup5\n        /* \"#utility.yul\":260:263   */\n      dup5\n        /* \"#utility.yul\":256:272   */\n      add\n        /* \"#utility.yul\":253:278   */\n      gt\n        /* \"#utility.yul\":250:252   */\n      iszero\n      tag_78\n      jumpi\n        /* \"#utility.yul\":291:292   */\n      0x00\n        /* \"#utility.yul\":288:289   */\n      dup1\n        /* \"#utility.yul\":281:293   */\n      revert\n        /* \"#utility.yul\":250:252   */\n    tag_78:\n        /* \"#utility.yul\":304:345   */\n      tag_79\n        /* \"#utility.yul\":338:344   */\n      dup5\n        /* \"#utility.yul\":333:336   */\n      dup3\n        /* \"#utility.yul\":328:331   */\n      dup6\n        /* \"#utility.yul\":304:345   */\n      tag_80\n      jump\t// in\n    tag_79:\n        /* \"#utility.yul\":91:351   */\n      pop\n      swap4\n      swap3\n      pop\n      pop\n      pop\n      jump\t// out\n        /* \"#utility.yul\":357:496   */\n    tag_81:\n      0x00\n        /* \"#utility.yul\":441:447   */\n      dup2\n        /* \"#utility.yul\":428:448   */\n      calldataload\n        /* \"#utility.yul\":419:448   */\n      swap1\n      pop\n        /* \"#utility.yul\":457:490   */\n      tag_83\n        /* \"#utility.yul\":484:489   */\n      dup2\n        /* \"#utility.yul\":457:490   */\n      tag_84\n      jump\t// in\n    tag_83:\n        /* \"#utility.yul\":409:496   */\n      swap3\n      swap2\n      pop\n      pop\n      jump\t// out\n        /* \"#utility.yul\":516:789   */\n    tag_85:\n      0x00\n        /* \"#utility.yul\":621:624   */\n      dup3\n        /* \"#utility.yul\":614:618   */\n      0x1f\n        /* \"#utility.yul\":606:612   */\n      dup4\n        /* \"#utility.yul\":602:619   */\n      add\n        /* \"#utility.yul\":598:625   */\n      slt\n        /* \"#utility.yul\":588:590   */\n      tag_87\n      jumpi\n        /* \"#utility.yul\":639:640   */\n      0x00\n        /* \"#utility.yul\":636:637   */\n      dup1\n        /* \"#utility.yul\":629:641   */\n      revert\n        /* \"#utility.yul\":588:590   */\n    tag_87:\n        /* \"#utility.yul\":679:685   */\n      dup2\n        /* \"#utility.yul\":666:686   */\n      calldataload\n        /* \"#utility.yul\":704:783   */\n      tag_88\n        /* \"#utility.yul\":779:782   */\n      dup5\n        /* \"#utility.yul\":771:777   */\n      dup3\n        /* \"#utility.yul\":764:768   */\n      0x20\n        /* \"#utility.yul\":756:762   */\n      dup7\n        /* \"#utility.yul\":752:769   */\n      add\n        /* \"#utility.yul\":704:783   */\n      tag_72\n      jump\t// in\n    tag_88:\n        /* \"#utility.yul\":695:783   */\n      swap2\n      pop\n        /* \"#utility.yul\":578:789   */\n      pop\n      swap3\n      swap2\n      pop\n      pop\n      jump\t// out\n        /* \"#utility.yul\":795:934   */\n    tag_89:\n      0x00\n        /* \"#utility.yul\":879:885   */\n      dup2\n        /* \"#utility.yul\":866:886   */\n      calldataload\n        /* \"#utility.yul\":857:886   */\n      swap1\n      pop\n        /* \"#utility.yul\":895:928   */\n      tag_91\n        /* \"#utility.yul\":922:927   */\n      dup2\n        /* \"#utility.yul\":895:928   */\n      tag_92\n      jump\t// in\n    tag_91:\n        /* \"#utility.yul\":847:934   */\n      swap3\n      swap2\n      pop\n      pop\n      jump\t// out\n        /* \"#utility.yul\":940:1460   */\n    tag_23:\n      0x00\n      dup1\n        /* \"#utility.yul\":1075:1077   */\n      0x40\n        /* \"#utility.yul\":1063:1072   */\n      dup4\n        /* \"#utility.yul\":1054:1061   */\n      dup6\n        /* \"#utility.yul\":1050:1073   */\n      sub\n        /* \"#utility.yul\":1046:1078   */\n      slt\n        /* \"#utility.yul\":1043:1045   */\n      iszero\n      tag_94\n      jumpi\n        /* \"#utility.yul\":1091:1092   */\n      0x00\n        /* \"#utility.yul\":1088:1089   */\n      dup1\n        /* \"#utility.yul\":1081:1093   */\n      revert\n        /* \"#utility.yul\":1043:1045   */\n    tag_94:\n        /* \"#utility.yul\":1134:1135   */\n      0x00\n        /* \"#utility.yul\":1159:1212   */\n      tag_95\n        /* \"#utility.yul\":1204:1211   */\n      dup6\n        /* \"#utility.yul\":1195:1201   */\n      dup3\n        /* \"#utility.yul\":1184:1193   */\n      dup7\n        /* \"#utility.yul\":1180:1202   */\n      add\n        /* \"#utility.yul\":1159:1212   */\n      tag_81\n      jump\t// in\n    tag_95:\n        /* \"#utility.yul\":1149:1212   */\n      swap3\n      pop\n        /* \"#utility.yul\":1105:1222   */\n      pop\n        /* \"#utility.yul\":1289:1291   */\n      0x20\n        /* \"#utility.yul\":1278:1287   */\n      dup4\n        /* \"#utility.yul\":1274:1292   */\n      add\n        /* \"#utility.yul\":1261:1293   */\n      calldataload\n        /* \"#utility.yul\":1320:1338   */\n      0xffffffffffffffff\n        /* \"#utility.yul\":1312:1318   */\n      dup2\n        /* \"#utility.yul\":1309:1339   */\n      gt\n        /* \"#utility.yul\":1306:1308   */\n      iszero\n      tag_96\n      jumpi\n        /* \"#utility.yul\":1352:1353   */\n      0x00\n        /* \"#utility.yul\":1349:1350   */\n      dup1\n        /* \"#utility.yul\":1342:1354   */\n      revert\n        /* \"#utility.yul\":1306:1308   */\n    tag_96:\n        /* \"#utility.yul\":1380:1443   */\n      tag_97\n        /* \"#utility.yul\":1435:1442   */\n      dup6\n        /* \"#utility.yul\":1426:1432   */\n      dup3\n        /* \"#utility.yul\":1415:1424   */\n      dup7\n        /* \"#utility.yul\":1411:1433   */\n      add\n        /* \"#utility.yul\":1380:1443   */\n      tag_85\n      jump\t// in\n    tag_97:\n        /* \"#utility.yul\":1370:1443   */\n      swap2\n      pop\n        /* \"#utility.yul\":1232:1453   */\n      pop\n        /* \"#utility.yul\":1033:1460   */\n      swap3\n      pop\n      swap3\n      swap1\n      pop\n      jump\t// out\n        /* \"#utility.yul\":1466:1728   */\n    tag_13:\n      0x00\n        /* \"#utility.yul\":1574:1576   */\n      0x20\n        /* \"#utility.yul\":1562:1571   */\n      dup3\n        /* \"#utility.yul\":1553:1560   */\n      dup5\n        /* \"#utility.yul\":1549:1572   */\n      sub\n        /* \"#utility.yul\":1545:1577   */\n      slt\n        /* \"#utility.yul\":1542:1544   */\n      iszero\n      tag_99\n      jumpi\n        /* \"#utility.yul\":1590:1591   */\n      0x00\n        /* \"#utility.yul\":1587:1588   */\n      dup1\n        /* \"#utility.yul\":1580:1592   */\n      revert\n        /* \"#utility.yul\":1542:1544   */\n    tag_99:\n        /* \"#utility.yul\":1633:1634   */\n      0x00\n        /* \"#utility.yul\":1658:1711   */\n      tag_100\n        /* \"#utility.yul\":1703:1710   */\n      dup5\n        /* \"#utility.yul\":1694:1700   */\n      dup3\n        /* \"#utility.yul\":1683:1692   */\n      dup6\n        /* \"#utility.yul\":1679:1701   */\n      add\n        /* \"#utility.yul\":1658:1711   */\n      tag_89\n      jump\t// in\n    tag_100:\n        /* \"#utility.yul\":1648:1711   */\n      swap2\n      pop\n        /* \"#utility.yul\":1604:1721   */\n      pop\n        /* \"#utility.yul\":1532:1728   */\n      swap3\n      swap2\n      pop\n      pop\n      jump\t// out\n        /* \"#utility.yul\":1734:2002   */\n    tag_101:\n      0x00\n        /* \"#utility.yul\":1894:1996   */\n      tag_103\n        /* \"#utility.yul\":1992:1995   */\n      dup4\n        /* \"#utility.yul\":1984:1990   */\n      dup4\n        /* \"#utility.yul\":1894:1996   */\n      tag_104\n      jump\t// in\n    tag_103:\n        /* \"#utility.yul\":1880:1996   */\n      swap1\n      pop\n        /* \"#utility.yul\":1870:2002   */\n      swap3\n      swap2\n      pop\n      pop\n      jump\t// out\n        /* \"#utility.yul\":2008:2116   */\n    tag_105:\n        /* \"#utility.yul\":2085:2109   */\n      tag_107\n        /* \"#utility.yul\":2103:2108   */\n      dup2\n        /* \"#utility.yul\":2085:2109   */\n      tag_108\n      jump\t// in\n    tag_107:\n        /* \"#utility.yul\":2080:2083   */\n      dup3\n        /* \"#utility.yul\":2073:2110   */\n      mstore\n        /* \"#utility.yul\":2063:2116   */\n      pop\n      pop\n      jump\t// out\n        /* \"#utility.yul\":2122:2240   */\n    tag_109:\n        /* \"#utility.yul\":2209:2233   */\n      tag_111\n        /* \"#utility.yul\":2227:2232   */\n      dup2\n        /* \"#utility.yul\":2209:2233   */\n      tag_108\n      jump\t// in\n    tag_111:\n        /* \"#utility.yul\":2204:2207   */\n      dup3\n        /* \"#utility.yul\":2197:2234   */\n      mstore\n        /* \"#utility.yul\":2187:2240   */\n      pop\n      pop\n      jump\t// out\n        /* \"#utility.yul\":2340:3475   */\n    tag_112:\n      0x00\n        /* \"#utility.yul\":2544:2626   */\n      tag_114\n        /* \"#utility.yul\":2620:2625   */\n      dup3\n        /* \"#utility.yul\":2544:2626   */\n      tag_115\n      jump\t// in\n    tag_114:\n        /* \"#utility.yul\":2642:2756   */\n      tag_116\n        /* \"#utility.yul\":2749:2755   */\n      dup2\n        /* \"#utility.yul\":2744:2747   */\n      dup6\n        /* \"#utility.yul\":2642:2756   */\n      tag_117\n      jump\t// in\n    tag_116:\n        /* \"#utility.yul\":2635:2756   */\n      swap4\n      pop\n        /* \"#utility.yul\":2782:2785   */\n      dup4\n        /* \"#utility.yul\":2827:2831   */\n      0x20\n        /* \"#utility.yul\":2819:2825   */\n      dup3\n        /* \"#utility.yul\":2815:2832   */\n      mul\n        /* \"#utility.yul\":2810:2813   */\n      dup6\n        /* \"#utility.yul\":2806:2833   */\n      add\n        /* \"#utility.yul\":2857:2941   */\n      tag_118\n        /* \"#utility.yul\":2935:2940   */\n      dup6\n        /* \"#utility.yul\":2857:2941   */\n      tag_119\n      jump\t// in\n    tag_118:\n        /* \"#utility.yul\":2964:2971   */\n      dup1\n        /* \"#utility.yul\":2995:2996   */\n      0x00\n        /* \"#utility.yul\":2980:3430   */\n    tag_120:\n        /* \"#utility.yul\":3005:3011   */\n      dup6\n        /* \"#utility.yul\":3002:3003   */\n      dup2\n        /* \"#utility.yul\":2999:3012   */\n      lt\n        /* \"#utility.yul\":2980:3430   */\n      iszero\n      tag_122\n      jumpi\n        /* \"#utility.yul\":3076:3085   */\n      dup5\n        /* \"#utility.yul\":3070:3074   */\n      dup5\n        /* \"#utility.yul\":3066:3086   */\n      sub\n        /* \"#utility.yul\":3061:3064   */\n      dup10\n        /* \"#utility.yul\":3054:3087   */\n      mstore\n        /* \"#utility.yul\":3127:3133   */\n      dup2\n        /* \"#utility.yul\":3121:3134   */\n      mload\n        /* \"#utility.yul\":3155:3275   */\n      tag_123\n        /* \"#utility.yul\":3270:3274   */\n      dup6\n        /* \"#utility.yul\":3255:3268   */\n      dup3\n        /* \"#utility.yul\":3155:3275   */\n      tag_101\n      jump\t// in\n    tag_123:\n        /* \"#utility.yul\":3147:3275   */\n      swap5\n      pop\n        /* \"#utility.yul\":3298:3386   */\n      tag_124\n        /* \"#utility.yul\":3379:3385   */\n      dup4\n        /* \"#utility.yul\":3298:3386   */\n      tag_125\n      jump\t// in\n    tag_124:\n        /* \"#utility.yul\":3288:3386   */\n      swap3\n      pop\n        /* \"#utility.yul\":3415:3419   */\n      0x20\n        /* \"#utility.yul\":3410:3413   */\n      dup11\n        /* \"#utility.yul\":3406:3420   */\n      add\n        /* \"#utility.yul\":3399:3420   */\n      swap10\n      pop\n        /* \"#utility.yul\":3040:3430   */\n      pop\n        /* \"#utility.yul\":3027:3028   */\n      0x01\n        /* \"#utility.yul\":3024:3025   */\n      dup2\n        /* \"#utility.yul\":3020:3029   */\n      add\n        /* \"#utility.yul\":3015:3029   */\n      swap1\n      pop\n        /* \"#utility.yul\":2980:3430   */\n      jump(tag_120)\n    tag_122:\n        /* \"#utility.yul\":2984:2998   */\n      pop\n        /* \"#utility.yul\":3446:3450   */\n      dup3\n        /* \"#utility.yul\":3439:3450   */\n      swap8\n      pop\n        /* \"#utility.yul\":3466:3469   */\n      dup8\n        /* \"#utility.yul\":3459:3469   */\n      swap6\n      pop\n        /* \"#utility.yul\":2520:3475   */\n      pop\n      pop\n      pop\n      pop\n      pop\n      swap3\n      swap2\n      pop\n      pop\n      jump\t// out\n        /* \"#utility.yul\":3481:3825   */\n    tag_126:\n      0x00\n        /* \"#utility.yul\":3587:3626   */\n      tag_128\n        /* \"#utility.yul\":3620:3625   */\n      dup3\n        /* \"#utility.yul\":3587:3626   */\n      tag_129\n      jump\t// in\n    tag_128:\n        /* \"#utility.yul\":3642:3703   */\n      tag_130\n        /* \"#utility.yul\":3696:3702   */\n      dup2\n        /* \"#utility.yul\":3691:3694   */\n      dup6\n        /* \"#utility.yul\":3642:3703   */\n      tag_131\n      jump\t// in\n    tag_130:\n        /* \"#utility.yul\":3635:3703   */\n      swap4\n      pop\n        /* \"#utility.yul\":3712:3764   */\n      tag_132\n        /* \"#utility.yul\":3757:3763   */\n      dup2\n        /* \"#utility.yul\":3752:3755   */\n      dup6\n        /* \"#utility.yul\":3745:3749   */\n      0x20\n        /* \"#utility.yul\":3738:3743   */\n      dup7\n        /* \"#utility.yul\":3734:3750   */\n      add\n        /* \"#utility.yul\":3712:3764   */\n      tag_133\n      jump\t// in\n    tag_132:\n        /* \"#utility.yul\":3789:3818   */\n      tag_134\n        /* \"#utility.yul\":3811:3817   */\n      dup2\n        /* \"#utility.yul\":3789:3818   */\n      tag_135\n      jump\t// in\n    tag_134:\n        /* \"#utility.yul\":3784:3787   */\n      dup5\n        /* \"#utility.yul\":3780:3819   */\n      add\n        /* \"#utility.yul\":3773:3819   */\n      swap2\n      pop\n        /* \"#utility.yul\":3563:3825   */\n      pop\n      swap3\n      swap2\n      pop\n      pop\n      jump\t// out\n        /* \"#utility.yul\":3831:4195   */\n    tag_136:\n      0x00\n        /* \"#utility.yul\":3947:3986   */\n      tag_138\n        /* \"#utility.yul\":3980:3985   */\n      dup3\n        /* \"#utility.yul\":3947:3986   */\n      tag_129\n      jump\t// in\n    tag_138:\n        /* \"#utility.yul\":4002:4073   */\n      tag_139\n        /* \"#utility.yul\":4066:4072   */\n      dup2\n        /* \"#utility.yul\":4061:4064   */\n      dup6\n        /* \"#utility.yul\":4002:4073   */\n      tag_140\n      jump\t// in\n    tag_139:\n        /* \"#utility.yul\":3995:4073   */\n      swap4\n      pop\n        /* \"#utility.yul\":4082:4134   */\n      tag_141\n        /* \"#utility.yul\":4127:4133   */\n      dup2\n        /* \"#utility.yul\":4122:4125   */\n      dup6\n        /* \"#utility.yul\":4115:4119   */\n      0x20\n        /* \"#utility.yul\":4108:4113   */\n      dup7\n        /* \"#utility.yul\":4104:4120   */\n      add\n        /* \"#utility.yul\":4082:4134   */\n      tag_133\n      jump\t// in\n    tag_141:\n        /* \"#utility.yul\":4159:4188   */\n      tag_142\n        /* \"#utility.yul\":4181:4187   */\n      dup2\n        /* \"#utility.yul\":4159:4188   */\n      tag_135\n      jump\t// in\n    tag_142:\n        /* \"#utility.yul\":4154:4157   */\n      dup5\n        /* \"#utility.yul\":4150:4189   */\n      add\n        /* \"#utility.yul\":4143:4189   */\n      swap2\n      pop\n        /* \"#utility.yul\":3923:4195   */\n      pop\n      swap3\n      swap2\n      pop\n      pop\n      jump\t// out\n        /* \"#utility.yul\":4201:4526   */\n    tag_143:\n      0x00\n        /* \"#utility.yul\":4364:4431   */\n      tag_145\n        /* \"#utility.yul\":4428:4430   */\n      0x1b\n        /* \"#utility.yul\":4423:4426   */\n      dup4\n        /* \"#utility.yul\":4364:4431   */\n      tag_140\n      jump\t// in\n    tag_145:\n        /* \"#utility.yul\":4357:4431   */\n      swap2\n      pop\n        /* \"#utility.yul\":4461:4490   */\n      0x507265736372697074696f6e20646f6573206e6f742065786973740000000000\n        /* \"#utility.yul\":4457:4458   */\n      0x00\n        /* \"#utility.yul\":4452:4455   */\n      dup4\n        /* \"#utility.yul\":4448:4459   */\n      add\n        /* \"#utility.yul\":4441:4491   */\n      mstore\n        /* \"#utility.yul\":4517:4519   */\n      0x20\n        /* \"#utility.yul\":4512:4515   */\n      dup3\n        /* \"#utility.yul\":4508:4520   */\n      add\n        /* \"#utility.yul\":4501:4520   */\n      swap1\n      pop\n        /* \"#utility.yul\":4347:4526   */\n      swap2\n      swap1\n      pop\n      jump\t// out\n        /* \"#utility.yul\":4622:5585   */\n    tag_104:\n      0x00\n        /* \"#utility.yul\":4773:4777   */\n      0x80\n        /* \"#utility.yul\":4768:4771   */\n      dup4\n        /* \"#utility.yul\":4764:4778   */\n      add\n        /* \"#utility.yul\":4863:4867   */\n      0x00\n        /* \"#utility.yul\":4856:4861   */\n      dup4\n        /* \"#utility.yul\":4852:4868   */\n      add\n        /* \"#utility.yul\":4846:4869   */\n      mload\n        /* \"#utility.yul\":4882:4945   */\n      tag_147\n        /* \"#utility.yul\":4939:4943   */\n      0x00\n        /* \"#utility.yul\":4934:4937   */\n      dup7\n        /* \"#utility.yul\":4930:4944   */\n      add\n        /* \"#utility.yul\":4916:4928   */\n      dup3\n        /* \"#utility.yul\":4882:4945   */\n      tag_105\n      jump\t// in\n    tag_147:\n        /* \"#utility.yul\":4788:4955   */\n      pop\n        /* \"#utility.yul\":5039:5043   */\n      0x20\n        /* \"#utility.yul\":5032:5037   */\n      dup4\n        /* \"#utility.yul\":5028:5044   */\n      add\n        /* \"#utility.yul\":5022:5045   */\n      mload\n        /* \"#utility.yul\":5058:5121   */\n      tag_148\n        /* \"#utility.yul\":5115:5119   */\n      0x20\n        /* \"#utility.yul\":5110:5113   */\n      dup7\n        /* \"#utility.yul\":5106:5120   */\n      add\n        /* \"#utility.yul\":5092:5104   */\n      dup3\n        /* \"#utility.yul\":5058:5121   */\n      tag_105\n      jump\t// in\n    tag_148:\n        /* \"#utility.yul\":4965:5131   */\n      pop\n        /* \"#utility.yul\":5216:5220   */\n      0x40\n        /* \"#utility.yul\":5209:5214   */\n      dup4\n        /* \"#utility.yul\":5205:5221   */\n      add\n        /* \"#utility.yul\":5199:5222   */\n      mload\n        /* \"#utility.yul\":5269:5272   */\n      dup5\n        /* \"#utility.yul\":5263:5267   */\n      dup3\n        /* \"#utility.yul\":5259:5273   */\n      sub\n        /* \"#utility.yul\":5252:5256   */\n      0x40\n        /* \"#utility.yul\":5247:5250   */\n      dup7\n        /* \"#utility.yul\":5243:5257   */\n      add\n        /* \"#utility.yul\":5236:5274   */\n      mstore\n        /* \"#utility.yul\":5295:5368   */\n      tag_149\n        /* \"#utility.yul\":5363:5367   */\n      dup3\n        /* \"#utility.yul\":5349:5361   */\n      dup3\n        /* \"#utility.yul\":5295:5368   */\n      tag_126\n      jump\t// in\n    tag_149:\n        /* \"#utility.yul\":5287:5368   */\n      swap2\n      pop\n        /* \"#utility.yul\":5141:5379   */\n      pop\n        /* \"#utility.yul\":5466:5470   */\n      0x60\n        /* \"#utility.yul\":5459:5464   */\n      dup4\n        /* \"#utility.yul\":5455:5471   */\n      add\n        /* \"#utility.yul\":5449:5472   */\n      mload\n        /* \"#utility.yul\":5485:5548   */\n      tag_150\n        /* \"#utility.yul\":5542:5546   */\n      0x60\n        /* \"#utility.yul\":5537:5540   */\n      dup7\n        /* \"#utility.yul\":5533:5547   */\n      add\n        /* \"#utility.yul\":5519:5531   */\n      dup3\n        /* \"#utility.yul\":5485:5548   */\n      tag_151\n      jump\t// in\n    tag_150:\n        /* \"#utility.yul\":5389:5558   */\n      pop\n        /* \"#utility.yul\":5575:5579   */\n      dup1\n        /* \"#utility.yul\":5568:5579   */\n      swap2\n      pop\n        /* \"#utility.yul\":4742:5585   */\n      pop\n      swap3\n      swap2\n      pop\n      pop\n      jump\t// out\n        /* \"#utility.yul\":5591:5699   */\n    tag_151:\n        /* \"#utility.yul\":5668:5692   */\n      tag_153\n        /* \"#utility.yul\":5686:5691   */\n      dup2\n        /* \"#utility.yul\":5668:5692   */\n      tag_154\n      jump\t// in\n    tag_153:\n        /* \"#utility.yul\":5663:5666   */\n      dup3\n        /* \"#utility.yul\":5656:5693   */\n      mstore\n        /* \"#utility.yul\":5646:5699   */\n      pop\n      pop\n      jump\t// out\n        /* \"#utility.yul\":5705:5823   */\n    tag_155:\n        /* \"#utility.yul\":5792:5816   */\n      tag_157\n        /* \"#utility.yul\":5810:5815   */\n      dup2\n        /* \"#utility.yul\":5792:5816   */\n      tag_154\n      jump\t// in\n    tag_157:\n        /* \"#utility.yul\":5787:5790   */\n      dup3\n        /* \"#utility.yul\":5780:5817   */\n      mstore\n        /* \"#utility.yul\":5770:5823   */\n      pop\n      pop\n      jump\t// out\n        /* \"#utility.yul\":5829:6473   */\n    tag_16:\n      0x00\n        /* \"#utility.yul\":6064:6067   */\n      0x80\n        /* \"#utility.yul\":6053:6062   */\n      dup3\n        /* \"#utility.yul\":6049:6068   */\n      add\n        /* \"#utility.yul\":6041:6068   */\n      swap1\n      pop\n        /* \"#utility.yul\":6078:6149   */\n      tag_159\n        /* \"#utility.yul\":6146:6147   */\n      0x00\n        /* \"#utility.yul\":6135:6144   */\n      dup4\n        /* \"#utility.yul\":6131:6148   */\n      add\n        /* \"#utility.yul\":6122:6128   */\n      dup8\n        /* \"#utility.yul\":6078:6149   */\n      tag_109\n      jump\t// in\n    tag_159:\n        /* \"#utility.yul\":6159:6231   */\n      tag_160\n        /* \"#utility.yul\":6227:6229   */\n      0x20\n        /* \"#utility.yul\":6216:6225   */\n      dup4\n        /* \"#utility.yul\":6212:6230   */\n      add\n        /* \"#utility.yul\":6203:6209   */\n      dup7\n        /* \"#utility.yul\":6159:6231   */\n      tag_109\n      jump\t// in\n    tag_160:\n        /* \"#utility.yul\":6278:6287   */\n      dup2\n        /* \"#utility.yul\":6272:6276   */\n      dup2\n        /* \"#utility.yul\":6268:6288   */\n      sub\n        /* \"#utility.yul\":6263:6265   */\n      0x40\n        /* \"#utility.yul\":6252:6261   */\n      dup4\n        /* \"#utility.yul\":6248:6266   */\n      add\n        /* \"#utility.yul\":6241:6289   */\n      mstore\n        /* \"#utility.yul\":6306:6384   */\n      tag_161\n        /* \"#utility.yul\":6379:6383   */\n      dup2\n        /* \"#utility.yul\":6370:6376   */\n      dup6\n        /* \"#utility.yul\":6306:6384   */\n      tag_136\n      jump\t// in\n    tag_161:\n        /* \"#utility.yul\":6298:6384   */\n      swap1\n      pop\n        /* \"#utility.yul\":6394:6466   */\n      tag_162\n        /* \"#utility.yul\":6462:6464   */\n      0x60\n        /* \"#utility.yul\":6451:6460   */\n      dup4\n        /* \"#utility.yul\":6447:6465   */\n      add\n        /* \"#utility.yul\":6438:6444   */\n      dup5\n        /* \"#utility.yul\":6394:6466   */\n      tag_155\n      jump\t// in\n    tag_162:\n        /* \"#utility.yul\":6031:6473   */\n      swap6\n      swap5\n      pop\n      pop\n      pop\n      pop\n      pop\n      jump\t// out\n        /* \"#utility.yul\":6479:6964   */\n    tag_10:\n      0x00\n        /* \"#utility.yul\":6716:6718   */\n      0x20\n        /* \"#utility.yul\":6705:6714   */\n      dup3\n        /* \"#utility.yul\":6701:6719   */\n      add\n        /* \"#utility.yul\":6693:6719   */\n      swap1\n      pop\n        /* \"#utility.yul\":6765:6774   */\n      dup2\n        /* \"#utility.yul\":6759:6763   */\n      dup2\n        /* \"#utility.yul\":6755:6775   */\n      sub\n        /* \"#utility.yul\":6751:6752   */\n      0x00\n        /* \"#utility.yul\":6740:6749   */\n      dup4\n        /* \"#utility.yul\":6736:6753   */\n      add\n        /* \"#utility.yul\":6729:6776   */\n      mstore\n        /* \"#utility.yul\":6793:6957   */\n      tag_164\n        /* \"#utility.yul\":6952:6956   */\n      dup2\n        /* \"#utility.yul\":6943:6949   */\n      dup5\n        /* \"#utility.yul\":6793:6957   */\n      tag_112\n      jump\t// in\n    tag_164:\n        /* \"#utility.yul\":6785:6957   */\n      swap1\n      pop\n        /* \"#utility.yul\":6683:6964   */\n      swap3\n      swap2\n      pop\n      pop\n      jump\t// out\n        /* \"#utility.yul\":6970:7389   */\n    tag_45:\n      0x00\n        /* \"#utility.yul\":7174:7176   */\n      0x20\n        /* \"#utility.yul\":7163:7172   */\n      dup3\n        /* \"#utility.yul\":7159:7177   */\n      add\n        /* \"#utility.yul\":7151:7177   */\n      swap1\n      pop\n        /* \"#utility.yul\":7223:7232   */\n      dup2\n        /* \"#utility.yul\":7217:7221   */\n      dup2\n        /* \"#utility.yul\":7213:7233   */\n      sub\n        /* \"#utility.yul\":7209:7210   */\n      0x00\n        /* \"#utility.yul\":7198:7207   */\n      dup4\n        /* \"#utility.yul\":7194:7211   */\n      add\n        /* \"#utility.yul\":7187:7234   */\n      mstore\n        /* \"#utility.yul\":7251:7382   */\n      tag_166\n        /* \"#utility.yul\":7377:7381   */\n      dup2\n        /* \"#utility.yul\":7251:7382   */\n      tag_143\n      jump\t// in\n    tag_166:\n        /* \"#utility.yul\":7243:7382   */\n      swap1\n      pop\n        /* \"#utility.yul\":7141:7389   */\n      swap2\n      swap1\n      pop\n      jump\t// out\n        /* \"#utility.yul\":7395:7928   */\n    tag_60:\n      0x00\n        /* \"#utility.yul\":7602:7604   */\n      0x60\n        /* \"#utility.yul\":7591:7600   */\n      dup3\n        /* \"#utility.yul\":7587:7605   */\n      add\n        /* \"#utility.yul\":7579:7605   */\n      swap1\n      pop\n        /* \"#utility.yul\":7615:7686   */\n      tag_168\n        /* \"#utility.yul\":7683:7684   */\n      0x00\n        /* \"#utility.yul\":7672:7681   */\n      dup4\n        /* \"#utility.yul\":7668:7685   */\n      add\n        /* \"#utility.yul\":7659:7665   */\n      dup7\n        /* \"#utility.yul\":7615:7686   */\n      tag_155\n      jump\t// in\n    tag_168:\n        /* \"#utility.yul\":7733:7742   */\n      dup2\n        /* \"#utility.yul\":7727:7731   */\n      dup2\n        /* \"#utility.yul\":7723:7743   */\n      sub\n        /* \"#utility.yul\":7718:7720   */\n      0x20\n        /* \"#utility.yul\":7707:7716   */\n      dup4\n        /* \"#utility.yul\":7703:7721   */\n      add\n        /* \"#utility.yul\":7696:7744   */\n      mstore\n        /* \"#utility.yul\":7761:7839   */\n      tag_169\n        /* \"#utility.yul\":7834:7838   */\n      dup2\n        /* \"#utility.yul\":7825:7831   */\n      dup6\n        /* \"#utility.yul\":7761:7839   */\n      tag_136\n      jump\t// in\n    tag_169:\n        /* \"#utility.yul\":7753:7839   */\n      swap1\n      pop\n        /* \"#utility.yul\":7849:7921   */\n      tag_170\n        /* \"#utility.yul\":7917:7919   */\n      0x40\n        /* \"#utility.yul\":7906:7915   */\n      dup4\n        /* \"#utility.yul\":7902:7920   */\n      add\n        /* \"#utility.yul\":7893:7899   */\n      dup5\n        /* \"#utility.yul\":7849:7921   */\n      tag_155\n      jump\t// in\n    tag_170:\n        /* \"#utility.yul\":7569:7928   */\n      swap5\n      swap4\n      pop\n      pop\n      pop\n      pop\n      jump\t// out\n        /* \"#utility.yul\":7934:8217   */\n    tag_77:\n      0x00\n        /* \"#utility.yul\":8000:8002   */\n      0x40\n        /* \"#utility.yul\":7994:8003   */\n      mload\n        /* \"#utility.yul\":7984:8003   */\n      swap1\n      pop\n        /* \"#utility.yul\":8042:8046   */\n      dup2\n        /* \"#utility.yul\":8034:8040   */\n      dup2\n        /* \"#utility.yul\":8030:8047   */\n      add\n        /* \"#utility.yul\":8149:8155   */\n      dup2\n        /* \"#utility.yul\":8137:8147   */\n      dup2\n        /* \"#utility.yul\":8134:8156   */\n      lt\n        /* \"#utility.yul\":8113:8131   */\n      0xffffffffffffffff\n        /* \"#utility.yul\":8101:8111   */\n      dup3\n        /* \"#utility.yul\":8098:8132   */\n      gt\n        /* \"#utility.yul\":8095:8157   */\n      or\n        /* \"#utility.yul\":8092:8094   */\n      iszero\n      tag_172\n      jumpi\n        /* \"#utility.yul\":8160:8178   */\n      tag_173\n      tag_174\n      jump\t// in\n    tag_173:\n        /* \"#utility.yul\":8092:8094   */\n    tag_172:\n        /* \"#utility.yul\":8200:8210   */\n      dup1\n        /* \"#utility.yul\":8196:8198   */\n      0x40\n        /* \"#utility.yul\":8189:8211   */\n      mstore\n        /* \"#utility.yul\":7974:8217   */\n      pop\n      swap2\n      swap1\n      pop\n      jump\t// out\n        /* \"#utility.yul\":8223:8555   */\n    tag_76:\n      0x00\n        /* \"#utility.yul\":8375:8393   */\n      0xffffffffffffffff\n        /* \"#utility.yul\":8367:8373   */\n      dup3\n        /* \"#utility.yul\":8364:8394   */\n      gt\n        /* \"#utility.yul\":8361:8363   */\n      iszero\n      tag_176\n      jumpi\n        /* \"#utility.yul\":8397:8415   */\n      tag_177\n      tag_174\n      jump\t// in\n    tag_177:\n        /* \"#utility.yul\":8361:8363   */\n    tag_176:\n        /* \"#utility.yul\":8482:8486   */\n      0x1f\n        /* \"#utility.yul\":8478:8487   */\n      not\n        /* \"#utility.yul\":8471:8475   */\n      0x1f\n        /* \"#utility.yul\":8463:8469   */\n      dup4\n        /* \"#utility.yul\":8459:8476   */\n      add\n        /* \"#utility.yul\":8455:8488   */\n      and\n        /* \"#utility.yul\":8447:8488   */\n      swap1\n      pop\n        /* \"#utility.yul\":8543:8547   */\n      0x20\n        /* \"#utility.yul\":8537:8541   */\n      dup2\n        /* \"#utility.yul\":8533:8548   */\n      add\n        /* \"#utility.yul\":8525:8548   */\n      swap1\n      pop\n        /* \"#utility.yul\":8290:8555   */\n      swap2\n      swap1\n      pop\n      jump\t// out\n        /* \"#utility.yul\":8561:8721   */\n    tag_119:\n      0x00\n        /* \"#utility.yul\":8679:8682   */\n      dup2\n        /* \"#utility.yul\":8671:8682   */\n      swap1\n      pop\n        /* \"#utility.yul\":8709:8713   */\n      0x20\n        /* \"#utility.yul\":8704:8707   */\n      dup3\n        /* \"#utility.yul\":8700:8714   */\n      add\n        /* \"#utility.yul\":8692:8714   */\n      swap1\n      pop\n        /* \"#utility.yul\":8661:8721   */\n      swap2\n      swap1\n      pop\n      jump\t// out\n        /* \"#utility.yul\":8727:8869   */\n    tag_115:\n      0x00\n        /* \"#utility.yul\":8856:8861   */\n      dup2\n        /* \"#utility.yul\":8850:8862   */\n      mload\n        /* \"#utility.yul\":8840:8862   */\n      swap1\n      pop\n        /* \"#utility.yul\":8829:8869   */\n      swap2\n      swap1\n      pop\n      jump\t// out\n        /* \"#utility.yul\":8875:8974   */\n    tag_129:\n      0x00\n        /* \"#utility.yul\":8961:8966   */\n      dup2\n        /* \"#utility.yul\":8955:8967   */\n      mload\n        /* \"#utility.yul\":8945:8967   */\n      swap1\n      pop\n        /* \"#utility.yul\":8934:8974   */\n      swap2\n      swap1\n      pop\n      jump\t// out\n        /* \"#utility.yul\":8980:9121   */\n    tag_125:\n      0x00\n        /* \"#utility.yul\":9110:9114   */\n      0x20\n        /* \"#utility.yul\":9105:9108   */\n      dup3\n        /* \"#utility.yul\":9101:9115   */\n      add\n        /* \"#utility.yul\":9093:9115   */\n      swap1\n      pop\n        /* \"#utility.yul\":9083:9121   */\n      swap2\n      swap1\n      pop\n      jump\t// out\n        /* \"#utility.yul\":9127:9339   */\n    tag_117:\n      0x00\n        /* \"#utility.yul\":9288:9294   */\n      dup3\n        /* \"#utility.yul\":9283:9286   */\n      dup3\n        /* \"#utility.yul\":9276:9295   */\n      mstore\n        /* \"#utility.yul\":9328:9332   */\n      0x20\n        /* \"#utility.yul\":9323:9326   */\n      dup3\n        /* \"#utility.yul\":9319:9333   */\n      add\n        /* \"#utility.yul\":9304:9333   */\n      swap1\n      pop\n        /* \"#utility.yul\":9266:9339   */\n      swap3\n      swap2\n      pop\n      pop\n      jump\t// out\n        /* \"#utility.yul\":9345:9504   */\n    tag_131:\n      0x00\n        /* \"#utility.yul\":9453:9459   */\n      dup3\n        /* \"#utility.yul\":9448:9451   */\n      dup3\n        /* \"#utility.yul\":9441:9460   */\n      mstore\n        /* \"#utility.yul\":9493:9497   */\n      0x20\n        /* \"#utility.yul\":9488:9491   */\n      dup3\n        /* \"#utility.yul\":9484:9498   */\n      add\n        /* \"#utility.yul\":9469:9498   */\n      swap1\n      pop\n        /* \"#utility.yul\":9431:9504   */\n      swap3\n      swap2\n      pop\n      pop\n      jump\t// out\n        /* \"#utility.yul\":9510:9679   */\n    tag_140:\n      0x00\n        /* \"#utility.yul\":9628:9634   */\n      dup3\n        /* \"#utility.yul\":9623:9626   */\n      dup3\n        /* \"#utility.yul\":9616:9635   */\n      mstore\n        /* \"#utility.yul\":9668:9672   */\n      0x20\n        /* \"#utility.yul\":9663:9666   */\n      dup3\n        /* \"#utility.yul\":9659:9673   */\n      add\n        /* \"#utility.yul\":9644:9673   */\n      swap1\n      pop\n        /* \"#utility.yul\":9606:9679   */\n      swap3\n      swap2\n      pop\n      pop\n      jump\t// out\n        /* \"#utility.yul\":9685:9876   */\n    tag_58:\n      0x00\n        /* \"#utility.yul\":9745:9765   */\n      tag_186\n        /* \"#utility.yul\":9763:9764   */\n      dup3\n        /* \"#utility.yul\":9745:9765   */\n      tag_154\n      jump\t// in\n    tag_186:\n        /* \"#utility.yul\":9740:9765   */\n      swap2\n      pop\n        /* \"#utility.yul\":9779:9799   */\n      tag_187\n        /* \"#utility.yul\":9797:9798   */\n      dup4\n        /* \"#utility.yul\":9779:9799   */\n      tag_154\n      jump\t// in\n    tag_187:\n        /* \"#utility.yul\":9774:9799   */\n      swap3\n      pop\n        /* \"#utility.yul\":9818:9819   */\n      dup3\n        /* \"#utility.yul\":9815:9816   */\n      dup3\n        /* \"#utility.yul\":9812:9820   */\n      lt\n        /* \"#utility.yul\":9809:9811   */\n      iszero\n      tag_188\n      jumpi\n        /* \"#utility.yul\":9823:9841   */\n      tag_189\n      tag_190\n      jump\t// in\n    tag_189:\n        /* \"#utility.yul\":9809:9811   */\n    tag_188:\n        /* \"#utility.yul\":9868:9869   */\n      dup3\n        /* \"#utility.yul\":9865:9866   */\n      dup3\n        /* \"#utility.yul\":9861:9870   */\n      sub\n        /* \"#utility.yul\":9853:9870   */\n      swap1\n      pop\n        /* \"#utility.yul\":9730:9876   */\n      swap3\n      swap2\n      pop\n      pop\n      jump\t// out\n        /* \"#utility.yul\":9882:9978   */\n    tag_108:\n      0x00\n        /* \"#utility.yul\":9948:9972   */\n      tag_192\n        /* \"#utility.yul\":9966:9971   */\n      dup3\n        /* \"#utility.yul\":9948:9972   */\n      tag_193\n      jump\t// in\n    tag_192:\n        /* \"#utility.yul\":9937:9972   */\n      swap1\n      pop\n        /* \"#utility.yul\":9927:9978   */\n      swap2\n      swap1\n      pop\n      jump\t// out\n        /* \"#utility.yul\":9984:10110   */\n    tag_193:\n      0x00\n        /* \"#utility.yul\":10061:10103   */\n      0xffffffffffffffffffffffffffffffffffffffff\n        /* \"#utility.yul\":10054:10059   */\n      dup3\n        /* \"#utility.yul\":10050:10104   */\n      and\n        /* \"#utility.yul\":10039:10104   */\n      swap1\n      pop\n        /* \"#utility.yul\":10029:10110   */\n      swap2\n      swap1\n      pop\n      jump\t// out\n        /* \"#utility.yul\":10116:10193   */\n    tag_154:\n      0x00\n        /* \"#utility.yul\":10182:10187   */\n      dup2\n        /* \"#utility.yul\":10171:10187   */\n      swap1\n      pop\n        /* \"#utility.yul\":10161:10193   */\n      swap2\n      swap1\n      pop\n      jump\t// out\n        /* \"#utility.yul\":10199:10353   */\n    tag_80:\n        /* \"#utility.yul\":10283:10289   */\n      dup3\n        /* \"#utility.yul\":10278:10281   */\n      dup2\n        /* \"#utility.yul\":10273:10276   */\n      dup4\n        /* \"#utility.yul\":10260:10290   */\n      calldatacopy\n        /* \"#utility.yul\":10345:10346   */\n      0x00\n        /* \"#utility.yul\":10336:10342   */\n      dup4\n        /* \"#utility.yul\":10331:10334   */\n      dup4\n        /* \"#utility.yul\":10327:10343   */\n      add\n        /* \"#utility.yul\":10320:10347   */\n      mstore\n        /* \"#utility.yul\":10250:10353   */\n      pop\n      pop\n      pop\n      jump\t// out\n        /* \"#utility.yul\":10359:10666   */\n    tag_133:\n        /* \"#utility.yul\":10427:10428   */\n      0x00\n        /* \"#utility.yul\":10437:10550   */\n    tag_198:\n        /* \"#utility.yul\":10451:10457   */\n      dup4\n        /* \"#utility.yul\":10448:10449   */\n      dup2\n        /* \"#utility.yul\":10445:10458   */\n      lt\n        /* \"#utility.yul\":10437:10550   */\n      iszero\n      tag_200\n      jumpi\n        /* \"#utility.yul\":10536:10537   */\n      dup1\n        /* \"#utility.yul\":10531:10534   */\n      dup3\n        /* \"#utility.yul\":10527:10538   */\n      add\n        /* \"#utility.yul\":10521:10539   */\n      mload\n        /* \"#utility.yul\":10517:10518   */\n      dup2\n        /* \"#utility.yul\":10512:10515   */\n      dup5\n        /* \"#utility.yul\":10508:10519   */\n      add\n        /* \"#utility.yul\":10501:10540   */\n      mstore\n        /* \"#utility.yul\":10473:10475   */\n      0x20\n        /* \"#utility.yul\":10470:10471   */\n      dup2\n        /* \"#utility.yul\":10466:10476   */\n      add\n        /* \"#utility.yul\":10461:10476   */\n      swap1\n      pop\n        /* \"#utility.yul\":10437:10550   */\n      jump(tag_198)\n    tag_200:\n        /* \"#utility.yul\":10568:10574   */\n      dup4\n        /* \"#utility.yul\":10565:10566   */\n      dup2\n        /* \"#utility.yul\":10562:10575   */\n      gt\n        /* \"#utility.yul\":10559:10561   */\n      iszero\n      tag_201\n      jumpi\n        /* \"#utility.yul\":10648:10649   */\n      0x00\n        /* \"#utility.yul\":10639:10645   */\n      dup5\n        /* \"#utility.yul\":10634:10637   */\n      dup5\n        /* \"#utility.yul\":10630:10646   */\n      add\n        /* \"#utility.yul\":10623:10650   */\n      mstore\n        /* \"#utility.yul\":10559:10561   */\n    tag_201:\n        /* \"#utility.yul\":10408:10666   */\n      pop\n      pop\n      pop\n      pop\n      jump\t// out\n        /* \"#utility.yul\":10672:10992   */\n    tag_30:\n      0x00\n        /* \"#utility.yul\":10753:10754   */\n      0x02\n        /* \"#utility.yul\":10747:10751   */\n      dup3\n        /* \"#utility.yul\":10743:10755   */\n      div\n        /* \"#utility.yul\":10733:10755   */\n      swap1\n      pop\n        /* \"#utility.yul\":10800:10801   */\n      0x01\n        /* \"#utility.yul\":10794:10798   */\n      dup3\n        /* \"#utility.yul\":10790:10802   */\n      and\n        /* \"#utility.yul\":10821:10839   */\n      dup1\n        /* \"#utility.yul\":10811:10813   */\n      tag_203\n      jumpi\n        /* \"#utility.yul\":10877:10881   */\n      0x7f\n        /* \"#utility.yul\":10869:10875   */\n      dup3\n        /* \"#utility.yul\":10865:10882   */\n      and\n        /* \"#utility.yul\":10855:10882   */\n      swap2\n      pop\n        /* \"#utility.yul\":10811:10813   */\n    tag_203:\n        /* \"#utility.yul\":10939:10941   */\n      0x20\n        /* \"#utility.yul\":10931:10937   */\n      dup3\n        /* \"#utility.yul\":10928:10942   */\n      lt\n        /* \"#utility.yul\":10908:10926   */\n      dup2\n        /* \"#utility.yul\":10905:10943   */\n      eq\n        /* \"#utility.yul\":10902:10904   */\n      iszero\n      tag_204\n      jumpi\n        /* \"#utility.yul\":10958:10976   */\n      tag_205\n      tag_206\n      jump\t// in\n    tag_205:\n        /* \"#utility.yul\":10902:10904   */\n    tag_204:\n        /* \"#utility.yul\":10723:10992   */\n      pop\n      swap2\n      swap1\n      pop\n      jump\t// out\n        /* \"#utility.yul\":10998:11178   */\n    tag_190:\n        /* \"#utility.yul\":11046:11123   */\n      0x4e487b7100000000000000000000000000000000000000000000000000000000\n        /* \"#utility.yul\":11043:11044   */\n      0x00\n        /* \"#utility.yul\":11036:11124   */\n      mstore\n        /* \"#utility.yul\":11143:11147   */\n      0x11\n        /* \"#utility.yul\":11140:11141   */\n      0x04\n        /* \"#utility.yul\":11133:11148   */\n      mstore\n        /* \"#utility.yul\":11167:11171   */\n      0x24\n        /* \"#utility.yul\":11164:11165   */\n      0x00\n        /* \"#utility.yul\":11157:11172   */\n      revert\n        /* \"#utility.yul\":11184:11364   */\n    tag_206:\n        /* \"#utility.yul\":11232:11309   */\n      0x4e487b7100000000000000000000000000000000000000000000000000000000\n        /* \"#utility.yul\":11229:11230   */\n      0x00\n        /* \"#utility.yul\":11222:11310   */\n      mstore\n        /* \"#utility.yul\":11329:11333   */\n      0x22\n        /* \"#utility.yul\":11326:11327   */\n      0x04\n        /* \"#utility.yul\":11319:11334   */\n      mstore\n        /* \"#utility.yul\":11353:11357   */\n      0x24\n        /* \"#utility.yul\":11350:11351   */\n      0x00\n        /* \"#utility.yul\":11343:11358   */\n      revert\n        /* \"#utility.yul\":11370:11550   */\n    tag_174:\n        /* \"#utility.yul\":11418:11495   */\n      0x4e487b7100000000000000000000000000000000000000000000000000000000\n        /* \"#utility.yul\":11415:11416   */\n      0x00\n        /* \"#utility.yul\":11408:11496   */\n      mstore\n        /* \"#utility.yul\":11515:11519   */\n      0x41\n        /* \"#utility.yul\":11512:11513   */\n      0x04\n        /* \"#utility.yul\":11505:11520   */\n      mstore\n        /* \"#utility.yul\":11539:11543   */\n      0x24\n        /* \"#utility.yul\":11536:11537   */\n      0x00\n        /* \"#utility.yul\":11529:11544   */\n      revert\n        /* \"#utility.yul\":11556:11658   */\n    tag_135:\n      0x00\n        /* \"#utility.yul\":11648:11650   */\n      0x1f\n        /* \"#utility.yul\":11644:11651   */\n      not\n        /* \"#utility.yul\":11639:11641   */\n      0x1f\n        /* \"#utility.yul\":11632:11637   */\n      dup4\n        /* \"#utility.yul\":11628:11642   */\n      add\n        /* \"#utility.yul\":11624:11652   */\n      and\n        /* \"#utility.yul\":11614:11652   */\n      swap1\n      pop\n        /* \"#utility.yul\":11604:11658   */\n      swap2\n      swap1\n      pop\n      jump\t// out\n        /* \"#utility.yul\":11664:11786   */\n    tag_84:\n        /* \"#utility.yul\":11737:11761   */\n      tag_212\n        /* \"#utility.yul\":11755:11760   */\n      dup2\n        /* \"#utility.yul\":11737:11761   */\n      tag_108\n      jump\t// in\n    tag_212:\n        /* \"#utility.yul\":11730:11735   */\n      dup2\n        /* \"#utility.yul\":11727:11762   */\n      eq\n        /* \"#utility.yul\":11717:11719   */\n      tag_213\n      jumpi\n        /* \"#utility.yul\":11776:11777   */\n      0x00\n        /* \"#utility.yul\":11773:11774   */\n      dup1\n        /* \"#utility.yul\":11766:11778   */\n      revert\n        /* \"#utility.yul\":11717:11719   */\n    tag_213:\n        /* \"#utility.yul\":11707:11786   */\n      pop\n      jump\t// out\n        /* \"#utility.yul\":11792:11914   */\n    tag_92:\n        /* \"#utility.yul\":11865:11889   */\n      tag_215\n        /* \"#utility.yul\":11883:11888   */\n      dup2\n        /* \"#utility.yul\":11865:11889   */\n      tag_154\n      jump\t// in\n    tag_215:\n        /* \"#utility.yul\":11858:11863   */\n      dup2\n        /* \"#utility.yul\":11855:11890   */\n      eq\n        /* \"#utility.yul\":11845:11847   */\n      tag_216\n      jumpi\n        /* \"#utility.yul\":11904:11905   */\n      0x00\n        /* \"#utility.yul\":11901:11902   */\n      dup1\n        /* \"#utility.yul\":11894:11906   */\n      revert\n        /* \"#utility.yul\":11845:11847   */\n    tag_216:\n        /* \"#utility.yul\":11835:11914   */\n      pop\n      jump\t// out\n\n    auxdata: 0xa2646970667358221220dde4ceee6052d10a427edf93bc654133fb133b4c0f10d320993c513b806e787464736f6c63430008000033\n}\n",
				"bytecode": {
					"linkReferences": {},
					"object": "608060405234801561001057600080fd5b50610e61806100206000396000f3fe608060405234801561001057600080fd5b506004361061004c5760003560e01c80630163e4f81461005157806331dfc91b1461006f5780636f16af10146100a25780638a49b9cb146100d5575b600080fd5b6100596100f1565b6040516100669190610b34565b60405180910390f35b610089600480360381019061008491906108e5565b610298565b6040516100999493929190610ae8565b60405180910390f35b6100bc60048036038101906100b791906108e5565b6103a0565b6040516100cc9493929190610ae8565b60405180910390f35b6100ef60048036038101906100ea9190610891565b6105af565b005b60606000805480602002602001604051908101604052809291908181526020016000905b8282101561028f57838290600052602060002090600402016040518060800160405290816000820160009054906101000a900473ffffffffffffffffffffffffffffffffffffffff1673ffffffffffffffffffffffffffffffffffffffff1673ffffffffffffffffffffffffffffffffffffffff1681526020016001820160009054906101000a900473ffffffffffffffffffffffffffffffffffffffff1673ffffffffffffffffffffffffffffffffffffffff1673ffffffffffffffffffffffffffffffffffffffff1681526020016002820180546101f490610d2d565b80601f016020809104026020016040519081016040528092919081815260200182805461022090610d2d565b801561026d5780601f106102425761010080835404028352916020019161026d565b820191906000526020600020905b81548152906001019060200180831161025057829003601f168201915b5050505050815260200160038201548152505081526020019060010190610115565b50505050905090565b600081815481106102a857600080fd5b90600052602060002090600402016000915090508060000160009054906101000a900473ffffffffffffffffffffffffffffffffffffffff16908060010160009054906101000a900473ffffffffffffffffffffffffffffffffffffffff169080600201805461031790610d2d565b80601f016020809104026020016040519081016040528092919081815260200182805461034390610d2d565b80156103905780601f1061036557610100808354040283529160200191610390565b820191906000526020600020905b81548152906001019060200180831161037357829003601f168201915b5050505050908060030154905084565b60008060606000808054905085106103ed576040517f08c379a00000000000000000000000000000000000000000000000000000000081526004016103e490610b56565b60405180910390fd5b6000808681548110610428577f4e487b7100000000000000000000000000000000000000000000000000000000600052603260045260246000fd5b90600052602060002090600402016040518060800160405290816000820160009054906101000a900473ffffffffffffffffffffffffffffffffffffffff1673ffffffffffffffffffffffffffffffffffffffff1673ffffffffffffffffffffffffffffffffffffffff1681526020016001820160009054906101000a900473ffffffffffffffffffffffffffffffffffffffff1673ffffffffffffffffffffffffffffffffffffffff1673ffffffffffffffffffffffffffffffffffffffff1681526020016002820180546104fd90610d2d565b80601f016020809104026020016040519081016040528092919081815260200182805461052990610d2d565b80156105765780601f1061054b57610100808354040283529160200191610576565b820191906000526020600020905b81548152906001019060200180831161055957829003601f168201915b50505050508152602001600382015481525050905080600001518160200151826040015183606001519450945094509450509193509193565b600060405180608001604052808473ffffffffffffffffffffffffffffffffffffffff1681526020013373ffffffffffffffffffffffffffffffffffffffff16815260200183815260200142815250908060018154018082558091505060019003906000526020600020906004020160009091909190915060008201518160000160006101000a81548173ffffffffffffffffffffffffffffffffffffffff021916908373ffffffffffffffffffffffffffffffffffffffff16021790555060208201518160010160006101000a81548173ffffffffffffffffffffffffffffffffffffffff021916908373ffffffffffffffffffffffffffffffffffffffff16021790555060408201518160020190805190602001906106d192919061075c565b506060820151816003015550503373ffffffffffffffffffffffffffffffffffffffff168273ffffffffffffffffffffffffffffffffffffffff167f4e50d65e3039b1935ded6e5a2f5959659f6edf55fef2bb96d093f76cdcf62850600160008054905061073f9190610c7b565b844260405161075093929190610b76565b60405180910390a35050565b82805461076890610d2d565b90600052602060002090601f01602090048101928261078a57600085556107d1565b82601f106107a357805160ff19168380011785556107d1565b828001600101855582156107d1579182015b828111156107d05782518255916020019190600101906107b5565b5b5090506107de91906107e2565b5090565b5b808211156107fb5760008160009055506001016107e3565b5090565b600061081261080d84610be5565b610bb4565b90508281526020810184848401111561082a57600080fd5b610835848285610ceb565b509392505050565b60008135905061084c81610dfd565b92915050565b600082601f83011261086357600080fd5b81356108738482602086016107ff565b91505092915050565b60008135905061088b81610e14565b92915050565b600080604083850312156108a457600080fd5b60006108b28582860161083d565b925050602083013567ffffffffffffffff8111156108cf57600080fd5b6108db85828601610852565b9150509250929050565b6000602082840312156108f757600080fd5b60006109058482850161087c565b91505092915050565b600061091a8383610a67565b905092915050565b61092b81610caf565b82525050565b61093a81610caf565b82525050565b600061094b82610c25565b6109558185610c48565b93508360208202850161096785610c15565b8060005b858110156109a35784840389528151610984858261090e565b945061098f83610c3b565b925060208a0199505060018101905061096b565b50829750879550505050505092915050565b60006109c082610c30565b6109ca8185610c59565b93506109da818560208601610cfa565b6109e381610dec565b840191505092915050565b60006109f982610c30565b610a038185610c6a565b9350610a13818560208601610cfa565b610a1c81610dec565b840191505092915050565b6000610a34601b83610c6a565b91507f507265736372697074696f6e20646f6573206e6f7420657869737400000000006000830152602082019050919050565b6000608083016000830151610a7f6000860182610922565b506020830151610a926020860182610922565b5060408301518482036040860152610aaa82826109b5565b9150506060830151610abf6060860182610aca565b508091505092915050565b610ad381610ce1565b82525050565b610ae281610ce1565b82525050565b6000608082019050610afd6000830187610931565b610b0a6020830186610931565b8181036040830152610b1c81856109ee565b9050610b2b6060830184610ad9565b95945050505050565b60006020820190508181036000830152610b4e8184610940565b905092915050565b60006020820190508181036000830152610b6f81610a27565b9050919050565b6000606082019050610b8b6000830186610ad9565b8181036020830152610b9d81856109ee565b9050610bac6040830184610ad9565b949350505050565b6000604051905081810181811067ffffffffffffffff82111715610bdb57610bda610dbd565b5b8060405250919050565b600067ffffffffffffffff821115610c0057610bff610dbd565b5b601f19601f8301169050602081019050919050565b6000819050602082019050919050565b600081519050919050565b600081519050919050565b6000602082019050919050565b600082825260208201905092915050565b600082825260208201905092915050565b600082825260208201905092915050565b6000610c8682610ce1565b9150610c9183610ce1565b925082821015610ca457610ca3610d5f565b5b828203905092915050565b6000610cba82610cc1565b9050919050565b600073ffffffffffffffffffffffffffffffffffffffff82169050919050565b6000819050919050565b82818337600083830152505050565b60005b83811015610d18578082015181840152602081019050610cfd565b83811115610d27576000848401525b50505050565b60006002820490506001821680610d4557607f821691505b60208210811415610d5957610d58610d8e565b5b50919050565b7f4e487b7100000000000000000000000000000000000000000000000000000000600052601160045260246000fd5b7f4e487b7100000000000000000000000000000000000000000000000000000000600052602260045260246000fd5b7f4e487b7100000000000000000000000000000000000000000000000000000000600052604160045260246000fd5b6000601f19601f8301169050919050565b610e0681610caf565b8114610e1157600080fd5b50565b610e1d81610ce1565b8114610e2857600080fd5b5056fea2646970667358221220dde4ceee6052d10a427edf93bc654133fb133b4c0f10d320993c513b806e787464736f6c63430008000033",
					"opcodes": "PUSH1 0x80 PUSH1 0x40 MSTORE CALLVALUE DUP1 ISZERO PUSH2 0x10 JUMPI PUSH1 0x0 DUP1 REVERT JUMPDEST POP PUSH2 0xE61 DUP1 PUSH2 0x20 PUSH1 0x0 CODECOPY PUSH1 0x0 RETURN INVALID PUSH1 0x80 PUSH1 0x40 MSTORE CALLVALUE DUP1 ISZERO PUSH2 0x10 JUMPI PUSH1 0x0 DUP1 REVERT JUMPDEST POP PUSH1 0x4 CALLDATASIZE LT PUSH2 0x4C JUMPI PUSH1 0x0 CALLDATALOAD PUSH1 0xE0 SHR DUP1 PUSH4 0x163E4F8 EQ PUSH2 0x51 JUMPI DUP1 PUSH4 0x31DFC91B EQ PUSH2 0x6F JUMPI DUP1 PUSH4 0x6F16AF10 EQ PUSH2 0xA2 JUMPI DUP1 PUSH4 0x8A49B9CB EQ PUSH2 0xD5 JUMPI JUMPDEST PUSH1 0x0 DUP1 REVERT JUMPDEST PUSH2 0x59 PUSH2 0xF1 JUMP JUMPDEST PUSH1 0x40 MLOAD PUSH2 0x66 SWAP2 SWAP1 PUSH2 0xB34 JUMP JUMPDEST PUSH1 0x40 MLOAD DUP1 SWAP2 SUB SWAP1 RETURN JUMPDEST PUSH2 0x89 PUSH1 0x4 DUP1 CALLDATASIZE SUB DUP2 ADD SWAP1 PUSH2 0x84 SWAP2 SWAP1 PUSH2 0x8E5 JUMP JUMPDEST PUSH2 0x298 JUMP JUMPDEST PUSH1 0x40 MLOAD PUSH2 0x99 SWAP5 SWAP4 SWAP3 SWAP2 SWAP1 PUSH2 0xAE8 JUMP JUMPDEST PUSH1 0x40 MLOAD DUP1 SWAP2 SUB SWAP1 RETURN JUMPDEST PUSH2 0xBC PUSH1 0x4 DUP1 CALLDATASIZE SUB DUP2 ADD SWAP1 PUSH2 0xB7 SWAP2 SWAP1 PUSH2 0x8E5 JUMP JUMPDEST PUSH2 0x3A0 JUMP JUMPDEST PUSH1 0x40 MLOAD PUSH2 0xCC SWAP5 SWAP4 SWAP3 SWAP2 SWAP1 PUSH2 0xAE8 JUMP JUMPDEST PUSH1 0x40 MLOAD DUP1 SWAP2 SUB SWAP1 RETURN JUMPDEST PUSH2 0xEF PUSH1 0x4 DUP1 CALLDATASIZE SUB DUP2 ADD SWAP1 PUSH2 0xEA SWAP2 SWAP1 PUSH2 0x891 JUMP JUMPDEST PUSH2 0x5AF JUMP JUMPDEST STOP JUMPDEST PUSH1 0x60 PUSH1 0x0 DUP1 SLOAD DUP1 PUSH1 0x20 MUL PUSH1 0x20 ADD PUSH1 0x40 MLOAD SWAP1 DUP2 ADD PUSH1 0x40 MSTORE DUP1 SWAP3 SWAP2 SWAP1 DUP2 DUP2 MSTORE PUSH1 0x20 ADD PUSH1 0x0 SWAP1 JUMPDEST DUP3 DUP3 LT ISZERO PUSH2 0x28F JUMPI DUP4 DUP3 SWAP1 PUSH1 0x0 MSTORE PUSH1 0x20 PUSH1 0x0 KECCAK256 SWAP1 PUSH1 0x4 MUL ADD PUSH1 0x40 MLOAD DUP1 PUSH1 0x80 ADD PUSH1 0x40 MSTORE SWAP1 DUP2 PUSH1 0x0 DUP3 ADD PUSH1 0x0 SWAP1 SLOAD SWAP1 PUSH2 0x100 EXP SWAP1 DIV PUSH20 0xFFFFFFFFFFFFFFFFFFFFFFFFFFFFFFFFFFFFFFFF AND PUSH20 0xFFFFFFFFFFFFFFFFFFFFFFFFFFFFFFFFFFFFFFFF AND PUSH20 0xFFFFFFFFFFFFFFFFFFFFFFFFFFFFFFFFFFFFFFFF AND DUP2 MSTORE PUSH1 0x20 ADD PUSH1 0x1 DUP3 ADD PUSH1 0x0 SWAP1 SLOAD SWAP1 PUSH2 0x100 EXP SWAP1 DIV PUSH20 0xFFFFFFFFFFFFFFFFFFFFFFFFFFFFFFFFFFFFFFFF AND PUSH20 0xFFFFFFFFFFFFFFFFFFFFFFFFFFFFFFFFFFFFFFFF AND PUSH20 0xFFFFFFFFFFFFFFFFFFFFFFFFFFFFFFFFFFFFFFFF AND DUP2 MSTORE PUSH1 0x20 ADD PUSH1 0x2 DUP3 ADD DUP1 SLOAD PUSH2 0x1F4 SWAP1 PUSH2 0xD2D JUMP JUMPDEST DUP1 PUSH1 0x1F ADD PUSH1 0x20 DUP1 SWAP2 DIV MUL PUSH1 0x20 ADD PUSH1 0x40 MLOAD SWAP1 DUP2 ADD PUSH1 0x40 MSTORE DUP1 SWAP3 SWAP2 SWAP1 DUP2 DUP2 MSTORE PUSH1 0x20 ADD DUP3 DUP1 SLOAD PUSH2 0x220 SWAP1 PUSH2 0xD2D JUMP JUMPDEST DUP1 ISZERO PUSH2 0x26D JUMPI DUP1 PUSH1 0x1F LT PUSH2 0x242 JUMPI PUSH2 0x100 DUP1 DUP4 SLOAD DIV MUL DUP4 MSTORE SWAP2 PUSH1 0x20 ADD SWAP2 PUSH2 0x26D JUMP JUMPDEST DUP3 ADD SWAP2 SWAP1 PUSH1 0x0 MSTORE PUSH1 0x20 PUSH1 0x0 KECCAK256 SWAP1 JUMPDEST DUP2 SLOAD DUP2 MSTORE SWAP1 PUSH1 0x1 ADD SWAP1 PUSH1 0x20 ADD DUP1 DUP4 GT PUSH2 0x250 JUMPI DUP3 SWAP1 SUB PUSH1 0x1F AND DUP3 ADD SWAP2 JUMPDEST POP POP POP POP POP DUP2 MSTORE PUSH1 0x20 ADD PUSH1 0x3 DUP3 ADD SLOAD DUP2 MSTORE POP POP DUP2 MSTORE PUSH1 0x20 ADD SWAP1 PUSH1 0x1 ADD SWAP1 PUSH2 0x115 JUMP JUMPDEST POP POP POP POP SWAP1 POP SWAP1 JUMP JUMPDEST PUSH1 0x0 DUP2 DUP2 SLOAD DUP2 LT PUSH2 0x2A8 JUMPI PUSH1 0x0 DUP1 REVERT JUMPDEST SWAP1 PUSH1 0x0 MSTORE PUSH1 0x20 PUSH1 0x0 KECCAK256 SWAP1 PUSH1 0x4 MUL ADD PUSH1 0x0 SWAP2 POP SWAP1 POP DUP1 PUSH1 0x0 ADD PUSH1 0x0 SWAP1 SLOAD SWAP1 PUSH2 0x100 EXP SWAP1 DIV PUSH20 0xFFFFFFFFFFFFFFFFFFFFFFFFFFFFFFFFFFFFFFFF AND SWAP1 DUP1 PUSH1 0x1 ADD PUSH1 0x0 SWAP1 SLOAD SWAP1 PUSH2 0x100 EXP SWAP1 DIV PUSH20 0xFFFFFFFFFFFFFFFFFFFFFFFFFFFFFFFFFFFFFFFF AND SWAP1 DUP1 PUSH1 0x2 ADD DUP1 SLOAD PUSH2 0x317 SWAP1 PUSH2 0xD2D JUMP JUMPDEST DUP1 PUSH1 0x1F ADD PUSH1 0x20 DUP1 SWAP2 DIV MUL PUSH1 0x20 ADD PUSH1 0x40 MLOAD SWAP1 DUP2 ADD PUSH1 0x40 MSTORE DUP1 SWAP3 SWAP2 SWAP1 DUP2 DUP2 MSTORE PUSH1 0x20 ADD DUP3 DUP1 SLOAD PUSH2 0x343 SWAP1 PUSH2 0xD2D JUMP JUMPDEST DUP1 ISZERO PUSH2 0x390 JUMPI DUP1 PUSH1 0x1F LT PUSH2 0x365 JUMPI PUSH2 0x100 DUP1 DUP4 SLOAD DIV MUL DUP4 MSTORE SWAP2 PUSH1 0x20 ADD SWAP2 PUSH2 0x390 JUMP JUMPDEST DUP3 ADD SWAP2 SWAP1 PUSH1 0x0 MSTORE PUSH1 0x20 PUSH1 0x0 KECCAK256 SWAP1 JUMPDEST DUP2 SLOAD DUP2 MSTORE SWAP1 PUSH1 0x1 ADD SWAP1 PUSH1 0x20 ADD DUP1 DUP4 GT PUSH2 0x373 JUMPI DUP3 SWAP1 SUB PUSH1 0x1F AND DUP3 ADD SWAP2 JUMPDEST POP POP POP POP POP SWAP1 DUP1 PUSH1 0x3 ADD SLOAD SWAP1 POP DUP5 JUMP JUMPDEST PUSH1 0x0 DUP1 PUSH1 0x60 PUSH1 0x0 DUP1 DUP1 SLOAD SWAP1 POP DUP6 LT PUSH2 0x3ED JUMPI PUSH1 0x40 MLOAD PUSH32 0x8C379A000000000000000000000000000000000000000000000000000000000 DUP2 MSTORE PUSH1 0x4 ADD PUSH2 0x3E4 SWAP1 PUSH2 0xB56 JUMP JUMPDEST PUSH1 0x40 MLOAD DUP1 SWAP2 SUB SWAP1 REVERT JUMPDEST PUSH1 0x0 DUP1 DUP7 DUP2 SLOAD DUP2 LT PUSH2 0x428 JUMPI PUSH32 0x4E487B7100000000000000000000000000000000000000000000000000000000 PUSH1 0x0 MSTORE PUSH1 0x32 PUSH1 0x4 MSTORE PUSH1 0x24 PUSH1 0x0 REVERT JUMPDEST SWAP1 PUSH1 0x0 MSTORE PUSH1 0x20 PUSH1 0x0 KECCAK256 SWAP1 PUSH1 0x4 MUL ADD PUSH1 0x40 MLOAD DUP1 PUSH1 0x80 ADD PUSH1 0x40 MSTORE SWAP1 DUP2 PUSH1 0x0 DUP3 ADD PUSH1 0x0 SWAP1 SLOAD SWAP1 PUSH2 0x100 EXP SWAP1 DIV PUSH20 0xFFFFFFFFFFFFFFFFFFFFFFFFFFFFFFFFFFFFFFFF AND PUSH20 0xFFFFFFFFFFFFFFFFFFFFFFFFFFFFFFFFFFFFFFFF AND PUSH20 0xFFFFFFFFFFFFFFFFFFFFFFFFFFFFFFFFFFFFFFFF AND DUP2 MSTORE PUSH1 0x20 ADD PUSH1 0x1 DUP3 ADD PUSH1 0x0 SWAP1 SLOAD SWAP1 PUSH2 0x100 EXP SWAP1 DIV PUSH20 0xFFFFFFFFFFFFFFFFFFFFFFFFFFFFFFFFFFFFFFFF AND PUSH20 0xFFFFFFFFFFFFFFFFFFFFFFFFFFFFFFFFFFFFFFFF AND PUSH20 0xFFFFFFFFFFFFFFFFFFFFFFFFFFFFFFFFFFFFFFFF AND DUP2 MSTORE PUSH1 0x20 ADD PUSH1 0x2 DUP3 ADD DUP1 SLOAD PUSH2 0x4FD SWAP1 PUSH2 0xD2D JUMP JUMPDEST DUP1 PUSH1 0x1F ADD PUSH1 0x20 DUP1 SWAP2 DIV MUL PUSH1 0x20 ADD PUSH1 0x40 MLOAD SWAP1 DUP2 ADD PUSH1 0x40 MSTORE DUP1 SWAP3 SWAP2 SWAP1 DUP2 DUP2 MSTORE PUSH1 0x20 ADD DUP3 DUP1 SLOAD PUSH2 0x529 SWAP1 PUSH2 0xD2D JUMP JUMPDEST DUP1 ISZERO PUSH2 0x576 JUMPI DUP1 PUSH1 0x1F LT PUSH2 0x54B JUMPI PUSH2 0x100 DUP1 DUP4 SLOAD DIV MUL DUP4 MSTORE SWAP2 PUSH1 0x20 ADD SWAP2 PUSH2 0x576 JUMP JUMPDEST DUP3 ADD SWAP2 SWAP1 PUSH1 0x0 MSTORE PUSH1 0x20 PUSH1 0x0 KECCAK256 SWAP1 JUMPDEST DUP2 SLOAD DUP2 MSTORE SWAP1 PUSH1 0x1 ADD SWAP1 PUSH1 0x20 ADD DUP1 DUP4 GT PUSH2 0x559 JUMPI DUP3 SWAP1 SUB PUSH1 0x1F AND DUP3 ADD SWAP2 JUMPDEST POP POP POP POP POP DUP2 MSTORE PUSH1 0x20 ADD PUSH1 0x3 DUP3 ADD SLOAD DUP2 MSTORE POP POP SWAP1 POP DUP1 PUSH1 0x0 ADD MLOAD DUP2 PUSH1 0x20 ADD MLOAD DUP3 PUSH1 0x40 ADD MLOAD DUP4 PUSH1 0x60 ADD MLOAD SWAP5 POP SWAP5 POP SWAP5 POP SWAP5 POP POP SWAP2 SWAP4 POP SWAP2 SWAP4 JUMP JUMPDEST PUSH1 0x0 PUSH1 0x40 MLOAD DUP1 PUSH1 0x80 ADD PUSH1 0x40 MSTORE DUP1 DUP5 PUSH20 0xFFFFFFFFFFFFFFFFFFFFFFFFFFFFFFFFFFFFFFFF AND DUP2 MSTORE PUSH1 0x20 ADD CALLER PUSH20 0xFFFFFFFFFFFFFFFFFFFFFFFFFFFFFFFFFFFFFFFF AND DUP2 MSTORE PUSH1 0x20 ADD DUP4 DUP2 MSTORE PUSH1 0x20 ADD TIMESTAMP DUP2 MSTORE POP SWAP1 DUP1 PUSH1 0x1 DUP2 SLOAD ADD DUP1 DUP3 SSTORE DUP1 SWAP2 POP POP PUSH1 0x1 SWAP1 SUB SWAP1 PUSH1 0x0 MSTORE PUSH1 0x20 PUSH1 0x0 KECCAK256 SWAP1 PUSH1 0x4 MUL ADD PUSH1 0x0 SWAP1 SWAP2 SWAP1 SWAP2 SWAP1 SWAP2 POP PUSH1 0x0 DUP3 ADD MLOAD DUP2 PUSH1 0x0 ADD PUSH1 0x0 PUSH2 0x100 EXP DUP2 SLOAD DUP2 PUSH20 0xFFFFFFFFFFFFFFFFFFFFFFFFFFFFFFFFFFFFFFFF MUL NOT AND SWAP1 DUP4 PUSH20 0xFFFFFFFFFFFFFFFFFFFFFFFFFFFFFFFFFFFFFFFF AND MUL OR SWAP1 SSTORE POP PUSH1 0x20 DUP3 ADD MLOAD DUP2 PUSH1 0x1 ADD PUSH1 0x0 PUSH2 0x100 EXP DUP2 SLOAD DUP2 PUSH20 0xFFFFFFFFFFFFFFFFFFFFFFFFFFFFFFFFFFFFFFFF MUL NOT AND SWAP1 DUP4 PUSH20 0xFFFFFFFFFFFFFFFFFFFFFFFFFFFFFFFFFFFFFFFF AND MUL OR SWAP1 SSTORE POP PUSH1 0x40 DUP3 ADD MLOAD DUP2 PUSH1 0x2 ADD SWAP1 DUP1 MLOAD SWAP1 PUSH1 0x20 ADD SWAP1 PUSH2 0x6D1 SWAP3 SWAP2 SWAP1 PUSH2 0x75C JUMP JUMPDEST POP PUSH1 0x60 DUP3 ADD MLOAD DUP2 PUSH1 0x3 ADD SSTORE POP POP CALLER PUSH20 0xFFFFFFFFFFFFFFFFFFFFFFFFFFFFFFFFFFFFFFFF AND DUP3 PUSH20 0xFFFFFFFFFFFFFFFFFFFFFFFFFFFFFFFFFFFFFFFF AND PUSH32 0x4E50D65E3039B1935DED6E5A2F5959659F6EDF55FEF2BB96D093F76CDCF62850 PUSH1 0x1 PUSH1 0x0 DUP1 SLOAD SWAP1 POP PUSH2 0x73F SWAP2 SWAP1 PUSH2 0xC7B JUMP JUMPDEST DUP5 TIMESTAMP PUSH1 0x40 MLOAD PUSH2 0x750 SWAP4 SWAP3 SWAP2 SWAP1 PUSH2 0xB76 JUMP JUMPDEST PUSH1 0x40 MLOAD DUP1 SWAP2 SUB SWAP1 LOG3 POP POP JUMP JUMPDEST DUP3 DUP1 SLOAD PUSH2 0x768 SWAP1 PUSH2 0xD2D JUMP JUMPDEST SWAP1 PUSH1 0x0 MSTORE PUSH1 0x20 PUSH1 0x0 KECCAK256 SWAP1 PUSH1 0x1F ADD PUSH1 0x20 SWAP1 DIV DUP2 ADD SWAP3 DUP3 PUSH2 0x78A JUMPI PUSH1 0x0 DUP6 SSTORE PUSH2 0x7D1 JUMP JUMPDEST DUP3 PUSH1 0x1F LT PUSH2 0x7A3 JUMPI DUP1 MLOAD PUSH1 0xFF NOT AND DUP4 DUP1 ADD OR DUP6 SSTORE PUSH2 0x7D1 JUMP JUMPDEST DUP3 DUP1 ADD PUSH1 0x1 ADD DUP6 SSTORE DUP3 ISZERO PUSH2 0x7D1 JUMPI SWAP2 DUP3 ADD JUMPDEST DUP3 DUP2 GT ISZERO PUSH2 0x7D0 JUMPI DUP3 MLOAD DUP3 SSTORE SWAP2 PUSH1 0x20 ADD SWAP2 SWAP1 PUSH1 0x1 ADD SWAP1 PUSH2 0x7B5 JUMP JUMPDEST JUMPDEST POP SWAP1 POP PUSH2 0x7DE SWAP2 SWAP1 PUSH2 0x7E2 JUMP JUMPDEST POP SWAP1 JUMP JUMPDEST JUMPDEST DUP1 DUP3 GT ISZERO PUSH2 0x7FB JUMPI PUSH1 0x0 DUP2 PUSH1 0x0 SWAP1 SSTORE POP PUSH1 0x1 ADD PUSH2 0x7E3 JUMP JUMPDEST POP SWAP1 JUMP JUMPDEST PUSH1 0x0 PUSH2 0x812 PUSH2 0x80D DUP5 PUSH2 0xBE5 JUMP JUMPDEST PUSH2 0xBB4 JUMP JUMPDEST SWAP1 POP DUP3 DUP2 MSTORE PUSH1 0x20 DUP2 ADD DUP5 DUP5 DUP5 ADD GT ISZERO PUSH2 0x82A JUMPI PUSH1 0x0 DUP1 REVERT JUMPDEST PUSH2 0x835 DUP5 DUP3 DUP6 PUSH2 0xCEB JUMP JUMPDEST POP SWAP4 SWAP3 POP POP POP JUMP JUMPDEST PUSH1 0x0 DUP2 CALLDATALOAD SWAP1 POP PUSH2 0x84C DUP2 PUSH2 0xDFD JUMP JUMPDEST SWAP3 SWAP2 POP POP JUMP JUMPDEST PUSH1 0x0 DUP3 PUSH1 0x1F DUP4 ADD SLT PUSH2 0x863 JUMPI PUSH1 0x0 DUP1 REVERT JUMPDEST DUP2 CALLDATALOAD PUSH2 0x873 DUP5 DUP3 PUSH1 0x20 DUP7 ADD PUSH2 0x7FF JUMP JUMPDEST SWAP2 POP POP SWAP3 SWAP2 POP POP JUMP JUMPDEST PUSH1 0x0 DUP2 CALLDATALOAD SWAP1 POP PUSH2 0x88B DUP2 PUSH2 0xE14 JUMP JUMPDEST SWAP3 SWAP2 POP POP JUMP JUMPDEST PUSH1 0x0 DUP1 PUSH1 0x40 DUP4 DUP6 SUB SLT ISZERO PUSH2 0x8A4 JUMPI PUSH1 0x0 DUP1 REVERT JUMPDEST PUSH1 0x0 PUSH2 0x8B2 DUP6 DUP3 DUP7 ADD PUSH2 0x83D JUMP JUMPDEST SWAP3 POP POP PUSH1 0x20 DUP4 ADD CALLDATALOAD PUSH8 0xFFFFFFFFFFFFFFFF DUP2 GT ISZERO PUSH2 0x8CF JUMPI PUSH1 0x0 DUP1 REVERT JUMPDEST PUSH2 0x8DB DUP6 DUP3 DUP7 ADD PUSH2 0x852 JUMP JUMPDEST SWAP2 POP POP SWAP3 POP SWAP3 SWAP1 POP JUMP JUMPDEST PUSH1 0x0 PUSH1 0x20 DUP3 DUP5 SUB SLT ISZERO PUSH2 0x8F7 JUMPI PUSH1 0x0 DUP1 REVERT JUMPDEST PUSH1 0x0 PUSH2 0x905 DUP5 DUP3 DUP6 ADD PUSH2 0x87C JUMP JUMPDEST SWAP2 POP POP SWAP3 SWAP2 POP POP JUMP JUMPDEST PUSH1 0x0 PUSH2 0x91A DUP4 DUP4 PUSH2 0xA67 JUMP JUMPDEST SWAP1 POP SWAP3 SWAP2 POP POP JUMP JUMPDEST PUSH2 0x92B DUP2 PUSH2 0xCAF JUMP JUMPDEST DUP3 MSTORE POP POP JUMP JUMPDEST PUSH2 0x93A DUP2 PUSH2 0xCAF JUMP JUMPDEST DUP3 MSTORE POP POP JUMP JUMPDEST PUSH1 0x0 PUSH2 0x94B DUP3 PUSH2 0xC25 JUMP JUMPDEST PUSH2 0x955 DUP2 DUP6 PUSH2 0xC48 JUMP JUMPDEST SWAP4 POP DUP4 PUSH1 0x20 DUP3 MUL DUP6 ADD PUSH2 0x967 DUP6 PUSH2 0xC15 JUMP JUMPDEST DUP1 PUSH1 0x0 JUMPDEST DUP6 DUP2 LT ISZERO PUSH2 0x9A3 JUMPI DUP5 DUP5 SUB DUP10 MSTORE DUP2 MLOAD PUSH2 0x984 DUP6 DUP3 PUSH2 0x90E JUMP JUMPDEST SWAP5 POP PUSH2 0x98F DUP4 PUSH2 0xC3B JUMP JUMPDEST SWAP3 POP PUSH1 0x20 DUP11 ADD SWAP10 POP POP PUSH1 0x1 DUP2 ADD SWAP1 POP PUSH2 0x96B JUMP JUMPDEST POP DUP3 SWAP8 POP DUP8 SWAP6 POP POP POP POP POP POP SWAP3 SWAP2 POP POP JUMP JUMPDEST PUSH1 0x0 PUSH2 0x9C0 DUP3 PUSH2 0xC30 JUMP JUMPDEST PUSH2 0x9CA DUP2 DUP6 PUSH2 0xC59 JUMP JUMPDEST SWAP4 POP PUSH2 0x9DA DUP2 DUP6 PUSH1 0x20 DUP7 ADD PUSH2 0xCFA JUMP JUMPDEST PUSH2 0x9E3 DUP2 PUSH2 0xDEC JUMP JUMPDEST DUP5 ADD SWAP2 POP POP SWAP3 SWAP2 POP POP JUMP JUMPDEST PUSH1 0x0 PUSH2 0x9F9 DUP3 PUSH2 0xC30 JUMP JUMPDEST PUSH2 0xA03 DUP2 DUP6 PUSH2 0xC6A JUMP JUMPDEST SWAP4 POP PUSH2 0xA13 DUP2 DUP6 PUSH1 0x20 DUP7 ADD PUSH2 0xCFA JUMP JUMPDEST PUSH2 0xA1C DUP2 PUSH2 0xDEC JUMP JUMPDEST DUP5 ADD SWAP2 POP POP SWAP3 SWAP2 POP POP JUMP JUMPDEST PUSH1 0x0 PUSH2 0xA34 PUSH1 0x1B DUP4 PUSH2 0xC6A JUMP JUMPDEST SWAP2 POP PUSH32 0x507265736372697074696F6E20646F6573206E6F742065786973740000000000 PUSH1 0x0 DUP4 ADD MSTORE PUSH1 0x20 DUP3 ADD SWAP1 POP SWAP2 SWAP1 POP JUMP JUMPDEST PUSH1 0x0 PUSH1 0x80 DUP4 ADD PUSH1 0x0 DUP4 ADD MLOAD PUSH2 0xA7F PUSH1 0x0 DUP7 ADD DUP3 PUSH2 0x922 JUMP JUMPDEST POP PUSH1 0x20 DUP4 ADD MLOAD PUSH2 0xA92 PUSH1 0x20 DUP7 ADD DUP3 PUSH2 0x922 JUMP JUMPDEST POP PUSH1 0x40 DUP4 ADD MLOAD DUP5 DUP3 SUB PUSH1 0x40 DUP7 ADD MSTORE PUSH2 0xAAA DUP3 DUP3 PUSH2 0x9B5 JUMP JUMPDEST SWAP2 POP POP PUSH1 0x60 DUP4 ADD MLOAD PUSH2 0xABF PUSH1 0x60 DUP7 ADD DUP3 PUSH2 0xACA JUMP JUMPDEST POP DUP1 SWAP2 POP POP SWAP3 SWAP2 POP POP JUMP JUMPDEST PUSH2 0xAD3 DUP2 PUSH2 0xCE1 JUMP JUMPDEST DUP3 MSTORE POP POP JUMP JUMPDEST PUSH2 0xAE2 DUP2 PUSH2 0xCE1 JUMP JUMPDEST DUP3 MSTORE POP POP JUMP JUMPDEST PUSH1 0x0 PUSH1 0x80 DUP3 ADD SWAP1 POP PUSH2 0xAFD PUSH1 0x0 DUP4 ADD DUP8 PUSH2 0x931 JUMP JUMPDEST PUSH2 0xB0A PUSH1 0x20 DUP4 ADD DUP7 PUSH2 0x931 JUMP JUMPDEST DUP2 DUP2 SUB PUSH1 0x40 DUP4 ADD MSTORE PUSH2 0xB1C DUP2 DUP6 PUSH2 0x9EE JUMP JUMPDEST SWAP1 POP PUSH2 0xB2B PUSH1 0x60 DUP4 ADD DUP5 PUSH2 0xAD9 JUMP JUMPDEST SWAP6 SWAP5 POP POP POP POP POP JUMP JUMPDEST PUSH1 0x0 PUSH1 0x20 DUP3 ADD SWAP1 POP DUP2 DUP2 SUB PUSH1 0x0 DUP4 ADD MSTORE PUSH2 0xB4E DUP2 DUP5 PUSH2 0x940 JUMP JUMPDEST SWAP1 POP SWAP3 SWAP2 POP POP JUMP JUMPDEST PUSH1 0x0 PUSH1 0x20 DUP3 ADD SWAP1 POP DUP2 DUP2 SUB PUSH1 0x0 DUP4 ADD MSTORE PUSH2 0xB6F DUP2 PUSH2 0xA27 JUMP JUMPDEST SWAP1 POP SWAP2 SWAP1 POP JUMP JUMPDEST PUSH1 0x0 PUSH1 0x60 DUP3 ADD SWAP1 POP PUSH2 0xB8B PUSH1 0x0 DUP4 ADD DUP7 PUSH2 0xAD9 JUMP JUMPDEST DUP2 DUP2 SUB PUSH1 0x20 DUP4 ADD MSTORE PUSH2 0xB9D DUP2 DUP6 PUSH2 0x9EE JUMP JUMPDEST SWAP1 POP PUSH2 0xBAC PUSH1 0x40 DUP4 ADD DUP5 PUSH2 0xAD9 JUMP JUMPDEST SWAP5 SWAP4 POP POP POP POP JUMP JUMPDEST PUSH1 0x0 PUSH1 0x40 MLOAD SWAP1 POP DUP2 DUP2 ADD DUP2 DUP2 LT PUSH8 0xFFFFFFFFFFFFFFFF DUP3 GT OR ISZERO PUSH2 0xBDB JUMPI PUSH2 0xBDA PUSH2 0xDBD JUMP JUMPDEST JUMPDEST DUP1 PUSH1 0x40 MSTORE POP SWAP2 SWAP1 POP JUMP JUMPDEST PUSH1 0x0 PUSH8 0xFFFFFFFFFFFFFFFF DUP3 GT ISZERO PUSH2 0xC00 JUMPI PUSH2 0xBFF PUSH2 0xDBD JUMP JUMPDEST JUMPDEST PUSH1 0x1F NOT PUSH1 0x1F DUP4 ADD AND SWAP1 POP PUSH1 0x20 DUP2 ADD SWAP1 POP SWAP2 SWAP1 POP JUMP JUMPDEST PUSH1 0x0 DUP2 SWAP1 POP PUSH1 0x20 DUP3 ADD SWAP1 POP SWAP2 SWAP1 POP JUMP JUMPDEST PUSH1 0x0 DUP2 MLOAD SWAP1 POP SWAP2 SWAP1 POP JUMP JUMPDEST PUSH1 0x0 DUP2 MLOAD SWAP1 POP SWAP2 SWAP1 POP JUMP JUMPDEST PUSH1 0x0 PUSH1 0x20 DUP3 ADD SWAP1 POP SWAP2 SWAP1 POP JUMP JUMPDEST PUSH1 0x0 DUP3 DUP3 MSTORE PUSH1 0x20 DUP3 ADD SWAP1 POP SWAP3 SWAP2 POP POP JUMP JUMPDEST PUSH1 0x0 DUP3 DUP3 MSTORE PUSH1 0x20 DUP3 ADD SWAP1 POP SWAP3 SWAP2 POP POP JUMP JUMPDEST PUSH1 0x0 DUP3 DUP3 MSTORE PUSH1 0x20 DUP3 ADD SWAP1 POP SWAP3 SWAP2 POP POP JUMP JUMPDEST PUSH1 0x0 PUSH2 0xC86 DUP3 PUSH2 0xCE1 JUMP JUMPDEST SWAP2 POP PUSH2 0xC91 DUP4 PUSH2 0xCE1 JUMP JUMPDEST SWAP3 POP DUP3 DUP3 LT ISZERO PUSH2 0xCA4 JUMPI PUSH2 0xCA3 PUSH2 0xD5F JUMP JUMPDEST JUMPDEST DUP3 DUP3 SUB SWAP1 POP SWAP3 SWAP2 POP POP JUMP JUMPDEST PUSH1 0x0 PUSH2 0xCBA DUP3 PUSH2 0xCC1 JUMP JUMPDEST SWAP1 POP SWAP2 SWAP1 POP JUMP JUMPDEST PUSH1 0x0 PUSH20 0xFFFFFFFFFFFFFFFFFFFFFFFFFFFFFFFFFFFFFFFF DUP3 AND SWAP1 POP SWAP2 SWAP1 POP JUMP JUMPDEST PUSH1 0x0 DUP2 SWAP1 POP SWAP2 SWAP1 POP JUMP JUMPDEST DUP3 DUP2 DUP4 CALLDATACOPY PUSH1 0x0 DUP4 DUP4 ADD MSTORE POP POP POP JUMP JUMPDEST PUSH1 0x0 JUMPDEST DUP4 DUP2 LT ISZERO PUSH2 0xD18 JUMPI DUP1 DUP3 ADD MLOAD DUP2 DUP5 ADD MSTORE PUSH1 0x20 DUP2 ADD SWAP1 POP PUSH2 0xCFD JUMP JUMPDEST DUP4 DUP2 GT ISZERO PUSH2 0xD27 JUMPI PUSH1 0x0 DUP5 DUP5 ADD MSTORE JUMPDEST POP POP POP POP JUMP JUMPDEST PUSH1 0x0 PUSH1 0x2 DUP3 DIV SWAP1 POP PUSH1 0x1 DUP3 AND DUP1 PUSH2 0xD45 JUMPI PUSH1 0x7F DUP3 AND SWAP2 POP JUMPDEST PUSH1 0x20 DUP3 LT DUP2 EQ ISZERO PUSH2 0xD59 JUMPI PUSH2 0xD58 PUSH2 0xD8E JUMP JUMPDEST JUMPDEST POP SWAP2 SWAP1 POP JUMP JUMPDEST PUSH32 0x4E487B7100000000000000000000000000000000000000000000000000000000 PUSH1 0x0 MSTORE PUSH1 0x11 PUSH1 0x4 MSTORE PUSH1 0x24 PUSH1 0x0 REVERT JUMPDEST PUSH32 0x4E487B7100000000000000000000000000000000000000000000000000000000 PUSH1 0x0 MSTORE PUSH1 0x22 PUSH1 0x4 MSTORE PUSH1 0x24 PUSH1 0x0 REVERT JUMPDEST PUSH32 0x4E487B7100000000000000000000000000000000000000000000000000000000 PUSH1 0x0 MSTORE PUSH1 0x41 PUSH1 0x4 MSTORE PUSH1 0x24 PUSH1 0x0 REVERT JUMPDEST PUSH1 0x0 PUSH1 0x1F NOT PUSH1 0x1F DUP4 ADD AND SWAP1 POP SWAP2 SWAP1 POP JUMP JUMPDEST PUSH2 0xE06 DUP2 PUSH2 0xCAF JUMP JUMPDEST DUP2 EQ PUSH2 0xE11 JUMPI PUSH1 0x0 DUP1 REVERT JUMPDEST POP JUMP JUMPDEST PUSH2 0xE1D DUP2 PUSH2 0xCE1 JUMP JUMPDEST DUP2 EQ PUSH2 0xE28 JUMPI PUSH1 0x0 DUP1 REVERT JUMPDEST POP JUMP INVALID LOG2 PUSH5 0x6970667358 0x22 SLT KECCAK256 0xDD 0xE4 0xCE 0xEE PUSH1 0x52 0xD1 EXP TIMESTAMP PUSH31 0xDF93BC654133FB133B4C0F10D320993C513B806E787464736F6C6343000800 STOP CALLER "
				},
				"gasEstimates": {
					"creation": {
						"codeDepositCost": "736200",
						"executionCost": "773",
						"totalCost": "736973"
					},
					"external": {
						"createPrescription(address,string)": "infinite",
						"getAllPrescriptions()": "infinite",
						"getPrescription(uint256)": "infinite",
						"prescriptions(uint256)": "infinite"
					}
				},
				"methodIdentifiers": {
					"createPrescription(address,string)": "8a49b9cb",
					"getAllPrescriptions()": "0163e4f8",
					"getPrescription(uint256)": "6f16af10",
					"prescriptions(uint256)": "31dfc91b"
				}
			},
			"storageLayout": {
				"storage": [
					{
						"astId": 14,
						"contract": "PrescriptionManager.sol:PrescriptionManager",
						"label": "prescriptions",
						"offset": 0,
						"slot": "0",
						"type": "t_array(t_struct(Prescription)10_storage)dyn_storage"
					}
				],
				"types": {
					"t_address": {
						"encoding": "inplace",
						"label": "address",
						"numberOfBytes": "20"
					},
					"t_array(t_struct(Prescription)10_storage)dyn_storage": {
						"base": "t_struct(Prescription)10_storage",
						"encoding": "dynamic_array",
						"label": "struct PrescriptionManager.Prescription[]",
						"numberOfBytes": "32"
					},
					"t_string_storage": {
						"encoding": "bytes",
						"label": "string",
						"numberOfBytes": "32"
					},
					"t_struct(Prescription)10_storage": {
						"encoding": "inplace",
						"label": "struct PrescriptionManager.Prescription",
						"members": [
							{
								"astId": 3,
								"contract": "PrescriptionManager.sol:PrescriptionManager",
								"label": "patient",
								"offset": 0,
								"slot": "0",
								"type": "t_address"
							},
							{
								"astId": 5,
								"contract": "PrescriptionManager.sol:PrescriptionManager",
								"label": "doctor",
								"offset": 0,
								"slot": "1",
								"type": "t_address"
							},
							{
								"astId": 7,
								"contract": "PrescriptionManager.sol:PrescriptionManager",
								"label": "details",
								"offset": 0,
								"slot": "2",
								"type": "t_string_storage"
							},
							{
								"astId": 9,
								"contract": "PrescriptionManager.sol:PrescriptionManager",
								"label": "timestamp",
								"offset": 0,
								"slot": "3",
								"type": "t_uint256"
							}
						],
						"numberOfBytes": "128"
					},
					"t_uint256": {
						"encoding": "inplace",
						"label": "uint256",
						"numberOfBytes": "32"
					}
				}
			},
			"userdoc": {
				"kind": "user",
				"methods": {},
				"version": 1
			}
		}
	}
}